:100000000C9491000C94B9000C94B9000C94360433
:100010000C9436040C9436040C94B9000C94B9007A
:100020000C94B9000C94B9000C94B9000C94B9006C
:100030000C94B9000C94C6040C94B9000C94B9004B
:100040000C9440090C94B9000C9404040C94DE0345
:100050000C94B9000C94B9000C94B9000C94B9003C
:100060000C94B9000C94B9005B075F07660755074D
:10007000660757076307730766076607660766071D
:1000800066076607660766076A0766076607660704
:1000900066076607646F6E652E00556E61626C655B
:1000A00020746F20636F6E6E65637400496E6974AF
:1000B00069616C697A696E67204446506C61796544
:1000C000722E0000000000240027002A000000001B
:1000D0000800020100000304070000000000000007
:1000E0000000000000250028002B00000000002375
:1000F000002600290004040404040404040202028B
:100100000202020303030303030102040810204058
:1001100080010204081020010204081020001411BC
:100120000A1111241FBECFEFD8E0DEBFCDBF12E011
:10013000A0E0B1E0E8EFF8E202C005900D92A23D28
:10014000B107D9F725E0A2EDB2E001C01D92AF33AF
:10015000B207E1F710E0C0E9D0E004C02197FE014A
:100160000E946214CF38D107C9F70E94CF090C94BE
:100170006F140C940000CF92DF92EF92FF920F93D6
:100180001F93CF93DF936C017A018B01C0E0D0E025
:10019000CE15DF0589F0D8016D918D01D601ED9165
:1001A000FC910190F081E02DC6010995892B11F495
:1001B0007E0102C02196ECCFC701DF91CF911F9144
:1001C0000F91FF90EF90DF90CF900895FC01538D39
:1001D000448D252F30E0842F90E0821B930B541721
:1001E00010F0CF96089501970895FC01918D828DAE
:1001F000981761F0828DDF01A80FB11D5D968C917B
:10020000928D9F5F9F73928F90E008958FEF9FEF85
:100210000895FC01918D828D981731F0828DE80F41
:10022000F11D858D90E008958FEF9FEF0895FC01FB
:10023000918D228D892F90E0805C9F4F821B9109C8
:100240008F73992708958CE394E00E94170121E0B1
:10025000892B09F420E0822F0895FC01848DDF01B1
:10026000A80FB11DA35ABF4F2C91848D90E0019629
:100270008F739927848FA689B7892C93A089B18918
:100280008C9180648C93938D848D981306C0028822
:10029000F389E02D80818F7D80830895EF92FF9216
:1002A0000F931F93CF93DF93EC0181E0888F9B8D99
:1002B0008C8D981305C0E889F989808185FD24C05B
:1002C000F62E0B8D10E00F5F1F4F0F731127E02EDE
:1002D0008C8DE8120CC00FB607FCFACFE889F989BB
:1002E000808185FFF5CFCE010E942D01F1CF8B8D4E
:1002F000FE01E80FF11DE35AFF4FF0820B8FEA89F0
:10030000FB898081806207C0EE89FF896083E8896C
:10031000F98980818064808381E090E0DF91CF91D2
:100320001F910F91FF90EF900895CF93DF93EC0111
:10033000888D8823C9F0EA89FB89808185FD05C005
:10034000A889B9898C9186FD0FC00FB607FCF5CF3F
:10035000808185FFF2CFA889B9898C9185FFEDCF87
:10036000CE010E942D01E7CFDF91CF91089580E06B
:1003700090E0892B29F00E94230181110C94000048
:1003800008952091D4023091D5022817390771F4CD
:100390009091D2028091D302981741F0E091D2025D
:1003A000F0E0E850FC4F808190E008958FEF9FEFE0
:1003B000089508951F93CF93DF93DC015C962D91F0
:1003C0003C915D972115310539F481E090E0139659
:1003D0009C938E9312973DC05196ED91FC9152974C
:1003E00050969C915097892F80951FB75E964C919F
:1003F0005E9741FB772770F941FD6095F894408145
:10040000772311F0492B01C048234083E90121974C
:10041000F1F748E0508160FF02C0592B01C058231A
:100420005083E9012197F1F76695415099F77723B9
:1004300021F090818923808303C08081982B908351
:100440001FBF5C968D919C915D970197F1F721E01C
:1004500030E0C901DF91CF911F9108952091D4021E
:100460003091D5022817390771F48091D302209179
:10047000D20290E0805C9F4F821B910960E470E0A3
:100480000E944E14089580E090E008952091D402D7
:100490003091D50228173907B9F49091D202809192
:1004A000D302981789F0E091D202F0E0E850FC4FB7
:1004B00080812091D20230E02F5F3F4F2F7333278E
:1004C0002093D20290E008958FEF9FEF0895089552
:1004D00080E090E008950F931F93CF93DF93EC019A
:1004E0008A81882321F061E088810E943A0860E0D7
:1004F00088810E94EE0783E090E00197F1F761E0C8
:1005000088810E94EE0783E290E00197F1F760E0B6
:1005100088810E94EE078A81882321F060E088812B
:100520000E943A08298130E0F901E75FFE4F6491AB
:10053000F901EB50FF4FE491F0E0EE0FFF1FE551A2
:10054000FF4F859194910B811C812D813E813F70DD
:10055000462F0E948A09611571058105910539F0C0
:10056000DC01CB010196A11DB11DBF7003C080E06D
:1005700090E0DC01DF91CF911F910F9108950F93CF
:100580001F93CF93DF93C091F503D091F60321968B
:10059000D093F603C093F50380910603909107036F
:1005A000A0910803B09109030196A11DB11D80938C
:1005B000060390930703A0930803B093090321E077
:1005C00020931D03CE0163E070E00E943A14892B52
:1005D00011F420931C0380910C0390910D03039759
:1005E00051F081E080931B039E0123703327232B5E
:1005F00011F480931A03C0FD05C081E080931903B4
:1006000080931803CE016AE070E00E943A14892BAF
:1006100019F481E080931603CE0168EC70E00E942B
:100620003A14892BF1F0CE0160EA7FE00E943A147F
:10063000892B09F04DC081E08093170387EC92E08D
:100640000E9443061092180310921B031092160387
:1006500010921D0310921A031092190310921E0398
:1006600037C020915203243110F42F5F01C020E0E5
:100670002093520330E0F901EE0FFF1FED5AFC4FBB
:1006800080910E0390910F0391838083F901EE0F07
:10069000FF1FE558FC4F8091100390911103918347
:1006A0008083F901EE0FFF1FED55FC4F809112037F
:1006B0009091130391838083220F331FF901E55337
:1006C000FC4F809114039091150391838083ABCFED
:1006D0008091060390910703A0910803B09109034C
:1006E00080399140A105B1057CF480910A03909175
:1006F0000B03039749F48091E0029091E102039784
:1007000019F081E080931E038091F5039091F60328
:1007100060EC72E10E943A14892B09F04AC0C8EDDE
:10072000D2E0E3E5F3E004E110E080E090E020E0D7
:1007300030E0DF01A80FB91F4D915C91240F351FE8
:10074000029688329105A9F7C901B8010E944E149A
:1007500069937993B89683E0E33FF80731F73093D4
:10076000F4032093F30386E192E00E944306809114
:10077000D8029091D9020E94BB0682EC92E00E94BE
:1007800051068091DA029091DB020E94BB0682EC56
:1007900092E00E9451068091DC029091DD020E945D
:1007A000BB0682EC92E0DF91CF911F910F910C94E8
:1007B0005106DF91CF911F910F9108951F920F92D3
:1007C0000FB60F9211242F933F934F935F936F9324
:1007D0007F938F939F93AF93BF93EF93FF938CE39C
:1007E00094E00E942D01FF91EF91BF91AF919F91F5
:1007F0008F917F916F915F914F913F912F910F90CA
:100800000FBE0F901F9018951F920F920FB60F9268
:1008100011242F938F939F93EF93FF93E0914C04B8
:10082000F0914D048081E0915204F091530482FDD7
:1008300012C09081809155048F5F8F732091560470
:10084000821751F0E0915504F0E0E45CFB4F958F86
:100850008093550401C08081FF91EF919F918F910A
:100860002F910F900FBE0F901F9018951F920F920F
:100870000FB60F9211242F933F934F935F936F9373
:100880007F938F939F93AF93BF93EF93FF93E091E9
:10089000D402F091D502309709F451C0968DA68507
:1008A000B785858591FF04C09C91892329F447C0B1
:1008B0009C91892309F043C0A389B4899C918589BF
:1008C000809589238C93868997890197F1F7608DAC
:1008D000718DA685B785558538E020E0CB0101975D
:1008E000F1F7822F90E095958795282F4C9145231D
:1008F00009F02068315091F7868D81FD2095809117
:10090000D30290E001968F7399273091D202381765
:1009100049F0A091D302B0E0A850BC4F2C93809333
:10092000D30203C0868D8160868F828D938D01975F
:10093000F1F7A389B4899C918589892B8C93FF91C8
:10094000EF91BF91AF919F918F917F916F915F9147
:100950004F913F912F910F900FBE0F901F901895C0
:10096000E091D402F091D502E817F90769F4A38960
:10097000B4899C918589809589238C931092D502A6
:100980001092D40281E0089580E008951F920F92A2
:100990000FB60F9211242F933F934F935F936F9352
:1009A0007F938F939F93AF93BF93EF93FF93E091C8
:1009B000D602F091D7020995FF91EF91BF91AF91C7
:1009C0009F918F917F916F915F914F913F912F9167
:1009D0000F900FBE0F901F9018958F929F92AF921D
:1009E000BF92CF92DF92EF92FF920F931F93CF931C
:1009F000DF93609106037091070380910803909143
:100A000009030091FC021091FD02012E000C220B43
:100A1000330BC0900003D0900103E0900203F090EC
:100A200003030C0D1D1D2E1D3F1D6017710782074E
:100A300093070CF050C00091FE021091FF02C0918C
:100A4000FA02D091FB026801CC0EDD1E0D2C000CC9
:100A5000EE08FF086C157D058E059F059CF50E942C
:100A60001D136B017C01B801110F880B990B0E94BB
:100A70001D134B015C01BE01DD0F880B990B0E9419
:100A80001D13209104013091050140910601509100
:100A900007010E94CD139B01AC01C501B4010E9466
:100AA000AA129B01AC01C701B6010E94161318BC23
:100AB00087FF05C08FEF8093B40087BD03C01092FD
:100AC000B40017BC80910603909107039093FF0236
:100AD0008093FE0206C082E090E09093050380932D
:100AE0000403DF91CF911F910F91FF90EF90DF9062
:100AF000CF90BF90AF909F908F9008950F931F93CA
:100B0000CF93DF93EC01EEE0F3E0A8EDB2E020E953
:100B100031E080E0419151910D911D9140175107B5
:100B200044F44C175D072CF4421753070CF49A0158
:100B300081E093E0E631F90769F7309309012093EA
:100B400008016130710541F06230710549F430935C
:100B500001012093000104C030930301209302019E
:100B6000DF91CF911F910F910895CF93DF93E09183
:100B7000F703E23018F4C1E0CE0F01C0C0E0C0932B
:100B8000F7038BEF9CE70197F1F78CE295E00E9469
:100B90006B02EC2FF0E0EE0FFF1FE851FD4F6CE110
:100BA00070E00E943A147695679571836083C091D6
:100BB000F703D0E0FE01EE0FFF1FE851FD4F8081EB
:100BC0009181892B21F481E991E0918380838BE5E8
:100BD0009AEE0197F1F783E395E00E946B02CC0F48
:100BE000DD1FCE51DD4F6CE170E00E943A14769526
:100BF000679579836883C091F703D0E0FE01EE0F1B
:100C0000FF1FEE51FD4F80819181892B21F481E9F5
:100C100091E0918380838BEB9AED0197F1F785E268
:100C200095E00E946B02CC0FDD1FC251DD4F6CE1DD
:100C300070E00E943A147695679579836883E09115
:100C4000F703F0E0EE0FFF1FE251FD4F808191812D
:100C5000892B21F481E991E091838083DF91CF9109
:100C60000895009769F0FC0101900020E9F73197A1
:100C7000AF01481B590BBC018CE394E00C94BB0002
:100C800080E090E00895CF93DF930E943106EC015D
:100C900084EC92E00E9431068C0F9D1FDF91CF9172
:100CA00008950C9431068F929F92AF92BF920F934A
:100CB0001F93CF93DF93CDB7DEB7A1970FB6F8940C
:100CC000DEBF0FBECDBF19A2423008F44AE08E014C
:100CD0000F5D1F4F842E912CA12CB12CA5019401E6
:100CE0000E947812E62FB901CA0101501109EA30B9
:100CF00014F4E05D01C0E95CD801EC93232B242BB4
:100D0000252B61F7C8010E943106A1960FB6F89411
:100D1000DEBF0FBECDBFDF91CF911F910F91BF906E
:100D2000AF909F908F900895CF92DF92EF92FF92B5
:100D3000CF93DF936B017C01E0913C04F0913D0483
:100D40000190F081E02D6DE28CE394E00995EC01D7
:100D500066277727CB016C197D098E099F094AE028
:100D60000E9453068C0F9D1FDF91CF91FF90EF9053
:100D7000DF90CF900895BC01990F880B990B97FDD8
:100D80000C9494064AE00C945306CF93DF93809121
:100D9000F8049091F904DC01ED91FC910084F18557
:100DA000E02D0995892B09F4B7C0C09116058091F3
:100DB000F8049091F904DC01ED91FC910284F38533
:100DC000E02DC1110DC00995809302058E37F9F60B
:100DD00010921C05809116058F5F80931605D7CF62
:100DE0000995EC2FF0E0E850FB4F828790911605B3
:100DF0009230A9F09930C9F0913009F089C0809102
:100E000003058F3F09F484C01092160590931805CE
:100E100010921B0510921A0590931C05B3C0809187
:100E20000405863009F474C004C080910B058F3E20
:100E300019F01092160564C0E3E0F5E040E050E0E0
:100E40008191480F511DB5E0E930FB07C9F72091AA
:100E5000090530E0322F22275195419551098091A3
:100E60000A05280F311D109216054217530709F085
:100E700047C0E0910505E09319058091070590E0D2
:100E8000982F882720910805820F911D90931B05AC
:100E900080931A054E2F50E0FA01FA97E631F105DA
:100EA000C8F4EC5CFF4F0C94621485E00DC081FF28
:100EB0001CC084E009C081FF18C082E005C081FF2A
:100EC00014C083E001C086E08093180581E0809320
:100ED0001C050BC081E08093180510921B05109231
:100EE0001A0580931C0510921D05D0911C05DD2369
:100EF00009F44AC080911005882309F443C044C016
:100F000081E08093180510921B0510921A0538C0D5
:100F10009F5F909316053BCF80911D05882321F19B
:100F20002FB7F8948091380490913904A0913A0435
:100F3000B0913B042FBF4091FA045091FB046091A3
:100F4000FC047091FD04841B950BA60BB70B40911C
:100F5000FE045091FF046091000570910105841713
:100F60009507A607B70718F4D0911C050DC010927D
:100F700016051092180510921B0510921A0581E0B3
:100F800080931C0510921D058D2FDF91CF91089540
:100F90000F931F93CF93DF938C01C0E0D0E0F80153
:100FA000EC0FFD1F6491662371F0E0913C04F09119
:100FB0003D040190F081E02D8CE394E00995892BAC
:100FC00011F02196ECCF84EC92E00E9431068C0F58
:100FD0009D1FDF91CF911F910F91089590E0FC012B
:100FE000E353FF4F3491FC01E75FFE4F2491FC0176
:100FF000EB50FF4FE491EE2309F43BC0332339F16A
:10100000333091F038F43130A9F0323001F584B545
:101010008F7D12C0373091F03830A1F03430B9F400
:10102000809180008F7D03C0809180008F778093B6
:1010300080000DC084B58F7784BD09C08091B00059
:101040008F7703C08091B0008F7D8093B000F0E077
:10105000EE0FFF1FEF51FF4FA591B4918FB7F8949A
:10106000EC91611103C020952E2301C02E2B2C93EF
:101070008FBF0895CF93DF9390E0FC01E75FFE4FB1
:101080002491FC01EB50FF4F8491882361F190E0A3
:10109000880F991FFC01ED53FF4FC591D491FC01BE
:1010A000EF51FF4FA591B491611109C09FB7F8941A
:1010B0008881209582238883EC912E230BC0623097
:1010C00061F49FB7F8943881822F809583238883B9
:1010D000EC912E2B2C939FBF06C08FB7F894E8811C
:1010E0002E2B28838FBFDF91CF9108958E3008F08B
:1010F0008E508770806480937C0080917A00806439
:1011000080937A0080917A0086FDFCCF80917800F0
:101110002091790090E0922B08958F929F92AF9248
:10112000BF92CF92DF92EF92FF926B017C010E94FF
:101130001B094B015C01C114D104E104F104F1F07D
:101140000E941B09DC01CB0188199909AA09BB0976
:10115000883E9340A105B10570F321E0C21AD10881
:10116000E108F10888EE880E83E0981EA11CB11CEE
:10117000C114D104E104F10419F7DDCFFF90EF9021
:10118000DF90CF90BF90AF909F908F900895809305
:101190000F057093110560931205EDE0F5E080E016
:1011A00090E02191820F911D25E0E331F207C9F70C
:1011B00091958195910990931305809314058091E1
:1011C0001005882339F080911D05882349F00E947D
:1011D000C506F9CF6AE070E080E090E00E948D08DB
:1011E0008091F8049091F904DC01ED91FC9102806A
:1011F000F381E02D4AE050E06CE075E009952FB7EF
:10120000F8948091380490913904A0913A04B091F7
:101210003B042FBF8093FA049093FB04A093FC043B
:10122000B093FD0481E090911005911101C080E020
:1012300080931D0508953FB7F89480913B059091E8
:101240003C05A0913D05B0913E0526B5A89B05C083
:101250002F3F19F00196A11DB11D3FBFBA2FA92F35
:10126000982F8827820F911DA11DB11DBC01CD01B2
:1012700042E0660F771F881F991F4A95D1F708959E
:101280001F920F920FB60F9211242F933F938F93BB
:101290009F93AF93BF938091380490913904A091AC
:1012A0003A04B0913B0430913A0523E0230F2D37E7
:1012B00020F40196A11DB11D05C026E8230F02965A
:1012C000A11DB11D20933A058093380490933904F1
:1012D000A0933A04B0933B0480913B0590913C0568
:1012E000A0913D05B0913E050196A11DB11D8093D1
:1012F0003B0590933C05A0933D05B0933E05BF91FF
:10130000AF919F918F913F912F910F900FBE0F90B2
:101310001F901895CF92DF92EF92FF920F931F9339
:10132000E82FF92F05C0015011092109310961F198
:10133000908196239417B9F305C001501109210932
:10134000310911F1908196239413F7CFC12CD12C40
:10135000E12CF12C0AC08FEFC81AD80AE80AF80A63
:101360000C151D052E053F0579F080818623841715
:1013700091F36C2D7D2D8E2D9F2D1F910F91FF9040
:10138000EF90DF90CF90089560E070E080E090E013
:101390001F910F91FF90EF90DF90CF900895789478
:1013A00084B5826084BD84B5816084BD85B582606A
:1013B00085BD85B5816085BD80916E00816080931B
:1013C0006E00109281008091810082608093810084
:1013D0008091810081608093810080918000816094
:1013E000809380008091B10084608093B1008091EF
:1013F000B00081608093B00080917A008460809317
:101400007A0080917A00826080937A0080917A00DD
:10141000816080937A0080917A00806880937A005E
:101420001092C100E0914C04F0914D04D2E0D083C1
:10143000E0914804F09149041082E0914A04F0914F
:101440004B0488E0808310925404E0915004F091A2
:10145000510486E08083E0914E04F0914F04808136
:1014600080618083E0914E04F0914F048081886018
:101470008083E0914E04F0914F04808180688083E6
:10148000E0914E04F0914F0480818F7D808380EE47
:1014900091E00E94430661E085E00E943A0861E025
:1014A00086E00E943A0861E083E00E943A0861E029
:1014B00081E10E943A0861E082E10E943A0861E01D
:1014C00088E00E943A0860E088E00E94EE0761E050
:1014D00081E10E94EE0761E082E10E94EE0781EA6D
:1014E00084BDC1E0C5BD81E28093B000C093B1006E
:1014F00080E18093810010928000D093210380E5E9
:1015000093EC9093200380931F0390938700809324
:10151000860082E18093810064E670E080E090E0E4
:101520000E948D088FEB92E09093D7028093D602B1
:10153000C0936F008FEE91E00E9443061092F40476
:101540001092F3041092F2041092F1041092F0043D
:101550001092EF048DE991E09093F6048093F504E6
:101560009091E504963108F057C02DEB30E03093B0
:10157000F0042093EF042BE931E03093F204209340
:10158000F1042CE231E03093F4042093F304209131
:101590006800983050F031E09E3008F430E081E08F
:1015A00001C0880F3A95EAF701C084E0822B80934E
:1015B0006800983038F09E3040F0963148F020E0D6
:1015C00030E008C02DE630E005C02BE630E002C078
:1015D0002CE630E03093ED042093EC04983030F4A6
:1015E00081E001C0880F9A95EAF70EC0292F30E0FC
:1015F0009E3018F42850310902C02E50310981E084
:1016000001C0880F2A95EAF78093EE048091F504D3
:101610009091F6040197F1F78091F3049091F4040E
:10162000892B21F18091D4029091D50224E0893D4B
:101630009207E1F0009711F00E94B0048091F70446
:101640008E7F8093F7041092D3021092D20289ED1C
:1016500094E09093D5028093D402E091EC04F09151
:10166000ED0490818091EE04892B80838CEA90E0D8
:101670000E94C80711E0C9EDD4E010931005D09383
:10168000F904C093F8048091FE049091FF04A091A6
:101690000005B09101058854944FAF4FBF4F809320
:1016A000FE049093FF04A0930005B093010560E051
:1016B00070E08CE00E94C70810931D050E94C506CB
:1016C0008823E1F38091FE049091FF04A09100052E
:1016D000B0910105885B9B40A109B1098093FE048C
:1016E0009093FF04A0930005B093010568EC70E0AF
:1016F00080E090E00E948D0810921C0580911805F2
:10170000843059F08AE990E00E94C80768EE73E0DF
:1017100080E090E00E948D08B0CF84E990E00E94C4
:10172000C80760E088E00E94EE076AE070E086E0AB
:101730000E94C70861E070E081E10E94C70861E093
:1017400081E10E94EE0760E082E10E94EE07412CF9
:1017500084E0582E612C712CC2E0D0E001E010E052
:1017600094E1292E312CC12CD12CE12C2FE3F22E27
:1017700039E0832E912CB0901E03BB2009F4BAC02F
:1017800060E070E08EE00E94C7088091E0029091D6
:10179000E1028130910551F104F5892B09F037C53B
:1017A00088EF91E00E94430661E08DE00E94EE0721
:1017B00060E081E10E94EE0761E082E10E94EE07B5
:1017C0008091060390910703909323038093220353
:1017D0001093E1020093E0021AC58230910539F1BD
:1017E000039709F014C510921E0311C580912203BE
:1017F000909123038C599F4F092E000CAA0BBB0B11
:10180000409106035091070360910803709109030A
:1018100084179507A607B7070CF0F9C48AE092E091
:101820000E944306D093E102C093E002F0C40E94FC
:10183000B5056BE3A62E6DE0B62EC5010197F1F755
:101840000E94B505C5010197F1F70E94B505809189
:101850000E0390910F039093D9028093D802809148
:101860001003909111039093DB028093DA02809130
:101870001203909113039093DD028093DC02809118
:101880001403909115039093DF028093DE0286E1AA
:1018900092E00E9443068091D8029091D9020E9462
:1018A000BB0682EC92E00E9451068091DA02909190
:1018B000DB020E94BB0682EC92E00E9451068091FE
:1018C000DC029091DD020E94BB0682EC92E00E9455
:1018D000510661E081E10E94EE0760E082E10E9432
:1018E000EE0743E050E05093E1024093E002109293
:1018F00030038DC480911D03882321F010921D03B5
:101900000E94B50580911C03811106C080911B03C4
:10191000882309F443C133C010921C03E2EEF2E0C5
:10192000AEE0B3E040815181828193812481358191
:10193000841795071CF02817390734F4821793078A
:101940006CF04817590724F011969C938E9310C0A1
:101950002417350734F4281739073CF0421753078A
:1019600024F011963C932E9303C011965C934E93F2
:101970003696129652E0EA3FF507A1F6C7CF1092CD
:101980001B0380910403909105038230910531F08F
:10199000049709F003C10E94ED0400C120912E03B9
:1019A00038B5822F90E0831B91091816190614F0A0
:1019B0008FEF01C081E08093280388B5281302C00F
:1019C0001092280320912D0337B5822F90E0831BBE
:1019D00091091816190614F08FEF01C081E0809369
:1019E000270387B5281302C01092270320912C03E8
:1019F0003091B400822F90E0831B910918161906CC
:101A000014F08FEF01C081E0809326038091B40031
:101A1000281302C010922603E0912803E11108C0A8
:101A200080912703811104C080912603882319F037
:101A300010922F030BC081E080932F038091060347
:101A400090910703909325038093240380912F03A3
:101A5000811171C08091290390912A030296092E69
:101A6000000CAA0BBB0B4091060350910703609139
:101A700008037091090384179507A607B7070CF0B0
:101A80008DC028B58E2F0E2E000C990BBC01620F55
:101A9000711D6F3F710509F04CF428B5820F911D3F
:101AA00097FD06C088B54E2F480F03C04FEF01C009
:101AB00040E048BD27B540912703842F042E000C39
:101AC000990BBC01620F711D6F3F710509F044F461
:101AD00027B5820F911D97FD05C087B5480F03C03C
:101AE0004FEF01C040E047BD2091B4004091260374
:101AF000842F042E000C990BBC01620F711D6F3FE7
:101B0000710509F054F42091B400820F911D97FDE6
:101B100006C08091B400480F03C04FEF01C040E001
:101B20004093B400809106039091070390932A0399
:101B30008093290333C080913003882339F01092B9
:101B40002E0310922D0310922C0328C087E292E0FE
:101B50000E94430680912B03863010F48F5F01C0F2
:101B600080E080932B0340913A0390E09C01220F88
:101B7000331FF901E80FF91F75E1479FE00DF11DD3
:101B80001124E65FFE4F808180932E038181809334
:101B90002D03828180932C0310922F0380911A03CE
:101BA000882309F47EC010921A038091500390910B
:101BB00051030097D1F0019709F046C080910201CE
:101BC0009091030144973CF430924B0320924A03D6
:101BD00010923A0339C080E190E090934B038093D8
:101BE0004A0385E080933A032FC080914E03909181
:101BF0004F03019749F580910001909101018C33C9
:101C000091053CF48BE090E090934B0380934A0362
:101C100007C090924B0380924A038035910514F4DB
:101C200086E001C087E080933A0380914A03909157
:101C30004B038B30910514F4019602C08BE090E0C9
:101C400090934B0380934A0360914C0370914D0332
:101C500080914A0390914B03681779071CF46F5FDA
:101C60007F4F05C08617970774F461507109709310
:101C70004D0360934C03772786E00E94C70860E01D
:101C800088E00E94EE0780914C0390914D03892BD0
:101C900041F481E392E00E94430661E088E00E9403
:101CA000EE0780911903882309F41AC110921903D1
:101CB000809150039091510381309105D1F0823091
:101CC0009105A1F1892B09F05FC061E070E088E225
:101CD00090E00E947E05882309F456C0D093050346
:101CE000C093040310923A0361E08DE00E94EE0776
:101CF00047C061E070E088E290E00E947E058111BB
:101D000043C0D0935103C093500380910603909138
:101D10000703A0910803B0910903809335039093C2
:101D20003603A0933703B09338032EC08091350358
:101D300090913603A0913703B091380388539F4F99
:101D4000AF4FBF4F409106035091070360910803C6
:101D50007091090384179507A607B7074CF460E054
:101D60008DE00E94EE0710925103109250030CC0B8
:101D700061E070E088E290E00E947E05882321F017
:101D8000109351030093500380914E0390914F03A1
:101D90008130910511F18230910509F442C0892BFF
:101DA00009F092C062E070E08AE590E00E947E0552
:101DB000882309F489C010934F0300934E0389E3ED
:101DC00092E00E94430660E088E00E94EE0760E037
:101DD00070E081E00E94C70877C0D0930503C093EC
:101DE000040382E080933A0362E070E08AE590E0C9
:101DF0000E947E05811168C0D0934F03C0934E03AB
:101E00008091060390910703A0910803B091090304
:101E10008093310390933203A0933303B093340340
:101E200053C08091310390913203A0913303B0915C
:101E3000340380579E4FAF4FBF4F409106035091E0
:101E40000703609108037091090384179507A6079B
:101E5000B7076CF460E070E08EE00E94C70886E58A
:101E600092E00E94430610924F0310924E0380911D
:101E7000310390913203A0913303B091340388531E
:101E80009F4FAF4FBF4F40910603509107036091A2
:101E900008037091090384179507A607B70724F470
:101EA00010924B0310924A0362E070E08AE590E0E2
:101EB0000E947E05882341F010934F0300934E0348
:101EC0008FE692E00E944306809150039091510367
:101ED000892B21F4B090390381E0B826B092300309
:101EE00080911803882309F4E3C01092180386E058
:101EF0000E947608909343038093420321E0853843
:101F000093400CF020E02093410380910A039091CC
:101F10000B038230910509F483C02CF4009769F01B
:101F20000197D9F0C5C08430910509F4BBC00CF409
:101F3000B9C0059709F4B6C0BBC0222309F4B8C0E4
:101F400080910603909107039093400380933F0391
:101F500010930B0300930A03ABC021110DC08091B5
:101F600006039091070390933E0380933D03D09323
:101F70000B03C0930A039CC04091060350910703D2
:101F8000609108037091090380913F039091400391
:101F90008C599F4F092E000CAA0BBB0B8417950779
:101FA000A607B7070CF084C0809104039091050345
:101FB0008230910529F584E090E0909305038093A9
:101FC0000403409300035093010360930203709352
:101FD00003035093FF024093FE0224E630E0309367
:101FE000FD022093FC023092FB022092FA02C09282
:101FF0000401D0920501E0920601F092070104C0AD
:10200000049711F40E94ED0460E070E088E10E9402
:10201000C70845E050E050930B0340930A0348C0C3
:102020002223E9F0809106039091070390933C03EB
:1020300080933B0380913A03873011F08F5F01C09A
:1020400080E080933A0360E070E081E00E94C7087E
:1020500064E070E070930B0360930A0329C08091E1
:102060003D0390913E034496092E000CAA0BBB0B36
:102070004091060350910703609108037091090392
:1020800084179507A607B7079CF49091390381E060
:1020900089278093390383E090E090930B0380932A
:1020A0000A0306C0211104C010920B0310920A0308
:1020B00080911703882309F445C01092170387E025
:1020C0000E94760890934903809348032EE838E0F5
:1020D000DC010E946814A30192010E945912C901F7
:1020E00030934703209346038C3424E092072CF46A
:1020F000D0930D03C0930C030CC0803B94402CF490
:1021000010930D0300930C0304C010920D03109262
:102110000C0380910C0390910D03009751F08330D4
:10212000910561F490934503809344038EE792E018
:1021300007C0D0934503C093440304C080E992E0F4
:102140000E94430680911603882309F460C0109210
:1021500016038FE992E00E945106809150039091FE
:1021600051030E94BB0684EA92E00E9451068091CE
:102170004E0390914F030E94BB068BEA92E00E94AF
:10218000510680914C0390914D030E94BB0684EB55
:1021900092E00E94510680914A0390914B030E9465
:1021A000BB068DEB92E00E94510680910E03909148
:1021B0000F030E94BB0681EC92E00E9451068091C1
:1021C0001003909111030E94BB0681EC92E00E94E3
:1021D000510680911203909113030E94BB0681EC7B
:1021E00092E00E9451066091140370911503072E2E
:1021F000000C880B990B97FF03C00E94940603C044
:102200004AE00E94530684EC92E00E9431060E944C
:10221000B701B1CA82ED91E09093DA048093D904BA
:1022200089ED94E00C94B0048F929F92AF92BF928C
:10223000CF92DF92EF92FF92CF93DF9310923F0401
:1022400010923E0498EE892E93E0992EA12CB12C89
:102250008092400490924104A0924204B0924304C0
:1022600080EC91E090933D0480933C0485EC90E0F9
:10227000909349048093480484EC90E090934B043D
:1022800080934A0480EC90E090934D0480934C043A
:1022900081EC90E090934F0480934E0482EC90E0A8
:1022A000909351048093500486EC90E090935304F3
:1022B00080935204109255041092560410925704C1
:1022C0001092580410923505C3E1C0933305DAE04B
:1022D000D093340561E083E10E943A0860E0809188
:1022E00034050E943A0820E2C22E2EE4D22EE12CC0
:1022F000F12CC0923605D0923705E0923805F09265
:10230000390510922E05C0932C058EE080932D0583
:1023100061E083E10E943A0860E080912D050E940F
:102320003A08C0922F05D0923005E0923105F09224
:10233000320510922705C09325058FE0809326056E
:1023400061E083E10E943A0860E0809126050E94E6
:102350003A08C0922805D0922905E0922A05F09209
:102360002B0510922005C0931E0580E180931F0568
:1023700061E083E10E943A0860E080911F050E94BD
:102380003A08C0922105D0922205E0922305F092EE
:10239000240584EF91E0A0E0B0E08093FE049093E8
:1023A000FF04A0930005B0930105E2EBF1E0ACE07F
:1023B000B5E001900D92DA95E1F71092160582E0F2
:1023C0008093170510921C0510921D051092DC04D5
:1023D0001092DB048092DD049092DE04A092DF0470
:1023E000B092E00482ED91E09093DA048093D904F6
:1023F0001092F0041092EF041092F2041092F10483
:102400001092F4041092F3041092F6041092F50462
:102410006091F7046E7F6D7F6093F704669561703D
:1024200081E0682784E00E94EE0761E084E00E947A
:102430003A08EDE0F1E0E491E093E904E9EFF0E03F
:10244000E491F0E0EE0FFF1FEF51FF4F8591949163
:102450009093EB048093EA0460E087E00E943A08DE
:102460008091F70481FD04C061E087E00E94EE07DF
:1024700087E08093E504E0E1F1E0E491E093E60495
:10248000ECEFF0E0E491F0E0EE0FFF1FE551FF4FBD
:10249000859194919093E8048093E704DF91CF9124
:1024A000FF90EF90DF90CF90BF90AF909F908F9074
:1024B0000895052E97FB1EF400940E94701257FD9C
:1024C00007D00E94781207FC03D04EF40C947012CF
:1024D00050954095309521953F4F4F4F5F4F089550
:1024E00090958095709561957F4F8F4F9F4F089580
:1024F000A1E21A2EAA1BBB1BFD010DC0AA1FBB1F08
:10250000EE1FFF1FA217B307E407F50720F0A21B79
:10251000B30BE40BF50B661F771F881F991F1A94E6
:1025200069F760957095809590959B01AC01BD0110
:10253000CF010895A29FB001B39FC001A39F700D6A
:10254000811D1124911DB29F700D811D1124911DBB
:1025500008955058BB27AA270E94C1120C949313C8
:102560000E94851338F00E948C1320F039F49F3FAD
:1025700019F426F40C9482130EF4E095E7FB0C9406
:102580007C13E92F0E94A41358F3BA17620773074C
:102590008407950720F079F4A6F50C94C6130EF481
:1025A000E0950B2EBA2FA02D0B01B90190010C0163
:1025B000CA01A0011124FF27591B99F0593F50F47B
:1025C000503E68F11A16F040A22F232F342F4427D3
:1025D000585FF3CF469537952795A795F0405395CB
:1025E000C9F77EF41F16BA0B620B730B840BBAF09B
:1025F0009150A1F0FF0FBB1F661F771F881FC2F706
:102600000EC0BA0F621F731F841F48F48795779519
:102610006795B795F7959E3F08F0B0CF9395880FD3
:1026200008F09927EE0F9795879508950E94581303
:1026300008F481E00895E89409C097FB3EF4909572
:102640008095709561957F4F8F4F9F4F9923A9F08B
:10265000F92F96E9BB279395F6958795779567951A
:10266000B795F111F8CFFAF4BB0F11F460FF1BC05E
:102670006F5F7F4F8F4F9F4F16C0882311F096E9F1
:1026800011C0772321F09EE8872F762F05C066239F
:1026900071F096E8862F70E060E02AF09A95660F58
:1026A000771F881FDAF7880F9695879597F9089511
:1026B000990F0008550FAA0BE0E8FEEF1616170653
:1026C000E807F907C0F012161306E407F50798F0BB
:1026D000621B730B840B950B39F40A2661F0232BD4
:1026E000242B252B21F408950A2609F4A140A69550
:1026F0008FEF811D811D089597F99F6780E870E035
:1027000060E008959FEF80EC089500240A94161667
:10271000170618060906089500240A9412161306CF
:10272000140605060895092E0394000C11F488235D
:1027300052F0BB0F40F4BF2B11F460FF04C06F5F79
:102740007F4F8F4F9F4F089557FD9058440F551F4F
:1027500059F05F3F71F04795880F97FB991F61F023
:102760009F3F79F087950895121613061406551F9A
:10277000F2CF4695F1DF08C0161617061806991F06
:10278000F1CF86957105610508940895E894BB27FB
:1027900066277727CB0197F908950E94E0130C94E0
:1027A00093130E94851338F00E948C1320F0952318
:1027B00011F00C947C130C94821311240C94C71305
:1027C0000E94A41370F3959FC1F3950F50E0551F1D
:1027D000629FF001729FBB27F00DB11D639FAA2776
:1027E000F00DB11DAA1F649F6627B00DA11D661FC5
:1027F000829F2227B00DA11D621F739FB00DA11DE6
:10280000621F839FA00D611D221F749F3327A00D9F
:10281000611D231F849F600D211D822F762F6A2F3B
:1028200011249F5750409AF0F1F088234AF0EE0FA0
:10283000FF1FBB1F661F771F881F91505040A9F7CD
:102840009E3F510580F00C947C130C94C7135F3F9E
:10285000E4F3983ED4F3869577956795B795F79509
:10286000E7959F5FC1F7FE2B880F911D9695879581
:1028700097F90895AA1BBB1B51E107C0AA1FBB1FF4
:10288000A617B70710F0A61BB70B881F991F5A95FC
:10289000A9F780959095BC01CD01089597FB072E6F
:1028A00016F4009407D077FD09D00E943A1407FC73
:1028B00005D03EF4909581959F4F08957095619550
:1028C0007F4F0895EE0FFF1F0590F491E02D0994BE
:1028D0000E949A12B7FF0895821B930B089510E08F
:1028E000C0E9D0E004C0FE010E9462142196C13903
:0828F000D107C9F7F894FFCFEE
:1028F800900190010000003F90010000FFFFFFFFE2
:10290800FF000000FF000000FFFFFF005050508D47
:102918006E63FF5722FF6F00CDDC394CAF50009635
:10292800887E57C2007D00007D417D7D007D41008D
:1029380000410000417D00007D0000FFFF28FFFFEF
:1029480000009628321400FFFF6414646464D7649E
:1029580000D7A7247878783246FF00A0FF3C288269
:102968007850280000C8C8C8C8C8000000C80000BF
:1029780000C8C8C80032323200006464646464006D
:10298800000064000000646464003232320000FF1A
:10299800FFFFFFFF000000FF000000FFFFFF0050E7
:1029A80050507EFF06000100000000EF000000000C
:1029B8004E01BB00E60095011701F5000901000072
:1029C8000000DA01BB006802D9012E024602C101EB
:1029D80073657269616C20656E61626C656400651F
:1029E8006E61206D75746500496E697469616C204B
:1029F80063616C69627261746500357320656C612E
:102A080070736564210043616C6962726174656406
:102A180020776974683A00636F6C6F722063686727
:102A280000746F206D7574650072616E646F6D411E
:102A38006C6C202D207A6F6E65322069646C652D70
:102A48003E20542744007061757365202D207A6FED
:102A58006E65322069646C652D3E205427440074ED
:102A6800696D656F7574202D3E2054274400566F9C
:102A78006C7461676520437269746963616C2100D5
:102A8800566F6C7461676520746573746564007A49
:102A9800313A200009207A323A2000092063766F03
:102AA8006C3A0900092066766F6C3A09000920091A
:102AB800000909000D0A00736F667420726573655A
:022AC800740098
:00000001FF
