:100000000C9491000C94B9000C94B9000C94380431
:100010000C9438040C9438040C94B9000C94B90076
:100020000C94B9000C94B9000C94B9000C94B9006C
:100030000C94B9000C94C8040C94B9000C94B90049
:100040000C9442090C94B9000C9406040C94E0033F
:100050000C94B9000C94B9000C94B9000C94B9003C
:100060000C94B9000C94B9005D0761076807570745
:10007000680759076507750768076807680768070D
:1000800068076807680768076C07680768076807F4
:1000900068076807646F6E652E00556E61626C6557
:1000A00020746F20636F6E6E65637400496E6974AF
:1000B00069616C697A696E67204446506C61796544
:1000C000722E0000000000240027002A000000001B
:1000D0000800020100000304070000000000000007
:1000E0000000000000250028002B00000000002375
:1000F000002600290004040404040404040202028B
:100100000202020303030303030102040810204058
:100110008001020408102001020408102000F810D9
:10012000EE1011241FBECFEFD8E0DEBFCDBF12E02E
:10013000A0E0B1E0EAECF8E202C005900D92A0392F
:10014000B107D9F724E0A0E9B2E001C01D92AD3FAC
:10015000B207E1F710E0C0E9D0E004C02197FE014A
:100160000E944614CF38D107C9F70E94D1090C94D8
:1001700058140C940000CF92DF92EF92FF920F93ED
:100180001F93CF93DF936C017A018B01C0E0D0E025
:10019000CE15DF0589F0D8016D918D01D601ED9165
:1001A000FC910190F081E02DC6010995892B11F495
:1001B0007E0102C02196ECCFC701DF91CF911F9144
:1001C0000F91FF90EF90DF90CF9008950E9453140D
:1001D000FC01538D448D252F30E0842F90E0821B4D
:1001E000930B541710F0CF96089501970895FC01D2
:1001F000918D828D981761F0828DDF01A80FB11D5E
:100200005D968C91928D9F5F9F73928F90E0089581
:100210008FEF9FEF0895FC01918D828D981731F03B
:10022000828DE80FF11D858D90E008958FEF9FEF8F
:100230000895FC01918D228D892F90E0805C9F4F65
:10024000821B91098F73992708958AEF93E00E948A
:10025000190121E0892B09F420E0822F0895FC0187
:10026000848DDF01A80FB11DA35ABF4F2C91848D3F
:1002700090E001968F739927848FA689B7892C9374
:10028000A089B1898C9180648C93938D848D98130F
:1002900006C00288F389E02D80818F7D80830895D8
:1002A000EF92FF920F931F93CF93DF93EC0181E0C6
:1002B000888F9B8D8C8D981305C0E889F989808182
:1002C00085FD24C0F62E0B8D10E00F5F1F4F0F73BE
:1002D0001127E02E8C8DE8120CC00FB607FCFACF68
:1002E000E889F989808185FFF5CFCE010E942F0131
:1002F000F1CF8B8DFE01E80FF11DE35AFF4FF08225
:100300000B8FEA89FB898081806207C0EE89FF89B3
:100310006083E889F98980818064808381E090E04E
:10032000DF91CF911F910F91FF90EF900895CF93A0
:10033000DF93EC01888D8823C9F0EA89FB898081ED
:1003400085FD05C0A889B9898C9186FD0FC00FB6BF
:1003500007FCF5CF808185FFF2CFA889B9898C9100
:1003600085FFEDCFCE010E942F01E7CFDF91CF9126
:10037000089580E090E0892B29F00E9425018111E9
:100380000C94000008952091920230919302281756
:10039000390771F49091900280919102981741F081
:1003A000E0919002F0E0EA54FC4F808190E00895E3
:1003B0008FEF9FEF089508951F93CF93DF93DC0194
:1003C0005C962D913C915D972115310539F481E0C2
:1003D00090E013969C938E9312973DC05196ED91A9
:1003E000FC91529750969C915097892F80951FB7FA
:1003F0005E964C915E9741FB772770F941FD6095C1
:10040000F8944081772311F0492B01C048234083A1
:10041000E9012197F1F748E0508160FF02C0592BB4
:1004200001C058235083E9012197F1F766954150A7
:1004300099F7772321F090818923808303C08081FD
:10044000982B90831FBF5C968D919C915D9701972F
:10045000F1F721E030E0C901DF91CF911F910895BC
:1004600020919202309193022817390771F48091FC
:1004700091022091900290E0805C9F4F821B910935
:1004800060E470E00E943214089580E090E00895E6
:10049000209192023091930228173907B9F4909174
:1004A000900280919102981789F0E0919002F0E01B
:1004B000EA54FC4F80812091900230E02F5F3F4F43
:1004C0002F7333272093900290E008958FEF9FEFD2
:1004D0000895089580E090E008950F931F93CF93BF
:1004E000DF93EC018A81882321F061E088810E94FA
:1004F0003C0860E088810E94F00783E090E001976B
:10050000F1F761E088810E94F00783E290E00197B3
:10051000F1F760E088810E94F0078A81882321F04A
:1005200060E088810E943C08298130E0F901E75FA2
:10053000FE4F6491F901EB50FF4FE491F0E0EE0FB4
:10054000FF1FE551FF4F859194910B811C812D81F7
:100550003E813F70462F0E948C096115710581050F
:10056000910539F0DC01CB010196A11DB11DBF70D1
:1005700003C080E090E0DC01DF91CF911F910F91EB
:1005800008950F931F93CF93DF93C091B303D0913E
:10059000B4032196D093B403C093B3038091C402F3
:1005A0009091C502A091C602B091C7020196A11D0B
:1005B000B11D8093C4029093C502A093C602B0936C
:1005C000C70221E02093DB02CE0163E070E00E94CD
:1005D0001E14892B11F42093DA028091CA029091A3
:1005E000CB02039751F081E08093D9029E012370E2
:1005F0003327232B11F48093D802C0FD05C081E07E
:100600008093D7028093D602CE016AE070E00E9408
:100610001E14892B19F481E08093D402CE0168EC7A
:1006200070E00E941E14892BF1F0CE0160EA7FE099
:100630000E941E14892B09F04DC081E08093D502E1
:1006400084E892E00E9445061092D6021092D902E8
:100650001092D4021092DB021092D8021092D702AC
:100660001092DC0237C020911003243110F42F5F68
:1006700001C020E02093100330E0F901EE0FFF1FCE
:10068000EF5EFC4F8091CC029091CD0291838083EC
:10069000F901EE0FFF1FE75CFC4F8091CE029091B5
:1006A000CF0291838083F901EE0FFF1FEF59FC4FBA
:1006B0008091D0029091D10291838083220F331FC9
:1006C000F901E757FC4F8091D2029091D3029183B8
:1006D0008083ABCF8091C4029091C502A091C602E5
:1006E000B091C70280399140A105B1057CF4809199
:1006F000C8029091C902039749F480919E0290919B
:100700009F02039719F081E08093DC028091B3038C
:100710009091B40360EC72E10E941E14892B09F0E1
:100720004AC0C6E9D2E0E1E1F3E004E110E080E094
:1007300090E020E030E0DF01A80FB91F4D915C91FF
:10074000240F351F029688329105A9F7C901B80117
:100750000E94321469937993B89683E0E13BF807DD
:1007600031F73093B2032093B10386E192E00E9407
:10077000450680919602909197020E94BD068FE7F0
:1007800092E00E94530680919802909199020E94F3
:10079000BD068FE792E00E94530680919A029091E5
:1007A0009B020E94BD068FE792E0DF91CF911F91DF
:1007B0000F910C945306DF91CF911F910F910895E3
:1007C0001F920F920FB60F9211242F933F934F93C6
:1007D0005F936F937F938F939F93AF93BF93EF93A9
:1007E000FF938AEF93E00E942F01FF91EF91BF9159
:1007F000AF919F918F917F916F915F914F913F91B9
:100800002F910F900FBE0F901F9018951F920F926F
:100810000FB60F9211242F938F939F93EF93FF9313
:10082000E0910A04F0910B048081E0911004F091B2
:10083000110482FD12C09081809113048F5F8F7329
:1008400020911404821751F0E0911304F0E0E65077
:10085000FC4F958F8093130401C08081FF91EF912D
:100860009F918F912F910F900FBE0F901F90189511
:100870001F920F920FB60F9211242F933F934F9315
:100880005F936F937F938F939F93AF93BF93EF93F8
:10089000FF93E0919202F0919302309709F451C0D6
:1008A000968DA685B785858591FF04C09C91892387
:1008B00029F447C09C91892309F043C0A389B489D6
:1008C0009C918589809589238C9386899789019746
:1008D000F1F7608D718DA685B785558538E020E0EC
:1008E000CB010197F1F7822F90E095958795282FFE
:1008F0004C91452309F02068315091F7868D81FD98
:1009000020958091910290E001968F739927309104
:100910009002381749F0A0919102B0E0AA54BC4F60
:100920002C938093910203C0868D8160868F828D87
:10093000938D0197F1F7A389B4899C918589892BBF
:100940008C93FF91EF91BF91AF919F918F917F9188
:100950006F915F914F913F912F910F900FBE0F902C
:100960001F901895E0919202F0919302E817F90711
:1009700069F4A389B4899C918589809589238C9396
:10098000109293021092920281E0089580E00895FF
:100990001F920F920FB60F9211242F933F934F93F4
:1009A0005F936F937F938F939F93AF93BF93EF93D7
:1009B000FF93E0919402F09195020995FF91EF91D8
:1009C000BF91AF919F918F917F916F915F914F9167
:1009D0003F912F910F900FBE0F901F9018958F92FF
:1009E0009F92AF92BF92CF92DF92EF92FF920F93BE
:1009F0001F93CF93DF936091C4027091C5028091E1
:100A0000C6029091C7020091BA021091BB02012E5A
:100A1000000C220B330BC090BE02D090BF02E090BE
:100A2000C002F090C1020C0D1D1D2E1D3F1D601750
:100A30007107820793070CF050C00091BC0210911F
:100A4000BD02C091B802D091B9026801CC0EDD1E82
:100A50000D2C000CEE08FF086C157D058E059F051A
:100A60009CF50E9401136B017C01B801110F880BEA
:100A7000990B0E9401134B015C01BE01DD0F880B35
:100A8000990B0E94011320910001309101014091C6
:100A90000201509103010E94B1139B01AC01C501F9
:100AA000B4010E948E129B01AC01C701B6010E94E5
:100AB000FA1218BC87FF05C08FEF8093B40087BD82
:100AC00003C01092B40017BC8091C4029091C5027B
:100AD0009093BD028093BC0206C082E090E09093A8
:100AE000C3028093C202DF91CF911F910F91FF90BB
:100AF000EF90DF90CF90BF90AF909F908F90089530
:100B00000F931F93CF93DF93EC01ECECF2E0A6E997
:100B1000B2E020E931E080E0419151910D911D91C9
:100B20004017510744F44C175D072CF44217530744
:100B30000CF49A0181E092E0E43DF90769F7309303
:100B40000901209308016130710541F0623071059F
:100B500049F4309305012093040104C03093070148
:100B600020930601DF91CF911F910F910895CF93AC
:100B7000DF93E091B503E23018F4C1E0CE0F01C07D
:100B8000C0E0C093B5038BEF9CE70197F1F78AEEC5
:100B900094E00E946D02EC2FF0E0EE0FFF1FEA558B
:100BA000FD4F6CE170E00E941E147695679571838D
:100BB0006083C091B503D0E0FE01EE0FFF1FEA5540
:100BC000FD4F80819181892B21F481E991E091830E
:100BD00080838BE59AEE0197F1F781EF94E00E9414
:100BE0006D02CC0FDD1FC056DD4F6CE170E00E943E
:100BF0001E147695679579836883C091B503D0E01C
:100C0000FE01EE0FFF1FE056FD4F80819181892B81
:100C100021F481E991E0918380838BEB9AED019738
:100C2000F1F783EE94E00E946D02CC0FDD1FC455F6
:100C3000DD4F6CE170E00E941E1476956795798314
:100C40006883E091B503F0E0EE0FFF1FE455FD4F20
:100C500080819181892B21F481E991E091838083C6
:100C6000DF91CF910895009769F0FC010190002079
:100C7000E9F73197AF01481B590BBC018AEF93E0AC
:100C80000C94BB0080E090E00895CF93DF930E9426
:100C90003306EC0181E892E00E9433068C0F9D1F21
:100CA000DF91CF9108950C9433068F929F92AF926B
:100CB000BF920F931F93CF93DF93CDB7DEB7A1976A
:100CC0000FB6F894DEBF0FBECDBF19A2423008F4B4
:100CD0004AE08E010F5D1F4F842E912CA12CB12C68
:100CE000A50194010E945C12E62FB901CA010150CE
:100CF0001109EA3014F4E05D01C0E95CD801EC931D
:100D0000232B242B252B61F7C8010E943306A196C3
:100D10000FB6F894DEBF0FBECDBFDF91CF911F910C
:100D20000F91BF90AF909F908F900895CF92DF92D8
:100D3000EF92FF92CF93DF936B017C01E091FA0376
:100D4000F091FB030190F081E02D6DE28AEF93E0DA
:100D50000995EC0166277727CB016C197D098E096F
:100D60009F094AE00E9455068C0F9D1FDF91CF918D
:100D7000FF90EF90DF90CF900895BC01990F880B02
:100D8000990B97FD0C9496064AE00C945506CF9368
:100D9000DF938091B6049091B704DC01ED91FC9152
:100DA0000084F185E02D0995892B09F4B7C0C09125
:100DB000D4048091B6049091B704DC01ED91FC91CC
:100DC0000284F385E02DC1110DC009958093C00404
:100DD0008E37F9F61092DA048091D4048F5F8093F5
:100DE000D404D7CF0995EC2FF0E0EA54FB4F82876B
:100DF0009091D4049230A9F09930C9F0913009F063
:100E000089C08091C1048F3F09F484C01092D4043A
:100E10009093D6041092D9041092D8049093DA04D7
:100E2000B3C08091C204863009F474C004C08091BC
:100E3000C9048F3E19F01092D40464C0E1ECF4E0D0
:100E400040E050E08191480F511DB4E0E73CFB07C2
:100E5000C9F72091C70430E0322F222751954195E0
:100E600051098091C804280F311D1092D4044217F3
:100E7000530709F047C0E091C304E093D704809181
:100E8000C50490E0982F88272091C604820F911DF9
:100E90009093D9048093D8044E2F50E0FA01FA972A
:100EA000E631F105C8F4EC5CFF4F0C94461485E084
:100EB0000DC081FF1CC084E009C081FF18C082E022
:100EC00005C081FF14C083E001C086E08093D60492
:100ED00081E08093DA040BC081E08093D604109205
:100EE000D9041092D8048093DA041092DB04D091D4
:100EF000DA04DD2309F44AC08091CE04882309F482
:100F000043C044C081E08093D6041092D90410926B
:100F1000D80438C09F5F9093D4043BCF8091DB040A
:100F2000882321F12FB7F8948091F6039091F7036D
:100F3000A091F803B091F9032FBF4091B8045091EC
:100F4000B9046091BA047091BB04841B950BA60B85
:100F5000B70B4091BC045091BD046091BE047091E8
:100F6000BF0484179507A607B70718F4D091DA04D1
:100F70000DC01092D4041092D6041092D90410928D
:100F8000D80481E08093DA041092DB048D2FDF9186
:100F9000CF9108950F931F93CF93DF938C01C0E0FF
:100FA000D0E0F801EC0FFD1F6491662371F0E09131
:100FB000FA03F091FB030190F081E02D8AEF93E0BA
:100FC0000995892B11F02196ECCF81E892E00E94DF
:100FD00033068C0F9D1FDF91CF911F910F910895C4
:100FE00090E0FC01E353FF4F3491FC01E75FFE4FBB
:100FF0002491FC01EB50FF4FE491EE2309F43BC038
:10100000332339F1333091F038F43130A9F03230F4
:1010100001F584B58F7D12C0373091F03830A1F0E2
:101020003430B9F4809180008F7D03C080918000BE
:101030008F77809380000DC084B58F7784BD09C001
:101040008091B0008F7703C08091B0008F7D809336
:10105000B000F0E0EE0FFF1FEF51FF4FA591B491EC
:101060008FB7F894EC91611103C020952E2301C035
:101070002E2B2C938FBF0895CF93DF9390E0FC012C
:10108000E75FFE4F2491FC01EB50FF4F84918823D2
:1010900061F190E0880F991FFC01ED53FF4FC5915E
:1010A000D491FC01EF51FF4FA591B491611109C09A
:1010B0009FB7F8948881209582238883EC912E2312
:1010C0000BC0623061F49FB7F8943881822F80950D
:1010D00083238883EC912E2B2C939FBF06C08FB760
:1010E000F894E8812E2B28838FBFDF91CF9108954C
:1010F0008E3008F08E508770806480937C008091E1
:101100007A00806480937A0080917A0086FDFCCF1B
:10111000809178002091790090E0922B08958F9231
:101120009F92AF92BF92CF92DF92EF92FF926B01AC
:101130007C010E941D094B015C01C114D104E10432
:10114000F104F1F00E941D09DC01CB018819990915
:10115000AA09BB09883E9340A105B10570F321E0BF
:10116000C21AD108E108F10888EE880E83E0981EC3
:10117000A11CB11CC114D104E104F10419F7DDCFA5
:10118000FF90EF90DF90CF90BF90AF909F908F90A7
:1011900008958093CD047093CF046093D004EBEC5A
:1011A000F4E080E090E02191820F911D24E0E13D88
:1011B000F207C9F79195819591099093D104809395
:1011C000D2048091CE04882339F08091DB048823F7
:1011D00049F00E94C706F9CF6AE070E080E090E035
:1011E0000E948F088091B6049091B704DC01ED91C4
:1011F000FC910280F381E02D4AE050E06AEC74E05B
:1012000009952FB7F8948091F6039091F703A09178
:10121000F803B091F9032FBF8093B8049093B904F9
:10122000A093BA04B093BB0481E09091CE049111D5
:1012300001C080E08093DB0408953FB7F89480916B
:10124000F9049091FA04A091FB04B091FC0426B536
:10125000A89B05C02F3F19F00196A11DB11D3FBFEE
:10126000BA2FA92F982F8827820F911DA11DB11D7C
:10127000BC01CD0142E0660F771F881F991F4A9578
:10128000D1F708951F920F920FB60F9211242F934A
:101290003F938F939F93AF93BF938091F603909169
:1012A000F703A091F803B091F9033091F80423E01B
:1012B000230F2D3720F40196A11DB11D05C026E88E
:1012C000230F0296A11DB11D2093F8048093F6030D
:1012D0009093F703A093F803B093F9038091F90476
:1012E0009091FA04A091FB04B091FC040196A11D19
:1012F000B11D8093F9049093FA04A093FB04B0937A
:10130000FC04BF91AF919F918F913F912F910F90CE
:101310000FBE0F901F901895CF92DF92EF92FF9221
:101320000F931F93E82FF92F05C0015011092109D0
:10133000310961F1908196239417B9F305C00150EA
:1013400011092109310911F1908196239413F7CFE6
:10135000C12CD12CE12CF12C0AC08FEFC81AD80A6D
:10136000E80AF80A0C151D052E053F0579F0808165
:101370008623841791F36C2D7D2D8E2D9F2D1F912B
:101380000F91FF90EF90DF90CF90089560E070E0B4
:1013900080E090E01F910F91FF90EF90DF90CF9051
:1013A0000895789484B5826084BD84B5816084BDDD
:1013B00085B5826085BD85B5816085BD80916E00F3
:1013C000816080936E001092810080918100826024
:1013D0008093810080918100816080938100809161
:1013E00080008160809380008091B1008460809350
:1013F000B1008091B00081608093B00080917A004C
:10140000846080937A0080917A00826080937A0071
:1014100080917A00816080937A0080917A00806860
:1014200080937A001092C100E0910A04F0910B04BD
:10143000D2E0D083E0910604F09107041082E0919D
:101440000804F091090488E0808310921204E0916E
:101450000E04F0910F0486E08083E0910C04F0917B
:101460000D04808180618083E0910C04F0910D0473
:10147000808188608083E0910C04F0910D0480816C
:1014800080688083E0910C04F0910D0480818F7D51
:10149000808380EE91E00E94450661E085E00E9435
:1014A0003C0861E086E00E943C0861E083E00E9425
:1014B0003C0861E081E10E943C0861E082E10E9419
:1014C0003C0861E088E00E943C0861E088E00E94FE
:1014D000F00761E081E10E94F00761E082E10E9493
:1014E000F00781EA84BDC1E0C5BD81E28093B00010
:1014F000C093B10080E18093810010928000D0936E
:10150000DF0280E593EC9093DE028093DD029093FE
:1015100087008093860082E18093810064E670E01A
:1015200080E090E00E948F0881EC92E09093950219
:1015300080939402C0936F008FEE91E00E94450665
:101540001092B2041092B1041092B0041092AF0441
:101550001092AE041092AD048DE991E09093B40422
:101560008093B3049091A304963108F057C02DEBFB
:1015700030E03093AE042093AD042BE931E030939A
:10158000B0042093AF042CE231E03093B2042093F6
:10159000B10420916800983050F031E09E3008F49A
:1015A00030E081E001C0880F3A95EAF701C084E09D
:1015B000822B80936800983038F09E3040F096314E
:1015C00048F020E030E008C02DE630E005C02BE612
:1015D00030E002C02CE630E03093AB042093AA0444
:1015E000983030F481E001C0880F9A95EAF70EC078
:1015F000292F30E09E3018F42850310902C02E50B7
:10160000310981E001C0880F2A95EAF78093AC0484
:101610008091B3049091B4040197F1F78091B104E3
:101620009091B204892B21F18091920290919302C2
:1016300024E087399207E1F0009711F00E94B2048C
:101640008091B5048E7F8093B50410929102109220
:10165000900287E994E09093930280939202E09144
:10166000AA04F091AB0490818091AC04892B808313
:101670008CEA90E00E94CA0711E0C7E9D4E0109319
:10168000CE04D093B704C093B6048091BC0490916B
:10169000BD04A091BE04B091BF048854944FAF4FD5
:1016A000BF4F8093BC049093BD04A093BE04B0933D
:1016B000BF0460E070E08CE00E94C9081093DB0476
:1016C0000E94C7068823E1F38091BC049091BD0479
:1016D000A091BE04B091BF04885B9B40A109B109F1
:1016E0008093BC049093BD04A093BE04B093BF0448
:1016F00068EC70E080E090E00E948F081092DA04BD
:101700008091D604843059F08AE990E00E94CA079B
:1017100068EE73E080E090E00E948F08B0CF84E92B
:1017200090E00E94CA0761E081E10E94F00760E05A
:1017300082E10E94F007412C84E0582E612C712C2C
:10174000C2E0D0E001E010E094E0292E312C24E149
:10175000822E912CC12CD12CE12C3FE3F32EB090A2
:10176000DC02BB2009F4B5C080919E0290919F02DB
:101770008130910551F104F5892B09F02CC588EFD2
:1017800091E00E94450661E08DE00E94F00760E074
:1017900081E10E94F00761E082E10E94F007809100
:1017A000C4029091C5029093E1028093E0021093ED
:1017B0009F0200939E020FC58230910539F1039775
:1017C00009F009C51092DC0206C58091E0029091F3
:1017D000E1028C599F4F092E000CAA0BBB0B4091C4
:1017E000C4025091C5026091C6027091C70284176D
:1017F0009507A607B7070CF0EEC48AE092E00E94B6
:101800004506D0939F02C0939E02E5C40E94B7058F
:101810006BE3A62E6DE0B62EC5010197F1F70E948D
:10182000B705C5010197F1F70E94B7058091CC0279
:101830009091CD0290939702809396028091CE0270
:101840009091CF0290939902809398028091D00258
:101850009091D10290939B0280939A028091D20240
:101860009091D30290939D0280939C0286E192E036
:101870000E94450680919602909197020E94BD06B3
:101880008FE792E00E94530680919802909199020E
:101890000E94BD068FE792E00E94530680919A0253
:1018A00090919B020E94BD068FE792E00E94530632
:1018B00061E081E10E94F00760E082E10E94F007B0
:1018C00043E050E050939F0240939E021092F0023A
:1018D00082C48091DB02882321F01092DB020E94F7
:1018E000B7058091DA02811106C08091D902882360
:1018F00009F443C133C01092DA02E0EAF2E0ACEC42
:10190000B2E04081518182819381248135818417A5
:1019100095071CF02817390734F4821793076CF0E9
:101920004817590724F011969C938E9310C02417E2
:10193000350734F4281739073CF04217530724F0D1
:1019400011963C932E9303C011965C934E9336965A
:10195000129652E0E83BF507A1F6C7CF1092D902E4
:101960008091C2029091C3028230910531F00497B8
:1019700009F003C10E94EF0400C12091EC0238B5C8
:10198000822F90E0831B91091816190614F08FEF2F
:1019900001C081E08093E60288B5281302C010924E
:1019A000E6022091EB0237B5822F90E0831B91096C
:1019B0001816190614F08FEF01C081E08093E5023C
:1019C00087B5281302C01092E5022091EA023091F7
:1019D000B400822F90E0831B91091816190614F0A9
:1019E0008FEF01C081E08093E4028091B40028135E
:1019F00002C01092E402E091E602E11108C0809179
:101A0000E502811104C08091E402882319F010924C
:101A1000ED020BC081E08093ED028091C4029091B1
:101A2000C5029093E3028093E2028091ED0281115E
:101A300071C08091E7029091E8020296092E000C95
:101A4000AA0BBB0B4091C4025091C5026091C60223
:101A50007091C70284179507A607B7070CF08DC0D1
:101A600028B58E2F0E2E000C990BBC01620F711D34
:101A70006F3F710509F04CF428B5820F911D97FD59
:101A800006C088B54E2F480F03C04FEF01C040E09D
:101A900048BD27B54091E502842F042E000C990B18
:101AA000BC01620F711D6F3F710509F044F427B549
:101AB000820F911D97FD05C087B5480F03C04FEFFA
:101AC00001C040E047BD2091B4004091E402842F62
:101AD000042E000C990BBC01620F711D6F3F710544
:101AE00009F054F42091B400820F911D97FD06C0B7
:101AF0008091B400480F03C04FEF01C040E0409315
:101B0000B4008091C4029091C5029093E802809342
:101B1000E70233C08091F002882339F01092EC0282
:101B20001092EB021092EA0228C087E292E00E9433
:101B300045068091E902863010F48F5F01C080E095
:101B40008093E9024091FC0290E09C01220F331F38
:101B5000F901E80FF91F75E1479FE00DF11D112410
:101B6000E65FFE4F80818093EC0281818093EB02DF
:101B700082818093EA021092ED028091D80288233C
:101B800009F482C01092D80280910E0390910F0345
:101B9000009781F00197E9F5809106019091070186
:101BA00044972CF49092F2028092F10232C080E1CC
:101BB00090E026C080910C0390910D03009729F1CD
:101BC000019739F58091040190910501CC973CF47F
:101BD0008BE090E09093F2028093F10206C029E03E
:101BE00030E03093F2022093F1028091F102909163
:101BF000F2028B30910514F4019602C08BE090E064
:101C00009093F2028093F10204C01092F2021092BB
:101C1000F1026091EE027091EF028091F1029091D9
:101C2000F202681779078CF46F5F7F4F7093EF02B1
:101C30006093EE02772786E00E94C90860E088E0A2
:101C40000E94F00781E392E013C08617970794F48F
:101C5000615071097093EF026093EE02772786E07E
:101C60000E94C90860E088E00E94F00787E392E0E4
:101C70000E9445068091EE029091EF02892B21F49B
:101C800061E088E00E94F0078091D702882309F480
:101C90000FC11092D70280910E0390910F038130F3
:101CA0009105D1F082309105A1F1892B09F05FC037
:101CB00061E070E088E290E00E948005882309F4EA
:101CC00056C0D093C302C093C2021092FC0261E0DE
:101CD0008DE00E94F00747C061E070E088E290E08C
:101CE0000E948005811143C0D0930F03C0930E035F
:101CF0008091C4029091C502A091C602B091C70222
:101D00008093F7029093F802A093F902B093FA023D
:101D10002EC08091F7029091F802A091F902B09143
:101D2000FA0288539F4FAF4FBF4F4091C40250916A
:101D3000C5026091C6027091C70284179507A60775
:101D4000B7074CF460E08DE00E94F00710920F039B
:101D500010920E030CC061E070E088E290E00E94F7
:101D60008005882321F010930F0300930E038091C8
:101D70000C0390910D0381309105D1F082309105D3
:101D800009F43EC0892B09F087C062E070E08AE563
:101D900090E00E948005882309F47EC010930D0313
:101DA00000930C0360E070E088E10E94C90874C0F1
:101DB000D093C302C093C20260E088E00E94F007A3
:101DC00082E08093FC0262E070E08AE590E00E948D
:101DD0008005811161C0D0930D03C0930C038091E5
:101DE000C4029091C502A091C602B091C70280932F
:101DF000F3029093F402A093F502B093F6024CC064
:101E00008091F3029091F402A091F502B091F60254
:101E100080579E4FAF4FBF4F4091C4025091C502B3
:101E20006091C6027091C70284179507A607B7078D
:101E30004CF460E070E086E10E94C90810920D0346
:101E400010920C038091F3029091F402A091F5029C
:101E5000B091F60288539F4FAF4FBF4F4091C402DD
:101E60005091C5026091C6027091C7028417950710
:101E7000A607B7072CF41092F2021092F1020CC0E0
:101E800062E070E08AE590E00E948005882321F0FE
:101E900010930D0300930C0380910E0390910F0398
:101EA000892B21F4B090FB0281E0B826B092F002B9
:101EB0008091D602882309F4DFC01092D60286E012
:101EC0000E947808909305038093040321E08538ED
:101ED00093400CF020E0209303038091C80290917E
:101EE000C9028230910509F481C02CF4009769F091
:101EF0000197D9F0C1C08430910509F4B7C00CF442
:101F0000B5C0059709F4B2C0B7C0222309F4B4C024
:101F10008091C4029091C5029093020380930103C3
:101F20001093C9020093C802A7C021110DC080916F
:101F3000C4029091C502909300038093FF02D09356
:101F4000C902C093C80298C04091C4025091C50212
:101F50006091C6027091C7028091010390910203C3
:101F60008C599F4F092E000CAA0BBB0B84179507A9
:101F7000A607B7070CF080C08091C2029091C302FF
:101F80008230910519F53092C3022092C20240932B
:101F9000BE025093BF026093C0027093C10250937F
:101FA000BD024093BC0244E650E05093BB02409314
:101FB000BA029092B9028092B802C0920001D09207
:101FC0000101E0920201F092030104C0049711F4B0
:101FD0000E94EF0460E070E088E10E94C90865E0BB
:101FE00070E07093C9026093C80246C02223D9F002
:101FF0008091C4029091C5029093FE028093FD02ED
:102000008091FC02873011F08F5F01C080E08093E7
:10201000FC0260E070E081E00E94C9083092C902D1
:102020002092C80229C08091FF029091000344963B
:10203000092E000CAA0BBB0B4091C4025091C502A3
:102040006091C6027091C70284179507A607B7076B
:102050009CF49091FB0281E089278093FB0283E04E
:1020600090E09093C9028093C80206C0211104C079
:102070001092C9021092C8028091D502882309F4F7
:1020800045C01092D50287E00E94780890930B0318
:1020900080930A032EE838E0DC010E944C14A3016F
:1020A00092010E943D12C901309309032093080355
:1020B0008C3424E092072CF4D093CB02C093CA0254
:1020C0000CC0803B94402CF41093CB020093CA02C6
:1020D00004C01092CB021092CA028091CA02909161
:1020E000CB02009751F08330910561F49093070380
:1020F000809306038DE392E007C0D0930703C0935B
:10210000060304C08FE492E00E9445068091D40249
:10211000882309F460C01092D4028EE592E00E94F8
:10212000530680910E0390910F030E94BD0683E633
:1021300092E00E94530680910C0390910D030E943F
:10214000BD068AE692E00E945306809106019091B6
:1021500007010E94BD0682E792E00E94530680912B
:102160000401909105010E94BD068AE792E00E9459
:1021700053068091CC029091CD020E94BD068EE75D
:1021800092E00E9453068091CE029091CF020E946D
:10219000BD068EE792E00E9453068091D002909196
:1021A000D1020E94BD068EE792E00E945306609124
:1021B000D2027091D302072E000C880B990B97FF67
:1021C00003C00E94960603C04AE00E94550681E8BB
:1021D00092E00E9433060E94B901C1CA82ED91E0EB
:1021E000909398048093970487E994E00C94B20448
:1021F0008F929F92AF92BF92CF92DF92EF92FF9217
:10220000CF93DF931092FD031092FC0398EE892E7A
:1022100093E0992EA12CB12C8092FE039092FF03A3
:10222000A0920004B092010480EC91E09093FB0333
:102230008093FA0385EC90E0909307048093060462
:1022400084EC90E0909309048093080480EC90E083
:1022500090930B0480930A0481EC90E090930D041A
:1022600080930C0482EC90E090930F0480930E0412
:1022700086EC90E090931104809310041092130464
:102280001092140410921504109216041092F30484
:10229000C3E1C093F104DAE0D093F20461E083E19A
:1022A0000E943C0860E08091F2040E943C0820E219
:1022B000C22E2EE4D22EE12CF12CC092F404D09246
:1022C000F504E092F604F092F7041092EC04C09347
:1022D000EA048EE08093EB0461E083E10E943C0815
:1022E00060E08091EB040E943C08C092ED04D09223
:1022F000EE04E092EF04F092F0041092E504C09333
:10230000E3048FE08093E40461E083E10E943C08F1
:1023100060E08091E4040E943C08C092E604D09200
:10232000E704E092E804F092E9041092DE04C0931E
:10233000DC0480E18093DD0461E083E10E943C08DD
:1023400060E08091DD040E943C08C092DF04D092DE
:10235000E004E092E104F092E20484EF91E0A0E076
:10236000B0E08093BC049093BD04A093BE04B093EE
:10237000BF04E2EBF1E0AAECB4E001900D92DA9533
:10238000E1F71092D40482E08093D5041092DA042D
:102390001092DB0410929A041092990480929B048C
:1023A00090929C04A0929D04B0929E0482ED91E0D4
:1023B00090939804809397041092AE041092AD0409
:1023C0001092B0041092AF041092B2041092B104B3
:1023D0001092B4041092B3046091B5046E7F6D7FC7
:1023E0006093B5046695617081E0682784E00E947F
:1023F000F00761E084E00E943C08EDE0F1E0E49148
:10240000E093A704E9EFF0E0E491F0E0EE0FFF1FA6
:10241000EF51FF4F859194919093A9048093A80464
:1024200060E087E00E943C088091B50481FD04C013
:1024300061E087E00E94F00787E08093A304E0E179
:10244000F1E0E491E093A404ECEFF0E0E491F0E03B
:10245000EE0FFF1FE551FF4F859194919093A604D5
:102460008093A504DF91CF91FF90EF90DF90CF9004
:10247000BF90AF909F908F900895052E97FB1EF40C
:1024800000940E94541257FD07D00E945C1207FC72
:1024900003D04EF40C9454125095409530952195EC
:1024A0003F4F4F4F5F4F0895909580957095619580
:1024B0007F4F8F4F9F4F0895A1E21A2EAA1BBB1B7F
:1024C000FD010DC0AA1FBB1FEE1FFF1FA217B30700
:1024D000E407F50720F0A21BB30BE40BF50B661F16
:1024E000771F881F991F1A9469F7609570958095DA
:1024F00090959B01AC01BD01CF010895A29FB00151
:10250000B39FC001A39F700D811D1124911DB29F27
:10251000700D811D1124911D08955058BB27AA27C5
:102520000E94A5120C9477130E94691338F00E9440
:10253000701320F039F49F3F19F426F40C946613BD
:102540000EF4E095E7FB0C946013E92F0E948813CA
:1025500058F3BA17620773078407950720F079F4D8
:10256000A6F50C94AA130EF4E0950B2EBA2FA02D0D
:102570000B01B90190010C01CA01A0011124FF2730
:10258000591B99F0593F50F4503E68F11A16F0402B
:10259000A22F232F342F4427585FF3CF469537952A
:1025A0002795A795F0405395C9F77EF41F16BA0BEF
:1025B000620B730B840BBAF09150A1F0FF0FBB1F9D
:1025C000661F771F881FC2F70EC0BA0F621F731FE6
:1025D000841F48F4879577956795B795F7959E3F43
:1025E00008F0B0CF9395880F08F09927EE0F9795D4
:1025F000879508950E943C1308F481E00895E894BB
:1026000009C097FB3EF490958095709561957F4F3A
:102610008F4F9F4F9923A9F0F92F96E9BB279395E8
:10262000F695879577956795B795F111F8CFFAF4F8
:10263000BB0F11F460FF1BC06F5F7F4F8F4F9F4F29
:1026400016C0882311F096E911C0772321F09EE887
:10265000872F762F05C0662371F096E8862F70E0ED
:1026600060E02AF09A95660F771F881FDAF7880FC7
:102670009695879597F90895990F0008550FAA0B1D
:10268000E0E8FEEF16161706E807F907C0F0121685
:102690001306E407F50798F0621B730B840B950B88
:1026A00039F40A2661F0232B242B252B21F40895DD
:1026B0000A2609F4A140A6958FEF811D811D08957A
:1026C00097F99F6780E870E060E008959FEF80ECE5
:1026D000089500240A941616170618060906089588
:1026E00000240A9412161306140605060895092EEE
:1026F0000394000C11F4882352F0BB0F40F4BF2B5D
:1027000011F460FF04C06F5F7F4F8F4F9F4F08959C
:1027100057FD9058440F551F59F05F3F71F0479592
:10272000880F97FB991F61F09F3F79F08795089577
:10273000121613061406551FF2CF4695F1DF08C096
:10274000161617061806991FF1CF869571056105B3
:1027500008940895E894BB2766277727CB0197F95B
:1027600008950E94C4130C9477130E94691338F0E3
:102770000E94701320F0952311F00C9460130C94B8
:10278000661311240C94AB130E94881370F3959F69
:10279000C1F3950F50E0551F629FF001729FBB2758
:1027A000F00DB11D639FAA27F00DB11DAA1F649FF4
:1027B0006627B00DA11D661F829F2227B00DA11DA7
:1027C000621F739FB00DA11D621F839FA00D611D2D
:1027D000221F749F3327A00D611D231F849F600D4E
:1027E000211D822F762F6A2F11249F5750409AF077
:1027F000F1F088234AF0EE0FFF1FBB1F661F771F03
:10280000881F91505040A9F79E3F510580F00C94CD
:1028100060130C94AB135F3FE4F3983ED4F38695BA
:1028200077956795B795F795E7959F5FC1F7FE2B6D
:10283000880F911D9695879597F90895AA1BBB1B44
:1028400051E107C0AA1FBB1FA617B70710F0A61BB0
:10285000B70B881F991F5A95A9F780959095BC01D1
:10286000CD01089597FB072E16F4009407D077FD4D
:1028700009D00E941E1407FC05D03EF49095819566
:102880009F4F0895709561957F4F0895EE0FFF1F3C
:102890000590F491E02D09940E947E12B7FF0895EF
:1028A000821B930B089581E090E0F8940C945814E7
:1028B00010E0C0E9D0E004C0FE010E944614219659
:0A28C000C139D107C9F7F894FFCF22
:1028CA000000003F9001900190010000FFFFFFFF10
:1028DA00FF000000FF000000FFFFFF005050508D76
:1028EA006E63FF5722FF6F00CDDC394CAF50009664
:1028FA00887E57C2007D00007D417D7D007D4100BC
:10290A0000410000417D00007D0000FFFF28FFFF1D
:10291A0000009628321400FFFF6414646464D764CC
:10292A0000D7A7247878783246FF00A0FF3C288297
:10293A007850280000C8C8C8C8C8000000C80000ED
:10294A0000C8C8C80032323200006464646464009B
:10295A00000064000000646464003232320000FF48
:10296A00FFFFFFFF000000FF000000FFFFFF005015
:10297A0050507EFF06000100000000EF000000003A
:10298A005001BB00E80097011901F7000B01000094
:10299A000000DC01BB006A02DB0130024802C3010D
:1029AA0073657269616C20656E61626C656400654D
:1029BA006E61206D75746500496E697469616C2079
:1029CA0063616C69627261746500357320656C615C
:1029DA0070736564210043616C6962726174656435
:1029EA0020776974683A00636F6C6F722063686756
:1029FA0000766F6C2B2B00766F6C2D2D00566F6C4A
:102A0A007461676520437269746963616C21005659
:102A1A006F6C7461676520746573746564007A31DC
:102A2A003A200009207A323A2000097A31636D3A55
:102A3A000900097A32636D3A090009200900090977
:102A4A00000D0A00736F6674207265736574000066
:00000001FF
