:100000000C9491000C94B9000C94B9000C949A04CF
:100010000C949A040C949A040C94B9000C94B900B2
:100020000C94B9000C94B9000C94B9000C94B9006C
:100030000C94B9000C942A050C94B9000C94B900E6
:100040000C9430090C94B9000C9468040C9442048C
:100050000C94B9000C94B9000C94B9000C94B9003C
:100060000C94B9000C94B90046074A0751074007A1
:10007000510742074E075E075107510751075107C5
:1000800051075107510751075507510751075107AC
:1000900051075107646F6E652E00556E61626C6585
:1000A00020746F20636F6E6E65637400496E6974AF
:1000B00069616C697A696E67204446506C61796544
:1000C000722E0000000000240027002A000000001B
:1000D0000800020100000304070000000000000007
:1000E0000000000000250028002B00000000002375
:1000F000002600290004040404040404040202028B
:100100000202020303030303030102040810204058
:1001100080010204081020010204081020002D13A1
:10012000231311241FBECFEFD8E0DEBFCDBF14E0F4
:10013000A0E0B1E0EEE4FAE202C005900D92A83131
:10014000B107D9F726E0A8E1B4E001C01D92A437B9
:10015000B207E1F710E0C0E9D0E004C02197FE014A
:100160000E940815CF38D107C9F70E94BF090C9427
:100170001A150C940000CF92DF92EF92FF920F932A
:100180001F93CF93DF936C017A018B01C0E0D0E025
:10019000CE15DF0589F0D8016D918D01D601ED9165
:1001A000FC910190F081E02DC6010995892B11F495
:1001B0007E0102C02196ECCFC701DF91CF911F9144
:1001C0000F91FF90EF90DF90CF900895FC01538D39
:1001D000448D252F30E0842F90E0821B930B541721
:1001E00010F0CF96089501970895FC01918D828DAE
:1001F000981761F0828DDF01A80FB11D5D968C917B
:10020000928D9F5F9F73928F90E008958FEF9FEF85
:100210000895FC01918D828D981731F0828DE80F41
:10022000F11D858D90E008958FEF9FEF0895FC01FB
:10023000918D228D892F90E0805C9F4F821B9109C8
:100240008F739927089587E495E00E94170121E0B4
:10025000892B09F420E0822F0895FC01848DDF01B1
:10026000A80FB11DA35ABF4F2C91848D90E0019629
:100270008F739927848FA689B7892C93A089B18918
:100280008C9180648C93938D848D981306C0028822
:10029000F389E02D80818F7D80830895EF92FF9216
:1002A0000F931F93CF93DF93EC0181E0888F9B8D99
:1002B0008C8D981305C0E889F989808185FD24C05B
:1002C000F62E0B8D10E00F5F1F4F0F731127E02EDE
:1002D0008C8DE8120CC00FB607FCFACFE889F989BB
:1002E000808185FFF5CFCE010E942D01F1CF8B8D4E
:1002F000FE01E80FF11DE35AFF4FF0820B8FEA89F0
:10030000FB898081806207C0EE89FF896083E8896C
:10031000F98980818064808381E090E0DF91CF91D2
:100320001F910F91FF90EF900895CF93DF93EC0111
:10033000888D8823C9F0EA89FB89808185FD05C005
:10034000A889B9898C9186FD0FC00FB607FCF5CF3F
:10035000808185FFF2CFA889B9898C9185FFEDCF87
:10036000CE010E942D01E7CFDF91CF91089580E06B
:1003700090E0892B29F00E94230181110C94000048
:10038000089520911A0430911B042817390771F43D
:100390009091180480911904981741F0E091180485
:1003A000F0E0ED5FFA4F808190E008958FEF9FEFCE
:1003B000089508951F93CF93DF93DC015C962D91F0
:1003C0003C915D972115310539F481E090E0139659
:1003D0009C938E9312973DC05196ED91FC9152974C
:1003E00050969C915097892F80951FB75E964C919F
:1003F0005E9741FB772770F941FD6095F894408145
:10040000772311F0492B01C048234083E90121974C
:10041000F1F748E0508160FF02C0592B01C058231A
:100420005083E9012197F1F76695415099F77723B9
:1004300021F090818923808303C08081982B908351
:100440001FBF5C968D919C915D970197F1F721E01C
:1004500030E0C901DF91CF911F91089520911A04D6
:1004600030911B042817390771F4809119042091E9
:10047000180490E0805C9F4F821B910960E470E05B
:100480000E94F414089580E090E0089520911A04E9
:1004900030911B0428173907B9F490911804809102
:1004A0001904981789F0E0911804F0E0ED5FFA4F15
:1004B00080812091180430E02F5F3F4F2F73332746
:1004C0002093180490E008958FEF9FEF089508950A
:1004D00080E090E008950E9415150F931F93CF932D
:1004E000DF93EC018A81882321F061E088810E94FA
:1004F000250860E088810E94D90783E090E0019799
:10050000F1F761E088810E94D90783E290E00197CA
:10051000F1F760E088810E94D9078A81882321F061
:1005200060E088810E942508298130E0F901E75FB9
:10053000FE4F6491F901EB50FF4FE491F0E0EE0FB4
:10054000FF1FE551FF4F859194910B811C812D81F7
:100550003E813F70462F0E947A0961157105810521
:10056000910539F0DC01CB010196A11DB11DBF70D1
:1005700003C080E090E0DC01DF91CF911F910F91EB
:100580000895EF92FF920F931F93CF93DF93E09123
:100590000005F09101053196F0930105E093000507
:1005A00080913C0490913D04A0913E04B0913F04A1
:1005B0000196A11DB11D80933C0490933D04A0932E
:1005C0003E04B0933F0481E080934E0480934D0439
:1005D0008093490420913A0430913B042330310543
:1005E00049F080934C049F0123703327232B11F48F
:1005F00080934B04E0FD05C081E080934A04809322
:100600004704CF0164E170E00E94F414892B19F4CF
:1006100081E080934604CF0168EC70E00E94F414FE
:10062000892B31F1CF0160EA7FE00E94F414892B1D
:1006300009F049C081E08093480485E993E00E9475
:1006400016061092490410924C041092460410921F
:100650004E0410924B0410924A0410924F041092D0
:100660005B0610925A0610924606109245062BC061
:1006700020918504243110F42F5F01C020E02093E5
:10068000850480E4E82E84E0F82EA6E8B4E030E0AB
:10069000220F331FE701499159917E01BA0162503F
:1006A0007109CD01820F931F6C35714018F04D9187
:1006B0005C911197EC01598348839896D4E0AE3F42
:1006C000BD0741F7AFCF80913C0490913D04A091CC
:1006D0003E04B0913F04803911E09107A105B105B6
:1006E000BCF420913804309139042330310581F471
:1006F00020912404309125042330310549F081E014
:1007000080934F0460E070E08EE00E94B20824C045
:10071000AC01BD014159514061097109473C510586
:100720006105710558F48091240490912504039784
:1007300099F460E081E10E94D9070EC089359240AA
:10074000A105B1054CF080912404909125040397F4
:1007500019F081E080934F0480913C0490913D0416
:10076000A0913E04B0913F0484369105A105B105E6
:10077000CCF48091380490913904049799F421E0E5
:1007800030E0309346062093450681E0809353067F
:1007900030935B0620935A068093680680EA93E0C4
:1007A0000E941606809100059091010560EC72E1AF
:1007B0000E94F414892B09F05EC083E090E09093CE
:1007C000250480932404CEE1D4E0E6E8F4E004E1DB
:1007D00010E020E030E080E090E0DF01A80FB91FDA
:1007E0004D915C91240F351F029688329105A9F72F
:1007F000243631053CF0C901B8010E94F414CB0144
:10080000049702C080E090E089939993B89684E0C1
:10081000EE3FF807F1F63093FF042093FE048BEAD5
:1008200093E00E94160683E094E00E9416068091F1
:100830001E0490911F040E948E0689E793E00E9497
:10084000240680912004909121040E948E0689E75D
:1008500093E00E94240680912204909123040E9438
:100860008E0689E793E0DF91CF911F910F91FF9062
:10087000EF900C942406DF91CF911F910F91FF9080
:10088000EF9008951F920F920FB60F9211242F939D
:100890003F934F935F936F937F938F939F93AF9308
:1008A000BF93EF93FF9387E495E00E942D01FF91A2
:1008B000EF91BF91AF919F918F917F916F915F91D8
:1008C0004F913F912F910F900FBE0F901F90189551
:1008D0001F920F920FB60F9211242F938F939F9315
:1008E000EF93FF93E0915705F09158058081E091D7
:1008F0005D05F0915E0582FD12C0908180916005DA
:100900008F5F8F7320916105821751F0E091600530
:10091000F0E0E95BFA4F958F8093600501C080811C
:10092000FF91EF919F918F912F910F900FBE0F909C
:100930001F9018951F920F920FB60F9211242F93AC
:100940003F934F935F936F937F938F939F93AF9357
:10095000BF93EF93FF93E0911A04F0911B0430973B
:1009600009F451C0968DA685B785858591FF04C091
:100970009C91892329F447C09C91892309F043C0A5
:10098000A389B4899C918589809589238C938689D4
:1009900097890197F1F7608D718DA685B78555858B
:1009A00038E020E0CB010197F1F7822F90E0959598
:1009B0008795282F4C91452309F02068315091F7F5
:1009C000868D81FD20958091190490E001968F73AA
:1009D000992730911804381749F0A0911904B0E014
:1009E000AD5FBA4F2C938093190403C0868D81604C
:1009F000868F828D938D0197F1F7A389B4899C919D
:100A00008589892B8C93FF91EF91BF91AF919F9135
:100A10008F917F916F915F914F913F912F910F90A7
:100A20000FBE0F901F901895E0911A04F0911B04CF
:100A3000E817F90769F4A389B4899C9185898095A1
:100A400089238C9310921B0410921A0481E008955C
:100A500080E008951F920F920FB60F9211242F93EA
:100A60003F934F935F936F937F938F939F93AF9336
:100A7000BF93EF93FF93E0911C04F0911D0409953F
:100A8000FF91EF91BF91AF919F918F917F916F9166
:100A90005F914F913F912F910F900FBE0F901F903C
:100AA00018950F931F93CF93DF93EC01E0E4F4E0EC
:100AB000AEE1B4E020E931E080E0419151910D9147
:100AC0001D914017510744F44C175D072CF4421751
:100AD00053070CF49A0181E094E0E634F90769F7D2
:100AE00030930601209305016130710541F06230B9
:100AF000710549F4309304012093030104C030933D
:100B0000010120930001DF91CF911F910F91089572
:100B1000CF93DF93E0910205E23018F4C1E0CE0FED
:100B200001C0C0E0C09302058BE39CE90197F1F797
:100B300087E396E00E946D02EC2FF0E0EE0FFF1FBE
:100B4000E45DFB4F6CE170E00E94E01476956795E0
:100B500071836083C0910205D0E0FE01EE0FFF1F9C
:100B6000E45DFB4F80819181892B21F481E991E043
:100B7000918380838BE59AEE0197F1F78EE396E0FF
:100B80000E946D02CC0FDD1FCA5DDB4F6CE170E08F
:100B90000E94E0147695679579836883C091020579
:100BA000D0E0FE01EE0FFF1FEA5DFB4F80819181D7
:100BB000892B21F481E991E0918380838BEB9AED7D
:100BC0000197F1F780E396E00E946D02CC0FDD1FE4
:100BD000CE5CDB4F6CE170E00E94E0147695679587
:100BE00079836883E0910205F0E0EE0FFF1FEE5C71
:100BF000FB4F80819181892B21F481E991E09183E0
:100C00008083DF91CF910895009769F0FC010190F6
:100C10000020E9F73197AF01481B590BBC0187E46D
:100C200095E00C94BB0080E090E00895CF93DF93B3
:100C30000E940406EC018CE693E00E9404068C0FEF
:100C40009D1FDF91CF9108950C9404068F929F927F
:100C5000AF92BF920F931F93CF93DF93CDB7DEB7C1
:100C6000A1970FB6F894DEBF0FBECDBF19A24230D8
:100C700008F44AE08E010F5D1F4F842E912CA12CA9
:100C8000B12CA50194010E94AF14E62FB901CA014D
:100C900001501109EA3014F4E05D01C0E95CD801AB
:100CA000EC93232B242B252B61F7C8010E9404060B
:100CB000A1960FB6F894DEBF0FBECDBFDF91CF91E6
:100CC0001F910F91BF90AF909F908F900895CF92FA
:100CD000DF92EF92FF92CF93DF936B017C01E09163
:100CE0004705F09148050190F081E02D6DE287E421
:100CF00095E00995EC0166277727CB016C197D09F2
:100D00008E099F094AE00E9426068C0F9D1FDF91E5
:100D1000CF91FF90EF90DF90CF900895BC01990F95
:100D2000880B990B97FD0C9467064AE00C942606F5
:100D3000CF93DF93BC01990F880B990B97FF03C0EA
:100D40000E94670603C04AE00E942606EC018CE67A
:100D500093E00E9404068C0F9D1FDF91CF910895B0
:100D6000CF93DF938091030690910406DC01ED910F
:100D7000FC910084F185E02D0995892B09F4B7C019
:100D8000C09121068091030690910406DC01ED914B
:100D9000FC910284F385E02DC1110DC0099580936B
:100DA0000D068E37F9F610922706809121068F5F87
:100DB00080932106D7CF0995EC2FF0E0ED5FF94F36
:100DC0008287909121069230A9F09930C9F0913034
:100DD00009F089C080910E068F3F09F484C01092FB
:100DE00021069093230610922606109225069093D2
:100DF0002706B3C080910F06863009F474C004C082
:100E0000809116068F3E19F01092210664C0EEE024
:100E1000F6E040E050E08191480F511DB6E0E4312A
:100E2000FB07C9F72091140630E0322F2227519595
:100E30004195510980911506280F311D1092210608
:100E40004217530709F047C0E0911006E0932406CB
:100E50008091120690E0982F882720911306820F28
:100E6000911D90932606809325064E2F50E0FA019F
:100E7000FA97E631F105C8F4EC5CFF4F0C940815C5
:100E800085E00DC081FF1CC084E009C081FF18C04F
:100E900082E005C081FF14C083E001C086E080933A
:100EA000230681E0809327060BC081E08093230610
:100EB0001092260610922506809327061092280687
:100EC000D0912706DD2309F44AC080911B068823B0
:100ED00009F443C044C081E08093230610922606A3
:100EE0001092250638C09F5F909321063BCF8091DA
:100EF0002806882321F12FB7F8948091430590911B
:100F00004405A0914505B09146052FBF40910506C7
:100F1000509106066091070670910806841B950B98
:100F2000A60BB70B4091090650910A0660910B067B
:100F300070910C0684179507A607B70718F4D0918F
:100F400027060DC010922106109223061092260645
:100F50001092250681E080932706109228068D2F97
:100F6000DF91CF9108950F931F93CF93DF938C015F
:100F7000C0E0D0E0F801EC0FFD1F6491662371F032
:100F8000E0914705F09148050190F081E02D87E45C
:100F900095E00995892B11F02196ECCF8CE693E032
:100FA0000E9404068C0F9D1FDF91CF911F910F911E
:100FB000089590E0FC01E353FF4F3491FC01E75F9B
:100FC000FE4F2491FC01EB50FF4FE491EE2309F416
:100FD0003BC0332339F1333091F038F43130A9F08C
:100FE000323001F584B58F7D12C0373091F0383042
:100FF000A1F03430B9F4809180008F7D03C08091DE
:1010000080008F77809380000DC084B58F7784BD7A
:1010100009C08091B0008F7703C08091B0008F7DB0
:101020008093B000F0E0EE0FFF1FEF51FF4FA5914E
:10103000B4918FB7F894EC91611103C020952E23E1
:1010400001C02E2B2C938FBF0895CF93DF9390E098
:10105000FC01E75FFE4F2491FC01EB50FF4F8491B0
:10106000882361F190E0880F991FFC01ED53FF4F39
:10107000C591D491FC01EF51FF4FA591B49161113D
:1010800009C09FB7F8948881209582238883EC91CA
:101090002E230BC0623061F49FB7F8943881822F01
:1010A000809583238883EC912E2B2C939FBF06C0C1
:1010B0008FB7F894E8812E2B28838FBFDF91CF91D3
:1010C00008958E3008F08E508770806480937C0085
:1010D00080917A00806480937A0080917A0086FD06
:1010E000FCCF809178002091790090E0922B0895B8
:1010F0008F929F92AF92BF92CF92DF92EF92FF9228
:101100006B017C010E940B094B015C01C114D104ED
:10111000E104F104F1F00E940B09DC01CB01881914
:101120009909AA09BB09883E9340A105B10570F34E
:1011300021E0C21AD108E108F10888EE880E83E0A8
:10114000981EA11CB11CC114D104E104F10419F7CB
:10115000DDCFFF90EF90DF90CF90BF90AF909F904A
:101160008F90089580931A0670931C0660931D0655
:10117000E8E1F6E080E090E02191820F911D26E009
:10118000EE31F207C9F791958195910990931E066A
:1011900080931F0680911B06882339F080912806D2
:1011A000882349F00E94B006F9CF6AE070E080E041
:1011B00090E00E9478088091030690910406DC017B
:1011C000ED91FC910280F381E02D4AE050E067E16F
:1011D00076E009952FB7F8948091430590914405E6
:1011E000A0914505B09146052FBF809305069093C9
:1011F0000606A0930706B093080681E090911B06AF
:10120000911101C080E080932806089560E070E0AD
:1012100081E00C94B2083FB7F894809170069091E9
:101220007106A0917206B091730626B5A89B05C001
:101230002F3F19F00196A11DB11D3FBFBA2FA92F55
:10124000982F8827820F911DA11DB11DBC01CD01D2
:1012500042E0660F771F881F991F4A95D1F70895BE
:101260001F920F920FB60F9211242F933F938F93DB
:101270009F93AF93BF938091430590914405A091B4
:101280004505B091460530916F0623E0230F2D37B9
:1012900020F40196A11DB11D05C026E8230F02967A
:1012A000A11DB11D20936F068093430590934405C3
:1012B000A0934505B0934605809170069091710604
:1012C000A0917206B09173060196A11DB11D809385
:1012D000700690937106A0937206B0937306BF9147
:1012E000AF919F918F913F912F910F900FBE0F90D3
:1012F0001F901895CF92DF92EF92FF920F931F935A
:10130000E82FF92F05C0015011092109310961F1B8
:10131000908196239417B9F305C001501109210952
:10132000310911F1908196239413F7CFC12CD12C60
:10133000E12CF12C0AC08FEFC81AD80AE80AF80A83
:101340000C151D052E053F0579F080818623841735
:1013500091F36C2D7D2D8E2D9F2D1F910F91FF9060
:10136000EF90DF90CF90089560E070E080E090E033
:101370001F910F91FF90EF90DF90CF900895789498
:1013800084B5826084BD84B5816084BD85B582608A
:1013900085BD85B5816085BD80916E00816080933B
:1013A0006E001092810080918100826080938100A4
:1013B00080918100816080938100809180008160B4
:1013C000809380008091B10084608093B10080910F
:1013D000B00081608093B00080917A008460809337
:1013E0007A0080917A00826080937A0080917A00FE
:1013F000816080937A0080917A00806880937A007F
:101400001092C100E0915705F0915805D2E0D083C9
:10141000E0915305F09154051082E0915505F0914B
:10142000560588E0808310925F05E0915B05F0919E
:101430005C0586E08083E0915905F0915A05808132
:1014400080618083E0915905F0915A058081886020
:101450008083E0915905F0915A05808180688083EE
:10146000E0915905F0915A0580818F7D80838DED43
:1014700091E00E94160661E08BE00E94250861E081
:1014800085E00E94250861E086E00E94250861E071
:1014900083E00E94250861E081E10E94250861E067
:1014A00082E10E94250861E088E00E94250861E051
:1014B00088E00E94D90761E081E10E94D90761E0DC
:1014C00082E10E94D90781EA84BDC1E0C5BD809355
:1014D000B000C093B10080E1809381001092800041
:1014E000D093520480E593EC909351048093500480
:1014F000909387008093860082E18093810064E668
:1015000070E080E090E00E94780881EC92E0909397
:101510001D0480931C04C0936F008CEE91E00E9428
:1015200016061092FF051092FE051092FD0510920E
:10153000FC051092FB051092FA058DE991E090935D
:101540000106809300069091F005963108F057C08F
:101550002DEB30E03093FB052093FA052BE931E0C9
:101560003093FD052093FC052CE231E03093FF051C
:101570002093FE0520916800983050F031E09E30B5
:1015800008F430E081E001C0880F3A95EAF701C025
:1015900084E0822B80936800983038F09E3040F0D1
:1015A000963148F020E030E008C02DE630E005C07C
:1015B0002BE630E002C02CE630E03093F8052093B3
:1015C000F705983030F481E001C0880F9A95EAF76A
:1015D0000EC0292F30E09E3018F42850310902C087
:1015E0002E50310981E001C0880F2A95EAF78093D7
:1015F000F90580910006909101060197F1F780911D
:10160000FE059091FF05892B21F180911A0490919C
:101610001B0425E0843E9207E1F0009711F00E9440
:101620001405809102068E7F8093020610921904A1
:101630001092180484EE95E090931B0480931A0492
:10164000E091F705F091F80590818091F905892BDB
:1016500080838CEA90E00E94B30711E0C4EED5E0ED
:1016600010931B06D0930406C093030680910906CD
:1016700090910A06A0910B06B0910C068854944FE5
:10168000AF4FBF4F8093090690930A06A0930B06B5
:10169000B0930C0660E070E08CE00E94B2081093FA
:1016A00028060E94B0068823E1F3809109069091F4
:1016B0000A06A0910B06B0910C06885B9B40A1091D
:1016C000B1098093090690930A06A0930B06B09384
:1016D0000C0668EC70E080E090E00E9478081092C0
:1016E000270680912306843059F08AE990E00E9411
:1016F000B30768EE73E080E090E00E947808B0CF16
:1017000084E990E00E94B30760E088E00E94D90776
:101710006AE070E086E00E94B20861E070E081E17A
:101720000E94B20861E081E10E94D90760E082E195
:101730000E94D90783E0E82EF12C94E0A92EB12C69
:10174000C1E0D0E024E1822E912C02E010E03AE0EA
:10175000C32ED12C4BE3242E4DE0342E80914F0428
:10176000882309F4A5C08091240490912504813038
:10177000910569F11CF5892B09F059C785EF91E0B6
:101780000E9416068FEF8093B30061E08DE00E9407
:10179000D90760E081E10E94D90761E082E10E94FF
:1017A000D90780913C0490913D0490935404809318
:1017B0005304D0932504C093240439C78230910583
:1017C00039F1039709F033C710924F0430C7809165
:1017D0005304909154048C599F4F092E000CAA0B6E
:1017E000BB0B40913C0450913D0460913E047091CC
:1017F0003F0484179507A607B7070CF018C787E0C2
:1018000092E00E94160610932504009324040FC74B
:101810000E948805C1010197F1F70E948805C10166
:101820000197F1F70E948805E0E4F4E0AEE1B4E04E
:10183000819191918530910514F0049702C080E068
:1018400090E08D939D9364E0E634F60789F786E097
:1018500094E00E94160680911E0490911F040E943D
:101860008E0689E793E00E942406809120049091DF
:1018700021040E948E0689E793E00E94240680914D
:101880002204909123040E948E0689E793E00E942F
:10189000240661E081E10E94D90760E082E10E94B4
:1018A000D907F0922504E09224041092B300BFC639
:1018B00080914E04882321F010924E040E948805E6
:1018C00080914D04811106C080914C04882309F455
:1018D00072C133C010924D04E6E2F4E0A0E4B4E03B
:1018E00040815181828193812481358184179507BC
:1018F0001CF02817390734F4821793076CF0481747
:10190000590724F011969C938E9310C02417350725
:1019100034F4281739073CF04217530724F0119686
:101920003C932E9303C011965C934E933696129679
:1019300074E0E833F707A1F6C7CF10924C0480910A
:10194000670490916804029709F001C13091800406
:1019500028B5832F90E0821B91092091020118166F
:10196000190614F4822F02C0822F819580935B04A4
:1019700088B5381302C010925B0430917F0447B5DC
:10198000832F90E0841B91091816190614F4822FF6
:1019900002C0822F819580935A0487B5381302C004
:1019A00010925A0430917E044091B400832F90E04D
:1019B000841B9109181619060CF0219520935904DF
:1019C0008091B400381302C01092590440915B0416
:1019D000411108C080915A04811104C080915904BA
:1019E000882319F0109260040BC081E0809360049A
:1019F00080913C0490913D0490935604809355044B
:101A000080916004811170C080915C0490915D04AC
:101A10000296092E000CAA0BBB0B40903C04509080
:101A20003D0460903E0470903F0484159505A60522
:101A3000B7050CF08CC028B5842F042E000C990B30
:101A4000BC01620F711D6F3F710509F044F428B5A8
:101A5000820F911D97FD05C088B5480F03C04FEF59
:101A600001C040E048BD27B540915A04842F042EA0
:101A7000000C990BBC01620F711D6F3F710509F0DD
:101A800044F427B5820F911D97FD05C087B5480F17
:101A900003C04FEF01C040E047BD2091B40040912A
:101AA0005904842F042E000C990BBC01620F711D88
:101AB0006F3F710509F054F42091B400820F911D1D
:101AC00097FD06C08091B400480F03C04FEF01C0DE
:101AD00040E04093B40080913C0490913D04909389
:101AE0005D0480935C0433C080916604882339F0E0
:101AF0001092800410927F0410927E0428C083E12B
:101B000092E00E94160680915804863010F48F5F90
:101B100001C080E08093580440916F0490E09C01E4
:101B2000220F331FF901E80FF91F75E1479FE00D00
:101B3000F11D1124E95FFE4F808180938004818133
:101B400080937F04828180937E04109260042091B0
:101B500061043091B300822F90E0831B9109181625
:101B6000190614F08EEF01C082E080935704809133
:101B7000B300281302C0109257042091B300409183
:101B80005704842F042E000C990BBC01620F711DA9
:101B90006F3F710509F054F42091B300820F911D3D
:101BA00097FD06C08091B300480F03C04FEF01C0FE
:101BB00040E04093B30080914B04882309F467C050
:101BC00010924B0480917004811134C08091830481
:101BD000909184048130910559F01CF4892B51F1C6
:101BE0002DC082309105D1F083309105F1F026C0EF
:101BF0008091000190910101893191052CF490921E
:101C00006A04809269041AC08D971CF48FE090E0FA
:101C10000CC0D0926A04C092690410C067E070E002
:101C200070936A046093690409C090936A04809376
:101C3000690404C010926A041092690460915E0401
:101C400070915F048091690490916A046817790724
:101C50001CF46F5F7F4F05C08617970774F46150BF
:101C6000710970935F0460935E04772786E00E9499
:101C7000B20860E088E00E94D90780915E049091EC
:101C80005F04892B21F461E088E00E94D9078091EC
:101C90004A04882309F4A3C110924A048091830462
:101CA000909184048230910509F44EC02CF4009781
:101CB00059F0019741F1EFC08330910509F478C0E4
:101CC000049709F4AFC0E7C061E070E08CE390E0F6
:101CD0000E945105882309F4DEC061E08DE00E9476
:101CE000D907D0938404C093830487E080936F0462
:101CF00060E088E00E94D9070E9406098DE192E029
:101D00000E941606C8C061E070E08CE390E00E947B
:101D100051058111C0C0109384040093830480E3B3
:101D200092E00E94160680913C0490913D04A0919F
:101D30003E04B0913F0480936B0490936C04A09395
:101D40006D04B0936E04A7C080916B0490916C04F5
:101D5000A0916D04B0916E0488539F4FAF4FBF4F59
:101D600040913C0450913D0460913E0470913F04C9
:101D700084179507A607B7078CF48EE392E00E94BC
:101D8000160610926A041092690460E08DE00E94C9
:101D9000D907F0928404E09283047DC061E070E092
:101DA0008CE390E00E945105882309F474C06FC051
:101DB00080916B0490916C04A0916D04B0916E04BD
:101DC000845D9E4FAF4FBF4F40913C0450913D0406
:101DD00060913E0470913F0484179507A607B707EA
:101DE00094F485E792E00E94160660E070E08EE0D1
:101DF0000E94B20860E088E00E94D907B092840493
:101E0000A092830448C061E070E08CE390E00E94FF
:101E10005105882309F43FC060E070E08DE00E9426
:101E2000B20831C080916B0490916C04A0916D0454
:101E3000B0916E0480579E4FAF4FBF4F40913C040E
:101E400050913D0460913E0470913F0484179507C2
:101E5000A607B70774F488E992E00E94160660E0CE
:101E600070E086E10E94B20810928404109283040C
:101E700012C061E070E08CE390E00E94510588237D
:101E800051F00E94060961E088E00E94D907D093D2
:101E90008404C093830480918104909182048230F1
:101EA000910509F441C02CF4009759F00197C9F04D
:101EB0006DC08330910509F465C0049709F462C0D0
:101EC00065C062E070E088E790E00E9451058111F2
:101ED000B1C38091830490918404019709F056C0A6
:101EE000A9C310936804009367041092660462E02B
:101EF00070E088E790E00E945105811147C010937F
:101F000082040093810480913C0490913D04A0914F
:101F10003E04B0913F048093620490936304A093C5
:101F20006404B093650432C08091620490916304AC
:101F3000A0916404B091650488539F4FAF4FBF4F89
:101F400040913C0450913D0460913E0470913F04E7
:101F500084179507A607B70744F484EB92E00E9424
:101F60001606109282041092810462E070E088E705
:101F700090E00E945105882349F0D0938204C093D9
:101F8000810404C010928204109281048091830421
:101F9000909184048130910511F48FEF04C0833057
:101FA000910521F48EEB8093610405C08430910586
:101FB00021F41092610481E010C0892B81F480919A
:101FC000810490918204892B51F41092610481E084
:101FD00080936604809360048AE08093020180917C
:101FE0004904882309F4BEC01092490486E00E9487
:101FF00061089C01909379048093780491E02538DE
:1020000033400CF090E090937704209138043091A5
:1020100039042230310509F453C03CF4211531054F
:1020200079F021303105E1F09DC02430310509F40B
:1020300088C00CF483C02530310509F487C092C0F4
:10204000992309F48FC080913C0490913D049093B2
:10205000760480937504D0933904C093380482C009
:1020600091110DC080913C0490913D0490937404B3
:1020700080937304109339040093380473C08091E3
:102080007504909176048C599F4F092E000CAA0B71
:10209000BB0B40913C0450913D0460913E04709113
:1020A0003F0484179507A607B7070CF05BC085E0CF
:1020B00090E0909339048093380487EC92E01DC03F
:1020C00040913C0450913D0460913E0470913F0466
:1020D00020917304309174042C5E3F4F2901330F1B
:1020E0006608770844165506660677064CF4F092A3
:1020F0003904E09238048AED92E00E94160632C05C
:10210000992381F1509372044093710481E080938C
:10211000480480934704D0935B06C0935A06D0933B
:102120004606C09345060E94060985EE92E00E948D
:102130001606B0923904A092380414C0911112C04E
:102140000DC091110FC00E94060908C091110AC06C
:102150009091700481E08927809370041092390473
:102160001092380480914804882309F49AC0109290
:10217000480487E00E94610890937D0480937C046A
:102180002EE838E0DC010E940E1520E034E040E04B
:1021900050E00E949014C90130937B0420937A048C
:1021A0008A3124E0920784F4F0923B04E0923A04EE
:1021B000D0925706C09256061093590600935806BF
:1021C00085E08093530652C08C3464E0960794F403
:1021D00010933B0400933A04D0925706C0925606DF
:1021E000D0925906C092580682E08093530681EF40
:1021F00092E015C0813B74E09707A4F4D0933B04B0
:10220000C0933A0410936C0600936B0690926E068E
:1022100080926D0682E0809368068DEF92E00E94C6
:10222000160624C08333954094F410923B04109218
:102230003A04D0926C06C0926B06D0926E06C092A1
:102240006D0682E08093680689E093E0E8CFB09263
:102250003B04A0923A0490926C0680926B06109315
:102260006E0600936D0683E08093680680913A04C1
:1022700090913B048330910529F0049741F488E262
:1022800093E002C086E193E00E9416060AC085E34F
:1022900093E00E94160680917A0490917B040E943C
:1022A000980680914704882309F434C110924704AA
:1022B00080914506909146068230910591F11CF47B
:1022C000019741F08EC08330910581F1049709F4A4
:1022D00063C087C0809153068823F1F080913C044D
:1022E00090913D04A0913E04B0913F0480934B0631
:1022F00090934C06A0934D06B0934E06F09246067E
:10230000E092450661E082E10E94D9078091530680
:1023100081508093530665C0109246061092450680
:1023200036C0F0925B06E0925A065BC061E082E143
:102330000E94D90740903C0450903D0460903E04B8
:1023400070903F044091560650915706052E000CA0
:10235000660B770B80914B0690914C06A0914D0631
:10236000B0914E06840F951FA61FB71F84159505C3
:10237000A605B705B4F5B0924606A0924506409270
:102380004F0650925006609251067092520660E0DD
:1023900082E10E94D90725C0809158069091590684
:1023A000AC01990F660B770B80914F069091500608
:1023B000A0915106B0915206840F951FA61FB71F1A
:1023C00040913C0450913D0460913E0470913F0463
:1023D00084179507A607B70724F4D0934606C09341
:1023E000450680915A0690915B068230910591F1E5
:1023F0001CF4019741F08EC08330910581F1049760
:1024000009F463C087C0809168068823F1F0809149
:102410003C0490913D04A0913E04B0913F04809310
:10242000600690936106A0936206B0936306F092F3
:102430005B06E0925A0661E081E10E94D907809133
:10244000680681508093680665C010925B06109202
:102450005A0636C0F0925B06E0925A065BC061E015
:1024600081E10E94D90740903C0450903D04609067
:102470003E0470903F0440916B0650916C06052E0F
:10248000000C660B770B8091600690916106A0911D
:102490006206B0916306840F951FA61FB71F8415AF
:1024A0009505A605B705B4F5B0925B06A0925A064D
:1024B00040926406509265066092660670926706C6
:1024C00060E081E10E94D90725C080916D0690915E
:1024D0006E06AC01990F660B770B809164069091A4
:1024E0006506A0916606B0916706840F951FA61F2A
:1024F000B71F40913C0450913D0460913E0470919F
:102500003F0484179507A607B70724F4D0935B060A
:10251000C0935A0680914604882309F488C010921B
:1025200046048EE493E00E942406809183049091F7
:1025300084040E948E0683E593E00E942406809125
:102540008104909182040E948E068AE593E00E94A5
:1025500024066091800470E080E090E04AE00E94F0
:10256000260680E593E00E94240668B570E080E0CE
:1025700090E04AE00E94260680E693E00E9424064E
:1025800060917F0470E080E090E04AE00E942606BF
:1025900080E593E00E94240667B570E080E090E05B
:1025A0004AE00E94260686E693E00E942406609197
:1025B0007E0470E080E090E04AE00E94260680E51C
:1025C00093E00E9424066091B40070E080E090E007
:1025D0004AE00E9426068CE693E00E9404068FE6FD
:1025E00093E00E94240680914004909141040E944F
:1025F0008E0688E793E00E94240680914204909121
:1026000043040E948E0688E793E00E94240680918E
:102610004404909145040E948E0688E793E00E944E
:10262000240680914604909147040E9498060E94D7
:10263000B70194C8D0938204C09381048BE793E0E0
:102640000E941606A3CC8FEC91E09093E505809351
:10265000E40584EE95E00C9414058F929F92AF925E
:10266000BF92CF92DF92EF92FF92CF93DF931092BF
:102670004A051092490598EE892E93E0992EA12CD7
:10268000B12C80924B0590924C05A0924D05B092D2
:102690004E058DEB91E0909348058093470585ECBE
:1026A00090E0909354058093530584EC90E09093D0
:1026B00056058093550580EC90E0909358058093E3
:1026C000570581EC90E090935A058093590582EC70
:1026D00090E090935C0580935B0586EC90E090938E
:1026E0005E0580935D051092600510926105109261
:1026F0006205109263054AE050E050936A064093E9
:10270000690622E030E030936C0620936B0688E285
:1027100090E090936E0680936D065093550640931B
:10272000540630935706209356069093590680938B
:10273000580610924006C3E1C0933E06DAE0D093FB
:102740003F0661E083E10E94250860E080913F063A
:102750000E94250820E2C22E2EE4D22EE12CF12C7C
:10276000C0924106D0924206E0924306F09244069F
:1027700010923906C09337068EE08093380661E0E8
:1027800083E10E94250860E0809138060E942508B8
:10279000C0923A06D0923B06E0923C06F0923D068B
:1027A00010923206C09330068FE08093310661E0CC
:1027B00083E10E94250860E0809131060E9425088F
:1027C000C0923306D0923406E0923506F092360677
:1027D00010922B06C093290680E180932A0661E0BF
:1027E00083E10E94250860E080912A060E94250866
:1027F000C0922C06D0922D06E0922E06F0922F0663
:1028000084EF91E0A0E0B0E08093090690930A067F
:10281000A0930B06B0930C06EFEAF1E0A7E1B6E057
:1028200001900D92DA95E1F71092210682E08093F3
:10283000220610922706109228061092E7051092A1
:10284000E6058092E8059092E905A092EA05B0922B
:10285000EB058FEC91E09093E5058093E4051092F1
:10286000FB051092FA051092FD051092FC051092DE
:10287000FF051092FE05109201061092000660916D
:1028800002066E7F6D7F609302066695617081E03F
:10289000682784E00E94D90761E084E00E9425084F
:1028A000EDE0F1E0E491E093F405E9EFF0E0E4918C
:1028B000F0E0EE0FFF1FEF51FF4F85919491909341
:1028C000F6058093F50560E087E00E942508809179
:1028D000020681FD04C061E087E00E94D90787E01D
:1028E0008093F005E0E1F1E0E491E093F105ECEF95
:1028F000F0E0E491F0E0EE0FFF1FE551FF4F85910E
:1029000094919093F3058093F205DF91CF91FF901E
:10291000EF90DF90CF90BF90AF909F908F900895F1
:10292000052E97FB1EF400940E94A71457FD07D0B4
:102930000E94AF1407FC03D04EF40C94A7145095DA
:102940004095309521953F4F4F4F5F4F089590959B
:102950008095709561957F4F8F4F9F4F0895A1E2AD
:102960001A2EAA1BBB1BFD010DC0AA1FBB1FEE1F09
:10297000FF1FA217B307E407F50720F0A21BB30B54
:10298000E40BF50B661F771F881F991F1A9469F7D0
:1029900060957095809590959B01AC01BD01CF012C
:1029A0000895A29FB001B39FC001A39F700D811D28
:1029B0001124911DB29F700D811D1124911D089548
:1029C000AA1BBB1B51E107C0AA1FBB1FA617B70755
:1029D00010F0A61BB70B881F991F5A95A9F7809571
:1029E0009095BC01CD01089597FB072E16F4009435
:1029F00007D077FD09D00E94E01407FC05D03EF413
:102A0000909581959F4F0895709561957F4F08959A
:102A1000EE0FFF1F0590F491E02D09940E94D11450
:102A2000B7FF0895821B930B089581E090E0F8941E
:102A30000C941A1510E0C0E9D0E004C0FE010E9419
:0E2A400008152196C139D107C9F7F894FFCFC8
:102A4E00900101900190010000FFFFFFFFFF0000C9
:102A5E0000FF000000FFFFFF005050508D6E63FF1F
:102A6E005722FF6F00CDDC394CAF500096887E5751
:102A7E00C2007D00007D417D7D007D410000410052
:102A8E0000417D00007D0000FFFF28FFFF00009643
:102A9E0028321400FFFF6414646464D76400D7A75F
:102AAE00247878783246FF00A0FF3C2882785028A0
:102ABE000000C8C8C8C8C8000000C8000000C8C8C8
:102ACE00C800323232000064646464640000006442
:102ADE00000000646464003232320000FFFFFFFF2A
:102AEE00FF000000FF000000FFFFFF005050507E6F
:102AFE00FF06000100000000EF000000004E01BBC9
:102B0E0000E60095011701F500090100000000DA4A
:102B1E0001BB006802D9012E024602C10173657223
:102B2E0069616C20656E61626C656400656E612022
:102B3E006D75746500496E697469616C2063616CB2
:102B4E0069627261746500357320656C61707365BE
:102B5E00642100636F6C6F7220636867007A6F6E1A
:102B6E0065203120542744202D3E207A656E650065
:102B7E007A6F6E652031206C6561766564007A6FC0
:102B8E006E6520312031307320656C617073656421
:102B9E00202D2D3E20736D616C6C2074696D656FF8
:102BAE0075743A2066696E566F6C20626563616D4E
:102BBE0065732030007A6F6E6520312031357320B9
:102BCE00656C6170736564202D2D3E2062696720EF
:102BDE0074696D656F7574007A6F6E652031203281
:102BEE00307320656C6170736564202D2D3E2069F5
:102BFE00646C65007A6F6E652032203130732074FC
:102C0E00696D656F7574006E6F772070757368658A
:102C1E0064203573206C6F6E670073686F7274205A
:102C2E007075736800646F75626C6520707573687B
:102C3E000032207069726F73203530250032207A91
:102C4E006F6C64202D3130250032207A6F6C642039
:102C5E002D2035302500566F6C74616765204372E8
:102C6E0069746963616C2100566F6C7461676520CD
:102C7E004869676800566F6C746167652074657388
:102C8E007465642C206E6F726D616C2020007A3139
:102C9E003A200009207A323A20000920723A2000A8
:102CAE000920673A20000920623A20000D0A000927
:102CBE0020636D2D733A09000909007A6F6E652045
:102CCE003220542744202D3E2073706F742C2073B5
:102CDE007472697000736F66742072657365740028
:102CEE00626C696E6B2074657374000A0A0A2D2D6E
:102CFE002D2D2D2D2D2D2D2D2D2D2D2D2D2D2D2DF6
:102D0E002D2D2D2D2D2D2D2D2D2D2D2D2D2D2D2DE5
:102D1E002D2D2D2D2D2D2D2D2D2D2D2D2D2D2D2DD5
:102D2E002D2D2D2D2D2D2D2D2D2D2D2D2D2D2D2DC5
:102D3E002D2D2D2D2D2D2D2D2D2D2D2D2D2D2D2DB5
:102D4E002D2D000A0A0A43616C6962726174656412
:082D5E0020776974683A000057
:00000001FF
