:100000000C9491000C94B9000C94B9000C94A707BF
:100010000C94A7070C94A7070C94B9000C94B90092
:100020000C94B9000C94B9000C94B9000C94B9006C
:100030000C94B9000C9437080C94B9000C94B900D6
:100040000C945E010C94B9000C9475070C944F0746
:100050000C94B9000C94B9000C94B9000C94B9003C
:100060000C94B9000C94B900C602CA02D102C002B5
:10007000D102C202CE02DE02D102D102D102D102ED
:10008000D102D102D102D102D502D102D102D102D4
:10009000D102D102646F6E652E00556E61626C658F
:1000A00020746F20636F6E6E65637400496E6974AF
:1000B00069616C697A696E67204446506C61796544
:1000C000722E0000000000240027002A000000001B
:1000D0000800020100000304070000000000000007
:1000E0000000000000250028002B00000000002375
:1000F000002600290004040404040404040202028B
:100100000202020303030303030102040810204058
:1001100080010204081020010204081020003C1095
:10012000851111241FBECFEFD8E0DEBFCDBF12E096
:10013000A0E0B1E0ECE4F4E202C005900D92A43737
:10014000B107D9F724E0A4E7B2E001C01D92AD3DAC
:10015000B207E1F710E0C0E9D0E004C02197FE014A
:100160000E940712CF38D107C9F70E9446090C94A4
:1001700019120C9400008E3008F08E508770806445
:1001800080937C0080917A00806480937A008091D3
:100190007A0086FDFCCF809178002091790090E074
:1001A000922B08953FB7F8948091F3029091F40256
:1001B000A091F502B091F60226B5A89B05C02F3F8D
:1001C00019F00196A11DB11D3FBFBA2FA92F982F7D
:1001D0008827820F911DA11DB11DBC01CD0142E0F8
:1001E000660F771F881F991F4A95D1F70895CF9200
:1001F000DF92EF92FF920F931F93CF93DF936C01E7
:100200007A018B01C0E0D0E0CE15DF0589F0D8017E
:100210006D918D01D601ED91FC910190F081E02D61
:10022000C6010995892B11F47E0102C02196ECCFFD
:10023000C701DF91CF911F910F91FF90EF90DF9059
:10024000CF9008950E9414128F929F92AF92BF9206
:10025000CF92DF92EF92FF926B017C010E94D2005D
:100260004B015C01C114D104E104F104F1F00E94DE
:10027000D200DC01CB0188199909AA09BB09883E83
:100280009340A105B10570F321E0C21AD108E1083D
:10029000F10888EE880E83E0981EA11CB11CC114E1
:1002A000D104E104F10419F7DDCFFF90EF90DF9066
:1002B000CF90BF90AF909F908F9008951F920F9214
:1002C0000FB60F9211242F933F938F939F93AF9369
:1002D000BF938091F7029091F802A091F902B0913A
:1002E000FA023091F20223E0230F2D3720F4019619
:1002F000A11DB11D05C026E8230F0296A11DB11D49
:100300002093F2028093F7029093F802A093F902EF
:10031000B093FA028091F3029091F402A091F50259
:10032000B091F6020196A11DB11D8093F302909346
:10033000F402A093F502B093F602BF91AF919F91A2
:100340008F913F912F910F900FBE0F901F90189596
:10035000009769F0FC0101900020E9F73197AF01A7
:10036000481B590BBC018BEF92E00C94F70080E026
:1003700090E008958F929F92AF92BF920F931F9338
:10038000CF93DF93CDB7DEB7A1970FB6F894DEBF5A
:100390000FBECDBF19A2423008F44AE08E010F5DB6
:1003A0001F4F842E912CA12CB12CA50194010E94E9
:1003B000AE11E62FB901CA0101501109EA3014F457
:1003C000E05D01C0E95CD801EC93232B242B252BA5
:1003D00061F7C8010E94A801A1960FB6F894DEBF8C
:1003E0000FBECDBFDF91CF911F910F91BF90AF9006
:1003F0009F908F900895CF92DF92EF92FF92CF93CC
:10040000DF936B017C01E091FB02F091FC02019013
:10041000F081E02D6DE28BEF92E00995EC0166270B
:100420007727CB016C197D098E099F094AE00E944C
:10043000BA018C0F9D1FDF91CF91FF90EF90DF905D
:10044000CF900895CF93DF930E94A801EC0180E53F
:1004500092E00E94A8018C0F9D1FDF91CF9108951B
:10046000CF93DF938091B7039091B803DC01ED91B6
:10047000FC910084F185E02D0995892B09F4B7C022
:10048000C091D5038091B7039091B803DC01ED9141
:10049000FC910284F385E02DC1110DC00995809374
:1004A000C1038E37F9F61092DB038091D5038F5F7D
:1004B0008093D503D7CF0995EC2FF0E0E954FC4F9A
:1004C00082879091D5039230A9F09930C9F091308C
:1004D00009F089C08091C2038F3F09F484C0109253
:1004E000D5039093D7031092DA031092D903909317
:1004F000DB03B3C08091C303863009F474C004C029
:100500008091CA038F3E19F01092D50364C0E2ECCB
:10051000F3E040E050E08191480F511DB3E0E83C2A
:10052000FB07C9F72091C80330E0322F22275195ED
:10053000419551098091C903280F311D1092D503AF
:100540004217530709F047C0E091C403E093D80372
:100550008091C60390E0982F88272091C703820FCF
:10056000911D9093DA038093D9034E2F50E0FA0146
:10057000FA97E631F105C8F4EC5CFF4F0C940712D2
:1005800085E00DC081FF1CC084E009C081FF18C058
:1005900082E005C081FF14C083E001C086E0809343
:1005A000D70381E08093DB030BC081E08093D70306
:1005B0001092DA031092D9038093DB031092DC03CC
:1005C000D091DB03DD2309F44AC08091CF03882357
:1005D00009F443C044C081E08093D7031092DA034A
:1005E0001092D90338C09F5F9093D5033BCF809181
:1005F000DC03882321F12FB7F8948091F7029091C2
:10060000F802A091F902B091FA022FBF4091B9030C
:100610005091BA036091BB037091BC03841B950B8E
:10062000A60BB70B4091BD035091BE036091BF0371
:100630007091C00384179507A607B70718F4D091E7
:10064000DB030DC01092D5031092D7031092DA038A
:100650001092D90381E08093DB031092DC038D2F8D
:10066000DF91CF9108958093CE037093D003609370
:10067000D103ECECF3E080E090E02191820F911D3A
:1006800023E0E23DF207C9F7919581959109909396
:10069000D2038093D3038091CF03882339F08091D4
:1006A000DC03882349F00E943002F9CF6AE070E051
:1006B00080E090E00E9424018091B7039091B803FC
:1006C000DC01ED91FC910280F381E02D4AE050E0E5
:1006D0006BEC73E009952FB7F8948091F702909135
:1006E000F802A091F902B091FA022FBF8093B903EA
:1006F0009093BA03A093BB03B093BC0381E09091A5
:10070000CF03911101C080E08093DC030895CF9363
:10071000DF93BC01990F880B990B97FF03C00E94D0
:10072000FB0103C04AE00E94BA01EC0180E592E0BF
:100730000E94A8018C0F9D1FDF91CF9108950C940A
:10074000A801BC01990F880B990B97FD0C94FB0134
:100750004AE00C94BA010F931F93CF93DF938C015F
:10076000C0E0D0E0F801EC0FFD1F6491662371F04A
:10077000E091FB02F091FC020190F081E02D8BEF03
:1007800092E00995892B11F02196ECCF80E592E05B
:100790000E94A8018C0F9D1FDF91CF911F910F9197
:1007A000089590E0FC01E353FF4F3491FC01E75FB3
:1007B000FE4F2491FC01EB50FF4FE491EE2309F42E
:1007C0003BC0332339F1333091F038F43130A9F0A4
:1007D000323001F584B58F7D12C0373091F038305A
:1007E000A1F03430B9F4809180008F7D03C08091F6
:1007F00080008F77809380000DC084B58F7784BD93
:1008000009C08091B0008F7703C08091B0008F7DC8
:100810008093B000F0E0EE0FFF1FEF51FF4FA59166
:10082000B4918FB7F894EC91611103C020952E23F9
:1008300001C02E2B2C938FBF0895CF93DF9390E0B0
:10084000FC01E75FFE4F2491FC01EB50FF4F8491C8
:10085000882361F190E0880F991FFC01ED53FF4F51
:10086000C591D491FC01EF51FF4FA591B491611155
:1008700009C09FB7F8948881209582238883EC91E2
:100880002E230BC0623061F49FB7F8943881822F19
:10089000809583238883EC912E2B2C939FBF06C0D9
:1008A0008FB7F894E8812E2B28838FBFDF91CF91EB
:1008B0000895FC01538D448D252F30E0842F90E066
:1008C000821B930B541710F0CF960895019708954B
:1008D000FC01918D828D981761F0828DDF01A80F48
:1008E000B11D5D968C91928D9F5F9F73928F90E06A
:1008F00008958FEF9FEF0895FC01918D828D9817D9
:1009000031F0828DE80FF11D858D90E008958FEF15
:100910009FEF0895FC01918D228D892F90E0805CDE
:100920009F4F821B91098F73992708958BEF92E057
:100930000E948A0421E0892B09F420E0822F089587
:10094000FC01848DDF01A80FB11DA35ABF4F2C916C
:10095000848D90E001968F739927848FA689B7893B
:100960002C93A089B1898C9180648C93938D848D14
:10097000981306C00288F389E02D80818F7D8083E3
:100980000895EF92FF920F931F93CF93DF93EC01A3
:1009900081E0888F9B8D8C8D981305C0E889F9893B
:1009A000808185FD24C0F62E0B8D10E00F5F1F4F58
:1009B0000F731127E02E8C8DE8120CC00FB607FCC8
:1009C000FACFE889F989808185FFF5CFCE010E94B1
:1009D000A004F1CF8B8DFE01E80FF11DE35AFF4F0C
:1009E000F0820B8FEA89FB898081806207C0EE89E3
:1009F000FF896083E889F98980818064808381E050
:100A000090E0DF91CF911F910F91FF90EF900895AB
:100A1000CF93DF93EC01888D8823C9F0EA89FB89A5
:100A2000808185FD05C0A889B9898C9186FD0FC09C
:100A30000FB607FCF5CF808185FFF2CFA889B98971
:100A40008C9185FFEDCFCE010E94A004E7CFDF910E
:100A5000CF91089580E090E0892B29F00E949604C0
:100A600081110C9400000895209176023091770254
:100A70002817390771F490917402809175029817C4
:100A800041F0E0917402F0E0E356FB4F808190E08A
:100A900008958FEF9FEF089508951F93CF93DF93ED
:100AA000DC015C962D913C915D972115310539F45F
:100AB00081E090E013969C938E9312973DC05196DF
:100AC000ED91FC91529750969C915097892F80956B
:100AD0001FB75E964C915E9741FB772770F941FDF9
:100AE0006095F8944081772311F0492B01C0482389
:100AF0004083E9012197F1F748E0508160FF02C08F
:100B0000592B01C058235083E9012197F1F76695CD
:100B1000415099F7772321F090818923808303C086
:100B20008081982B90831FBF5C968D919C915D97DF
:100B30000197F1F721E030E0C901DF91CF911F91DA
:100B4000089520917602309177022817390771F4C1
:100B5000809175022091740290E0805C9F4F821B0F
:100B6000910960E470E00E94F311089580E090E044
:100B70000895209176023091770228173907B9F449
:100B80009091740280917502981789F0E091740237
:100B9000F0E0E356FB4F80812091740230E02F5F3C
:100BA0003F4F2F7333272093740290E008958FEF07
:100BB0009FEF0895089580E090E008950F931F93AC
:100BC000CF93DF93EC018A81882321F061E0888153
:100BD0000E941D0460E088810E94D10383E090E0C0
:100BE0000197F1F761E088810E94D10383E290E0F0
:100BF0000197F1F760E088810E94D1038A81882300
:100C000021F060E088810E941D04298130E0F90113
:100C1000E75FFE4F6491F901EB50FF4FE491F0E084
:100C2000EE0FFF1FE551FF4F859194910B811C81C1
:100C30002D813E813F70462F0E940109611571058B
:100C40008105910539F0DC01CB010196A11DB11D93
:100C5000BF7003C080E090E0DC01DF91CF911F9175
:100C60000F9108950F931F93CF93DF93C091A0022C
:100C7000D091A1022196D093A102C093A0028091AD
:100C8000920290919302A0919402B09195020196E4
:100C9000A11DB11D8093920290939302A0939402A0
:100CA000B093950221E02093B402CE0163E070E09E
:100CB0000E94DF11892B11F42093B3028091A202CC
:100CC0009091A302039751F081E08093B2029E01BC
:100CD00023703327232B11F48093B102C0FD05C08C
:100CE00081E08093B0028093AF02CE016AE070E0B1
:100CF0000E94DF11892B19F481E08093AC02CE01B0
:100D000068EC70E00E94DF11892BF1F0CE0160EAFF
:100D10007FE00E94DF11892B09F04DC081E08093B4
:100D2000AD0283E592E00E9422021092AF0210927F
:100D3000B2021092AC021092B4021092B102109260
:100D4000B0021092AE0237C02091F903243110F4A2
:100D50002F5F01C020E02093F90330E0F901EE0F8E
:100D6000FF1FE650FC4F8091A4029091A502918351
:100D70008083F901EE0FFF1FEE5DFB4F8091A6020D
:100D80009091A70291838083F901EE0FFF1FE65B2C
:100D9000FB4F8091A8029091A90291838083220F3A
:100DA000331FF901EE58FB4F8091AA029091AB02DC
:100DB00091838083ABCF8091920290919302A09116
:100DC0009402B0919502883C9105A105B1056CF49F
:100DD0008091960290919702039739F481E0809375
:100DE000AE028EE592E00E9422028091A0029091D4
:100DF000A10260EC72E10E94DF11892B09F04AC068
:100E0000C8E9D2E0EAEFF3E004E110E080E090E02E
:100E100020E030E0DF01A80FB91F4D915C91240F55
:100E2000351F029688329105A9F7C901B8010E94C1
:100E3000F31169937993B89684E0EA39F80731F7AA
:100E400030939B0420939A048EE092E00E94220249
:100E500080919802909199020E94A10381EC91E007
:100E60000E949F0380919A0290919B020E94A1038D
:100E700081EC91E00E949F0380919C0290919D02E1
:100E80000E94A10381EC91E0DF91CF911F910F911E
:100E90000C949F03DF91CF911F910F9108951F92A2
:100EA0000F920FB60F9211242F933F934F935F939E
:100EB0006F937F938F939F93AF93BF93EF93FF9322
:100EC0008BEF92E00E94A004FF91EF91BF91AF9150
:100ED0009F918F917F916F915F914F913F912F9152
:100EE0000F900FBE0F901F9018951F920F920FB684
:100EF0000F9211242F938F939F93EF93FF93E09181
:100F00000B03F0910C038081E0911103F091120327
:100F100082FD12C09081809114038F5F8F732091A6
:100F20001503821751F0E0911403F0E0E550FD4FF6
:100F3000958F8093140301C08081FF91EF919F9161
:100F40008F912F910F900FBE0F901F9018951F92A9
:100F50000F920FB60F9211242F933F934F935F93ED
:100F60006F937F938F939F93AF93BF93EF93FF9371
:100F7000E0917602F0917702309709F451C0968D96
:100F8000A685B785858591FF04C09C91892329F4A6
:100F900047C09C91892309F043C0A389B4899C91DF
:100FA0008589809589238C93868997890197F1F7A4
:100FB000608D718DA685B785558538E020E0CB0121
:100FC0000197F1F7822F90E095958795282F4C9106
:100FD000452309F02068315091F7868D81FD2095D9
:100FE0008091750290E001968F7399273091740279
:100FF000381749F0A0917502B0E0A356BB4F2C936F
:101000008093750203C0868D8160868F828D938D5B
:101010000197F1F7A389B4899C918589892B8C93D9
:10102000FF91EF91BF91AF919F918F917F916F91C0
:101030005F914F913F912F910F900FBE0F901F9096
:101040001895E0917602F0917702E817F90769F4B4
:10105000A389B4899C918589809589238C9310926A
:1010600077021092760281E0089580E008951F9241
:101070000F920FB60F9211242F933F934F935F93CC
:101080006F937F938F939F93AF93BF93EF93FF9350
:10109000E0917802F09179020995FF91EF91BF916B
:1010A000AF919F918F917F916F915F914F913F9100
:1010B0002F910F900FBE0F901F90189520E931E0EF
:1010C0003093050120930401E4EAF2E0A8E9B2E0DC
:1010D000219131914D915D912417350784F42817A2
:1010E00039076CF4C901803921E0920714F080E9D6
:1010F00091E0909305018093040181E0089522E03E
:10110000EC3AF20729F780E00895CF93DF93E0915E
:101110009C04E23018F4C1E0CE0F01C0C0E0C093DF
:101120009C048BEF9CE70197F1F78BEE93E00E9414
:10113000DE05EC2FF0E0EE0FFF1FEA57FD4F6CE1EC
:1011400070E00E94DF117695679571836083C0918E
:101150009C04D0E0FE01EE0FFF1FEA57FD4F808197
:101160009181892B21F481E991E0918380838BE542
:101170009AEE0197F1F782EF93E00E94DE05CC0F23
:10118000DD1FC058DD4F6CE170E00E94DF117695E5
:10119000679579836883C0919C04D0E0FE01EE0FCF
:1011A000FF1FE058FD4F80819181892B21F481E957
:1011B00091E0918380838BEB9AED0197F1F784EEB8
:1011C00093E00E94DE05CC0FDD1FC457DD4F6CE1BC
:1011D00070E00E94DF117695679579836883E091CE
:1011E0009C04F0E0EE0FFF1FE457FD4F80819181DA
:1011F000892B21F481E991E091838083DF91CF9164
:101200000895CF92DF92EF92FF920F931F93E82FF2
:10121000F92F05C0015011092109310961F19081AF
:1012200096239417B9F305C001501109210931091A
:1012300011F1908196239413F7CFC12CD12CE12C7E
:10124000F12C0AC08FEFC81AD80AE80AF80A0C1560
:101250001D052E053F0579F080818623841791F3C3
:101260006C2D7D2D8E2D9F2D1F910F91FF90EF9056
:10127000DF90CF90089560E070E080E090E01F91F3
:101280000F91FF90EF90DF90CF900895789484B500
:10129000826084BD84B5816084BD85B5826085BD72
:1012A00085B5816085BD80916E00816080936E0000
:1012B00010928100809181008260809381008091F2
:1012C00081008160809381008091800081608093A3
:1012D00080008091B10084608093B1008091B00063
:1012E00081608093B00080917A00846080937A005E
:1012F00080917A00826080937A0080917A00816088
:1013000080937A0080917A00806880937A001092AE
:10131000C100E0910B03F0910C03D2E0D083E09187
:101320000703F09108031082E0910903F0910A038A
:1013300010E1108310921303E0910F03F09110035A
:1013400086E08083E0910D03F0910E03808180613F
:101350008083E0910D03F0910E038081886080838B
:10136000E0910D03F0910E03808180688083E0910D
:101370000D03F0910E0380818F7D80838DE991E0D4
:101380000E94220261E085E00E941D0461E086E087
:101390000E941D0461E083E00E941D0461E081E180
:1013A0000E941D0461E082E10E941D0461E088E06A
:1013B0000E941D0461E088E00E94D10361E081E1A8
:1013C0000E94D10361E082E10E94D10381EA84BDE1
:1013D000C1E0C5BD81E28093B000C093B10010931D
:1013E000810010928000D093B70280E593EC909337
:1013F000B6028093B502909387008093860082E1C5
:101400008093810064E670E080E090E00E94240117
:1014100082E396E09093790280937802C0936F0004
:101420008CEA91E00E9422021092B3031092B20360
:101430001092B1031092B0031092AF031092AE035A
:101440008DE991E09093B5038093B4039091A40348
:10145000963108F057C02DEB30E03093AF03209366
:10146000AE032BE931E03093B1032093B0032CE2BB
:1014700031E03093B3032093B20320916800983099
:1014800050F031E09E3008F430E081E001C0880F78
:101490003A95EAF701C084E0822B80936800983087
:1014A00038F09E3040F0963148F020E030E008C03F
:1014B0002DE630E005C02BE630E002C02CE630E03F
:1014C0003093AC032093AB03983030F481E001C03B
:1014D000880F9A95EAF70EC0292F30E09E3018F455
:1014E0002850310902C02E50310981E001C0880F17
:1014F0002A95EAF78093AD038091B4039091B503E8
:101500000197F1F78091B2039091B303892B21F1F8
:10151000809176029091770223E088399207E1F07A
:10152000009711F00E9421088091B6038E7F80936E
:10153000B603109275021092740288E993E09093BA
:10154000770280937602E091AB03F091AC03908137
:101550008091AD03892B80838CEA90E00E94AB03DD
:1015600011E0C8E9D3E01093CF03D093B803C09340
:10157000B7038091BD039091BE03A091BF03B091CA
:10158000C0038854944FAF4FBF4F8093BD039093D7
:10159000BE03A093BF03B093C00360E070E08CE093
:1015A0000E9433031093DC030E9430028823E1F38E
:1015B0008091BD039091BE03A091BF03B091C00381
:1015C000885B9B40A109B1098093BD039093BE0342
:1015D000A093BF03B093C00368EC70E080E090E09C
:1015E0000E9424011092DB038091D703843059F0CC
:1015F0008AE990E00E94AB0368EE73E080E090E03F
:101600000E942401B0CF84E990E00E94AB0361E026
:1016100081E10E94D10360E082E10E94D10301E0F8
:1016200010E0C2E0D0E084E0282E312C8091B4029A
:10163000882321F01092B4020E9485088091B302A1
:10164000882309F47EC01092B302EAE7F2E0A4EA2C
:10165000B2E0408151818281938124813581841758
:1016600095071CF02817390734F4821793076CF09C
:101670004817590724F011969C938E9310C0241795
:10168000350734F4281739073CF04217530724F084
:1016900011963C932E9303C011965C934E9336960D
:1016A000129632E0E239F307A1F685EB91E00E9451
:1016B0009F0380917E0290917F020E94A10380ECA3
:1016C00091E00E949F0380918402909185020E9484
:1016D000A10380EC91E00E949F0380918A02909187
:1016E0008B020E94A10380EC91E00E949F038091F5
:1016F0009002909191020E9487038091A4029091A0
:10170000A5020E94A10380EC91E00E949F038091BA
:10171000A6029091A7020E94A10380EC91E00E9492
:101720009F038091A8029091A9020E94A10380ECDE
:1017300091E00E949F038091AA029091AB020E94C7
:1017400087038091B202882309F453C11092B20238
:101750008091DB029091DC028230910521F00497A8
:1017600009F401C146C12091C20238B5822F90E030
:10177000831B91091816190614F08FEF01C081E040
:101780008093BC0288B5281302C01092BC0220913D
:10179000C10237B5822F90E0831B910918161906F4
:1017A00014F08FEF01C081E08093BB0287B528134E
:1017B00002C01092BB022091C0023091B400822F6F
:1017C00090E0831B91091816190614F08FEF01C0E1
:1017D00081E08093BA028091B400281302C0109275
:1017E000BA024091BC02411108C08091BB02811134
:1017F00004C08091BA02882319F01092C3020BC072
:1018000081E08093C3028091920290919302909321
:10181000B9028093B8028091C302811170C0809197
:10182000BD029091BE020296092E000CAA0BBB0BC2
:10183000C0909202D0909302E0909402F0909502B2
:101840008C159D05AE05BF050CF0D3C028B5842FBF
:10185000042E000C990BBC01620F711D6F3F7105C6
:1018600009F044F428B5820F911D97FD05C088B595
:10187000480F03C04FEF01C040E048BD27B540917D
:10188000BB02842F042E000C990BDC01A20FB11DAA
:10189000AF3FB10509F044F427B5820F911D97FDC4
:1018A00005C087B5480F03C04FEF01C040E047BDFA
:1018B0002091B4004091BA02842F042E000C990BA1
:1018C000BC01620F711D6F3F710509F054F4209146
:1018D000B400820F911D97FD06C08091B400480F9F
:1018E00003C04FEF01C040E04093B40080919202EA
:1018F000909193029093BE028093BD027AC0809132
:10190000C802882339F01092C2021092C1021092CC
:10191000C0026FC083EC91E00E9422028091BF025E
:10192000863010F48F5F01C080E08093BF02409149
:10193000DE0290E09C01220F331FF901E80FF91F2E
:1019400075E1479FE00DF11D1124EA5FFE4F808194
:101950008093C20281818093C10282818093C00200
:101960001092C30246C0409192025091930260913E
:101970009402709195028091D3029091D4026C01EF
:10198000990FEE08FF088091D7029091D802A0919C
:10199000D902B091DA028C0D9D1DAE1DBF1D4817F6
:1019A00059076A077B070CF5C090D502D090D60284
:1019B000E090D102F090D202C6018E0D9F1D092E3B
:1019C000000CAA0BBB0B481759076A077B072CF4BE
:1019D00018BC8FEF8093B40087BD809192029091E4
:1019E00093029093D6028093D5021093DC02009369
:1019F000DB028091B102882309F460C01092B10229
:101A00008091F0029091F102009729F00197F9F48A
:101A10008EE090E013C08091EE029091EF0200976B
:101A200091F00197A1F48091C6029091C7028B308A
:101A3000910514F4019602C08BE090E09093C702E8
:101A40008093C60204C01092C7021092C602809111
:101A5000C4029091C5026091C6027091C7028617B8
:101A6000970754F49C012D5F3F4F2617370784F4E6
:101A7000BC016C5F7F4F0CC068177907ACF49C0108
:101A800023503109621773071CF4BC0164507109BB
:101A90007093C5026093C402772786E00E943303E7
:101AA00060E088E00E94D1038091C4029091C50259
:101AB000892B21F461E088E00E94D1038091B0027B
:101AC000882309F4DDC01092B0028091F002909159
:101AD000F10281309105E9F082309105A9F1892B5D
:101AE00009F05EC088E290E00E945E08882309F455
:101AF00057C0D093DC02C093DB021092DE0261E09B
:101B00008DE00E94D10360E070E088E10E94330321
:101B100043C088E290E00E945E08811141C0D093EA
:101B2000F102C093F0028091920290919302A091F1
:101B30009402B09195028093CD029093CE02A0932F
:101B4000CF02B093D0022CC08091CD029091CE02F2
:101B5000A091CF02B091D00288539F4FAF4FBF4F9B
:101B6000409192025091930260919402709195027B
:101B700084179507A607B7074CF460E08DE00E9434
:101B8000D1031092F1021092F0020AC088E290E0B4
:101B90000E945E08882321F01093F1020093F00266
:101BA0008091EE029091EF028130910591F08230A8
:101BB0009105A9F1892B09F055C08AE590E00E94B2
:101BC0005E08882309F44EC01093EF020093EE02E2
:101BD00049C0D093DC02C093DB0260E088E00E9441
:101BE000D10382E08093DE028AE590E00E945E08E5
:101BF000811138C0D093EF02C093EE02809192021F
:101C000090919302A0919402B09195028093C902A1
:101C10009093CA02A093CB02B093CC0223C08091D0
:101C2000C9029091CA02A091CB02B091CC02805718
:101C30009E4FAF4FBF4F40919202509193026091DF
:101C400094027091950284179507A607B7070CF0C8
:101C5000B4CF60E070E086E10E9433031092EF029F
:101C60001092EE028091F0029091F102892B29F4FA
:101C70009091DD0281E0892701C080E08093C80255
:101C80008091AF02882309F4E2C01092AF0286E08F
:101C90000E94BB009093E7028093E60221E0853822
:101CA00093400CF020E02093E50280919602909101
:101CB00097028230910509F47FC02CF40097B1F0AF
:101CC000019721F1C4C08430910509F4B7C00CF428
:101CD000AEC0059709F0BBC060E070E088E10E94EB
:101CE00033038DEC91E00E942202ADC0222309F45F
:101CF000AEC080919202909193029093E4028093FF
:101D0000E3021093970200939602A1C021110DC027
:101D100080919202909193029093E2028093E1026B
:101D2000D0939702C093960292C040919202509134
:101D3000930260919402709195028091E3029091D8
:101D4000E4028C599F4F092E000CAA0BBB0B841781
:101D50009507A607B7070CF07AC03092DC022092F4
:101D6000DB024093D7025093D8026093D90270935C
:101D7000DA025093D6024093D50224E630E0309345
:101D8000D4022093D30264E170E07093D202609396
:101D9000D10280E090E0A0E0BFE380930001909347
:101DA0000101A0930201B0930301A5E0B0E0B0935C
:101DB0009702A09396024BC02223B1F08091920229
:101DC000909193029093E0028093DF028091DE0273
:101DD000843011F08F5F01C080E08093DE0230928A
:101DE00097022092960233C08091E1029091E20224
:101DF0004496092E000CAA0BBB0B40919202509105
:101E00009302609194027091950284179507A6073A
:101E1000B707ECF49091DD0281E089278093DD0221
:101E200023E030E0309397022093960210C02111F6
:101E30000EC0109297021092960209C060E070E006
:101E400081E00E9433038091E502882391F3809121
:101E5000AE02882309F47EC01092AE0280EE91E0BB
:101E60000E9422020E9485089BE3E92E9DE0F92E44
:101E7000C7010197F1F70E948508C7010197F1F7A3
:101E80000E94850861E08DE00E94D10360E081E15D
:101E90000E94D10361E082E10E94D10382EF91E0D0
:101EA0000E94220268E873E180E090E00E94240131
:101EB00060E08DE00E94D10381E092E00E94220266
:101EC0008091A4029091A502909399028093980228
:101ED0008091A6029091A70290939B0280939A0210
:101EE0008091A8029091A90290939D0280939C02F8
:101EF0008091AA029091AB0290939F0280939E02E0
:101F00008EE092E00E9422028091980290919902C4
:101F10000E94A10381EC91E00E949F0380919A02AC
:101F200090919B020E94A10381EC91E00E949F038B
:101F300080919C0290919D020E94A10381EC91E00E
:101F40000E949F0361E081E10E94D10360E082E191
:101F50000E94D1038091AD02882309F452C01092EF
:101F6000AD0287E00E94BB009093ED028093EC02EB
:101F70002EE838E0DC010E940D1220E034E040E061
:101F800050E00E948F11C9013093EB022093EA02C6
:101F90008C3434E093072CF4D093A302C093A202B4
:101FA0000CC0803B94402CF41093A3020093A20237
:101FB00004C01092A3021092A2022091A2023091BA
:101FC000A30221153105A1F023303105B1F4809130
:101FD000A0029091A1026AE070E00E94DF11892BBB
:101FE00081F43093E9022093E8028FE192E007C088
:101FF000D093E902C093E80204C081E392E00E941A
:1020000022028091AC028823A1F11092AC0280E4FC
:1020100092E00E949F038091F0029091F1020E9451
:10202000A10385E492E00E949F038091EE029091CB
:10203000EF020E94A1038CE492E00E949F03809132
:10204000A4029091A5020E94A10380EC91E00E945D
:102050009F038091A6029091A7020E94A10380ECA9
:1020600091E00E949F038091A8029091A9020E9492
:1020700087030E942A05DACA8F929F92AF92BF927D
:10208000CF92DF92EF92FF92CF93DF931092FE02F6
:102090001092FD0298EE892E93E0992EA12CB12C7E
:1020A0008092FF0290920003A0920103B09202037B
:1020B0008DE791E09093FC028093FB0285EC90E029
:1020C000909308038093070384EC90E090930A03B5
:1020D0008093090380EC90E090930C0380930B03B2
:1020E00081EC90E090930E0380930D0382EC90E0DE
:1020F0009093100380930F0386EC90E0909312036B
:10210000809311031092140310921503109216037A
:10211000109217031092F403C3E1C093F203DAE0C4
:10212000D093F30361E083E10E941D0460E080919D
:10213000F3030E941D0480E29EE4A0E0B0E08093DF
:10214000F5039093F603A093F703B093F80310926E
:10215000ED03C093EB038EE08093EC0361E083E139
:102160000E941D0460E08091EC030E941D0428E998
:10217000C22E2AE3D22EE12CF12CC092EE03D09293
:10218000EF03E092F003F092F1031092E603C093A4
:10219000E4038FE08093E50361E083E10E941D0486
:1021A00060E08091E5030E941D04C092E703D09295
:1021B000E803E092E903F092EA031092DF03C09390
:1021C000DD0380E18093DE0361E083E10E941D0472
:1021D00060E08091DE030E941D04C092E003D09273
:1021E000E103E092E203F092E30384EF91E0A0E0E8
:1021F000B0E08093BD039093BE03A093BF03B09360
:10220000C003EFE6F1E0ABECB3E001900D92DA959C
:10221000E1F71092D50382E08093D6031092DB039E
:102220001092DC0310929B0310929A0380929C03FD
:1022300090929D03A0929E03B0929F038FE891E03D
:1022400090939903809398031092AF031092AE037A
:102250001092B1031092B0031092B3031092B20324
:102260001092B5031092B4036091B6036E7F6D7F38
:102270006093B6036695617081E0682784E00E94F0
:10228000D10361E084E00E941D04EDE0F1E0E491FF
:10229000E093A803E9EFF0E0E491F0E0EE0FFF1F18
:1022A000EF51FF4F859194919093AA038093A903D6
:1022B00060E087E00E941D048091B60381FD04C0A8
:1022C00061E087E00E94D10387E08093A403E0E10E
:1022D000F1E0E491E093A503ECEFF0E0E491F0E0AD
:1022E000EE0FFF1FE551FF4F859194919093A70347
:1022F0008093A603DF91CF91FF90EF90DF90CF9076
:10230000BF90AF909F908F9008958FE891E0909349
:1023100099038093980388E993E00C942108052E93
:1023200097FB1EF400940E94A61157FD07D00E944F
:10233000AE1107FC03D04EF40C94A61150954095B5
:10234000309521953F4F4F4F5F4F08959095809561
:10235000709561957F4F8F4F9F4F0895A1E21A2E80
:10236000AA1BBB1BFD010DC0AA1FBB1FEE1FFF1F39
:10237000A217B307E407F50720F0A21BB30BE40B89
:10238000F50B661F771F881F991F1A9469F76095D0
:102390007095809590959B01AC01BD01CF0108958A
:1023A000A29FB001B39FC001A39F700D811D112496
:1023B000911DB29F700D811D1124911D0895AA1BBE
:1023C000BB1B51E107C0AA1FBB1FA617B70710F020
:1023D000A61BB70B881F991F5A95A9F78095909552
:1023E000BC01CD01089597FB072E16F4009407D089
:1023F00077FD09D00E94DF1107FC05D03EF49095CF
:1024000081959F4F0895709561957F4F0895EE0FC8
:10241000FF1F0590F491E02D09940E94D011B7FFA1
:102420000895821B930B089581E090E0F8940C943A
:10243000191210E0C0E9D0E004C0FE010E940712AA
:0C2440002196C139D107C9F7F894FFCFED
:10244C000000003F90010000FFFFFFFFFF000000B5
:10245C00FF000000FFFFFF005050508D6E63FF57D0
:10246C0022FF6F00CDDC394CAF500096887E57C2EE
:10247C00007D00007D417D7D007D4100004100001C
:10248C00417D00007D0000FFFF28FFFF0000962823
:10249C00321400FFFF6414646464D76400D7A7246B
:1024AC007878783246FF00A0FF3C28827850287E4E
:1024BC00FF06000100000000EF00000000C104F75F
:1024CC0000590408058A0468047C04000000004DCF
:1024DC0005F700DB054C05A105B9053405736572DC
:1024EC0069616C20656E61626C656400656E61206B
:1024FC006D757465007261773A2028326E6429001C
:10250C00090900636F6C6F722063686700426C6925
:10251C006E6B696E6720696E6974696174656400BD
:10252C00496E697469616C2063616C696272617473
:10253C006500737461727420357320776169743A25
:10254C0000656E6420357320776169743A004361CD
:10255C006C6962726174656420776974683A0056BC
:10256C006F6C7461676520437269746963616C2177
:10257C0000566F6C746167652074657374656400D4
:10258C007A313A200009207A323A200009200900D9
:10259C000D0A00736F667420726573657400656E46
:1025AC00746572696E672063616C696272617469CB
:0425BC006F6E00003E
:00000001FF
