:100000000C9491000C94B9000C94B9000C948604E3
:100010000C9486040C9486040C94B9000C94B900DA
:100020000C94B9000C94B9000C94B9000C94B9006C
:100030000C94B9000C9416050C94B9000C94B900FA
:100040000C9417090C94B9000C9454040C942E04CD
:100050000C94B9000C94B9000C94B9000C94B9003C
:100060000C94B9000C94B90057075B07620751075D
:10007000620753075F076F0762076207620762073D
:100080006207620762076207660762076207620724
:1000900062076207646F6E652E00556E61626C6563
:1000A00020746F20636F6E6E65637400496E6974AF
:1000B00069616C697A696E67204446506C61796544
:1000C000722E0000000000240027002A000000001B
:1000D0000800020100000304070000000000000007
:1000E0000000000000250028002B00000000002375
:1000F000002600290004040404040404040202028B
:100100000202020303030303030102040810204058
:1001100080010204081020010204081020002613A8
:100120001C1311241FBECFEFD8E0DEBFCDBF13E0FC
:10013000A0E0B1E0E0E4FAE202C005900D92AA3D31
:10014000B107D9F726E0AAEDB3E001C01D92A533AF
:10015000B207E1F710E0C0E9D0E004C02197FE014A
:100160000E940115CF38D107C9F70E94A6090C9447
:1001700013150C940000CF92DF92EF92FF920F9331
:100180001F93CF93DF936C017A018B01C0E0D0E025
:10019000CE15DF0589F0D8016D918D01D601ED9165
:1001A000FC910190F081E02DC6010995892B11F495
:1001B0007E0102C02196ECCFC701DF91CF911F9144
:1001C0000F91FF90EF90DF90CF900895FC01538D39
:1001D000448D252F30E0842F90E0821B930B541721
:1001E00010F0CF96089501970895FC01918D828DAE
:1001F000981761F0828DDF01A80FB11D5D968C917B
:10020000928D9F5F9F73928F90E008958FEF9FEF85
:100210000895FC01918D828D981731F0828DE80F41
:10022000F11D858D90E008958FEF9FEF0895FC01FB
:10023000918D228D892F90E0805C9F4F821B9109C8
:100240008F73992708958CE095E00E94170121E0B3
:10025000892B09F420E0822F0895FC01848DDF01B1
:10026000A80FB11DA35ABF4F2C91848D90E0019629
:100270008F739927848FA689B7892C93A089B18918
:100280008C9180648C93938D848D981306C0028822
:10029000F389E02D80818F7D80830895EF92FF9216
:1002A0000F931F93CF93DF93EC0181E0888F9B8D99
:1002B0008C8D981305C0E889F989808185FD24C05B
:1002C000F62E0B8D10E00F5F1F4F0F731127E02EDE
:1002D0008C8DE8120CC00FB607FCFACFE889F989BB
:1002E000808185FFF5CFCE010E942D01F1CF8B8D4E
:1002F000FE01E80FF11DE35AFF4FF0820B8FEA89F0
:10030000FB898081806207C0EE89FF896083E8896C
:10031000F98980818064808381E090E0DF91CF91D2
:100320001F910F91FF90EF900895CF93DF93EC0111
:10033000888D8823C9F0EA89FB89808185FD05C005
:10034000A889B9898C9186FD0FC00FB607FCF5CF3F
:10035000808185FFF2CFA889B9898C9185FFEDCF87
:10036000CE010E942D01E7CFDF91CF91089580E06B
:1003700090E0892B29F00E94230181110C94000048
:1003800008952091DC033091DD032817390771F4BB
:100390009091DA038091DB03981741F0E091DA0342
:1003A000F0E0EC53FB4F808190E008958FEF9FEFDA
:1003B000089508951F93CF93DF93DC015C962D91F0
:1003C0003C915D972115310539F481E090E0139659
:1003D0009C938E9312973DC05196ED91FC9152974C
:1003E00050969C915097892F80951FB75E964C919F
:1003F0005E9741FB772770F941FD6095F894408145
:10040000772311F0492B01C048234083E90121974C
:10041000F1F748E0508160FF02C0592B01C058231A
:100420005083E9012197F1F76695415099F77723B9
:1004300021F090818923808303C08081982B908351
:100440001FBF5C968D919C915D970197F1F721E01C
:1004500030E0C901DF91CF911F9108952091DC0315
:100460003091DD032817390771F48091DB03209167
:10047000DA0390E0805C9F4F821B910960E470E09A
:100480000E94ED14089580E090E008952091DC032F
:100490003091DD0328173907B9F49091DA03809180
:1004A000DB03981789F0E091DA03F0E0EC53FB4F9F
:1004B00080812091DA0330E02F5F3F4F2F73332785
:1004C0002093DA0390E008958FEF9FEF0895089549
:1004D00080E090E008950E940E150F931F93CF9334
:1004E000DF93EC018A81882321F061E088810E94FA
:1004F000360860E088810E94EA0783E090E0019777
:10050000F1F761E088810E94EA0783E290E00197B9
:10051000F1F760E088810E94EA078A81882321F050
:1005200060E088810E943608298130E0F901E75FA8
:10053000FE4F6491F901EB50FF4FE491F0E0EE0FB4
:10054000FF1FE551FF4F859194910B811C812D81F7
:100550003E813F70462F0E9461096115710581053A
:10056000910539F0DC01CB010196A11DB11DBF70D1
:1005700003C080E090E0DC01DF91CF911F910F91EB
:1005800008950F931F93CF93DF93C091C104D0912F
:10059000C2042196D093C204C093C1048091FE038B
:1005A0009091FF03A0910004B09101040196A11D58
:1005B000B11D8093FE039093FF03A0930004B093BA
:1005C000010481E08093100480930F0480930B0456
:1005D0002091FC033091FD032330310549F08093D5
:1005E0000E049E0123703327232B11F480930D04F6
:1005F000C0FD05C081E080930C0480930904CE0106
:1006000064E170E00E94ED14892B19F481E080937D
:100610000804CE0168EC70E00E94ED14892B59F5B6
:1006200020914604243110F42F5F01C020E0209374
:10063000460430E0F901EE0FFF1FE95BFB4F8091AC
:1006400002049091030491838083F901EE0FFF1F50
:10065000E159FB4F809104049091050491838083BC
:10066000220F331FF901E956FB4F80910604909148
:10067000070491838083CE0160EA7FE00E94ED143D
:10068000892BA9F481E080930A0483EC93E00E9413
:10069000270610920B0410920E0410920804109278
:1006A000100410920D0410920C0410921104809109
:1006B000FE039091FF03A0910004B09101048039E2
:1006C00021E09207A105B105BCF42091FA03309115
:1006D000FB032330310581F42091E6033091E703D9
:1006E0002330310549F081E08093110460E070E02F
:1006F0008EE00E94C30824C0AC01BD0141595140A5
:1007000061097109473C51056105710558F48091F3
:10071000E6039091E703039799F460E081E10E947A
:10072000EA070EC089359240A105B1054CF08091D1
:10073000E6039091E703039719F081E08093110499
:100740008091FE039091FF03A0910004B0910104F9
:1007500084369105A105B105CCF48091FA039091FE
:10076000FB03049799F421E030E030930B062093CB
:100770000A0681E0809318063093200620931F0616
:1007800080932D068EEC93E00E9427068091C10491
:100790009091C20460EC72E10E94ED14892B09F083
:1007A00058C083E090E09093E7038093E603C0EEA7
:1007B000D3E0E7E4F4E004E110E020E030E080E0A2
:1007C00090E0DF01A80FB91F4D915C91240F351FF8
:1007D000029688329105A9F7243631053CF0C9010B
:1007E000B8010E94ED14CB01049702C080E090E0B4
:1007F00089939993B89684E0EF3BF807F1F630932C
:10080000C0042093BF0482E192E00E9427068091F9
:10081000E0039091E1030E949F0687EA93E00E9423
:1008200035068091E2039091E3030E949F0687EAD8
:1008300093E00E9435068091E4039091E5030E94C5
:100840009F0687EA93E0DF91CF911F910F910C945F
:100850003506DF91CF911F910F9108951F920F924E
:100860000FB60F9211242F933F934F935F936F9383
:100870007F938F939F93AF93BF93EF93FF938CE0FE
:1008800095E00E942D01FF91EF91BF91AF919F9153
:100890008F917F916F915F914F913F912F910F9029
:1008A0000FBE0F901F9018951F920F920FB60F92C8
:1008B00011242F938F939F93EF93FF93E0911C0547
:1008C000F0911D058081E0912205F091230582FDC4
:1008D00012C09081809125058F5F8F73209126052E
:1008E000821751F0E0912505F0E0E45FFA4F958F13
:1008F0008093250501C08081FF91EF919F918F9199
:100900002F910F900FBE0F901F9018951F920F926E
:100910000FB60F9211242F933F934F935F936F93D2
:100920007F938F939F93AF93BF93EF93FF93E09148
:10093000DC03F091DD03309709F451C0968DA68554
:10094000B785858591FF04C09C91892329F447C010
:100950009C91892309F043C0A389B4899C9185891E
:10096000809589238C93868997890197F1F7608D0B
:10097000718DA685B785558538E020E0CB010197BC
:10098000F1F7822F90E095958795282F4C9145237C
:1009900009F02068315091F7868D81FD2095809176
:1009A000DB0390E001968F7399273091DA033817B3
:1009B00049F0A091DB03B0E0AC53BB4F2C93809384
:1009C000DB0303C0868D8160868F828D938D0197B6
:1009D000F1F7A389B4899C918589892B8C93FF9128
:1009E000EF91BF91AF919F918F917F916F915F91A7
:1009F0004F913F912F910F900FBE0F901F90189520
:100A0000E091DC03F091DD03E817F90769F4A389AD
:100A1000B4899C918589809589238C931092DD03FC
:100A20001092DC0381E0089580E008951F920F92F8
:100A30000FB60F9211242F933F934F935F936F93B1
:100A40007F938F939F93AF93BF93EF93FF93E09127
:100A5000DE03F091DF030995FF91EF91BF91AF9114
:100A60009F918F917F916F915F914F913F912F91C6
:100A70000F900FBE0F901F9018950F931F93CF9359
:100A8000DF93EC01E2E0F4E0A0EEB3E020E931E036
:100A900080E0419151910D911D914017510744F40F
:100AA0004C175D072CF4421753070CF49A0181E0B0
:100AB00094E0E830F90769F73093050120930401C9
:100AC0006130710541F06230710549F430930301E2
:100AD0002093020104C03093010120930001DF91B3
:100AE000CF911F910F910895CF93DF93E091C304AD
:100AF000E23018F4C1E0CE0F01C0C0E0C093C304DF
:100B00008BE39CE90197F1F78CEF95E00E946D0271
:100B1000EC2FF0E0EE0FFF1FE251FC4F6CE170E0B4
:100B20000E94D9147695679571836083C091C30440
:100B3000D0E0FE01EE0FFF1FE251FC4F808191815A
:100B4000892B21F481E991E0918380838BE59AEEF2
:100B50000197F1F783E096E00E946D02CC0FDD1F54
:100B6000C851DC4F6CE170E00E94D914769567950E
:100B700079836883C091C304D0E0FE01EE0FFF1FAC
:100B8000E851FC4F80819181892B21F481E991E02A
:100B9000918380838BEB9AED0197F1F785EF95E0D8
:100BA0000E946D02CC0FDD1FCC50DC4F6CE170E079
:100BB0000E94D9147695679579836883E091C30480
:100BC000F0E0EE0FFF1FEC50FC4F80819181892BEC
:100BD00021F481E991E091838083DF91CF910895A1
:100BE0003FB7F8948091040590910505A091060502
:100BF000B091070526B5A89B05C02F3F19F00196B7
:100C0000A11DB11D3FBFBA2FA92F982F8827820F92
:100C1000911DA11DB11DBC01CD0142E0660F771FE2
:100C2000881F991F4A95D1F70895009769F0FC0134
:100C300001900020E9F73197AF01481B590BBC0127
:100C40008CE095E00C94BB0080E090E00895CF9399
:100C5000DF930E941506EC018AE993E00E941506D5
:100C60008C0F9D1FDF91CF9108950C9415068F92E4
:100C70009F92AF92BF920F931F93CF93DF93CDB705
:100C8000DEB7A1970FB6F894DEBF0FBECDBF19A295
:100C9000423008F44AE08E010F5D1F4F842E912CE4
:100CA000A12CB12CA50194010E94A814E62FB90132
:100CB000CA0101501109EA3014F4E05D01C0E95C99
:100CC000D801EC93232B242B252B61F7C8010E941C
:100CD0001506A1960FB6F894DEBF0FBECDBFDF910B
:100CE000CF911F910F91BF90AF909F908F900895DB
:100CF000CF92DF92EF92FF92CF93DF936B017C0153
:100D0000E0910C05F0910D050190F081E02D6DE270
:100D10008CE095E00995EC0166277727CB016C19EB
:100D20007D098E099F094AE00E9437068C0F9D1F9E
:100D3000DF91CF91FF90EF90DF90CF900895BC01AD
:100D4000990F880B990B97FD0C9478064AE00C9448
:100D50003706CF93DF93BC01990F880B990B97FF50
:100D600003C00E94780603C04AE00E943706EC01E7
:100D70008AE993E00E9415068C0F9D1FDF91CF91A9
:100D80000895CF93DF938091C8059091C905DC0148
:100D9000ED91FC910084F185E02D0995892B09F4F2
:100DA000B7C0C091E6058091C8059091C905DC01E6
:100DB000ED91FC910284F385E02DC1110DC00995E0
:100DC0008093D2058E37F9F61092EC058091E605F6
:100DD0008F5F8093E605D7CF0995EC2FF0E0E853BD
:100DE000FA4F82879091E6059230A9F09930C9F0C8
:100DF000913009F089C08091D3058F3F09F484C0F8
:100E00001092E6059093E8051092EB051092EA0522
:100E10009093EC05B3C08091D405863009F474C07A
:100E200004C08091DB058F3E19F01092E60564C086
:100E3000E3EDF5E040E050E08191480F511DB5E051
:100E4000E93DFB07C9F72091D90530E0322F222771
:100E50005195419551098091DA05280F311D109265
:100E6000E6054217530709F047C0E091D505E09326
:100E7000E9058091D70590E0982F88272091D80523
:100E8000820F911D9093EB058093EA054E2F50E061
:100E9000FA01FA97E631F105C8F4EC5CFF4F0C94C7
:100EA000011585E00DC081FF1CC084E009C081FFF1
:100EB00018C082E005C081FF14C083E001C086E055
:100EC0008093E80581E08093EC050BC081E080937E
:100ED000E8051092EB051092EA058093EC0510925C
:100EE000ED05D091EC05DD2309F44AC08091E005C1
:100EF000882309F443C044C081E08093E805109240
:100F0000EB051092EA0538C09F5F9093E6053BCF52
:100F10008091ED05882321F12FB7F8948091080581
:100F200090910905A0910A05B0910B052FBF409142
:100F3000CA055091CB056091CC057091CD05841BFD
:100F4000950BA60BB70B4091CE055091CF05609144
:100F5000D0057091D10584179507A607B70718F437
:100F6000D091EC050DC01092E6051092E8051092A4
:100F7000EB051092EA0581E08093EC051092ED05F7
:100F80008D2FDF91CF9108950F931F93CF93DF9310
:100F90008C01C0E0D0E0F801EC0FFD1F64916623E6
:100FA00071F0E0910C05F0910D050190F081E02DBC
:100FB0008CE095E00995892B11F02196ECCF8AE918
:100FC00093E00E9415068C0F9D1FDF91CF911F911A
:100FD0000F91089590E0FC01E353FF4F3491FC0121
:100FE000E75FFE4F2491FC01EB50FF4FE491EE23AD
:100FF00009F43BC0332339F1333091F038F4313008
:10100000A9F0323001F584B58F7D12C0373091F0F0
:101010003830A1F03430B9F4809180008F7D03C066
:10102000809180008F77809380000DC084B58F778A
:1010300084BD09C08091B0008F7703C08091B0005B
:101040008F7D8093B000F0E0EE0FFF1FEF51FF4F58
:10105000A591B4918FB7F894EC91611103C02095DC
:101060002E2301C02E2B2C938FBF0895CF93DF9397
:1010700090E0FC01E75FFE4F2491FC01EB50FF4F35
:101080008491882361F190E0880F991FFC01ED5352
:10109000FF4FC591D491FC01EF51FF4FA591B49141
:1010A000611109C09FB7F8948881209582238883B5
:1010B000EC912E230BC0623061F49FB7F894388115
:1010C000822F809583238883EC912E2B2C939FBFB6
:1010D00006C08FB7F894E8812E2B28838FBFDF914D
:1010E000CF9108958E3008F08E5087708064809381
:1010F0007C0080917A00806480937A0080917A00ED
:1011000086FDFCCF809178002091790090E0922BB1
:1011100008958F929F92AF92BF92CF92DF92EF92FB
:10112000FF926B017C010E94F0054B015C01C11430
:10113000D104E104F104F1F00E94F005DC01CB01DF
:1011400088199909AA09BB09883E9340A105B105F0
:1011500070F321E0C21AD108E108F10888EE880E88
:1011600083E0981EA11CB11CC114D104E104F10458
:1011700019F7DDCFFF90EF90DF90CF90BF90AF9049
:101180009F908F9008958093DF057093E1056093A1
:10119000E205EDEDF5E080E090E02191820F911DF8
:1011A00025E0E33EF207C9F7919581959109909367
:1011B000E3058093E4058091E005882339F0809170
:1011C000ED05882349F00E94C106F9CF6AE070E07E
:1011D00080E090E00E9489088091C8059091C9053F
:1011E000DC01ED91FC910280F381E02D4AE050E0BA
:1011F0006CED75E009952FB7F894809108059091F2
:101200000905A0910A05B0910B052FBF8093CA056F
:101210009093CB05A093CC05B093CD0581E0909140
:10122000E005911101C080E08093ED0508951F92C3
:101230000F920FB60F9211242F933F938F939F938A
:10124000AF93BF938091080590910905A0910A057D
:10125000B0910B053091340623E0230F2D3720F495
:101260000196A11DB11D05C026E8230F0296A11D00
:10127000B11D209334068093080590930905A0932F
:101280000A05B0930B058091040590910505A09186
:101290000605B09107050196A11DB11D80930405B7
:1012A00090930505A0930605B0930705BF91AF91F4
:1012B0009F918F913F912F910F900FBE0F901F9094
:1012C0001895CF92DF92EF92FF920F931F93E82F22
:1012D000F92F05C0015011092109310961F19081EF
:1012E00096239417B9F305C001501109210931095A
:1012F00011F1908196239413F7CFC12CD12CE12CBE
:10130000F12C0AC08FEFC81AD80AE80AF80A0C159F
:101310001D052E053F0579F080818623841791F302
:101320006C2D7D2D8E2D9F2D1F910F91FF90EF9095
:10133000DF90CF90089560E070E080E090E01F9132
:101340000F91FF90EF90DF90CF900895789484B53F
:10135000826084BD84B5816084BD85B5826085BDB1
:1013600085B5816085BD80916E00816080936E003F
:101370001092810080918100826080938100809131
:1013800081008160809381008091800081608093E2
:1013900080008091B10084608093B1008091B000A2
:1013A00081608093B00080917A00846080937A009D
:1013B00080917A00826080937A0080917A008160C7
:1013C00080937A0080917A00806880937A001092EE
:1013D000C100E0911C05F0911D05D2E0D083E091A1
:1013E0001805F09119051082E0911A05F0911B057E
:1013F00088E0808310922405E0912005F09121057A
:1014000086E08083E0911E05F0911F058081806158
:101410008083E0911E05F0911F05808188608083A4
:10142000E0911E05F0911F05808180688083E09126
:101430001E05F0911F0580818F7D80838CED91E0EA
:101440000E94270661E08BE00E94360861E085E09B
:101450000E94360861E086E00E94360861E083E081
:101460000E94360861E081E10E94360861E082E175
:101470000E94360861E088E00E94360861E088E05A
:101480000E94EA0761E081E10E94EA0761E082E1EF
:101490000E94EA0781EA84BDC1E0C5BD8093B00027
:1014A000C093B10080E18093810010928000D093BE
:1014B000140480E593EC90931304809312049093AA
:1014C00087008093860082E18093810064E670E06B
:1014D00080E090E00E94890881EC92E09093DF0325
:1014E0008093DE03C0936F008BEE91E00E9427068D
:1014F0001092C4051092C3051092C2051092C10546
:101500001092C0051092BF058DE991E09093C60539
:101510008093C5059091B505963108F057C02DEB25
:1015200030E03093C0052093BF052BE931E03093C4
:10153000C2052093C1052CE231E03093C40520930D
:10154000C30520916800983050F031E09E3008F4D7
:1015500030E081E001C0880F3A95EAF701C084E0ED
:10156000822B80936800983038F09E3040F096319E
:1015700048F020E030E008C02DE630E005C02BE662
:1015800030E002C02CE630E03093BD052093BC056E
:10159000983030F481E001C0880F9A95EAF70EC0C8
:1015A000292F30E09E3018F42850310902C02E5007
:1015B000310981E001C0880F2A95EAF78093BE05C2
:1015C0008091C5059091C6050197F1F78091C305FB
:1015D0009091C405892B21F18091DC039091DD036A
:1015E00025E0893A9207E1F0009711F00E9400058A
:1015F0008091C7058E7F8093C7051092DB03109200
:10160000DA0389EA95E09093DD038093DC03E091AF
:10161000BC05F091BD0590818091BE05892B80832A
:101620008CEA90E00E94C40711E0C9EAD5E010936B
:10163000E005D093C905C093C8058091CE0590916F
:10164000CF05A091D005B091D1058854944FAF4FEC
:10165000BF4F8093CE059093CF05A093D005B09354
:10166000D10560E070E08CE00E94C3081093ED05A6
:101670000E94C1068823E1F38091CE059091CF05A9
:10168000A091D005B091D105885B9B40A109B1091B
:101690008093CE059093CF05A093D005B093D1054C
:1016A00068EC70E080E090E00E9489081092EC0500
:1016B0008091E805843059F08AE990E00E94C407DF
:1016C00068EE73E080E090E00E948908B0CF84E982
:1016D00090E00E94C40760E088E00E94EA076AE0A8
:1016E00070E086E00E94C30861E070E081E10E9442
:1016F000C30861E081E10E94EA0760E082E10E94A4
:10170000EA0783E0E82EF12C94E0A92EB12CC1E089
:10171000D0E024E1822E912C02E010E03AE0C32ECA
:10172000D12C4BE3242E4DE0342E809111048823DC
:1017300009F4A5C08091E6039091E70381309105FB
:1017400069F11CF5892B09F06BC784EF91E00E94C9
:1017500027068FEF8093B30061E08DE00E94EA07D7
:1017600060E081E10E94EA0761E082E10E94EA070D
:101770008091FE039091FF039093160480931504CB
:10178000D093E703C093E6034BC78230910539F14C
:10179000039709F045C71092110442C780911504C0
:1017A000909116048C599F4F092E000CAA0BBB0B6D
:1017B0004091FE035091FF03609100047091010479
:1017C00084179507A607B7070CF02AC786E092E0B2
:1017D0000E9427061093E7030093E60321C70E94A7
:1017E0007405C1010197F1F70E947405C1010197C9
:1017F000F1F70E947405E2E0F4E0A0EEB3E081911D
:1018000091918530910514F0049702C080E090E03A
:101810008D939D9364E0E830F60789F782E192E0CA
:101820000E9427068091E0039091E1030E949F06A9
:1018300087EA93E00E9435068091E2039091E303EA
:101840000E949F0687EA93E00E9435068091E40398
:101850009091E5030E949F0687EA93E00E94350677
:1018600061E081E10E94EA0760E082E10E94EA070C
:10187000F092E703E092E6031092B300D1C68091A4
:101880001004882321F0109210040E9474058091A6
:101890000F04811106C080910E04882309F470C1E1
:1018A00033C010920F04E8EEF3E0A2E0B4E0408110
:1018B00051818281938124813581841795071CF0A1
:1018C0002817390734F4821793076CF04817590723
:1018D00024F011969C938E9310C02417350734F48E
:1018E000281739073CF04217530724F011963C9310
:1018F0002E9303C011965C934E933696129673E026
:10190000EA3FF707A1F6C7CF10920E048091270493
:1019100090912804029709F0FFC020913F0438B548
:10192000822F90E0831B91091816190614F08FEF8F
:1019300001C081E080931D0488B5281302C0109275
:101940001D0420913E0437B5822F90E0831B91093E
:101950001816190614F08FEF01C081E080931C0463
:1019600087B5281302C010921C0420913D043091C9
:10197000B400822F90E0831B91091816190614F009
:101980008FEF01C081E080931B048091B400281385
:1019900002C010921B0440911D04411108C08091A7
:1019A0001C04811104C080911B04882319F010923B
:1019B00020040BC081E0809320048091FE0390916D
:1019C000FF039093180480931704809141048823A7
:1019D00039F010923F0410923E0410923D049CC0D6
:1019E00080912004811170C080911E0490911F0489
:1019F0000296092E000CAA0BBB0B4090FE035090E0
:101A0000FF03609000047090010484159505A605FD
:101A1000B7050CF081C028B5842F042E000C990B5B
:101A2000BC01620F711D6F3F710509F044F428B5C8
:101A3000820F911D97FD05C088B5480F03C04FEF79
:101A400001C040E048BD27B540911C04842F042EFE
:101A5000000C990BBC01620F711D6F3F710509F0FD
:101A600044F427B5820F911D97FD05C087B5480F37
:101A700003C04FEF01C040E047BD2091B40040914A
:101A80001B04842F042E000C990BBC01620F711DE6
:101A90006F3F710509F054F42091B400820F911D3D
:101AA00097FD06C08091B400480F03C04FEF01C0FE
:101AB00040E04093B4008091FE039091FF03909327
:101AC0001F0480931E0428C083E292E00E94270630
:101AD00080911A04863010F48F5F01C080E08093FB
:101AE0001A0440912F0490E09C01220F331FF9014A
:101AF000E80FF91F75E1479FE00DF11D1124EA5F22
:101B0000FE4F808180933F04818180933E048281D7
:101B100080933D0410922004209140043091B30042
:101B2000822F90E0831B91091816190614F08EEF8E
:101B300001C082E0809319048091B300281302C091
:101B4000109219042091B30040911904842F042E9F
:101B5000000C990BBC01620F711D6F3F710509F0FC
:101B600054F42091B300820F911D97FD06C080911F
:101B7000B300480F03C04FEF01C040E04093B300F3
:101B800080910D04882309F46AC010920D0480919D
:101B90004404909145048130910599F03CF4892BDF
:101BA000A9F510922A041092290430C082309105C0
:101BB00039F18330910551F590932A0480932904DB
:101BC00025C080910001909101018931910534F483
:101BD00090922A048092290487E009C08D9754F4DA
:101BE0008FE090E090932A048093290485E080930D
:101BF0002F040CC0D0922A04C092290486E0F7CFAB
:101C000067E070E070932A046093290460912104D6
:101C1000709122048091290490912A046817790711
:101C20001CF46F5F7F4F05C08617970774F46150EF
:101C300071097093220460932104772786E00E9443
:101C4000C30860E088E00E94EA0780912104909137
:101C50002204892B21F461E088E00E94EA07809148
:101C60000C04882309F49FC110920C048091440451
:101C7000909145048230910509F451C02CF40097ED
:101C800059F0019759F1F3C08330910509F47BC0F5
:101C9000049709F4B0C0EBC061E070E08CE390E021
:101CA0000E943D05882309F4E2C087E080932F0459
:101CB00061E08DE00E94EA07D0934504C09344049C
:101CC00060E088E00E94EA0760E070E081E00E9446
:101CD000C3088DE292E00E942706C9C061E070E06F
:101CE0008CE390E00E943D058111C1C01093450432
:101CF0000093440480E492E00E9427068091FE0352
:101D00009091FF03A0910004B091010480932B04F3
:101D100090932C04A0932D04B0932E04A8C080911E
:101D20002B0490912C04A0912D04B0912E04885383
:101D30009F4FAF4FBF4F4091FE035091FF03609103
:101D400000047091010484179507A607B7078CF467
:101D50008EE492E00E94270610922A041092290431
:101D600060E08DE00E94EA07F0924504E0924404AE
:101D70007EC061E070E08CE390E00E943D05882326
:101D800009F475C070C080912B0490912C04A0912F
:101D90002D04B0912E04845D9E4FAF4FBF4F4091F4
:101DA000FE035091FF0360910004709101048417B9
:101DB0009507A607B70794F485E892E00E942706E6
:101DC00060E070E08EE00E94C30860E088E00E945E
:101DD000EA07B0924504A092440449C061E070E073
:101DE0008CE390E00E943D05882309F440C060E048
:101DF00070E08DE032C080912B0490912C04A09172
:101E00002D04B0912E0480579E4FAF4FBF4F40918D
:101E1000FE035091FF036091000470910104841748
:101E20009507A607B70774F488EA92E00E94270690
:101E300060E070E086E10E94C308109245041092B1
:101E4000440415C061E070E08CE390E00E943D0521
:101E5000882369F060E070E081E00E94C30861E0DF
:101E600088E00E94EA07D0934504C093440480911F
:101E70004204909143048230910509F444C02CF44B
:101E8000009759F00197C9F070C08330910509F4AB
:101E900068C0049709F465C068C062E070E088E734
:101EA00090E00E943D058111BEC380914404909151
:101EB0004504019709F059C0B6C310932804009354
:101EC00027041092410462E070E088E790E00E94ED
:101ED0003D0581114AC0109343040093420481E000
:101EE000809341048091FE039091FF03A091000430
:101EF000B09101048093230490932404A0932504BB
:101F0000B093260432C08091230490912404A091C0
:101F10002504B091260488539F4FAF4FBF4F409187
:101F2000FE035091FF036091000470910104841737
:101F30009507A607B70744F484EC92E00E942706B1
:101F4000109243041092420462E070E088E790E04F
:101F50000E943D05882349F0D0934304C093420476
:101F600004C0109243041092420480914404909162
:101F700045048130910511F48FEF04C08330910541
:101F800021F48EEB809340040EC08430910519F447
:101F90001092400408C0892B31F480914204909142
:101FA0004304892BA9F380910B04882309F4B2C060
:101FB00010920B0486E00E9472089C0190933804F2
:101FC0008093370491E0253833400CF090E09093F3
:101FD00036042091FA033091FB032230310509F4D5
:101FE00053C03CF42115310579F021303105E1F081
:101FF00091C02430310509F487C00CF485C0253028
:10200000310509F481C086C0992309F483C0809109
:10201000FE039091FF039093350480933404D09392
:10202000FB03C093FA0376C091110DC08091FE03AB
:102030009091FF0390933304809332041093FB0339
:102040000093FA0367C080913404909135048C5951
:102050009F4F092E000CAA0BBB0B4091FE03509121
:10206000FF03609100047091010484179507A6078F
:10207000B7070CF04FC085E090E09093FB0380938E
:10208000FA0387ED92E01DC04091FE035091FF03DB
:102090006091000470910104209132043091330466
:1020A0002C5E3F4F2901330F66087708441655060A
:1020B000660677064CF4F092FB03E092FA038AEE90
:1020C00092E00E94270626C0992321F15093310403
:1020D0004093300481E080930A0480930904D093F4
:1020E0002006C0931F06D0930B06C0930A0660E03B
:1020F00070E00E94C30885EF92E00E942706B0922C
:10210000FB03A092FA0306C0911104C01092FB03D6
:102110001092FA0380910A04882309F49AC010925D
:102120000A0487E00E94720890933C0480933B0469
:102130002EE838E0DC010E94071520E034E040E0A2
:1021400050E00E948914C90130933A042093390465
:102150008A3124E0920784F4F092FD03E092FC03BC
:10216000D0921C06C0921B0610931E0600931D06FB
:1021700085E08093180652C08C3464E0960794F48E
:102180001093FD030093FC03D0921C06C0921B0623
:10219000D0921E06C0921D0682E08093180681E050
:1021A00093E015C0813B74E09707A4F4D093FD033E
:1021B000C093FC03109331060093300690923306CF
:1021C0008092320682E080932D068DE093E00E949B
:1021D000270624C08333954094F41092FD03109297
:1021E000FC03D0923106C0923006D0923306C092E2
:1021F000320682E080932D0689E193E0E8CFB09229
:10220000FD03A092FC039092310680923006109359
:1022100033060093320683E080932D068091FC0301
:102220009091FD038330910529F0049741F488E3F0
:1022300093E002C086E293E00E9427060AC085E48C
:1022400093E00E9427068091390490913A040E94FD
:10225000A90680910904882309F434C11092090465
:1022600080910A0690910B068230910591F11CF441
:10227000019741F08EC08330910581F1049709F4F4
:1022800063C087C0809118068823F1F08091FE0317
:102290009091FF03A0910004B09101048093100677
:1022A00090931106A0931206B0931306F0920B06BA
:1022B000E0920A0661E082E10E94EA078091180636
:1022C00081508093180665C010920B0610920A0682
:1022D00036C0F0922006E0921F065BC061E082E10A
:1022E0000E94EA074090FE035090FF0360900004B4
:1022F0007090010440911B0650911C06052E000CA5
:10230000660B770B8091100690911106A091120632
:10231000B0911306840F951FA61FB71F841595054E
:10232000A605B705B4F5B0920B06A0920A06409236
:10233000140650921506609216067092170660E019
:1023400082E10E94EA0725C080911D0690911E0639
:10235000AC01990F660B770B8091140690911506CE
:10236000A0911606B0911706840F951FA61FB71FE0
:102370004091FE035091FF036091000470910104AD
:1023800084179507A607B70724F4D0930B06C093CC
:102390000A0680911F06909120068230910591F1E6
:1023A0001CF4019741F08EC08330910581F10497B0
:1023B00009F463C087C080912D068823F1F08091D5
:1023C000FE039091FF03A0910004B091010480935B
:1023D000250690932606A0932706B0932806F09230
:1023E0002006E0921F0661E081E10E94EA078091E9
:1023F0002D06815080932D0665C010922006109204
:102400001F0636C0F0922006E0921F065BC061E016
:1024100081E10E94EA074090FE035090FF03609024
:102420000004709001044091300650913106052E51
:10243000000C660B770B8091250690912606A091E3
:102440002706B0912806840F951FA61FB71F841575
:102450009505A605B705B4F5B0922006A0921F0613
:102460004092290650922A0660922B0670922C0602
:1024700060E081E10E94EA0725C0809132069091D8
:102480003306AC01990F660B770B8091290690916A
:102490002A06A0912B06B0912C06840F951FA61F2B
:1024A000B71F4091FE035091FF03609100047091AB
:1024B000010484179507A607B70724F4D0932006D4
:1024C000C0931F0680910804882309F4A9C01092C4
:1024D00008048EE593E00E943506809144049091B3
:1024E00045040E949F0683E693E00E943506809192
:1024F0004204909143040E949F068AE693E00E9462
:1025000035068091410490E00E949F0684E793E0A5
:102510000E9435066091B30070E080E090E04AE0F0
:102520000E9437068EE793E00E94350660914004D2
:1025300070E080E090E04AE00E94370688E893E08F
:102540000E94350660913F0470E080E090E04AE030
:102550000E94370680E693E00E94350668B570E079
:1025600080E090E04AE00E9437068EE893E00E9407
:10257000350660913E0470E080E090E04AE00E9401
:10258000370680E693E00E94350667B570E080E08C
:1025900090E04AE00E94370684E993E00E94350605
:1025A00060913D0470E080E090E04AE00E943706D0
:1025B00080E693E00E9435066091B40070E080E010
:1025C00090E04AE00E9437068AE993E00E941506EF
:1025D0008DE993E00E9435068091020490910304F6
:1025E0000E949F0686EA93E00E94350680910404CB
:1025F000909105040E949F0686EA93E00E943506AA
:1026000080910604909107040E949F0686EA93E059
:102610000E94350680910804909109040E94A90641
:102620000E94B70182C8D0934304C093420489EA50
:1026300093E00E94270699CC8EEC91E09093AA0536
:102640008093A90589EA95E00C9400058F929F92EA
:10265000AF92BF92CF92DF92EF92FF92CF93DF9330
:1026600010920F0510920E0598EE892E93E0992E88
:10267000A12CB12C8092100590921105A092120508
:10268000B09213058CEB91E090930D0580930C05AF
:1026900085EC90E0909319058093180584EC90E008
:1026A00090931B0580931A0580EC90E090931D0594
:1026B00080931C0581EC90E090931F0580931E058C
:1026C00082EC90E0909321058093200586EC90E0C9
:1026D00090932305809322051092250510922605DC
:1026E00010922705109228054AE050E050932F06DB
:1026F00040932E0622E030E03093310620933006DE
:1027000088E290E0909333068093320650931A0645
:102710004093190630931C0620931B0690931E06C7
:1027200080931D0610920506C3E1C0930306DAE00C
:10273000D093040661E083E10E94360860E0809156
:1027400004060E94360820E2C22E2EE4D22EE12C8E
:10275000F12CC0920606D0920706E0920806F0928D
:1027600009061092FE05C093FC058EE08093FD05DE
:1027700061E083E10E94360860E08091FD050E94DF
:102780003608C092FF05D0920006E0920106F09252
:1027900002061092F705C093F5058FE08093F605C9
:1027A00061E083E10E94360860E08091F6050E94B6
:1027B0003608C092F805D092F905E092FA05F09239
:1027C000FB051092F005C093EE0580E18093EF05C4
:1027D00061E083E10E94360860E08091EF050E948D
:1027E0003608C092F105D092F205E092F305F0921E
:1027F000F40584EF91E0A0E0B0E08093CE059093E3
:10280000CF05A093D005B093D105EEEAF1E0ACED91
:10281000B5E001900D92DA95E1F71092E60582E0BD
:102820008093E7051092EC051092ED051092AC052F
:102830001092AB058092AD059092AE05A092AF05C7
:10284000B092B0058EEC91E09093AA058093A90513
:102850001092C0051092BF051092C2051092C105DA
:102860001092C4051092C3051092C6051092C505BA
:102870006091C7056E7F6D7F6093C7056695617037
:1028800081E0682784E00E94EA0761E084E00E941A
:102890003608EDE0F1E0E491E093B905E9EFF0E00E
:1028A000E491F0E0EE0FFF1FEF51FF4F85919491FF
:1028B0009093BB058093BA0560E087E00E943608DC
:1028C0008091C70581FD04C061E087E00E94EA07AE
:1028D00087E08093B505E0E1F1E0E491E093B6058F
:1028E000ECEFF0E0E491F0E0EE0FFF1FE551FF4F59
:1028F000859194919093B8058093B705DF91CF911E
:10290000FF90EF90DF90CF90BF90AF909F908F900F
:102910000895052E97FB1EF400940E94A01457FD05
:1029200007D00E94A81407FC03D04EF40C94A01406
:1029300050954095309521953F4F4F4F5F4F0895EB
:1029400090958095709561957F4F8F4F9F4F08951B
:10295000A1E21A2EAA1BBB1BFD010DC0AA1FBB1FA3
:10296000EE1FFF1FA217B307E407F50720F0A21B15
:10297000B30BE40BF50B661F771F881F991F1A9482
:1029800069F760957095809590959B01AC01BD01AC
:10299000CF010895A29FB001B39FC001A39F700D06
:1029A000811D1124911DB29F700D811D1124911D57
:1029B0000895AA1BBB1B51E107C0AA1FBB1FA61786
:1029C000B70710F0A61BB70B881F991F5A95A9F7D8
:1029D00080959095BC01CD01089597FB072E16F4C4
:1029E000009407D077FD09D00E94D91407FC05D0C8
:1029F0003EF4909581959F4F0895709561957F4F16
:102A00000895EE0FFF1F0590F491E02D09940E94A8
:102A1000CA14B7FF0895821B930B089581E090E0DC
:102A2000F8940C94131510E0C0E9D0E004C0FE0146
:102A30000E9401152196C139D107C9F7F894FFCF3B
:102A40009001900190010000FFFFFFFFFF000000D8
:102A5000FF000000FFFFFF005050508D6E63FF57D6
:102A600022FF6F00CDDC394CAF500096887E57C2F4
:102A7000007D00007D417D7D007D41000041000022
:102A8000417D00007D0000FFFF28FFFF0000962829
:102A9000321400FFFF6414646464D76400D7A72471
:102AA0007878783246FF00A0FF3C288278502800D2
:102AB00000C8C8C8C8C8000000C8000000C8C8C80E
:102AC0000032323200006464646464000000640018
:102AD0000000646464003232320000FFFFFFFFFF39
:102AE000000000FF000000FFFFFF005050507EFF7D
:102AF00006000100000000EF000000004E01BB00D6
:102B0000E60095011701F500090100000000DA0157
:102B1000BB006802D9012E024602C10173657269C9
:102B2000616C20656E61626C656400656E61206D2C
:102B300075746500496E697469616C2063616C69C4
:102B4000627261746500357320656C6170736564D1
:102B5000210043616C6962726174656420776974F5
:102B6000683A00636F6C6F7220636867007A6F6EFB
:102B700065203120542744202D3E207A656E650063
:102B80007A6F6E652031206C6561766564007A6FBE
:102B90006E6520312031307320656C61707365641F
:102BA000202D2D3E20736D616C6C2074696D656FF6
:102BB00075743A2066696E566F6C20626563616D4C
:102BC00065732030007A6F6E6520312031357320B7
:102BD000656C6170736564202D2D3E2062696720ED
:102BE00074696D656F7574007A6F6E65203120327F
:102BF000307320656C6170736564202D2D3E2069F3
:102C0000646C65007A6F6E652032203130732074F9
:102C1000696D656F7574006E6F7720707573686588
:102C200064203573206C6F6E670073686F72742058
:102C30007075736800646F75626C65207075736879
:102C40000032207069726F73203530250032207A8F
:102C50006F6C64202D3130250032207A6F6C642037
:102C60002D2035302500566F6C74616765204372E6
:102C700069746963616C2100566F6C7461676520CB
:102C80004869676800566F6C746167652074657386
:102C90007465642C206E6F726D616C2020007A3137
:102CA0003A200009207A323A2000092063626C61E0
:102CB000633A090009206353706F743A09000920D0
:102CC0006653706F743A09000920723A2000092097
:102CD000673A20000920623A20000D0A00092063AB
:102CE0006D2D733A09000909007A6F6E6520322054
:102CF000542744202D3E2073706F742C20737472FF
:102D0000697000736F667420726573657400626C1D
:0A2D1000696E6B2074657374000097
:00000001FF
