:100000000C9491000C94B9000C94B9000C948604E3
:100010000C9486040C9486040C94B9000C94B900DA
:100020000C94B9000C94B9000C94B9000C94B9006C
:100030000C94B9000C9416050C94B9000C94B900FA
:100040000C94A8090C94B9000C9454040C942E043C
:100050000C94B9000C94B9000C94B9000C94B9003C
:100060000C94B9000C94B900E807EC07F307E20719
:10007000F307E407F0070008F307F307F307F307B4
:10008000F307F307F307F307F707F307F307F3079C
:10009000F307F307646F6E652E00556E61626C6541
:1000A00020746F20636F6E6E65637400496E6974AF
:1000B00069616C697A696E67204446506C61796544
:1000C000722E0000000000240027002A000000001B
:1000D0000800020100000304070000000000000007
:1000E0000000000000250028002B00000000002375
:1000F000002600290004040404040404040202028B
:100100000202020303030303030102040810204058
:1001100080010204081020010204081020002C13A2
:10012000221311241FBECFEFD8E0DEBFCDBF13E0F6
:10013000A0E0B1E0EEE6FDE202C005900D92A63A25
:10014000B107D9F726E0A6EAB3E001C01D92A930B5
:10015000B207E1F710E0C0E9D0E004C02197FE014A
:100160000E949816CF38D107C9F70E94370A0C941D
:10017000AA160C940000CF92DF92EF92FF920F9399
:100180001F93CF93DF936C017A018B01C0E0D0E025
:10019000CE15DF0589F0D8016D918D01D601ED9165
:1001A000FC910190F081E02DC6010995892B11F495
:1001B0007E0102C02196ECCFC701DF91CF911F9144
:1001C0000F91FF90EF90DF90CF900895FC01538D39
:1001D000448D252F30E0842F90E0821B930B541721
:1001E00010F0CF96089501970895FC01918D828DAE
:1001F000981761F0828DDF01A80FB11D5D968C917B
:10020000928D9F5F9F73928F90E008958FEF9FEF85
:100210000895FC01918D828D981731F0828DE80F41
:10022000F11D858D90E008958FEF9FEF0895FC01FB
:10023000918D228D892F90E0805C9F4F821B9109C8
:100240008F739927089580EE94E00E94170121E0B2
:10025000892B09F420E0822F0895FC01848DDF01B1
:10026000A80FB11DA35ABF4F2C91848D90E0019629
:100270008F739927848FA689B7892C93A089B18918
:100280008C9180648C93938D848D981306C0028822
:10029000F389E02D80818F7D80830895EF92FF9216
:1002A0000F931F93CF93DF93EC0181E0888F9B8D99
:1002B0008C8D981305C0E889F989808185FD24C05B
:1002C000F62E0B8D10E00F5F1F4F0F731127E02EDE
:1002D0008C8DE8120CC00FB607FCFACFE889F989BB
:1002E000808185FFF5CFCE010E942D01F1CF8B8D4E
:1002F000FE01E80FF11DE35AFF4FF0820B8FEA89F0
:10030000FB898081806207C0EE89FF896083E8896C
:10031000F98980818064808381E090E0DF91CF91D2
:100320001F910F91FF90EF900895CF93DF93EC0111
:10033000888D8823C9F0EA89FB89808185FD05C005
:10034000A889B9898C9186FD0FC00FB607FCF5CF3F
:10035000808185FFF2CFA889B9898C9185FFEDCF87
:10036000CE010E942D01E7CFDF91CF91089580E06B
:1003700090E0892B29F00E94230181110C94000048
:1003800008952091A8033091A9032817390771F423
:100390009091A6038091A703981741F0E091A603DE
:1003A000F0E0E856FB4F808190E008958FEF9FEFDB
:1003B000089508951F93CF93DF93DC015C962D91F0
:1003C0003C915D972115310539F481E090E0139659
:1003D0009C938E9312973DC05196ED91FC9152974C
:1003E00050969C915097892F80951FB75E964C919F
:1003F0005E9741FB772770F941FD6095F894408145
:10040000772311F0492B01C048234083E90121974C
:10041000F1F748E0508160FF02C0592B01C058231A
:100420005083E9012197F1F76695415099F77723B9
:1004300021F090818923808303C08081982B908351
:100440001FBF5C968D919C915D970197F1F721E01C
:1004500030E0C901DF91CF911F9108952091A80349
:100460003091A9032817390771F48091A7032091CF
:10047000A60390E0805C9F4F821B910960E470E0CE
:100480000E948416089580E090E008952091A803CA
:100490003091A90328173907B9F49091A6038091E8
:1004A000A703981789F0E091A603F0E0E856FB4F08
:1004B00080812091A60330E02F5F3F4F2F733327B9
:1004C0002093A60390E008958FEF9FEF089508957D
:1004D00080E090E008950E94A5160F931F93CF939C
:1004E000DF93EC018A81882321F061E088810E94FA
:1004F000C70860E088810E947B0883E090E0019754
:10050000F1F761E088810E947B0883E290E0019727
:10051000F1F760E088810E947B088A81882321F0BE
:1005200060E088810E94C708298130E0F901E75F17
:10053000FE4F6491F901EB50FF4FE491F0E0EE0FB4
:10054000FF1FE551FF4F859194910B811C812D81F7
:100550003E813F70462F0E94F209611571058105A9
:10056000910539F0DC01CB010196A11DB11DBF70D1
:1005700003C080E090E0DC01DF91CF911F910F91EB
:1005800008950F931F93CF93DF93C0919504D0915B
:1005900096042196D0939604C09395048091D60337
:1005A0009091D703A091D803B091D9030196A11DD2
:1005B000B11D8093D6039093D703A093D803B09333
:1005C000D90381E08093E8038093E7038093E303FA
:1005D0002091D4033091D5032330310549F0809325
:1005E000E6039E0123703327232B11F48093E50348
:1005F000C0FD05C081E08093E4038093E103CE0158
:1006000064E170E00E948416892B19F481E08093E4
:10061000E003CE0168EC70E00E948416892B59F546
:1006200020911A04243110F42F5F01C020E02093A0
:100630001A0430E0F901EE0FFF1FE55EFB4F8091D9
:10064000DA039091DB0391838083F901EE0FFF1FA2
:10065000ED5BFB4F8091DC039091DD039183808300
:10066000220F331FF901E559FB4F8091DE03909172
:10067000DF0391838083CE0160EA7FE00E948416CD
:10068000892BA9F481E08093E2038DE893E00E9436
:10069000B8061092E3031092E6031092E003109262
:1006A000E8031092E5031092E4031092E9038091AD
:1006B000D6039091D703A091D803B091D903803984
:1006C00021E09207A105B105BCF42091D20330913D
:1006D000D3032330310581F42091B2033091B30369
:1006E0002330310549F081E08093E90360E070E058
:1006F0008EE00E94540924C0AC01BD014159514013
:1007000061097109473C51056105710558F48091F3
:10071000B2039091B303039799F460E081E10E94E2
:100720007B080EC089359240A105B1054CF080913F
:10073000B2039091B303039719F081E08093E9032A
:100740008091D6039091D703A091D803B091D9039B
:1007500084369105A105B105CCF48091D203909126
:10076000D303049799F421E030E03093DF05209320
:10077000DE0581E08093EC053093F4052093F305CA
:100780008093010688E993E00E94B8068091950461
:100790009091960460EC72E10E948416892B09F016
:1007A00058C083E090E09093B3038093B203CCEA07
:1007B000D3E0EBE1F4E004E110E020E030E080E0A1
:1007C00090E0DF01A80FB91F4D915C91240F351FF8
:1007D000029688329105A9F7243631053CF0C9010B
:1007E000B8010E948416CB01049702C080E090E01B
:1007F00089939993B89684E0E339F807F1F630933A
:1008000094042093930486E192E00E94B8068091BC
:10081000AC039091AD030E94300781E793E00E9402
:10082000C6068091AE039091AF030E94300781E726
:1008300093E00E94C6068091B0039091B1030E949C
:10084000300781E793E0DF91CF911F910F910C94D6
:10085000C606DF91CF911F910F9108951F920F92BD
:100860000FB60F9211242F933F934F935F936F9383
:100870007F938F939F93AF93BF93EF93FF9380EEFC
:1008800094E00E942D01FF91EF91BF91AF919F9154
:100890008F917F916F915F914F913F912F910F9029
:1008A0000FBE0F901F9018951F920F920FB60F92C8
:1008B00011242F938F939F93EF93FF93E091F00474
:1008C000F091F1048081E091F604F091F70482FD4B
:1008D00012C090818091F9048F5F8F732091FA0488
:1008E000821751F0E091F904F0E0E052FB4F958F50
:1008F0008093F90401C08081FF91EF919F918F91C6
:100900002F910F900FBE0F901F9018951F920F926E
:100910000FB60F9211242F933F934F935F936F93D2
:100920007F938F939F93AF93BF93EF93FF93E09148
:10093000A803F091A903309709F451C0968DA685BC
:10094000B785858591FF04C09C91892329F447C010
:100950009C91892309F043C0A389B4899C9185891E
:10096000809589238C93868997890197F1F7608D0B
:10097000718DA685B785558538E020E0CB010197BC
:10098000F1F7822F90E095958795282F4C9145237C
:1009900009F02068315091F7868D81FD2095809176
:1009A000A70390E001968F7399273091A60338171B
:1009B00049F0A091A703B0E0A856BB4F2C938093B9
:1009C000A70303C0868D8160868F828D938D0197EA
:1009D000F1F7A389B4899C918589892B8C93FF9128
:1009E000EF91BF91AF919F918F917F916F915F91A7
:1009F0004F913F912F910F900FBE0F901F90189520
:100A0000E091A803F091A903E817F90769F4A38915
:100A1000B4899C918589809589238C931092A90330
:100A20001092A80381E0089580E008951F920F922C
:100A30000FB60F9211242F933F934F935F936F93B1
:100A40007F938F939F93AF93BF93EF93FF93E09127
:100A5000AA03F091AB030995FF91EF91BF91AF917C
:100A60009F918F917F916F915F914F913F912F91C6
:100A70000F900FBE0F901F9018958F929F92AF927C
:100A8000BF92CF92DF92EF92FF920F931F93CF937B
:100A9000DF936091D6037091D7038091D803909132
:100AA000D9030091C8031091C903012E000C220B39
:100AB000330BC090CC03D090CD03E090CE03F090E8
:100AC000CF030C0D1D1D2E1D3F1D601771078207E2
:100AD00093070CF050C00091CA031091CB03C09152
:100AE000C603D091C7036801CC0EDD1E0D2C000C8F
:100AF000EE08FF086C157D058E059F059CF50E948C
:100B000053156B017C01B801110F880B990B0E94E2
:100B100053154B015C01BE01DD0F880B990B0E9440
:100B2000531520910201309103014091040150912D
:100B300005010E9403169B01AC01C501B4010E948E
:100B4000E0149B01AC01C701B6010E944C1518BC12
:100B500087FF05C08FEF8093B40087BD03C010925C
:100B6000B40017BC8091D6039091D7039093CB0328
:100B70008093CA0306C082E090E09093D1038093F3
:100B8000D003DF91CF911F910F91FF90EF90DF90F5
:100B9000CF90BF90AF909F908F9008950F931F9329
:100BA000CF93DF93EC01EAEDF3E0ACEAB3E020E9A8
:100BB00031E080E0419151910D911D914017510715
:100BC00044F44C175D072CF4421753070CF49A01B8
:100BD00081E093E0E03EF90769F730930901209343
:100BE00008016130710541F06230710549F43093BC
:100BF00007012093060104C03093010120930001F6
:100C0000DF91CF911F910F910895CF93DF93E091E2
:100C10009704E23018F4C1E0CE0F01C0C0E0C093E9
:100C200097048BE39CE90197F1F780ED95E00E9432
:100C30006D02EC2FF0E0EE0FFF1FE654FC4F6CE16D
:100C400070E00E9470167695679571836083C091FD
:100C50009704D0E0FE01EE0FFF1FE654FC4F8081A9
:100C60009181892B21F481E991E0918380838BE547
:100C70009AEE0197F1F787ED95E00E946D02CC0F97
:100C8000DD1FCC54DC4F6CE170E00E94701676954D
:100C9000679579836883C0919704D0E0FE01EE0FD9
:100CA000FF1FEC54FC4F80819181892B21F481E955
:100CB00091E0918380838BEB9AED0197F1F789ECBA
:100CC00095E00E946D02CC0FDD1FC054DC4F6CE13B
:100CD00070E00E9470167695679579836883E0913D
:100CE0009704F0E0EE0FFF1FE054FC4F80819181EC
:100CF000892B21F481E991E091838083DF91CF9169
:100D000008953FB7F8948091D8049091D904A091A8
:100D1000DA04B091DB0426B5A89B05C02F3F19F07B
:100D20000196A11DB11D3FBFBA2FA92F982F88276B
:100D3000820F911DA11DB11DBC01CD0142E0660FC6
:100D4000771F881F991F4A95D1F70895009769F07A
:100D5000FC0101900020E9F73197AF01481B590BC6
:100D6000BC0180EE94E00C94BB0080E090E008951C
:100D7000CF93DF930E94A606EC0183EA93E00E94E2
:100D8000A6068C0F9D1FDF91CF9108950C94A606A7
:100D90008F929F92AF92BF920F931F93CF93DF9347
:100DA000CDB7DEB7A1970FB6F894DEBF0FBECDBFAB
:100DB00019A2423008F44AE08E010F5D1F4F842EC5
:100DC000912CA12CB12CA50194010E94AE14E62F08
:100DD000B901CA0101501109EA3014F4E05D01C003
:100DE000E95CD801EC93232B242B252B61F7C80158
:100DF0000E94A606A1960FB6F894DEBF0FBECDBF27
:100E0000DF91CF911F910F91BF90AF909F908F90E6
:100E10000895CF92DF92EF92FF92CF93DF936B0111
:100E20007C01E091E004F091E1040190F081E02D7B
:100E30006DE280EE94E00995EC0166277727CB01FF
:100E40006C197D098E099F094AE00E94C8068C0F23
:100E50009D1FDF91CF91FF90EF90DF90CF9008958D
:100E6000BC01990F880B990B97FD0C9409074AE078
:100E70000C94C806CF93DF93BC01990F880B990B94
:100E800097FF03C00E94090703C04AE00E94C806FA
:100E9000EC0183EA93E00E94A6068C0F9D1FDF9170
:100EA000CF910895CF93DF9380919C0590919D05FC
:100EB000DC01ED91FC910084F185E02D0995892BF1
:100EC00009F4B7C0C091BA0580919C0590919D0529
:100ED000DC01ED91FC910284F385E02DC1110DC080
:100EE00009958093A6058E37F9F61092C00580917A
:100EF000BA058F5F8093BA05D7CF0995EC2FF0E044
:100F0000E456FA4F82879091BA059230A9F0993051
:100F1000C9F0913009F089C08091A7058F3F09F48D
:100F200084C01092BA059093BC051092BF05109230
:100F3000BE059093C005B3C08091A805863009F422
:100F400074C004C08091AF058F3E19F01092BA05AD
:100F500064C0E7EAF5E040E050E08191480F511DA0
:100F6000B5E0ED3AFB07C9F72091AD0530E0322F2F
:100F700022275195419551098091AE05280F311DC9
:100F80001092BA054217530709F047C0E091A9052E
:100F9000E093BD058091AB0590E0982F88272091C4
:100FA000AC05820F911D9093BF058093BE054E2F17
:100FB00050E0FA01FA97E631F105C8F4EC5CFF4F16
:100FC0000C94981685E00DC081FF1CC084E009C018
:100FD00081FF18C082E005C081FF14C083E001C01A
:100FE00086E08093BC0581E08093C0050BC081E062
:100FF0008093BC051092BF051092BE058093C0057A
:101000001092C105D091C005DD2309F44AC080913A
:10101000B405882309F443C044C081E08093BC0533
:101020001092BF051092BE0538C09F5F9093BA051D
:101030003BCF8091C105882321F12FB7F89480918F
:10104000DC049091DD04A091DE04B091DF042FBF99
:1010500040919E0550919F056091A0057091A1055A
:10106000841B950BA60BB70B4091A2055091A305CD
:101070006091A4057091A50584179507A607B70789
:1010800018F4D091C0050DC01092BA051092BC059D
:101090001092BF051092BE0581E08093C0051092AA
:1010A000C1058D2FDF91CF9108950F931F93CF939B
:1010B000DF938C01C0E0D0E0F801EC0FFD1F6491DC
:1010C000662371F0E091E004F091E1040190F08179
:1010D000E02D80EE94E00995892B11F02196ECCF5C
:1010E00083EA93E00E94A6068C0F9D1FDF91CF91AB
:1010F0001F910F91089590E0FC01E353FF4F34914D
:10110000FC01E75FFE4F2491FC01EB50FF4FE4919F
:10111000EE2309F43BC0332339F1333091F038F436
:101120003130A9F0323001F584B58F7D12C03730EF
:1011300091F03830A1F03430B9F4809180008F7D87
:1011400003C0809180008F77809380000DC084B5AC
:101150008F7784BD09C08091B0008F7703C08091E4
:10116000B0008F7D8093B000F0E0EE0FFF1FEF51D5
:10117000FF4FA591B4918FB7F894EC91611103C022
:1011800020952E2301C02E2B2C938FBF0895CF9333
:10119000DF9390E0FC01E75FFE4F2491FC01EB50F0
:1011A000FF4F8491882361F190E0880F991FFC0123
:1011B000ED53FF4FC591D491FC01EF51FF4FA59125
:1011C000B491611109C09FB7F8948881209582235A
:1011D0008883EC912E230BC0623061F49FB7F894A2
:1011E0003881822F809583238883EC912E2B2C933A
:1011F0009FBF06C08FB7F894E8812E2B28838FBF3E
:10120000DF91CF9108958E3008F08E508770806402
:1012100080937C0080917A00806480937A00809132
:101220007A0086FDFCCF809178002091790090E0D3
:10123000922B08958F929F92AF92BF92CF92DF929E
:10124000EF92FF926B017C010E9481064B015C01D1
:10125000C114D104E104F104F1F00E948106DC0123
:10126000CB0188199909AA09BB09883E9340A105B9
:10127000B10570F321E0C21AD108E108F10888EE47
:10128000880E83E0981EA11CB11CC114D104E10496
:10129000F10419F7DDCFFF90EF90DF90CF90BF9072
:1012A000AF909F908F9008958093B3057093B5058C
:1012B0006093B605E1EBF5E080E090E02191820FCC
:1012C000911D25E0E73BF207C9F7919581959109BA
:1012D0009093B7058093B8058091B405882339F0C1
:1012E0008091C105882349F00E945207F9CF6AE036
:1012F00070E080E090E00E941A0980919C05909136
:101300009D05DC01ED91FC910280F381E02D4AE026
:1013100050E060EB75E009952FB7F8948091DC04FC
:101320009091DD04A091DE04B091DF042FBF809383
:101330009E0590939F05A093A005B093A10581E021
:101340009091B405911101C080E08093C10508958A
:101350001F920F920FB60F9211242F933F938F93EA
:101360009F93AF93BF938091DC049091DD04A09193
:10137000DE04B091DF043091080623E0230F2D37FF
:1013800020F40196A11DB11D05C026E8230F029689
:10139000A11DB11D209308068093DC049093DD0409
:1013A000A093DE04B093DF048091D8049091D90417
:1013B000A091DA04B091DB040196A11DB11D8093C8
:1013C000D8049093D904A093DA04B093DB04BF91BE
:1013D000AF919F918F913F912F910F900FBE0F90E2
:1013E0001F901895CF92DF92EF92FF920F931F9369
:1013F000E82FF92F05C0015011092109310961F1C8
:10140000908196239417B9F305C001501109210961
:10141000310911F1908196239413F7CFC12CD12C6F
:10142000E12CF12C0AC08FEFC81AD80AE80AF80A92
:101430000C151D052E053F0579F080818623841744
:1014400091F36C2D7D2D8E2D9F2D1F910F91FF906F
:10145000EF90DF90CF90089560E070E080E090E042
:101460001F910F91FF90EF90DF90CF9008957894A7
:1014700084B5826084BD84B5816084BD85B5826099
:1014800085BD85B5816085BD80916E00816080934A
:101490006E001092810080918100826080938100B3
:1014A00080918100816080938100809180008160C3
:1014B000809380008091B10084608093B10080911E
:1014C000B00081608093B00080917A008460809346
:1014D0007A0080917A00826080937A0080917A000D
:1014E000816080937A0080917A00806880937A008E
:1014F0001092C100E091F004F091F104D2E0D083A9
:10150000E091EC04F091ED041082E091EE04F09192
:10151000EF0488E080831092F804E091F404F091E5
:10152000F50486E08083E091F204F091F304808179
:1015300080618083E091F204F091F30480818860FF
:101540008083E091F204F091F304808180688083CD
:10155000E091F204F091F30480818F7D808380EE2E
:1015600091E00E94B80661E089E00E94C70861E04E
:1015700085E00E94C70861E086E00E94C70861E03C
:1015800083E00E94C70861E081E10E94C70861E032
:1015900082E10E94C70861E088E00E94C70861E01C
:1015A00088E00E947B0861E081E10E947B0861E0A5
:1015B00082E10E947B0881EA84BDC1E0C5BD81E271
:1015C0008093B000C093B10080E1809381001092BD
:1015D0008000D093EC0380E593EC9093EB03809331
:1015E000EA03909387008093860082E180938100D4
:1015F00064E670E080E090E00E941A0981EC92E0DD
:101600009093AB038093AA03C0936F008FEE91E099
:101610000E94B806109298051092970510929605B0
:101620001092950510929405109293058DE991E022
:1016300090939A058093990590918905963108F0C9
:1016400057C02DEB30E030939405209393052BE9A0
:1016500031E030939605209395052CE231E03093EC
:1016600098052093970520916800983050F031E05C
:101670009E3008F430E081E001C0880F3A95EAF727
:1016800001C084E0822B80936800983038F09E304F
:1016900040F0963148F020E030E008C02DE630E020
:1016A00005C02BE630E002C02CE630E03093910517
:1016B00020939005983030F481E001C0880F9A950E
:1016C000EAF70EC0292F30E09E3018F42850310977
:1016D00002C02E50310981E001C0880F2A95EAF737
:1016E000809392058091990590919A050197F1F761
:1016F0008091970590919805892B21F18091A803FD
:101700009091A90325E08D379207E1F0009711F041
:101710000E94000580919B058E7F80939B0510920F
:10172000A7031092A6038DE795E09093A9038093F9
:10173000A803E0919005F091910590818091920528
:10174000892B80838CEA90E00E94550811E0CDE758
:10175000D5E01093B405D0939D05C0939C0580916E
:10176000A2059091A305A091A405B091A505885468
:10177000944FAF4FBF4F8093A2059093A305A093C2
:10178000A405B093A50560E070E08CE00E945409C8
:101790001093C1050E9452078823E1F38091A205AE
:1017A0009091A305A091A405B091A505885B9B40ED
:1017B000A109B1098093A2059093A305A093A40564
:1017C000B093A50568EC70E080E090E00E941A09F3
:1017D0001092C0058091BC05843059F08AE990E0F0
:1017E0000E94550868EE73E080E090E00E941A09BC
:1017F000B0CF84E990E00E94550860E088E00E9444
:101800007B086AE070E086E00E94540961E070E0C5
:1018100081E10E94540961E081E10E947B0860E05F
:1018200082E10E947B0884E0E82EF12CC1E0D0E048
:1018300093E0C92ED12C24E1822E912C02E010E0FD
:101840003AE0A32EB12C4FE0242E312C8091E903F5
:10185000882309F4ACC08091B2039091B303813026
:10186000910571F124F5892B09F0E0C688EF91E02C
:101870000E94B80661E089E00E947B0861E08DE08B
:101880000E947B0860E081E10E947B0861E082E1C8
:101890000E947B088091D6039091D7039093EE032A
:1018A0008093ED03D093B303C093B203BFC68230DD
:1018B000910539F1039709F0B9C61092E903B6C64C
:1018C0008091ED039091EE038C599F4F092E000CEF
:1018D000AA0BBB0B4091D6035091D7036091D8035C
:1018E0007091D90384179507A607B7070CF09EC619
:1018F0008AE092E00E94B8061093B3030093B2030B
:1019000095C60E9405066BE3662E6DE0762EC30138
:101910000197F1F70E940506C3010197F1F70E94B4
:101920000506EAEDF3E0ACEAB3E0819191918530F0
:10193000910514F0049702C080E090E08D939D9390
:1019400063E0E03EF60789F786E192E00E94B80680
:101950008091AC039091AD030E94300781E793E042
:101960000E94C6068091AE039091AF030E9430079B
:1019700081E793E00E94C6068091B0039091B10385
:101980000E94300781E793E00E94C60661E081E192
:101990000E947B0860E082E10E947B08D092B30342
:1019A000C092B20360E089E00E947B083FC680914C
:1019B000E803882321F01092E8030E940506809135
:1019C000E703811106C08091E603882309F442C130
:1019D00033C01092E703E4EBF3E0AAEDB3E04081FB
:1019E00051818281938124813581841795071CF070
:1019F0002817390734F4821793076CF048175907F2
:101A000024F011969C938E9310C02417350734F45C
:101A1000281739073CF04217530724F011963C93DE
:101A20002E9303C011965C934E933696129673E0F4
:101A3000E63CF707A1F6C7CF1092E6038091D003EA
:101A40009091D1038230910531F0049709F002C1E1
:101A50000E943D05FFC02091F80338B5822F90E029
:101A6000831B91091816190614F08FEF01C081E04D
:101A70008093F30388B5281302C01092F3032091DA
:101A8000F70337B5822F90E0831B910918161906CA
:101A900014F08FEF01C081E08093F20387B5281323
:101AA00002C01092F203209114043091B400822FEE
:101AB00090E0831B91091816190614F08FEF01C0EE
:101AC00081E08093F1038091B400281302C010924A
:101AD000F1034091F303411108C08091F203811199
:101AE00004C08091F103882319F01092F9030BC010
:101AF00081E08093F9038091D6039091D70390936E
:101B0000F0038093EF038091F903811170C08091FD
:101B1000F4039091F5030296092E000CAA0BBB0B5F
:101B20004090D6035090D7036090D8037090D903AB
:101B300084159505A605B7050CF08CC028B5842F33
:101B4000042E000C990BDC01A20FB11DAF3FB105B3
:101B500009F044F428B5820F911D97FD05C088B5A2
:101B6000480F03C04FEF01C040E048BD27B540918A
:101B7000F203842F042E000C990BBC01620F711D1F
:101B80006F3F710509F044F427B5820F911D97FD51
:101B900005C087B5480F03C04FEF01C040E047BD07
:101BA0002091B4004091F103842F042E000C990B76
:101BB000DC01A20FB11DAF3FB10509F054F4209133
:101BC000B400820F911D97FD06C08091B400480FAC
:101BD00003C04FEF01C040E04093B4008091D603B2
:101BE0009091D7039093F5038093F40333C08091D1
:101BF0001504882339F01092F8031092F70310921D
:101C0000140428C087E292E00E94B8068091F6038F
:101C1000863010F48F5F01C080E08093F60340911E
:101C2000060490E09C01220F331FF901E80FF91F11
:101C3000B5E14B9FE00DF11D1124E65FFE4F808161
:101C40008093F80381818093F70382818093140449
:101C50001092F9038091E503882309F454C010928F
:101C6000E50380911804909119040097F9F0019709
:101C700009F58091000190910101893191053CF4B1
:101C800090920104809200041092060413C08D9774
:101C90002CF4309201042092000404C0B09201049C
:101CA000A092000485E08093060404C01092010411
:101CB000109200046091FA037091FB03809100047C
:101CC00090910104681779071CF46F5F7F4F05C07E
:101CD0008617970774F4615071097093FB03609342
:101CE000FA03772786E00E94540960E088E00E94AA
:101CF0007B088091FA039091FB03892B21F461E02A
:101D000088E00E947B088091E403882309F47EC167
:101D10001092E40380911804909119048230910587
:101D200009F450C02CF4009759F0019751F1F2C01A
:101D30008330910509F47AC0049709F4AFC0EAC072
:101D400061E070E08CE390E00E94CE05882309F406
:101D5000E1C01092060461E08DE00E947B08D09300
:101D60001904C093180460E088E00E947B0860E0DA
:101D700070E081E00E94540981E392E00E94B8067D
:101D8000C9C061E070E08CE390E00E94CE05811153
:101D9000C1C0109319040093180484E492E00E94D7
:101DA000B8068091D6039091D703A091D803B09143
:101DB000D9038093020490930304A0930404B09386
:101DC0000504A8C08091020490910304A09104042A
:101DD000B091050488539F4FAF4FBF4F4091D6033A
:101DE0005091D7036091D8037091D9038417950758
:101DF000A607B7078CF482E592E00E94B80610921D
:101E000001041092000460E08DE00E947B08D092F3
:101E10001904C09218047EC061E070E08CE390E089
:101E20000E94CE05882309F475C070C08091020419
:101E300090910304A0910404B0910504845D9E4F29
:101E4000AF4FBF4F4091D6035091D7036091D80355
:101E50007091D90384179507A607B70794F487E70D
:101E600092E00E94B80660E070E08EE00E945409A3
:101E700060E088E00E947B08F0921904E092180468
:101E800049C061E070E08CE390E00E94CE058823B9
:101E900009F440C060E070E08DE032C0809102043F
:101EA00090910304A0910404B091050480579E4FC3
:101EB000AF4FBF4F4091D6035091D7036091D803E5
:101EC0007091D90384179507A607B70774F48AE9B8
:101ED00092E00E94B80660E070E086E10E9454093A
:101EE000109219041092180415C061E070E08CE3A0
:101EF00090E00E94CE05882369F060E070E081E008
:101F00000E94540961E088E00E947B08D093190484
:101F1000C0931804809116049091170481309105A4
:101F2000B9F08230910509F440C0892B09F06EC0E8
:101F300062E070E088E790E00E94CE05811179C3ED
:101F40008091180490911904019709F05FC071C342
:101F500061E089E00E947B081093D1030093D003D5
:101F600082E0809306041092150462E070E088E736
:101F700090E00E94CE05811149C010931704009390
:101F8000160481E0809315048091D6039091D703C5
:101F9000A091D803B091D9038093FC039093FD03E3
:101FA000A093FE03B093FF0331C08091FC03909196
:101FB000FD03A091FE03B091FF0388539F4FAF4FE5
:101FC000BF4F4091D6035091D7036091D8037091D1
:101FD000D90384179507A607B70764F486EB92E048
:101FE0000E94B80660E089E00E947B081092170406
:101FF0001092160462E070E088E790E00E94CE053F
:10200000882321F0D0931704C09316048091E30332
:10201000882309F4E2C01092E30386E00E940309DA
:102020009C0190930F0480930E0491E02538334077
:102030000CF090E090930D042091D2033091D303E3
:102040002230310509F483C03CF42115310579F0C3
:1020500021303105E1F0C1C02430310509F4B7C0A9
:102060000CF4B5C02530310509F4B1C0B6C09923D0
:1020700009F4B3C08091D6039091D70390930C04D8
:1020800080930B04D093D303C093D203A6C09111C5
:102090000DC08091D6039091D70390930A0480934A
:1020A00009041093D3030093D20397C04091D60341
:1020B0005091D7036091D8037091D90380910B049C
:1020C00090910C048C599F4F092E000CAA0BBB0B4E
:1020D00084179507A607B7070CF07FC08091D0033F
:1020E0009091D1038230910539F5F092D103E092BD
:1020F000D0034093CC035093CD036093CE037093F1
:10210000CF035093CB034093CA0384E690E09093AF
:10211000C9038093C8039092C7038092C60360E00E
:1021200070E080E09FE3609302017093030180936D
:1021300004019093050104C0049711F40E943D0529
:1021400085E090E09093D3038093D20346C0409102
:10215000D6035091D7036091D8037091D903209191
:10216000090430910A042C5E3F4F2901330F6608A1
:10217000770844165506660677064CF4D092D303CA
:10218000C092D20389EC92E00E94B80626C099233F
:1021900021F1509308044093070481E08093E20307
:1021A0008093E103D093F405C093F305D093DF054A
:1021B000C093DE0560E070E00E94540984ED92E077
:1021C0000E94B806F092D303E092D20306C09111A8
:1021D00004C01092D3031092D2038091E2038823AB
:1021E00009F499C01092E20387E00E9403099093DA
:1021F0001304809312042EE838E0DC010E949E163E
:1022000020E034E040E050E00E948F14C901309398
:102210001104209310042A31A4E03A0784F4D092E8
:10222000D503C092D403B092F005A092EF051093AD
:10223000F2050093F10585E08093EC0551C02C3444
:10224000344094F41093D5030093D403B092F00576
:10225000A092EF05B092F205A092F10582E0809382
:10226000EC0580EE92E015C0813B24E09207A4F4D7
:10227000D093D503C093D4031093050600930406AE
:10228000909207068092060682E0809301068CEE0B
:1022900092E00E94B80624C08333954094F41092D3
:1022A000D5031092D403B0920506A0920406B09212
:1022B0000706A092060682E08093010688EF92E06E
:1022C000E8CFF092D503E092D40390920506809275
:1022D0000406109307060093060683E08093010628
:1022E0008091D4039091D5038330910529F0049710
:1022F00041F487E193E002C085E093E00E94B806D4
:102300000AC084E293E00E94B80680911004909184
:1023100011040E943A078091E103882309F422C145
:102320001092E1038091DE059091DF0583309105E5
:1023300071F18430910509F460C0019709F082C001
:102340008091EC058823F1F08091D6039091D7031A
:10235000A091D803B091D9038093E4059093E5054B
:10236000A093E605B093E705D092DF05C092DE05A5
:1023700061E082E10E947B088091EC0581508093AE
:10238000EC0560C01092DF051092DE0531C061E0FF
:1023900082E10E947B084090D6035090D703609062
:1023A000D8037090D9034091EF055091F005052EA8
:1023B000000C660B770B8091E4059091E505A091E8
:1023C000E605B091E705840F951FA61FB71F84157A
:1023D0009505A605B705B4F5F092DF05E092DE0598
:1023E0004092E8055092E9056092EA057092EB058B
:1023F00060E082E10E947B0825C08091F105909108
:10240000F205092E000CAA0BBB0B4091E805509178
:10241000E9056091EA057091EB05840F951FA61FF1
:10242000B71F4091D6035091D7036091D8037091A4
:10243000D90384179507A607B70724F4D093DF05BF
:10244000C093DE058091F3059091F40583309105EA
:1024500071F18430910509F460C0019709F082C0E0
:10246000809101068823F1F08091D6039091D703E3
:10247000A091D803B091D9038093F9059093FA0500
:10248000A093FB05B093FC05D092F405C092F30530
:1024900061E081E10E947B08809101068150809378
:1024A000010660C01092F4051092F30531C061E09E
:1024B00081E10E947B084090D6035090D703609042
:1024C000D8037090D9034091040650910506052E5B
:1024D000000C660B770B8091F9059091FA05A0919D
:1024E000FB05B091FC05840F951FA61FB71F84152F
:1024F0009505A605B705B4F5F092F405E092F3054D
:102500004092FD055092FE056092FF057092000614
:1025100060E081E10E947B0825C0809106069091D1
:102520000706092E000CAA0BBB0B4091FD0550912C
:10253000FE056091FF0570910006840F951FA61F90
:10254000B71F4091D6035091D7036091D803709183
:10255000D90384179507A607B70724F4D093F40589
:10256000C093F3058091E003882309F45FC01092C3
:10257000E0038DE393E00E94C606809118049091D9
:1025800019040E94300782E493E00E94C6068091FD
:102590001604909117040E94300789E493E00E948A
:1025A000C6068091150490E00E94300783E593E011
:1025B0000E94C6066091B40070E080E090E04AE0BE
:1025C0000E94C8068DE593E00E94C606609114043F
:1025D00070E080E090E04AE00E94C80687E693E061
:1025E0000E94C6068091DA039091DB030E943007B7
:1025F00080E793E00E94C6068091DC039091DD03A2
:102600000E94300780E793E00E94C6068091DE03B7
:102610009091DF030E94300780E793E00E94C60696
:102620008091E0039091E1030E943A070E94B70174
:102630000DC9D0931704C093160483E793E00E945A
:10264000B806E4CC82ED91E090937E0580937D0501
:102650008DE795E00C9400058F929F92AF92BF9208
:10266000CF92DF92EF92FF92CF93DF931092E30429
:102670001092E20498EE892E93E0992EA12CB12CB1
:102680008092E4049092E504A092E604B092E704FC
:1026900080EC91E09093E1048093E00485EC90E07D
:1026A0009093ED048093EC0484EC90E09093EF041D
:1026B0008093EE0480EC90E09093F1048093F0041A
:1026C00081EC90E09093F3048093F20482EC90E02C
:1026D0009093F5048093F40486EC90E09093F704D3
:1026E0008093F6041092F9041092FA041092FB04FD
:1026F0001092FC044AE050E0509303064093020617
:1027000022E030E0309305062093040688E290E052
:1027100090930706809306065093EE054093ED05CF
:102720003093F0052093EF059093F2058093F10527
:102730001092D905C3E1C093D705DAE0D093D8054C
:1027400061E083E10E94C70860E08091D8050E94A3
:10275000C70820E2C22E2EE4D22EE12CF12CC0922A
:10276000DA05D092DB05E092DC05F092DD051092EF
:10277000D205C093D0058EE08093D10561E083E15E
:102780000E94C70860E08091D1050E94C708C092EE
:10279000D305D092D405E092D505F092D6051092DB
:1027A000CB05C093C9058FE08093CA0561E083E142
:1027B0000E94C70860E08091CA050E94C708C092C5
:1027C000CC05D092CD05E092CE05F092CF051092C7
:1027D000C405C093C20580E18093C30561E083E135
:1027E0000E94C70860E08091C3050E94C708C0929C
:1027F000C505D092C605E092C705F092C80584EFE2
:1028000091E0A0E0B0E08093A2059093A305A0938F
:10281000A405B093A505E2EBF1E0A0EBB5E00190D3
:102820000D92DA95E1F71092BA0582E08093BB052C
:102830001092C0051092C1051092800510927F057C
:102840008092810590928205A0928305B0928405C2
:1028500082ED91E090937E0580937D051092940522
:102860001092930510929605109295051092980576
:102870001092970510929A051092990560919B0508
:102880006E7F6D7F60939B056695617081E0682720
:1028900084E00E947B0861E084E00E94C708EDE0CC
:1028A000F1E0E491E0938D05E9EFF0E0E491F0E0F0
:1028B000EE0FFF1FEF51FF4F8591949190938F057D
:1028C00080938E0560E087E00E94C70880919B0599
:1028D00081FD04C061E087E00E947B0887E080936F
:1028E0008905E0E1F1E0E491E0938A05ECEFF0E0A6
:1028F000E491F0E0EE0FFF1FE551FF4F85919491B9
:1029000090938C0580938B05DF91CF91FF90EF9092
:10291000DF90CF90BF90AF909F908F900895052E3D
:1029200097FB1EF400940E94A61457FD07D00E9446
:10293000AE1407FC03D04EF40C94A61450954095A9
:10294000309521953F4F4F4F5F4F0895909580955B
:10295000709561957F4F8F4F9F4F0895A1E21A2E7A
:10296000AA1BBB1BFD010DC0AA1FBB1FEE1FFF1F33
:10297000A217B307E407F50720F0A21BB30BE40B83
:10298000F50B661F771F881F991F1A9469F76095CA
:102990007095809590959B01AC01BD01CF01089584
:1029A000A29FB001B39FC001A39F700D811D112490
:1029B000911DB29F700D811D1124911D08955058D5
:1029C000BB27AA270E94F7140C94C9150E94BB15B7
:1029D00038F00E94C21520F039F49F3F19F426F414
:1029E0000C94B8150EF4E095E7FB0C94B215E92FA2
:1029F0000E94DA1558F3BA17620773078407950720
:102A000020F079F4A6F50C94FC150EF4E0950B2E4D
:102A1000BA2FA02D0B01B90190010C01CA01A00130
:102A20001124FF27591B99F0593F50F4503E68F18B
:102A30001A16F040A22F232F342F4427585FF3CFCC
:102A4000469537952795A795F0405395C9F77EF49D
:102A50001F16BA0B620B730B840BBAF09150A1F0E6
:102A6000FF0FBB1F661F771F881FC2F70EC0BA0F6C
:102A7000621F731F841F48F4879577956795B795F4
:102A8000F7959E3F08F0B0CF9395880F08F09927EF
:102A9000EE0F9795879508950E948E1508F481E0B2
:102AA0000895E89409C097FB3EF490958095709541
:102AB00061957F4F8F4F9F4F9923A9F0F92F96E98A
:102AC000BB279395F695879577956795B795F111FF
:102AD000F8CFFAF4BB0F11F460FF1BC06F5F7F4F9C
:102AE0008F4F9F4F16C0882311F096E911C07723AE
:102AF00021F09EE8872F762F05C0662371F096E8B7
:102B0000862F70E060E02AF09A95660F771F881F85
:102B1000DAF7880F9695879597F90895990F000829
:102B2000550FAA0BE0E8FEEF16161706E807F9079F
:102B3000C0F012161306E407F50798F0621B730B3A
:102B4000840B950B39F40A2661F0232B242B252BBB
:102B500021F408950A2609F4A140A6958FEF811D5E
:102B6000811D089597F99F6780E870E060E00895FF
:102B70009FEF80EC089500240A9416161706180695
:102B80000906089500240A94121613061406050671
:102B90000895092E0394000C11F4882352F0BB0F02
:102BA00040F4BF2B11F460FF04C06F5F7F4F8F4F65
:102BB0009F4F089557FD9058440F551F59F05F3FA0
:102BC00071F04795880F97FB991F61F09F3F79F04F
:102BD00087950895121613061406551FF2CF4695D1
:102BE000F1DF08C0161617061806991FF1CF869553
:102BF0007105610508940895E894BB276627772737
:102C0000CB0197F908950E9416160C94C9150E94DD
:102C1000BB1538F00E94C21520F0952311F00C94DA
:102C2000B2150C94B81511240C94FD150E94DA15F8
:102C300070F3959FC1F3950F50E0551F629FF0010F
:102C4000729FBB27F00DB11D639FAA27F00DB11D28
:102C5000AA1F649F6627B00DA11D661F829F2227B1
:102C6000B00DA11D621F739FB00DA11D621F839F38
:102C7000A00D611D221F749F3327A00D611D231F0E
:102C8000849F600D211D822F762F6A2F11249F575C
:102C900050409AF0F1F088234AF0EE0FFF1FBB1F5F
:102CA000661F771F881F91505040A9F79E3F51051E
:102CB00080F00C94B2150C94FD155F3FE4F3983E40
:102CC000D4F3869577956795B795F795E7959F5FC8
:102CD000C1F7FE2B880F911D9695879597F908955A
:102CE000AA1BBB1B51E107C0AA1FBB1FA617B70732
:102CF00010F0A61BB70B881F991F5A95A9F780954E
:102D00009095BC01CD01089597FB072E16F4009411
:102D100007D077FD09D00E94701607FC05D03EF45D
:102D2000909581959F4F0895709561957F4F089577
:102D3000EE0FFF1F0590F491E02D09940E94D0142E
:102D4000B7FF0895821B930B089581E090E0F894FB
:102D50000C94AA1610E0C0E9D0E004C0FE010E9465
:0E2D600098162196C139D107C9F7F894FFCF14
:102D6E0090010000003F900190010000FFFFFFFF67
:102D7E00FF000000FF000000FFFFFF005050508DCD
:102D8E006E63FF5722FF6F00CDDC394CAF500096BB
:102D9E00887E57C2007D00007D417D7D007D410013
:102DAE0000410000417D00007D0000FFFF28FFFF75
:102DBE0000009628321400FFFF6414646464D76424
:102DCE0000D7A7247878783246FF00A0FF3C2882EF
:102DDE007850280000C8C8C8C8C8000000C8000045
:102DEE0000C8C8C8003232320000646464646400F3
:102DFE00000064000000646464003232320000FFA0
:102E0E00FFFFFFFF000000FF000000FFFFFF00506C
:102E1E0050507EFF06000100000000EF0000000091
:102E2E004E01BB00E60095011701F50009010000F7
:102E3E000000DA01BB006802D9012E024602C10170
:102E4E0073657269616C20656E61626C65640065A4
:102E5E006E61206D75746500496E697469616C20D0
:102E6E0063616C69627261746500357320656C61B3
:102E7E0070736564210043616C696272617465648C
:102E8E0020776974683A00636F6C6F7220636867AD
:102E9E00007A6F6E65203120542744202D3E207A13
:102EAE00656E65007A6F6E652031206C65617665A2
:102EBE0064007A6F6E6520312031307320656C614D
:102ECE0070736564202D2D3E20736D616C6C2074C3
:102EDE00696D656F7574007A6F6E652031203135BE
:102EEE007320656C6170736564202D2D3E206269C0
:102EFE00672074696D656F7574007A6F6E65203129
:102F0E002032307320656C6170736564202D2D3E08
:102F1E002069646C65007A6F6E65203220313073E3
:102F2E002074696D656F75740073686F72742070AC
:102F3E0075736800646F75626C65207075736800D8
:102F4E0032207069726F73203530250032207A6F0F
:102F5E006C64202D3130250032207A6F6C64202D68
:102F6E002035302500566F6C746167652043726999
:102F7E00746963616C2100566F6C746167652048DB
:102F8E0069676800566F6C74616765207465737449
:102F9E0065642C206E6F726D616C2020007A313A60
:102FAE00200009207A323A2000092063626C6163A6
:102FBE003A0900092063626C75653A0900092066BA
:102FCE00626C75653A09000920636D2D733A09002C
:102FDE000909007A6F6E65203220542744202D3E59
:102FEE002073706F742C20737472697000736F6627
:102FFE007420726573657400626C696E6B20746503
:06300E007374000D0A00BE
:00000001FF
