:100000000C9491000C94B9000C94B9000C94AA04BF
:100010000C94AA040C94AA040C94B9000C94B90092
:100020000C94B9000C94B9000C94B9000C94B9006C
:100030000C94B9000C943A050C94B9000C94B900D6
:100040000C9460090C94B9000C9478040C9452043C
:100050000C94B9000C94B9000C94B9000C94B9003C
:100060000C94B9000C94B90076077A0781077007E1
:10007000810772077E078E07810781078107810745
:10008000810781078107810785078107810781072C
:1000900081078107646F6E652E00556E61626C6525
:1000A00020746F20636F6E6E65637400496E6974AF
:1000B00069616C697A696E67204446506C61796544
:1000C000722E0000000000240027002A000000001B
:1000D0000800020100000304070000000000000007
:1000E0000000000000250028002B00000000002375
:1000F000002600290004040404040404040202028B
:100100000202020303030303030102040810204058
:10011000800102040810200102040810200080134E
:10012000761311241FBECFEFD8E0DEBFCDBF14E0A1
:10013000A0E0B1E0E4EFFAE202C005900D92A43332
:10014000B107D9F726E0A4E3B4E001C01D92A23CB8
:10015000B207E1F710E0C0E9D0E004C02197FE014A
:100160000E945B15CF38D107C9F70E94EF090C94A4
:100170006D150C940000CF92DF92EF92FF920F93D7
:100180001F93CF93DF936C017A018B01C0E0D0E025
:10019000CE15DF0589F0D8016D918D01D601ED9165
:1001A000FC910190F081E02DC6010995892B11F495
:1001B0007E0102C02196ECCFC701DF91CF911F9144
:1001C0000F91FF90EF90DF90CF900895FC01538D39
:1001D000448D252F30E0842F90E0821B930B541721
:1001E00010F0CF96089501970895FC01918D828DAE
:1001F000981761F0828DDF01A80FB11D5D968C917B
:10020000928D9F5F9F73928F90E008958FEF9FEF85
:100210000895FC01918D828D981731F0828DE80F41
:10022000F11D858D90E008958FEF9FEF0895FC01FB
:10023000918D228D892F90E0805C9F4F821B9109C8
:100240008F739927089585E995E00E94170121E0B1
:10025000892B09F420E0822F0895FC01848DDF01B1
:10026000A80FB11DA35ABF4F2C91848D90E0019629
:100270008F739927848FA689B7892C93A089B18918
:100280008C9180648C93938D848D981306C0028822
:10029000F389E02D80818F7D80830895EF92FF9216
:1002A0000F931F93CF93DF93EC0181E0888F9B8D99
:1002B0008C8D981305C0E889F989808185FD24C05B
:1002C000F62E0B8D10E00F5F1F4F0F731127E02EDE
:1002D0008C8DE8120CC00FB607FCFACFE889F989BB
:1002E000808185FFF5CFCE010E942D01F1CF8B8D4E
:1002F000FE01E80FF11DE35AFF4FF0820B8FEA89F0
:10030000FB898081806207C0EE89FF896083E8896C
:10031000F98980818064808381E090E0DF91CF91D2
:100320001F910F91FF90EF900895CF93DF93EC0111
:10033000888D8823C9F0EA89FB89808185FD05C005
:10034000A889B9898C9186FD0FC00FB607FCF5CF3F
:10035000808185FFF2CFA889B9898C9185FFEDCF87
:10036000CE010E942D01E7CFDF91CF91089580E06B
:1003700090E0892B29F00E94230181110C94000048
:10038000089520913604309137042817390771F405
:100390009091340480913504981741F0E091340431
:1003A000F0E0EF5AFA4F808190E008958FEF9FEFD1
:1003B000089508951F93CF93DF93DC015C962D91F0
:1003C0003C915D972115310539F481E090E0139659
:1003D0009C938E9312973DC05196ED91FC9152974C
:1003E00050969C915097892F80951FB75E964C919F
:1003F0005E9741FB772770F941FD6095F894408145
:10040000772311F0492B01C048234083E90121974C
:10041000F1F748E0508160FF02C0592B01C058231A
:100420005083E9012197F1F76695415099F77723B9
:1004300021F090818923808303C08081982B908351
:100440001FBF5C968D919C915D970197F1F721E01C
:1004500030E0C901DF91CF911F91089520913604BA
:10046000309137042817390771F4809135042091B1
:10047000340490E0805C9F4F821B910960E470E03F
:100480000E944715089580E090E008952091360479
:100490003091370428173907B9F4909134048091CA
:1004A0003504981789F0E0913404F0E0EF5AFA4FE0
:1004B00080812091340430E02F5F3F4F2F7333272A
:1004C0002093340490E008958FEF9FEF08950895EE
:1004D00080E090E008950E9468150F931F93CF93DA
:1004E000DF93EC018A81882321F061E088810E94FA
:1004F000AE0860E088810E94620883E090E0019786
:10050000F1F761E088810E94620883E290E0019740
:10051000F1F760E088810E9462088A81882321F0D7
:1005200060E088810E94AE08298130E0F901E75F30
:10053000FE4F6491F901EB50FF4FE491F0E0EE0FB4
:10054000FF1FE551FF4F859194910B811C812D81F7
:100550003E813F70462F0E94AA09611571058105F1
:10056000910539F0DC01CB010196A11DB11DBF70D1
:1005700003C080E090E0DC01DF91CF911F910F91EB
:1005800008950F931F93CF93DF93C0914E05D091A1
:100590004F052196D0934F05C0934E05809160047E
:1005A00090916104A0916204B09163040196A11D31
:1005B000B11D8093600490936104A0936204B09392
:1005C000630481E0809374048093730480936F04C8
:1005D00020915E0430915F042330310549F080930F
:1005E00072049E0123703327232B11F4809371042E
:1005F000C0FD05C081E08093700480936D04CE013E
:1006000064E170E00E944715892B19F481E0809322
:100610006C04CE0168EC70E00E944715892B31F123
:10062000CE0160EA7FE00E944715892B09F055C092
:1006300081E080936E0482EB93E00E944606109264
:100640006F041092720410926C0410927404109251
:10065000710410927004109275041092A906109201
:10066000A806109294061092930637C02091AB040E
:10067000243110F42F5F01C020E02093AB0430E060
:10068000F901EE0FFF1FE455FB4F80916404909138
:10069000650491838083F901EE0FFF1FEC52FB4F3D
:1006A000809166049091670491838083F901EE0F35
:1006B000FF1FE450FB4F809168049091690491837F
:1006C0008083220F331FF901EC5DFA4F80916A0499
:1006D00090916B0491838083A3CF8091600490916B
:1006E0006104A0916204B0916304803921E0920713
:1006F000A105B105BCF420915C0430915D04233068
:10070000310581F4209142043091430423303105B6
:1007100049F081E08093750460E070E08EE00E9413
:10072000E30724C0AC01BD01415951406109710981
:10073000473C51056105710558F480914204909140
:100740004304039799F460E082E10E9462080EC0BE
:1007500089359240A105B1054CF0809142049091F9
:100760004304039719F081E080937504809160043D
:1007700090916104A0916204B09163048436910564
:10078000A105B105CCF480915C0490915D040497BF
:1007900099F421E030E0309394062093930681E0B1
:1007A0008093A1063093A9062093A8068093B606ED
:1007B0008DEB93E00E94460680914E0590914F0587
:1007C00060EC72E10E944715892B09F066C083E056
:1007D00090E09093430480934204CAE3D4E0ECEAAF
:1007E000F4E004E110E020E030E080E090E0DF01A0
:1007F000A80FB91F4D915C91240F351F02968832C6
:100800009105A9F7243631053CF0C901B8010E94D1
:100810004715CB01049702C080E090E0899399933B
:10082000B89685E0EC34F807F1F630934D05209347
:100830004C0588EC93E00E94460680E294E00E941A
:10084000460680913A0490913B040E94BE0686E9D8
:1008500093E00E94540680913C0490913D040E94D4
:10086000BE0686E993E00E94540680913E04909172
:100870003F040E94BE0686E993E00E9454068091E0
:100880004004909141040E94BE0686E993E0DF9106
:10089000CF911F910F910C945406DF91CF911F912E
:1008A0000F9108951F920F920FB60F9211242F935C
:1008B0003F934F935F936F937F938F939F93AF93E8
:1008C000BF93EF93FF9385E995E00E942D01FF917F
:1008D000EF91BF91AF919F918F917F916F915F91B8
:1008E0004F913F912F910F900FBE0F901F90189531
:1008F0001F920F920FB60F9211242F938F939F93F5
:10090000EF93FF93E091A505F091A6058081E0911A
:10091000AB05F091AC0582FD12C090818091AE05CF
:100920008F5F8F732091AF05821751F0E091AE0574
:10093000F0E0EB56FA4F958F8093AE0501C08081B1
:10094000FF91EF919F918F912F910F900FBE0F907C
:100950001F9018951F920F920FB60F9211242F938C
:100960003F934F935F936F937F938F939F93AF9337
:10097000BF93EF93FF93E0913604F09137043097E3
:1009800009F451C0968DA685B785858591FF04C071
:100990009C91892329F447C09C91892309F043C085
:1009A000A389B4899C918589809589238C938689B4
:1009B00097890197F1F7608D718DA685B78555856B
:1009C00038E020E0CB010197F1F7822F90E0959578
:1009D0008795282F4C91452309F02068315091F7D5
:1009E000868D81FD20958091350490E001968F736E
:1009F000992730913404381749F0A0913504B0E0BC
:100A0000AF5ABA4F2C938093350403C0868D816012
:100A1000868F828D938D0197F1F7A389B4899C917C
:100A20008589892B8C93FF91EF91BF91AF919F9115
:100A30008F917F916F915F914F913F912F910F9087
:100A40000FBE0F901F901895E0913604F091370477
:100A5000E817F90769F4A389B4899C918589809581
:100A600089238C93109237041092360481E0089504
:100A700080E008951F920F920FB60F9211242F93CA
:100A80003F934F935F936F937F938F939F93AF9316
:100A9000BF93EF93FF93E0913804F09139040995E7
:100AA000FF91EF91BF91AF919F918F917F916F9146
:100AB0005F914F913F912F910F900FBE0F901F901C
:100AC00018950F931F93CF93DF93EC01E4E6F4E0C6
:100AD000AAE3B4E020E931E080E0419151910D9129
:100AE0001D914017510744F44C175D072CF4421731
:100AF00053070CF49A0181E094E0EC36F90769F7AA
:100B000030930501209304016130710541F062309A
:100B1000710549F4309303012093020104C030931E
:100B2000010120930001DF91CF911F910F91089552
:100B3000CF93DF93E0915005E33018F4C1E0CE0F7E
:100B400001C0C0E0C09350058BE39CE90197F1F729
:100B500085E896E00E946D02EC2FF0E0EE0FFF1F9B
:100B6000E65BFB4F6CE170E00E943315769567956C
:100B700071836083C0915005D0E0FE01EE0FFF1F2E
:100B8000E65BFB4F80819181892B21F481E991E023
:100B9000918380838BE59AEE0197F1F78CE896E0DC
:100BA0000E946D02CC0FDD1FCC5BDB4F6CE170E06F
:100BB0000E9433157695679579836883C0915005B7
:100BC000D0E0FE01EE0FFF1FEC5BFB4F80819181B7
:100BD000892B21F481E991E0918380838BEB9AED5D
:100BE0000197F1F78EE796E00E946D02CC0FDD1FB2
:100BF000C05BDB4F6CE170E00E9433157695679522
:100C000079836883C0915005D0E0FE01EE0FFF1F8D
:100C1000E05BFB4F80819181892B21F481E991E098
:100C20009183808387E796E00E946D02CC0FDD1FE1
:100C3000CA5ADB4F6CE170E00E94331576956795D8
:100C400079836883E0915005F0E0EE0FFF1FEA5AC8
:100C5000FB4F80819181892B21F481E991E091837F
:100C60008083DF91CF910895009769F0FC01019096
:100C70000020E9F73197AF01481B590BBC0185E90A
:100C800095E00C94BB0080E090E00895CF93DF9353
:100C90000E943406EC0189E893E00E9434068C0F30
:100CA0009D1FDF91CF9108950C9434068F929F92EF
:100CB000AF92BF920F931F93CF93DF93CDB7DEB761
:100CC000A1970FB6F894DEBF0FBECDBF19A2423078
:100CD00008F44AE08E010F5D1F4F842E912CA12C49
:100CE000B12CA50194010E940215E62FB901CA0199
:100CF00001501109EA3014F4E05D01C0E95CD8014B
:100D0000EC93232B242B252B61F7C8010E9434067A
:100D1000A1960FB6F894DEBF0FBECDBFDF91CF9185
:100D20001F910F91BF90AF909F908F900895CF9299
:100D3000DF92EF92FF92CF93DF936B017C01E09102
:100D40009505F09196050190F081E02D6DE285E921
:100D500095E00995EC0166277727CB016C197D0991
:100D60008E099F094AE00E9456068C0F9D1FDF9155
:100D7000CF91FF90EF90DF90CF900895BC01990F35
:100D8000880B990B97FD0C9497064AE00C94560635
:100D9000CF93DF93BC01990F880B990B97FF03C08A
:100DA0000E94970603C04AE00E945606EC0189E8BB
:100DB00093E00E9434068C0F9D1FDF91CF91089520
:100DC000CF93DF938091510690915206DC01ED9113
:100DD000FC910084F185E02D0995892B09F4B7C0B9
:100DE000C0916F068091510690915206DC01ED9101
:100DF000FC910284F385E02DC1110DC0099580930B
:100E00005B068E37F9F61092750680916F068F5F3C
:100E100080936F06D7CF0995EC2FF0E0EF5AF94F8A
:100E2000828790916F069230A9F09930C9F0913085
:100E300009F089C080915C068F3F09F484C010924C
:100E40006F06909371061092740610927306909339
:100E50007506B3C080915D06863009F474C004C085
:100E6000809164068F3E19F010926F0664C0ECE525
:100E7000F6E040E050E08191480F511DB6E0E236C7
:100E8000FB07C9F72091620630E0322F22275195E7
:100E90004195510980916306280F311D10926F060C
:100EA0004217530709F047C0E0915E06E0937206CF
:100EB0008091600690E0982F882720916106820F2C
:100EC000911D90937406809373064E2F50E0FA01A3
:100ED000FA97E631F105C8F4EC5CFF4F0C945B1512
:100EE00085E00DC081FF1CC084E009C081FF18C0EF
:100EF00082E005C081FF14C083E001C086E08093DA
:100F0000710681E0809375060BC081E080937106C5
:100F100010927406109273068093750610927606EE
:100F2000D0917506DD2309F44AC0809169068823B3
:100F300009F443C044C081E08093710610927406A6
:100F40001092730638C09F5F90936F063BCF8091DD
:100F50007606882321F12FB7F8948091910590911E
:100F60009205A0919305B09194052FBF409153062F
:100F7000509154066091550670915606841B950B4E
:100F8000A60BB70B40915706509158066091590631
:100F900070915A0684179507A607B70718F4D091E1
:100FA00075060DC010926F061092710610927406AD
:100FB0001092730681E080937506109276068D2F4D
:100FC000DF91CF9108958093680670936A066093CD
:100FD0006B06E6E6F6E080E090E02191820F911D3D
:100FE00026E0EC36F207C9F7919581959109909327
:100FF0006C0680936D0680916906882339F0809194
:101000007606882349F00E94E006F9CF6AE070E096
:1010100080E090E00E94260980915106909152064E
:10102000DC01ED91FC910280F381E02D4AE050E07B
:1010300065E676E009952FB7F89480919105909137
:101040009205A0919305B09194052FBF809353060C
:1010500090935406A0935506B093560681E0909164
:101060006906911101C080E080937606089560E0E2
:1010700070E081E00C94E3070F931F93CF93DF930D
:101080008C01C0E0D0E0F801EC0FFD1F64916623F5
:1010900071F0E0919505F09196050190F081E02DB9
:1010A00085E995E00995892B11F02196ECCF89E827
:1010B00093E00E9434068C0F9D1FDF91CF911F910A
:1010C0000F91089590E0FC01E353FF4F3491FC0130
:1010D000E75FFE4F2491FC01EB50FF4FE491EE23BC
:1010E00009F43BC0332339F1333091F038F4313017
:1010F000A9F0323001F584B58F7D12C0373091F000
:101100003830A1F03430B9F4809180008F7D03C075
:10111000809180008F77809380000DC084B58F7799
:1011200084BD09C08091B0008F7703C08091B0006A
:101130008F7D8093B000F0E0EE0FFF1FEF51FF4F67
:10114000A591B4918FB7F894EC91611103C02095EB
:101150002E2301C02E2B2C938FBF0895CF93DF93A6
:1011600090E0FC01E75FFE4F2491FC01EB50FF4F44
:101170008491882361F190E0880F991FFC01ED5361
:10118000FF4FC591D491FC01EF51FF4FA591B49150
:10119000611109C09FB7F8948881209582238883C4
:1011A000EC912E230BC0623061F49FB7F894388124
:1011B000822F809583238883EC912E2B2C939FBFC5
:1011C00006C08FB7F894E8812E2B28838FBFDF915C
:1011D000CF9108953FB7F8948091BE069091BF06D5
:1011E000A091C006B091C10626B5A89B05C02F3FAF
:1011F00019F00196A11DB11D3FBFBA2FA92F982F3D
:101200008827820F911DA11DB11DBC01CD0142E0B7
:10121000660F771F881F991F4A95D1F708958E3062
:1012200008F08E508770806480937C0080917A00F3
:10123000806480937A0080917A0086FDFCCF809153
:1012400078002091790090E0922B08958F929F92E0
:10125000AF92BF92CF92DF92EF92FF926B017C012F
:101260000E94EA084B015C01C114D104E104F104BD
:10127000F1F00E94EA08DC01CB0188199909AA095A
:10128000BB09883E9340A105B10570F321E0C21A65
:10129000D108E108F10888EE880E83E0981EA11CB1
:1012A000B11CC114D104E104F10419F7DDCFFF90A2
:1012B000EF90DF90CF90BF90AF909F908F90089568
:1012C0001F920F920FB60F9211242F933F938F937B
:1012D0009F93AF93BF938091910590919205A091B8
:1012E0009305B09194053091BD0623E0230F2D376F
:1012F00020F40196A11DB11D05C026E8230F02961A
:10130000A11DB11D2093BD06809391059093920578
:10131000A0939305B09394058091BE069091BF066B
:10132000A091C006B091C1060196A11DB11D809388
:10133000BE069093BF06A093C006B093C106BF91AE
:10134000AF919F918F913F912F910F900FBE0F9072
:101350001F901895CF92DF92EF92FF920F931F93F9
:10136000E82FF92F05C0015011092109310961F158
:10137000908196239417B9F305C0015011092109F2
:10138000310911F1908196239413F7CFC12CD12C00
:10139000E12CF12C0AC08FEFC81AD80AE80AF80A23
:1013A0000C151D052E053F0579F0808186238417D5
:1013B00091F36C2D7D2D8E2D9F2D1F910F91FF9000
:1013C000EF90DF90CF90089560E070E080E090E0D3
:1013D0001F910F91FF90EF90DF90CF900895789438
:1013E00084B5826084BD84B5816084BD85B582602A
:1013F00085BD85B5816085BD80916E0081608093DB
:101400006E00109281008091810082608093810043
:101410008091810081608093810080918000816053
:10142000809380008091B10084608093B1008091AE
:10143000B00081608093B00080917A0084608093D6
:101440007A0080917A00826080937A0080917A009D
:10145000816080937A0080917A00806880937A001E
:101460001092C100E091A505F091A605D2E0D083CD
:10147000E091A105F091A2051082E091A305F09101
:10148000A40588E080831092AD05E091A905F09154
:10149000AA0586E08083E091A705F091A8058081E8
:1014A00080618083E091A705F091A8058081886024
:1014B0008083E091A705F091A805808180688083F2
:1014C000E091A705F091A80580818F7D80838CED48
:1014D00091E00E94460661E08BE00E94AE0861E068
:1014E00085E00E94AE0861E086E00E94AE0861E0FF
:1014F00083E00E94AE0861E082E10E94AE0861E0F4
:1015000081E10E94AE0861E088E00E94AE0861E0DF
:1015100088E00E94620861E082E10E94620861E066
:1015200081E10E94620881EA84BDC1E0C5BD80936B
:10153000B000C093B10080E18093810010928000E0
:10154000D093780480E593EC9093770480937604AD
:10155000909387008093860082E18093810064E607
:1015600070E080E090E00E94260981EC92E0909388
:10157000390480933804C0936F008BEE91E00E9491
:10158000460610924D0610924C0610924B06109291
:101590004A0610924906109248068DE991E0909310
:1015A0004F0680934E0690913E06963108F057C044
:1015B0002DEB30E030934906209348062BE931E0CB
:1015C00030934B0620934A062CE231E030934D06CF
:1015D00020934C0620916800983050F031E09E3006
:1015E00008F430E081E001C0880F3A95EAF701C0C5
:1015F00084E0822B80936800983038F09E3040F071
:10160000963148F020E030E008C02DE630E005C01B
:101610002BE630E002C02CE630E030934606209303
:101620004506983030F481E001C0880F9A95EAF7BA
:101630000EC0292F30E09E3018F42850310902C026
:101640002E50310981E001C0880F2A95EAF7809376
:10165000470680914E0690914F060197F1F78091D1
:101660004C0690914D06892B21F180913604909182
:10167000370426E082339207E1F0009711F00E94D0
:101680002405809150068E7F809350061092350479
:101690001092340482E396E09093370480933604EA
:1016A000E0914506F0914606908180914706892B8E
:1016B00080838CEA90E00E943C0811E0C2E3D6E00F
:1016C00010936906D0935206C09351068091570635
:1016D00090915806A0915906B0915A068854944F9B
:1016E000AF4FBF4F8093570690935806A09359066B
:1016F000B0935A0660E070E08CE00E94E30710931C
:1017000076060E94E0068823E1F3809157069091C7
:101710005806A0915906B0915A06885B9B40A109D2
:10172000B1098093570690935806A0935906B09339
:101730005A0668EC70E080E090E00E942609109262
:10174000750680917106843059F08AE990E00E9414
:101750003C0868EE73E080E090E00E942609B0CF7C
:1017600084E990E00E943C0860E088E00E94620802
:101770006AE070E086E00E94E30761E070E081E1EA
:101780000E94E30761E082E10E94620860E081E17B
:101790000E94620883E0E82EF12C94E0A92EB12C7F
:1017A000C1E0D0E024E1822E912C02E010E03AE08A
:1017B000C32ED12C4BE3242E4DE0342E80917504A2
:1017C000882309F4AFC08091420490914304813092
:1017D000910569F11CF5892B09F07CC784EF91E034
:1017E0000E9446068FEF8093B30061E08DE00E9477
:1017F000620860E082E10E94620861E081E10E948B
:101800006208809160049091610490937A048093BF
:101810007904D0934304C09342045CC7823091059D
:1018200039F1039709F056C71092750453C7809198
:10183000790490917A048C599F4F092E000CAA0BC1
:10184000BB0B4091600450916104609162047091FF
:10185000630484179507A607B7070CF03BC786E01B
:1018600092E00E944606109343040093420432C75C
:101870000E949805C1010197F1F70E949805C101E6
:101880000197F1F70E949805E4E6F4E0AAE3B4E0DA
:10189000819191918530910514F0049702C080E008
:1018A00090E08D939D9364E0EA36F60789F783E232
:1018B00094E00E94460680913A0490913B040E9475
:1018C000BE0686E993E00E94540680913C04909104
:1018D0003D040E94BE0686E993E00E945406809172
:1018E0003E0490913F040E94BE0686E993E00E9468
:1018F000540680914004909141040E94BE0686E9FE
:1019000093E00E94540661E082E10E94620860E078
:1019100081E10E946208F0924304E0924204109236
:10192000B300D8C680917404882321F01092740407
:101930000E94980580917304811106C08091720401
:10194000882309F470C133C010927304E4E4F4E016
:10195000A4E6B4E040815181828193812481358164
:10196000841795071CF02817390734F4821793075A
:101970006CF04817590724F011969C938E9310C071
:101980002417350734F4281739073CF0421753075A
:1019900024F011963C932E9303C011965C934E93C2
:1019A0003696129674E0EC35F707A1F6C7CF109281
:1019B000720480918B0490918C04029709F0FFC00F
:1019C0002091A40438B5822F90E0831B910918164A
:1019D000190614F08FEF01C081E08093810488B56F
:1019E000281302C0109281042091A30437B5822FDE
:1019F00090E0831B91091816190614F08FEF01C0AF
:101A000081E08093800487B5281302C0109280047F
:101A10002091A2043091B400822F90E0831B9109A1
:101A20001816190614F08FEF01C081E080937F042F
:101A30008091B400281302C010927F044091810469
:101A4000411108C080918004811104C080917F04FD
:101A5000882319F010928A040BC081E080938A04D5
:101A6000809160049091610490937C0480937B0446
:101A700080918A04811170C08091820490918304C6
:101A80000296092E000CAA0BBB0B409060045090EC
:101A90006104609062047090630484159505A60546
:101AA000B7050CF08CC028B5842F042E000C990BC0
:101AB000BC01620F711D6F3F710509F044F428B538
:101AC000820F911D97FD05C088B5480F03C04FEFE9
:101AD00001C040E048BD27B540918004842F042E0A
:101AE000000C990BBC01620F711D6F3F710509F06D
:101AF00044F427B5820F911D97FD05C087B5480FA7
:101B000003C04FEF01C040E047BD2091B4004091B9
:101B10007F04842F042E000C990BBC01620F711DF1
:101B20006F3F710509F054F42091B400820F911DAC
:101B300097FD06C08091B400480F03C04FEF01C06D
:101B400040E04093B40080916004909161049093D0
:101B500083048093820433C08091A604882339F0E3
:101B60001092A4041092A3041092A20428C082E14F
:101B700092E00E94460680917E04863010F48F5FCA
:101B800001C080E080937E044091930490E09C012A
:101B9000220F331FF901E80FF91F75E1479FE00D90
:101BA000F11D1124EA5FFE4F80818093A40481819E
:101BB0008093A30482818093A20410928A042091CE
:101BC000A5043091B300822F90E0831B9109181671
:101BD000190614F08EEF01C082E080937D0480919D
:101BE000B300281302C010927D042091B3004091ED
:101BF0007D04842F042E000C990BBC01620F711D13
:101C00006F3F710509F054F42091B300820F911DCC
:101C100097FD06C08091B300480F03C04FEF01C08D
:101C200040E04093B30080917104882309F467C0B9
:101C30001092710480919404811134C08091A904A0
:101C40009091AA048130910559F01CF4892B51F12F
:101C50002DC082309105D1F083309105F1F026C07E
:101C60008091000190910101893191052CF49092AD
:101C70008E0480928D041AC08D971CF48FE090E042
:101C80000CC0D0928E04C0928D0410C067E070E04A
:101C900070938E0460938D0409C090938E0480939A
:101CA0008D0404C010928E0410928D0460918404FF
:101CB0007091850480918D0490918E046817790746
:101CC0001CF46F5F7F4F05C08617970774F461504F
:101CD00071097093850460938404772786E00E94DD
:101CE000E30760E088E00E9462088091840490919C
:101CF0008504892B21F461E088E00E9462088091CC
:101D00007004882309F49DC1109270048091A90485
:101D10009091AA048230910509F44EC02CF40097EA
:101D200059F0019741F1EFC08330910509F478C073
:101D3000049709F4AFC0E7C061E070E08CE390E085
:101D40000E946105882309F4DEC061E08DE00E94F5
:101D50006208D093AA04C093A90487E080939304F7
:101D600060E088E00E9462080E9437088CE192E0FF
:101D70000E944606C8C061E070E08CE390E00E94DB
:101D800061058111C0C01093AA040093A9048FE2D9
:101D900092E00E9446068091600490916104A091B7
:101DA0006204B091630480938F0490939004A09395
:101DB0009104B0939204A7C080918F0490919004F5
:101DC000A0919104B091920488539F4FAF4FBF4FA1
:101DD00040916004509161046091620470916304C9
:101DE00084179507A607B7078CF48DE392E00E944D
:101DF000460610928E0410928D0460E08DE00E94E1
:101E00006208F092AA04E092A9047DC061E070E04B
:101E10008CE390E00E946105882309F474C06FC0D0
:101E200080918F0490919004A0919104B0919204BC
:101E3000845D9E4FAF4FBF4F40916004509161044D
:101E4000609162047091630484179507A607B70731
:101E500094F484E792E00E94460660E070E08EE031
:101E60000E94E30760E088E00E946208B092AA0442
:101E7000A092A90448C061E070E08CE390E00E9469
:101E80006105882309F43FC060E070E08DE00E94A6
:101E9000E30731C080918F0490919004A091910448
:101EA000B091920480579E4FAF4FBF4F4091600456
:101EB00050916104609162047091630484179507E6
:101EC000A607B70774F487E992E00E94460660E02F
:101ED00070E086E10E94E3071092AA041092A90420
:101EE00012C061E070E08CE390E00E9461058823FD
:101EF00051F00E94370861E088E00E946208D093A8
:101F0000AA04C093A9048091A7049091A8048230E8
:101F1000910509F446C02CF4009759F00197C9F0D7
:101F200072C08330910509F46AC0049709F467C050
:101F30006AC062E070E088E790E00E94610581116C
:101F4000CCC38091A9049091AA04019709F05BC0C9
:101F5000C4C310938C0400938B041092A60462E017
:101F600070E088E790E00E94610581114CC01093F9
:101F7000A8040093A70481E08093A60480938A04B8
:101F80008091600490916104A0916204B091630417
:101F90008093860490938704A0938804B093890467
:101FA00032C08091860490918704A0918804B091FA
:101FB000890488539F4FAF4FBF4F409160045091A9
:101FC0006104609162047091630484179507A60709
:101FD000B70744F483EB92E00E9446061092A804EF
:101FE0001092A70462E070E088E790E00E9461052B
:101FF000882349F0D093A804C093A70404C010928A
:10200000A8041092A7048091A9049091AA04813099
:10201000910511F48FEF04C08330910521F48EEB0C
:102020008093A5040EC08430910519F41092A50484
:1020300008C0892B31F48091A7049091A804892BC2
:10204000A9F380916F04882309F4BEC010926F0435
:1020500086E00E940F099C0190939D0480939C044C
:1020600091E0253833400CF090E090939B04209150
:102070005C0430915D042230310509F453C03CF416
:102080002115310579F021303105E1F09DC0243072
:10209000310509F488C00CF483C02530310509F4FA
:1020A00087C092C0992309F48FC0809160049091F9
:1020B000610490939A0480939904D0935D04C09333
:1020C0005C0482C091110DC0809160049091610404
:1020D000909398048093970410935D0400935C049C
:1020E00073C08091990490919A048C599F4F092E46
:1020F000000CAA0BBB0B40916004509161046091ED
:1021000062047091630484179507A607B7070CF063
:102110005BC085E090E090935D0480935C0486EC66
:1021200092E01DC04091600450916104609162048E
:102130007091630420919704309198042C5E3F4F76
:102140002901330F66087708441655066606770698
:102150004CF4F0925D04E0925C0489ED92E00E9400
:10216000460632C0992381F150939604409395041A
:1021700081E080936E0480936D04D093A906C09390
:10218000A806D0939406C09393060E94370884EE65
:1021900092E00E944606B0925D04A0925C0414C0D6
:1021A000911112C00DC091110FC00E94370808C0D4
:1021B00091110AC09091940481E08927809394043E
:1021C00010925D0410925C0480916E04882309F4DF
:1021D0009AC010926E0487E00E940F099093A104A8
:1021E0008093A0042EE838E0DC010E94611520E015
:1021F00034E040E050E00E94E314C90130939F04B2
:1022000020939E048A3124E0920784F4F0925F04C4
:10221000E0925E04D092A506C092A4061093A70691
:102220000093A60685E08093A10652C08C3464E03A
:10223000960794F410935F0400935E04D092A50671
:10224000C092A406D092A706C092A60682E0809310
:10225000A10680EF92E015C0813B74E09707A4F4DB
:10226000D0935F04C0935E041093BA060093B9063E
:102270009092BC068092BB0682E08093B6068CEFFB
:1022800092E00E94460624C08333954094F4109255
:102290005F0410925E04D092BA06C092B906D09242
:1022A000BC06C092BB0682E08093B60688E093E04D
:1022B000E8CFB0925F04A0925E049092BA0680923A
:1022C000B9061093BC060093BB0683E08093B60664
:1022D00080915E0490915F048330910529F004970A
:1022E00041F487E293E002C085E193E00E94460654
:1022F0000AC084E393E00E94460680919E04909178
:102300009F040E94C80680916D04882309F434C19B
:1023100010926D04809193069091940682309105FD
:1023200091F11CF4019741F08EC08330910581F149
:10233000049709F463C087C08091A1068823F1F057
:102340008091600490916104A0916204B091630453
:102350008093990690939A06A0939B06B0939C064F
:10236000F0929406E092930661E081E10E94620897
:102370008091A10681508093A10665C010929406B9
:102380001092930636C0F092A906E092A8065BC0B0
:1023900061E081E10E946208409060045090610415
:1023A00060906204709063044091A4065091A50669
:1023B000052E000C660B770B8091990690919A067A
:1023C000A0919B06B0919C06840F951FA61FB71F76
:1023D00084159505A605B705B4F5B0929406A092AC
:1023E000930640929D0650929E0660929F067092C0
:1023F000A00660E081E10E94620825C08091A606E7
:102400009091A706AC01990F660B770B80919D0602
:1024100090919E06A0919F06B091A006840F951FF3
:10242000A61FB71F4091600450916104609162043F
:102430007091630484179507A607B70724F4D09317
:102440009406C09393068091A8069091A9068230C5
:10245000910591F11CF4019741F08EC083309105F4
:1024600081F1049709F463C087C08091B606882380
:10247000F1F08091600490916104A0916204B091A8
:1024800063048093AE069093AF06A093B006B0931A
:10249000B106F092A906E092A80661E082E10E94EE
:1024A00062088091B60681508093B60665C010928E
:1024B000A9061092A80636C0F092A906E092A806D6
:1024C0005BC061E082E10E9462084090600450902D
:1024D000610460906204709063044091B906509169
:1024E000BA06052E000C660B770B8091AE06909114
:1024F000AF06A091B006B091B106840F951FA61F3C
:10250000B71F84159505A605B705B4F5B092A906C1
:10251000A092A8064092B2065092B3066092B4060A
:102520007092B50660E082E10E94620825C0809149
:10253000BB069091BC06AC01990F660B770B80919E
:10254000B2069091B306A091B406B091B506840F7F
:10255000951FA61FB71F40916004509161046091C0
:1025600062047091630484179507A607B70724F4E3
:10257000D093A906C093A80680916C04882309F41F
:10258000A9C010926C048DE493E00E9454068091DF
:10259000A9049091AA040E94BE0682E593E00E94DD
:1025A00054068091A7049091A8040E94BE0689E574
:1025B00093E00E9454068091A60490E00E94BE061B
:1025C00083E693E00E9454066091B30070E080E0DF
:1025D00090E04AE00E9456068DE693E00E94540681
:1025E0006091A50470E080E090E04AE00E94560609
:1025F00087E793E00E9454066091A40470E080E0B5
:1026000090E04AE00E9456068FE493E00E94540650
:1026100068B570E080E090E04AE00E9456068DE7E1
:1026200093E00E9454066091A30470E080E090E083
:102630004AE00E9456068FE493E00E94540667B574
:1026400070E080E090E04AE00E94560683E893E064
:102650000E9454066091A20470E080E090E04AE09D
:102660000E9456068FE493E00E9454066091B400E5
:1026700070E080E090E04AE00E94560689E893E02E
:102680000E9434068CE893E00E9454068091640412
:10269000909165040E94BE0685E993E00E9454066D
:1026A00080916604909167040E94BE0685E993E0DC
:1026B0000E94540680916804909169040E94BE06AD
:1026C00085E993E00E94540680916A0490916B041E
:1026D0000E94C8060E94B70171C8D093A804C09395
:1026E000A70488E993E00E9446068DCC8EEC91E029
:1026F000909333068093320682E396E00C9424058F
:102700008F929F92AF92BF92CF92DF92EF92FF9201
:10271000CF93DF93109298051092970598EE892E2B
:1027200093E0992EA12CB12C8092990590929A0554
:10273000A0929B05B0929C058CEB91E0909396053E
:102740008093950585EC90E09093A2058093A10578
:1027500084EC90E09093A4058093A30580EC90E036
:102760009093A6058093A50581EC90E09093A80531
:102770008093A70582EC90E09093AA058093A90529
:1027800086EC90E09093AC058093AB051092AE057B
:102790001092AF051092B0051092B1054AE050E0DA
:1027A0005093B8064093B70622E030E03093BA0663
:1027B0002093B90688E290E09093BC068093BB0614
:1027C0005093A3064093A2063093A5062093A40637
:1027D0009093A7068093A60610928E06C3E1C0933D
:1027E0008C06DAE0D0938D0661E083E10E94AE08AA
:1027F00060E080918D060E94AE0820E2C22E2EE499
:10280000D22EE12CF12CC0928F06D0929006E0924D
:102810009106F092920610928706C09385068EE08C
:102820008093860661E083E10E94AE0860E08091BB
:1028300086060E94AE08C0928806D0928906E09271
:102840008A06F0928B0610928006C0937E068FE077
:1028500080937F0661E083E10E94AE0860E0809192
:102860007F060E94AE08C0928106D0928206E09256
:102870008306F092840610927906C093770680E171
:102880008093780661E083E10E94AE0860E0809169
:1028900078060E94AE08C0927A06D0927B06E0923B
:1028A0007C06F0927D0684EF91E0A0E0B0E080939A
:1028B000570690935806A0935906B0935A06EEEA2D
:1028C000F1E0A5E6B6E001900D92DA95E1F71092FD
:1028D0006F0682E08093700610927506109276065D
:1028E0001092350610923406809236069092370682
:1028F000A0923806B09239068EEC91E090933306A0
:1029000080933206109249061092480610924B06A8
:1029100010924A0610924D0610924C0610924F06E5
:1029200010924E06609150066E7F6D7F6093500648
:102930006695617081E0682784E00E94620861E02A
:1029400084E00E94AE08EDE0F1E0E491E0934206FD
:10295000E9EFF0E0E491F0E0EE0FFF1FEF51FF4FE1
:1029600085919491909344068093430660E087E0BC
:102970000E94AE088091500681FD04C061E087E0AE
:102980000E94620887E080933E06E0E1F1E0E49176
:10299000E0933F06ECEFF0E0E491F0E0EE0FFF1F74
:1029A000E551FF4F859194919093410680934006A5
:1029B000DF91CF91FF90EF90DF90CF90BF90AF90DD
:1029C0009F908F900895052E97FB1EF400940E940F
:1029D000FA1457FD07D00E94021507FC03D04EF4ED
:1029E0000C94FA1450954095309521953F4F4F4FD8
:1029F0005F4F089590958095709561957F4F8F4FAB
:102A00009F4F0895A1E21A2EAA1BBB1BFD010DC00A
:102A1000AA1FBB1FEE1FFF1FA217B307E407F5078E
:102A200020F0A21BB30BE40BF50B661F771F881F6A
:102A3000991F1A9469F760957095809590959B0100
:102A4000AC01BD01CF010895A29FB001B39FC001A9
:102A5000A39F700D811D1124911DB29F700D811DCA
:102A60001124911D0895AA1BBB1B51E107C0AA1F89
:102A7000BB1FA617B70710F0A61BB70B881F991F1F
:102A80005A95A9F780959095BC01CD01089597FBC3
:102A9000072E16F4009407D077FD09D00E94331555
:102AA00007FC05D03EF4909581959F4F0895709551
:102AB00061957F4F0895EE0FFF1F0590F491E02D73
:102AC00009940E942415B7FF0895821B930B089563
:102AD00081E090E0F8940C946D1510E0C0E9D0E02E
:102AE00004C0FE010E945B152196C139D107C9F7C8
:042AF000F894FFCF88
:102AF4009001900190010000FFFFFFFFFF00000024
:102B0400FF000000FFFFFF005050508D6E63FF5721
:102B140022FF6F00CDDC394CAF500096887E57C23F
:102B2400007D00007D417D7D007D4100004100006D
:102B3400417D00007D0000FFFF28FFFF0000962874
:102B4400321400FFFF6414646464D76400D7A724BC
:102B54007878783246FF00A0FF3C2882785028001D
:102B640000C8C8C8C8C8000000C8000000C8C8C859
:102B74000032323200006464646464000000640063
:102B84000000646464003232320000FFFFFFFFFF84
:102B9400000000FF000000FFFFFF005050507EFFC8
:102BA40006000100000000EF000000004E01BB0021
:102BB400E60095011701F500090100000000DA01A3
:102BC400BB006802D9012E024602C1017365726915
:102BD400616C20656E61626C656400656E61206D78
:102BE40075746500496E697469616C2063616C6910
:102BF400627261746500357320656C61707365641D
:102C04002100636F6C6F7220636867007A6F6E6572
:102C1400203120542744202D3E207A656E65007AA9
:102C24006F6E652031206C6561766564007A6F6E25
:102C34006520312031307320656C617073656420C8
:102C44002D2D3E20736D616C6C2074696D656F75FC
:102C5400743A2066696E566F6C20626563616D65B7
:102C6400732030007A6F6E65203120313573206512
:102C74006C6170736564202D2D3E20626967207439
:102C8400696D656F7574007A6F6E6520312032301E
:102C94007320656C6170736564202D2D3E2069641A
:102CA4006C65007A6F6E6520322031307320746950
:102CB4006D656F7574006E6F7720707573686564E9
:102CC400203573206C6F6E670073686F72742070A8
:102CD40075736800646F75626C6520707573680045
:102CE40032207069726F73203530250032207A6F7C
:102CF4006C64202D3130250032207A6F6C64202DD5
:102D04002035302500566F6C746167652043726905
:102D1400746963616C2100566F6C74616765204847
:102D240069676800566F6C746167652074657374B5
:102D340065642C206E6F726D616C2020007A313ACC
:102D4400200009207A323A2000092063626C616312
:102D54003A090009206353706F743A090009206628
:102D640053706F743A09000920723A2000092067F1
:102D74003A20000920623A20000D0A000920636D00
:102D84002D733A09000909007A6F6E6520322054C8
:102D94002744202D3E2073706F742C207374726945
:102DA4007000736F667420726573657400626C6979
:102DB4006E6B2074657374000A0A0A2D2D2D2D2D57
:102DC4002D2D2D2D2D2D2D2D2D2D2D2D2D2D2D2D2F
:102DD4002D2D2D2D2D2D2D2D2D2D2D2D2D2D2D2D1F
:102DE4002D2D2D2D2D2D2D2D2D2D2D2D2D2D2D2D0F
:102DF4002D2D2D2D2D2D2D2D2D2D2D2D2D2D2D2DFF
:102E04002D2D2D2D2D2D2D2D2D2D2D2D2D2D2D001B
:102E14000A0A0A43616C69627261746564207769A5
:042E240074683A0094
:00000001FF
