:100000000C9463000C948B000C948B000C945D0595
:100010000C945D050C945D050C948B000C948B0086
:100020000C948B000C948B000C948B000C948B0024
:100030000C948B000C94D7050C948B000C948B00C3
:100040000C94BB040C948B000C942B050C940505AC
:100050000C948B000C948B000C948B000C948B00F4
:100060000C948B000C948B000000000024002700EF
:100070002A0000000008000201000003040700003D
:1000800000000000000000000000250028002B00F8
:1000900000000000230026002900040404040404D6
:1000A0000404020202020202030303030303010227
:1000B00004081020408001020408102001020408F6
:1000C00010204306780B11241FBECFEFD8E0DEBF0F
:1000D000CDBF12E0A0E0B1E0E6E5F8E102C0059096
:1000E0000D92AA31B107D9F723E0AAE1B2E001C02D
:1000F0001D92A53AB207E1F710E0C2E6D0E004C0D5
:100100002197FE010E94130CC136D107C9F70E9446
:1001100088070C941E0C0C94000090E0FC01EE5833
:10012000FF4F3491FC01E255FF4F2491FC01E6564C
:10013000FF4FE491EE2309F43BC0332339F1333010
:1001400091F038F43130A9F0323001F584B58F7D6B
:1001500012C0373091F03830A1F03430B9F48091CA
:1001600080008F7D03C0809180008F778093800016
:100170000DC084B58F7784BD09C08091B0008F77A2
:1001800003C08091B0008F7D8093B000F0E0EE0F4F
:10019000FF1FEA57FF4FA591B4918FB7F894EC91E8
:1001A000611103C020952E2301C02E2B2C938FBFED
:1001B0000895CF93DF9390E0FC01E255FF4F249127
:1001C000FC01E656FF4F8491882361F190E0880F8F
:1001D000991FFC01E859FF4FC591D491FC01EA57E2
:1001E000FF4FA591B491611109C09FB7F894888120
:1001F000209582238883EC912E230BC0623061F41A
:100200009FB7F8943881822F809583238883EC915F
:100210002E2B2C939FBF06C08FB7F894E8812E2B0E
:1002200028838FBFDF91CF9108958E3008F08E50D4
:100230008770806480937C0080917A0080648093D2
:100240007A0080917A0086FDFCCF80917800209121
:10025000790090E0922B08953FB7F8948091A30223
:100260009091A402A091A502B091A60226B5A89BE8
:1002700005C02F3F19F00196A11DB11D3FBFBA2F38
:10028000A92F982F8827820F911DA11DB11DBC0198
:10029000CD0142E0660F771F881F991F4A95D1F75D
:1002A00008958F929F92AF92BF92CF92DF92EF927A
:1002B000FF926B017C010E942C014B015C01C11477
:1002C000D104E104F104F1F00E942C01DC01CB0126
:1002D00088199909AA09BB09883E9340A105B1056F
:1002E00070F321E0C21AD108E108F10888EE880E07
:1002F00083E0981EA11CB11CC114D104E104F104D7
:1003000019F7DDCFFF90EF90DF90CF90BF90AF90C7
:100310009F908F9008958091670290916802019656
:1003200090936802809367024091890250918A02FB
:1003300060918B0270918C024F5F5F4F6F4F7F4FC8
:100340004093890250938A0260938B0270938C02CF
:1003500021E020939D0220938D0220931A0280FFBA
:1003600020939B0264E170E00E94E40B892B19F456
:1003700081E080939A020895CF92DF92EF92FF92EC
:100380000F931F93CF93DF936C017A018B01C0E031
:10039000D0E0CE15DF0589F0D8016D918D01D60131
:1003A000ED91FC910190F081E02DC6010995892B1A
:1003B00011F47E0102C02196ECCFC701DF91CF91ED
:1003C0001F910F91FF90EF90DF90CF900895FC0167
:1003D000538D448D252F30E0842F90E0821B930BAA
:1003E000541710F0CF96089501970895FC01918D50
:1003F000828D981761F0828DDF01A80FB11D5D9687
:100400008C91928D9F5F9F73928F90E008958FEFF4
:100410009FEF0895FC01918D828D981731F0828DA8
:10042000E80FF11D858D90E008958FEF9FEF0895FF
:10043000FC01918D228D892F90E0805C9F4F821B63
:1004400091098F739927089587EA92E00E94180214
:1004500021E0892B09F420E0822F0895FC01848D8E
:10046000DF01A80FB11DA35ABF4F2C91848D90E0DE
:1004700001968F739927848FA689B7892C93A089B9
:10048000B1898C9180648C93938D848D981306C070
:100490000288F389E02D80818F7D80830895EF921B
:1004A000FF920F931F93CF93DF93EC0181E0888F2E
:1004B0009B8D8C8D981305C0E889F989808185FD15
:1004C00024C0F62E0B8D10E00F5F1F4F0F73112706
:1004D000E02E8C8DE8120CC00FB607FCFACFE8892D
:1004E000F989808185FFF5CFCE010E942E02F1CFE0
:1004F0008B8DFE01E80FF11DE35AFF4FF0820B8F49
:10050000EA89FB898081806207C0EE89FF89608368
:10051000E889F98980818064808381E090E0DF91BF
:10052000CF911F910F91FF90EF900895CF93DF939C
:10053000EC01888D8823C9F0EA89FB89808185FDDB
:1005400005C0A889B9898C9186FD0FC00FB607FC3C
:10055000F5CF808185FFF2CFA889B9898C9185FF7D
:10056000EDCFCE010E942E02E7CFDF91CF9108950B
:1005700080E090E0892B29F00E94240281110C94E4
:100580000000089520915E0230915F02281739071C
:1005900071F490915D0280915C02981741F0E091B6
:1005A0005D02F0E0E45EFD4F808190E008958FEF02
:1005B0009FEF089508951F93CF93DF93DC015C961E
:1005C0002D913C915D972115310539F481E090E042
:1005D00013969C938E9312973DC05196ED91FC918A
:1005E000529750969C915097892F80951FB75E9691
:1005F0004C915E9741FB772770F941FD6095F89427
:100600004081772311F0492B01C048234083E90141
:100610002197F1F748E0508160FF02C0592B01C0DB
:1006200058235083E9012197F1F76695415099F7D6
:10063000772321F090818923808303C08081982BC8
:1006400090831FBF5C968D919C915D970197F1F708
:1006500021E030E0C901DF91CF911F9108952091F1
:100660005E0230915F022817390771F480915C02B5
:1006700020915D0290E0805C9F4F821B910960E4B5
:1006800070E00E94F80B089580E090E008952091BA
:100690005E0230915F0228173907B9F490915D022C
:1006A00080915C02981789F0E0915D02F0E0E45ED1
:1006B000FD4F808120915D0230E02F5F3F4F2F730F
:1006C000332720935D0290E008958FEF9FEF089508
:1006D000089580E090E0089510921B0220E931E037
:1006E00030930101209300012091940230919502F2
:1006F0002535310554F4281739073CF430930101AE
:100700002093000121E020931B022091920230915E
:1007100093022535310594F4281739077CF440916C
:10072000000150910101241735070CF4A9015093E1
:1007300001014093000121E020931B0220919002CF
:10074000309191022C33310594F4281739077CF449
:100750008091000190910101281739070CF4C9011B
:10076000909301018093000181E080931B0280E05F
:100770000895009769F0FC0101900020E9F7319796
:10078000AF01481B590BBC0187EA92E00C94BC01F5
:1007900080E090E00895CF93DF930E94B903EC01CD
:1007A00082E391E00E94B9038C0F9D1FDF91CF91EE
:1007B00008958F929F92AF92BF920F931F93CF9302
:1007C000DF93CDB7DEB7A1970FB6F894DEBF0FBEAB
:1007D000CDBF19A2423008F44AE08E010F5D1F4FD1
:1007E000842E912CA12CB12CA50194010E94B30B55
:1007F000E62FB901CA0101501109EA3014F4E05D95
:1008000001C0E95CD801EC93232B242B252B61F745
:10081000C8010E94B903A1960FB6F894DEBF0FBEBF
:10082000CDBFDF91CF911F910F91BF90AF909F905F
:100830008F900895CF92DF92EF92FF92CF93DF9344
:100840006B017C01E091A702F091A8020190F08178
:10085000E02D6DE287EA92E00995EC0166277727A3
:10086000CB016C197D098E099F094AE00E94D903CA
:100870008C0F9D1FDF91CF91FF90EF90DF90CF9075
:100880000895CF93DF93BC01990F880B990B97FFC5
:1008900003C00E941A0403C04AE00E94D903EC017D
:1008A00082E391E00E94B9038C0F9D1FDF91CF91ED
:1008B0000895BC01990F880B990B97FD0C941A04AD
:1008C0004AE00C94D9030C94B9030E94190C0F93BD
:1008D0001F93CF93DF93EC018A81882321F061E09D
:1008E00088810E94D90060E088810E948D0083E0A9
:1008F00090E00197F1F761E088810E948D0083E22A
:1009000090E00197F1F760E088810E948D008A8174
:10091000882321F060E088810E94D900298130E09D
:10092000F901E255FF4F6491F901E656FF4FE4915A
:10093000F0E0EE0FFF1FE057FF4F859194910B8180
:100940001C812D813E813F70462F0E94FE0561155E
:1009500071058105910539F0DC01CB010196A11DDE
:10096000B11DBF7003C080E090E0DC01DF91CF914A
:100970001F910F9108951F920F920FB60F9211249D
:100980002F933F938F939F93AF93BF9380919F0239
:100990009091A002A091A102B091A20230919E027A
:1009A00023E0230F2D3720F40196A11DB11D05C0B2
:1009B00026E8230F0296A11DB11D20939E0280936D
:1009C0009F029093A002A093A102B093A2028091F3
:1009D000A3029091A402A091A502B091A602019653
:1009E000A11DB11D8093A3029093A402A093A50220
:1009F000B093A602BF91AF919F918F913F912F919C
:100A00000F900FBE0F901F9018951F920F920FB668
:100A10000F9211242F933F934F935F936F937F9384
:100A20008F939F93AF93BF93EF93FF9387EA92E0E7
:100A30000E942E02FF91EF91BF91AF919F918F91F4
:100A40007F916F915F914F913F912F910F900FBECA
:100A50000F901F9018951F920F920FB60F921124AE
:100A60002F938F939F93EF93FF93E091B702F091B1
:100A7000B8028081E091BD02F091BE0282FD12C0F9
:100A800090818091C0028F5F8F732091C102821785
:100A900051F0E091C002F0E0E955FD4F958F809351
:100AA000C00201C08081FF91EF919F918F912F91A2
:100AB0000F900FBE0F901F9018951F920F920FB6B8
:100AC0000F9211242F933F934F935F936F937F93D4
:100AD0008F939F93AF93BF93EF93FF93E0915E0249
:100AE000F0915F02309709F451C0968DA685B785C5
:100AF000858591FF04C09C91892329F447C09C916E
:100B0000892309F043C0A389B4899C918589809584
:100B100089238C93868997890197F1F7608D718D70
:100B2000A685B785558538E020E0CB010197F1F720
:100B3000822F90E095958795282F4C91452309F0B9
:100B40002068315091F7868D81FD209580915C025F
:100B500090E001968F73992730915D02381749F024
:100B6000A0915C02B0E0A45EBD4F2C9380935C0228
:100B700003C0868D8160868F828D938D0197F1F7FA
:100B8000A389B4899C918589892B8C93FF91EF91DE
:100B9000BF91AF919F918F917F916F915F914F9195
:100BA0003F912F910F900FBE0F901F9018951F929D
:100BB0000F920FB60F9211242F933F934F935F9391
:100BC0006F937F938F939F93AF93BF93EF93FF9315
:100BD000E0916002F09161020995FF91EF91BF9160
:100BE000AF919F918F917F916F915F914F913F91C5
:100BF0002F910F900FBE0F901F901895CF92DF92FC
:100C0000EF92FF920F931F93E82FF92F05C0015029
:100C100011092109310961F1908196239417B9F3E3
:100C200005C0015011092109310911F19081962364
:100C30009413F7CFC12CD12CE12CF12C0AC08FEFEB
:100C4000C81AD80AE80AF80A0C151D052E053F0532
:100C500079F080818623841791F36C2D7D2D8E2D64
:100C60009F2D1F910F91FF90EF90DF90CF900895EF
:100C700060E070E080E090E01F910F91FF90EF90B6
:100C8000DF90CF9008958F929F92AF92BF92CF92B4
:100C9000DF92EF92FF92CF93DF931092AA0210920D
:100CA000A90298EE892E93E0992EA12CB12C809266
:100CB000AB029092AC02A092AD02B092AE0282E181
:100CC00091E09093A8028093A70285EC90E0909326
:100CD000B4028093B30284EC90E09093B6028093C8
:100CE000B50280EC90E09093B8028093B70281EC5B
:100CF00090E09093BA028093B90282EC90E09093D6
:100D0000BC028093BB0286EC90E09093BE0280937D
:100D1000BD021092C0021092C1021092C202109243
:100D2000C3021092A003C3E1C0939E03DAE0D09304
:100D30009F0361E083E10E94D90060E080919F03FE
:100D40000E94D90020E5C22E23ECD22EE12CF12CFA
:100D5000C092A103D092A203E092A303F092A40355
:100D600010929903C09397038EE08093980361E0FB
:100D700083E10E94D90060E0809198030E94D9002D
:100D8000C0929A03D0929B03E0929C03F0929D0341
:100D900010929203C09390038FE08093910361E0DF
:100DA00083E10E94D90060E0809191030E94D90004
:100DB000C0929303D0929403E0929503F09296032D
:100DC00010928B03C093890380E180938A0361E0D2
:100DD00083E10E94D90060E080918A030E94D900DB
:100DE000C0928C03D0928D03E0928E03F0928F0319
:100DF00084EF91E0A0E0B0E08093690390936A03F0
:100E0000A0936B03B0936C03E4E0F1E0A7E7B3E0D9
:100E100001900D92DA95E1F71092810382E08093C0
:100E20008203109287031092880310924703109256
:100E300046038092480390924903A0924A03B092DD
:100E40004B0384E291E09093450380934403109216
:100E50005B0310925A0310925D0310925C03109290
:100E60005F0310925E031092610310926003609121
:100E700062036E7F6D7F609362036695617081E0AF
:100E8000682784E00E948D0061E084E00E94D90020
:100E9000E2EBF0E0E491E0935403EEE9F0E0E4915A
:100EA000F0E0EE0FFF1FEA57FF4F8591949190936A
:100EB00056038093550360E087E00E94D90080913B
:100EC000620381FD04C061E087E00E948D0087E03D
:100ED00080935003E5EBF0E0E491E0935103E1EA05
:100EE000F0E0E491F0E0EE0FFF1FE057FF4F859137
:100EF00094919093530380935203DF91CF91FF908D
:100F0000EF90DF90CF90BF90AF909F908F9008951B
:100F1000789484B5826084BD84B5816084BD85B5D4
:100F2000826085BD85B5816085BD80916E008160E0
:100F300080936E0010928100809181008260809386
:100F40008100809181008160809381008091800088
:100F50008160809380008091B10084608093B100B3
:100F60008091B00081608093B00080917A008460AD
:100F700080937A0080917A00826080937A008091D9
:100F80007A00816080937A0080917A0080688093F3
:100F90007A001092C100E091B702F091B802D2E05D
:100FA000D083E091B302F091B4021082E091B502D7
:100FB000F091B6028FEC80831092BF02E091BB02E9
:100FC000F091BC0286E08083E091B902F091BA0210
:100FD000808180618083E091B902F091BA028081C2
:100FE00088608083E091B902F091BA0280818068C4
:100FF0008083E091B902F091BA0280818F7D808375
:1010000085E391E00E94CB0361E083E00E94D90078
:1010100061E085E00E94D90061E086E00E94D9008D
:1010200061E081E10E94D90061E082E10E94D90083
:1010300061E088E00E94D90061E088E00E948D00B4
:1010400061E081E10E948D0061E082E10E948D00FB
:1010500081EA84BDC1E0C5BD81E28093B000C09348
:10106000B10080E18093810010928000D0936402EF
:1010700080E593EC909363028093620290938700E3
:101080008093860082E18093810064E670E080E0D6
:1010900090E00E9451018BE891E09093610280936F
:1010A0006002C0936F0004E010E010937802009398
:1010B00077028091890290918A02909376028093C0
:1010C00075029093740280937302C4E6D0E0D093CB
:1010D0007202C093710284E190E090937002809359
:1010E0006F02109203011092020184E491E00E94C9
:1010F000CB0385E590E00E94590485E791E00E94CA
:10110000630485E590E00E94590485E791E00E9420
:1011100063048CE390E00E94590485E791E00E940B
:1011200063048FE590E00E944104109378020093DD
:1011300077028091890290918A029093760280933F
:1011400075029093740280937302D0937202C093DD
:10115000710288E290E09093700280936F02109287
:1011600003011092020161E081E10E948D0060E0C4
:1011700082E10E948D004CE1E42EF12C51E9C52E54
:10118000DD24D394812C64E0962EA12CB12CC2E0F6
:10119000D0E001E010E074E0672E712CE4E12E2E27
:1011A000312CF5E04F2E512C80919D02882309F4BB
:1011B00068C010929D028EE993E00E946704B70117
:1011C0000E94E40B769567956115710529F070937F
:1011D00095026093940204C0D0929502C09294024A
:1011E00068EE73E080E090E00E94510187E993E0AF
:1011F0000E946704B7010E94E40B7695679561151C
:10120000710529F0709393026093920204C0D0920A
:101210009302C092920268EE73E080E090E00E9438
:10122000510180E993E00E946704B7010E94E40B3A
:10123000769567956115710529F070939102609319
:10124000900204C0D0929102C092900268EE73E0C6
:1012500080E090E00E94510189E893E00E946704D9
:10126000B7010E94E40B769567956115710529F029
:1012700070938F0260938E0204C0D0928F02C0924E
:101280008E0280919C02882309F457C010929C0220
:1012900087E00E94150190936E0280936D022EE804
:1012A00038E0DC010E940C0CA50194010E94940B13
:1012B00030936C0220936B022E3631052CF4D093C0
:1012C0006A02C09369020CC0283731052CF41093D0
:1012D0006A020093690204C010926A0210926902C5
:1012E000E0916902F0916A023097A1F0E330F105D4
:1012F00001F580916702909168026AE070E00E94B7
:10130000E40B892BD1F4F0936602E093650285E546
:1013100091E011C0D0936602C093650287E691E028
:101320000E94630480916B0290916C020E944104C0
:1013300004C087E791E00E94CB0380919B02882341
:1013400009F4C9C010929B0286E00E941501909397
:1013500083028093820221E0853893400CF020E0E4
:101360002093810280917F029091800282309105CA
:1013700009F454C02CF4009769F00197E9F0ABC070
:101380008430910509F47AC00CF478C0059709F40B
:101390007CC0A1C0222309F49EC080918902909153
:1013A0008A0290937E0280937D02109380020093C4
:1013B0007F0286E891E02FC021110FC08091890241
:1013C00090918A0290937C0280937B02D09380025A
:1013D000C0937F0281E991E01EC080917D029091CF
:1013E0007E028C599F4F092E000CAA0BBB0B40911B
:1013F000890250918A0260918B0270918C0284174D
:101400009507A607B7070CF066C05092800240927D
:101410007F028EE991E00E94CB035DC0222379F028
:101420008091890290918A0290937A028093790246
:101430007092800260927F0281EB91E0ECCF80910C
:101440007B0290917C024496092E000CAA0BBB0BE8
:101450004091890250918A0260918B0270918C02B6
:1014600084179507A607B707B4F583E090E090933B
:10147000800280937F028EEB91E0CDCF21112BC0B3
:101480001092800210927F0226C0709278026092C1
:1014900077028091890290918A02909376028093DC
:1014A0007502909374028093730284E690E09093A7
:1014B0007202809371023092700220926F02109239
:1014C00003011092020181ED91E00E94CB03809113
:1014D00081028823A9F280919A02882309F448C0E6
:1014E00010929A0284EE91E00E9463048091980227
:1014F000909199020E9459048CEE91E00E9463043D
:1015000080919602909197020E94590486EF91E093
:101510000E9463044AE060E070E0CB010E94D903BE
:1015200082E092E00E94630480919402909195027F
:101530000E94590485E791E00E9463048091920221
:10154000909193020E94590485E791E00E94630400
:1015500080919002909191020E94590485E791E058
:101560000E94630480918E0290918F020E94410438
:1015700080918D02882309F4B8C010928D02809169
:101580009802909199028130910589F082309105FD
:1015900029F1892B09F041C088E290E00E946C0398
:1015A0008823D9F1109399020093980236C065E020
:1015B00081E00E948D0088E290E00E946C0381111E
:1015C0002CC0D0939902C093980280918902909187
:1015D0008A0290938802809387021FC080918702BD
:1015E000909188028C599F4F092E000CAA0BBB0BBF
:1015F0004091890250918A0260918B0270918C0215
:1016000084179507A607B7073CF665E080E00E94BF
:101610008D001092990210929802809196029091FA
:10162000970281309105B1F08230910551F1892BFB
:1016300009F051C08AE590E00E946C03882309F408
:101640004AC0109397020093960281E192E00E94B3
:10165000CB0341C06DE081E00E948D008AE590E0FF
:101660000E946C03811137C0D0939702C0939602F9
:101670008091890290918A029093860280938502DC
:101680002AC0809185029091860288539F4F092E2F
:10169000000CAA0BBB0B4091890250918A02609109
:1016A0008B0270918C0284179507A607B7074CF43C
:1016B0006DE080E00E948D001092970210929602D9
:1016C0000AC08AE590E00E946C03882321F0109301
:1016D00097020093960221E08091980290919902DE
:1016E000892B09F020E0209384020E94B8025CCD8F
:1016F00084E291E0909345038093440380915E02DD
:1017000090915F028454934071F4E0915703F091FB
:10171000580390818091590380958923808310928A
:101720005F0210925E020895052E97FB1EF400944E
:101730000E94AB0B57FD07D00E94B30B07FC03D0F0
:101740004EF40C94AB0B50954095309521953F4F3E
:101750004F4F5F4F089590958095709561957F4F9D
:101760008F4F9F4F0895A1E21A2EAA1BBB1BFD01AC
:101770000DC0AA1FBB1FEE1FFF1FA217B307E40770
:10178000F50720F0A21BB30BE40BF50B661F771FC8
:10179000881F991F1A9469F76095709580959095A8
:1017A0009B01AC01BD01CF010895A29FB001B39F81
:1017B000C001A39F700D811D1124911DB29F700D5A
:1017C000811D1124911D0895AA1BBB1B51E107C067
:1017D000AA1FBB1FA617B70710F0A61BB70B881FC1
:1017E000991F5A95A9F780959095BC01CD01089550
:1017F00097FB072E16F4009407D077FD09D00E94BE
:10180000E40B07FC05D03EF4909581959F4F089519
:10181000709561957F4F08950E94D50BB7FF08958D
:10182000821B930B0895EE0FFF1F0590F491E02D9E
:10183000099481E090E0F8940C941E0C10E0C2E64C
:10184000D0E004C0FE010E94130C2196C336D107DC
:06185000C9F7F894FFCF78
:10185600900132007EFF06000100000000EF00004C
:1018660000004F02BC01E70196021802F6010A02C7
:1018760000000000DB02BC016903DA022F03470304
:10188600C2020D0A0073657269616C20656E616241
:101896006C65640043616C6962726174656420778B
:1018A6006974683A00566F6C7461676520437269A3
:1018B600746963616C2100566F6C74616765204EB4
:1018C6006F726D616C0900566F6C74616765207488
:1018D6006573746564006E6F7720707573686564F0
:1018E600006E6F772072656C6561736564006E6F5C
:1018F6007720707573686564203573206C6F6E672A
:101906000070757368656420616761696E006E6F4B
:101916007720707573686564203173206C6F6E670D
:1019260000426C696E6B696E6720696E69746961E5
:10193600746564007A6F6E65313A200009207A6F0B
:101946006E65323A20000920636F6C6F724E6F3AF3
:101956002000092009206D656173757265643A205F
:0A196600007A3220747269670000F5
:00000001FF
