:100000000C9491000C94B9000C94B9000C948604E3
:100010000C9486040C9486040C94B9000C94B900DA
:100020000C94B9000C94B9000C94B9000C94B9006C
:100030000C94B9000C9416050C94B9000C94B900FA
:100040000C9417090C94B9000C9454040C942E04CD
:100050000C94B9000C94B9000C94B9000C94B9003C
:100060000C94B9000C94B90057075B07620751075D
:10007000620753075F076F0762076207620762073D
:100080006207620762076207660762076207620724
:1000900062076207646F6E652E00556E61626C6563
:1000A00020746F20636F6E6E65637400496E6974AF
:1000B00069616C697A696E67204446506C61796544
:1000C000722E0000000000240027002A000000001B
:1000D0000800020100000304070000000000000007
:1000E0000000000000250028002B00000000002375
:1000F000002600290004040404040404040202028B
:100100000202020303030303030102040810204058
:100110008001020408102001020408102000C3120C
:10012000B91211241FBECFEFD8E0DEBFCDBF13E060
:10013000A0E0B1E0EAE7F9E202C005900D92A83C28
:10014000B107D9F726E0A8ECB3E001C01D92A332B5
:10015000B207E1F710E0C0E9D0E004C02197FE014A
:100160000E949E14CF38D107C9F70E94A6090C94AB
:10017000B0140C940000CF92DF92EF92FF920F9395
:100180001F93CF93DF936C017A018B01C0E0D0E025
:10019000CE15DF0589F0D8016D918D01D601ED9165
:1001A000FC910190F081E02DC6010995892B11F495
:1001B0007E0102C02196ECCFC701DF91CF911F9144
:1001C0000F91FF90EF90DF90CF900895FC01538D39
:1001D000448D252F30E0842F90E0821B930B541721
:1001E00010F0CF96089501970895FC01918D828DAE
:1001F000981761F0828DDF01A80FB11D5D968C917B
:10020000928D9F5F9F73928F90E008958FEF9FEF85
:100210000895FC01918D828D981731F0828DE80F41
:10022000F11D858D90E008958FEF9FEF0895FC01FB
:10023000918D228D892F90E0805C9F4F821B9109C8
:100240008F73992708958AEF94E00E94170121E0A7
:10025000892B09F420E0822F0895FC01848DDF01B1
:10026000A80FB11DA35ABF4F2C91848D90E0019629
:100270008F739927848FA689B7892C93A089B18918
:100280008C9180648C93938D848D981306C0028822
:10029000F389E02D80818F7D80830895EF92FF9216
:1002A0000F931F93CF93DF93EC0181E0888F9B8D99
:1002B0008C8D981305C0E889F989808185FD24C05B
:1002C000F62E0B8D10E00F5F1F4F0F731127E02EDE
:1002D0008C8DE8120CC00FB607FCFACFE889F989BB
:1002E000808185FFF5CFCE010E942D01F1CF8B8D4E
:1002F000FE01E80FF11DE35AFF4FF0820B8FEA89F0
:10030000FB898081806207C0EE89FF896083E8896C
:10031000F98980818064808381E090E0DF91CF91D2
:100320001F910F91FF90EF900895CF93DF93EC0111
:10033000888D8823C9F0EA89FB89808185FD05C005
:10034000A889B9898C9186FD0FC00FB607FCF5CF3F
:10035000808185FFF2CFA889B9898C9185FFEDCF87
:10036000CE010E942D01E7CFDF91CF91089580E06B
:1003700090E0892B29F00E94230181110C94000048
:1003800008952091CA033091CB032817390771F4DF
:100390009091C8038091C903981741F0E091C80378
:1003A000F0E0EE54FB4F808190E008958FEF9FEFD7
:1003B000089508951F93CF93DF93DC015C962D91F0
:1003C0003C915D972115310539F481E090E0139659
:1003D0009C938E9312973DC05196ED91FC9152974C
:1003E00050969C915097892F80951FB75E964C919F
:1003F0005E9741FB772770F941FD6095F894408145
:10040000772311F0492B01C048234083E90121974C
:10041000F1F748E0508160FF02C0592B01C058231A
:100420005083E9012197F1F76695415099F77723B9
:1004300021F090818923808303C08081982B908351
:100440001FBF5C968D919C915D970197F1F721E01C
:1004500030E0C901DF91CF911F9108952091CA0327
:100460003091CB032817390771F48091C90320918B
:10047000C80390E0805C9F4F821B910960E470E0AC
:100480000E948A14089580E090E008952091CA03A4
:100490003091CB0328173907B9F49091C8038091A4
:1004A000C903981789F0E091C803F0E0EE54FB4FC0
:1004B00080812091C80330E02F5F3F4F2F73332797
:1004C0002093C80390E008958FEF9FEF089508955B
:1004D00080E090E008950E94AB140F931F93CF9398
:1004E000DF93EC018A81882321F061E088810E94FA
:1004F000360860E088810E94EA0783E090E0019777
:10050000F1F761E088810E94EA0783E290E00197B9
:10051000F1F760E088810E94EA078A81882321F050
:1005200060E088810E943608298130E0F901E75FA8
:10053000FE4F6491F901EB50FF4FE491F0E0EE0FB4
:10054000FF1FE551FF4F859194910B811C812D81F7
:100550003E813F70462F0E9461096115710581053A
:10056000910539F0DC01CB010196A11DB11DBF70D1
:1005700003C080E090E0DC01DF91CF911F910F91EB
:1005800008950F931F93CF93DF93C091AF04D09141
:10059000B0042196D093B004C093AF048091EC03D3
:1005A0009091ED03A091EE03B091EF030196A11D90
:1005B000B11D8093EC039093ED03A093EE03B093F1
:1005C000EF0381E08093FE038093FD038093F903A2
:1005D0002091EA033091EB032330310549F08093F9
:1005E000FC039E0123703327232B11F48093FB031C
:1005F000C0FD05C081E08093FA038093F703CE012C
:1006000064E170E00E948A14892B19F481E08093E0
:10061000F603CE0168EC70E00E948A14892B59F52C
:1006200020913404243110F42F5F01C020E0209386
:10063000340430E0F901EE0FFF1FEB5CFB4F8091BB
:10064000F0039091F10391838083F901EE0FFF1F76
:10065000E35AFB4F8091F2039091F30391838083DF
:10066000220F331FF901EB57FB4F8091F403909158
:10067000F50391838083CE0160EA7FE00E948A14B3
:10068000892BA9F481E08093F8038EEA93E00E941D
:1006900027061092F9031092FC031092F6031092B1
:1006A000FE031092FB031092FA031092FF03809155
:1006B000EC039091ED03A091EE03B091EF0380392C
:1006C00021E09207A105B105BCF42091E803309127
:1006D000E9032330310581F42091D4033091D5030F
:1006E0002330310549F081E08093FF0360E070E042
:1006F0008EE00E94C30824C0AC01BD0141595140A5
:1007000061097109473C51056105710558F48091F3
:10071000D4039091D503039799F460E081E10E949E
:10072000EA070EC089359240A105B1054CF08091D1
:10073000D4039091D503039719F081E08093FF03D0
:100740008091EC039091ED03A091EE03B091EF0343
:1007500084369105A105B105CCF48091E803909110
:10076000E903049799F421E030E03093F9052093F0
:10077000F80581E08093060630930E0620930D065F
:1007800080931B0689EB93E00E9427068091AF04BB
:100790009091B00460EC72E10E948A14892B09F0F8
:1007A00058C083E090E09093D5038093D403CEECBF
:1007B000D3E0E5E3F4E004E110E020E030E080E0A5
:1007C00090E0DF01A80FB91F4D915C91240F351FF8
:1007D000029688329105A9F7243631053CF0C9010B
:1007E000B8010E948A14CB01049702C080E090E017
:1007F00089939993B89684E0ED3AF807F1F630932F
:10080000AE042093AD0482E192E00E94270680911D
:10081000CE039091CF030E949F0682E993E00E944D
:1008200035068091D0039091D1030E949F0682E902
:1008300093E00E9435068091D2039091D3030E94E9
:100840009F0682E993E0DF91CF911F910F910C9465
:100850003506DF91CF911F910F9108951F920F924E
:100860000FB60F9211242F933F934F935F936F9383
:100870007F938F939F93AF93BF93EF93FF938AEFF1
:1008800094E00E942D01FF91EF91BF91AF919F9154
:100890008F917F916F915F914F913F912F910F9029
:1008A0000FBE0F901F9018951F920F920FB60F92C8
:1008B00011242F938F939F93EF93FF93E0910A0559
:1008C000F0910B058081E0911005F091110582FDFA
:1008D00012C09081809113058F5F8F732091140552
:1008E000821751F0E0911305F0E0E650FB4F958F31
:1008F0008093130501C08081FF91EF919F918F91AB
:100900002F910F900FBE0F901F9018951F920F926E
:100910000FB60F9211242F933F934F935F936F93D2
:100920007F938F939F93AF93BF93EF93FF93E09148
:10093000CA03F091CB03309709F451C0968DA68578
:10094000B785858591FF04C09C91892329F447C010
:100950009C91892309F043C0A389B4899C9185891E
:10096000809589238C93868997890197F1F7608D0B
:10097000718DA685B785558538E020E0CB010197BC
:10098000F1F7822F90E095958795282F4C9145237C
:1009900009F02068315091F7868D81FD2095809176
:1009A000C90390E001968F7399273091C8033817D7
:1009B00049F0A091C903B0E0AE54BB4F2C93809393
:1009C000C90303C0868D8160868F828D938D0197C8
:1009D000F1F7A389B4899C918589892B8C93FF9128
:1009E000EF91BF91AF919F918F917F916F915F91A7
:1009F0004F913F912F910F900FBE0F901F90189520
:100A0000E091CA03F091CB03E817F90769F4A389D1
:100A1000B4899C918589809589238C931092CB030E
:100A20001092CA0381E0089580E008951F920F920A
:100A30000FB60F9211242F933F934F935F936F93B1
:100A40007F938F939F93AF93BF93EF93FF93E09127
:100A5000CC03F091CD030995FF91EF91BF91AF9138
:100A60009F918F917F916F915F914F913F912F91C6
:100A70000F900FBE0F901F9018950F931F93CF9359
:100A8000DF93EC01E0EFF3E0AEECB3E020E931E01E
:100A900080E0419151910D911D914017510744F40F
:100AA0004C175D072CF4421753070CF49A0181E0B0
:100AB00093E0E63FF90769F73093050120930401BD
:100AC0006130710541F06230710549F430930301E2
:100AD0002093020104C03093010120930001DF91B3
:100AE000CF911F910F910895CF93DF93E091B104BF
:100AF000E23018F4C1E0CE0F01C0C0E0C093B104F1
:100B00008BE39CE90197F1F78AEE95E00E946D0274
:100B1000EC2FF0E0EE0FFF1FE452FC4F6CE170E0B1
:100B20000E9476147695679571836083C091B104B5
:100B3000D0E0FE01EE0FFF1FE452FC4F8081918157
:100B4000892B21F481E991E0918380838BE59AEEF2
:100B50000197F1F781EF95E00E946D02CC0FDD1F48
:100B6000CA52DC4F6CE170E00E947614769567956E
:100B700079836883C091B104D0E0FE01EE0FFF1FBE
:100B8000EA52FC4F80819181892B21F481E991E027
:100B9000918380838BEB9AED0197F1F783EE95E0DB
:100BA0000E946D02CC0FDD1FCE51DC4F6CE170E076
:100BB0000E9476147695679579836883E091B104F5
:100BC000F0E0EE0FFF1FEE51FC4F80819181892BE9
:100BD00021F481E991E091838083DF91CF910895A1
:100BE0003FB7F8948091F2049091F304A091F4043B
:100BF000B091F50426B5A89B05C02F3F19F00196CA
:100C0000A11DB11D3FBFBA2FA92F982F8827820F92
:100C1000911DA11DB11DBC01CD0142E0660F771FE2
:100C2000881F991F4A95D1F70895009769F0FC0134
:100C300001900020E9F73197AF01481B590BBC0127
:100C40008AEF94E00C94BB0080E090E00895CF938D
:100C5000DF930E941506EC0184EC93E00E941506D8
:100C60008C0F9D1FDF91CF9108950C9415068F92E4
:100C70009F92AF92BF920F931F93CF93DF93CDB705
:100C8000DEB7A1970FB6F894DEBF0FBECDBF19A295
:100C9000423008F44AE08E010F5D1F4F842E912CE4
:100CA000A12CB12CA50194010E944514E62FB90195
:100CB000CA0101501109EA3014F4E05D01C0E95C99
:100CC000D801EC93232B242B252B61F7C8010E941C
:100CD0001506A1960FB6F894DEBF0FBECDBFDF910B
:100CE000CF911F910F91BF90AF909F908F900895DB
:100CF000CF92DF92EF92FF92CF93DF936B017C0153
:100D0000E091FA04F091FB040190F081E02D6DE296
:100D10008AEF94E00995EC0166277727CB016C19DF
:100D20007D098E099F094AE00E9437068C0F9D1F9E
:100D3000DF91CF91FF90EF90DF90CF900895BC01AD
:100D4000990F880B990B97FD0C9478064AE00C9448
:100D50003706CF93DF93BC01990F880B990B97FF50
:100D600003C00E94780603C04AE00E943706EC01E7
:100D700084EC93E00E9415068C0F9D1FDF91CF91AC
:100D80000895CF93DF938091B6059091B705DC016C
:100D9000ED91FC910084F185E02D0995892B09F4F2
:100DA000B7C0C091D4058091B6059091B705DC011C
:100DB000ED91FC910284F385E02DC1110DC00995E0
:100DC0008093C0058E37F9F61092DA058091D4052C
:100DD0008F5F8093D405D7CF0995EC2FF0E0EA54CC
:100DE000FA4F82879091D4059230A9F09930C9F0DA
:100DF000913009F089C08091C1058F3F09F484C00A
:100E00001092D4059093D6051092D9051092D8056A
:100E10009093DA05B3C08091C205863009F474C09E
:100E200004C08091C9058F3E19F01092D40564C0AA
:100E3000E1ECF5E040E050E08191480F511DB5E054
:100E4000E73CFB07C9F72091C70530E0322F222786
:100E50005195419551098091C805280F311D109277
:100E6000D4054217530709F047C0E091C305E0934A
:100E7000D7058091C50590E0982F88272091C60559
:100E8000820F911D9093D9058093D8054E2F50E085
:100E9000FA01FA97E631F105C8F4EC5CFF4F0C94C7
:100EA0009E1485E00DC081FF1CC084E009C081FF55
:100EB00018C082E005C081FF14C083E001C086E055
:100EC0008093D60581E08093DA050BC081E08093A2
:100ED000D6051092D9051092D8058093DA051092A4
:100EE000DB05D091DA05DD2309F44AC08091CE05F7
:100EF000882309F443C044C081E08093D605109252
:100F0000D9051092D80538C09F5F9093D4053BCF88
:100F10008091DB05882321F12FB7F8948091F604A6
:100F20009091F704A091F804B091F9042FBF40917B
:100F3000B8055091B9056091BA057091BB05841B45
:100F4000950BA60BB70B4091BC055091BD05609168
:100F5000BE057091BF0584179507A607B70718F45B
:100F6000D091DA050DC01092D4051092D6051092DA
:100F7000D9051092D80581E08093DA051092DB053F
:100F80008D2FDF91CF9108950F931F93CF93DF9310
:100F90008C01C0E0D0E0F801EC0FFD1F64916623E6
:100FA00071F0E091FA04F091FB040190F081E02DE2
:100FB0008AEF94E00995892B11F02196ECCF84EC0F
:100FC00093E00E9415068C0F9D1FDF91CF911F911A
:100FD0000F91089590E0FC01E353FF4F3491FC0121
:100FE000E75FFE4F2491FC01EB50FF4FE491EE23AD
:100FF00009F43BC0332339F1333091F038F4313008
:10100000A9F0323001F584B58F7D12C0373091F0F0
:101010003830A1F03430B9F4809180008F7D03C066
:10102000809180008F77809380000DC084B58F778A
:1010300084BD09C08091B0008F7703C08091B0005B
:101040008F7D8093B000F0E0EE0FFF1FEF51FF4F58
:10105000A591B4918FB7F894EC91611103C02095DC
:101060002E2301C02E2B2C938FBF0895CF93DF9397
:1010700090E0FC01E75FFE4F2491FC01EB50FF4F35
:101080008491882361F190E0880F991FFC01ED5352
:10109000FF4FC591D491FC01EF51FF4FA591B49141
:1010A000611109C09FB7F8948881209582238883B5
:1010B000EC912E230BC0623061F49FB7F894388115
:1010C000822F809583238883EC912E2B2C939FBFB6
:1010D00006C08FB7F894E8812E2B28838FBFDF914D
:1010E000CF9108958E3008F08E5087708064809381
:1010F0007C0080917A00806480937A0080917A00ED
:1011000086FDFCCF809178002091790090E0922BB1
:1011100008958F929F92AF92BF92CF92DF92EF92FB
:10112000FF926B017C010E94F0054B015C01C11430
:10113000D104E104F104F1F00E94F005DC01CB01DF
:1011400088199909AA09BB09883E9340A105B105F0
:1011500070F321E0C21AD108E108F10888EE880E88
:1011600083E0981EA11CB11CC114D104E104F10458
:1011700019F7DDCFFF90EF90DF90CF90BF90AF9049
:101180009F908F9008958093CD057093CF056093C5
:10119000D005EBECF5E080E090E02191820F911D0D
:1011A00025E0E13DF207C9F791958195910990936A
:1011B000D1058093D2058091CE05882339F08091A6
:1011C000DB05882349F00E94C106F9CF6AE070E090
:1011D00080E090E00E9489088091B6059091B70563
:1011E000DC01ED91FC910280F381E02D4AE050E0BA
:1011F0006AEC75E009952FB7F8948091F604909108
:10120000F704A091F804B091F9042FBF8093B805BA
:101210009093B905A093BA05B093BB0581E0909176
:10122000CE05911101C080E08093DB0508951F92E7
:101230000F920FB60F9211242F933F938F939F938A
:10124000AF93BF938091F6049091F704A091F804B6
:10125000B091F9043091220623E0230F2D3720F4BA
:101260000196A11DB11D05C026E8230F0296A11D00
:10127000B11D209322068093F6049093F704A09367
:10128000F804B093F9048091F2049091F304A091D2
:10129000F404B091F5040196A11DB11D8093F204F0
:1012A0009093F304A093F404B093F504BF91AF912D
:1012B0009F918F913F912F910F900FBE0F901F9094
:1012C0001895CF92DF92EF92FF920F931F93E82F22
:1012D000F92F05C0015011092109310961F19081EF
:1012E00096239417B9F305C001501109210931095A
:1012F00011F1908196239413F7CFC12CD12CE12CBE
:10130000F12C0AC08FEFC81AD80AE80AF80A0C159F
:101310001D052E053F0579F080818623841791F302
:101320006C2D7D2D8E2D9F2D1F910F91FF90EF9095
:10133000DF90CF90089560E070E080E090E01F9132
:101340000F91FF90EF90DF90CF900895789484B53F
:10135000826084BD84B5816084BD85B5826085BDB1
:1013600085B5816085BD80916E00816080936E003F
:101370001092810080918100826080938100809131
:1013800081008160809381008091800081608093E2
:1013900080008091B10084608093B1008091B000A2
:1013A00081608093B00080917A00846080937A009D
:1013B00080917A00826080937A0080917A008160C7
:1013C00080937A0080917A00806880937A001092EE
:1013D000C100E0910A05F0910B05D2E0D083E091C5
:1013E0000605F09107051082E0910805F0910905C6
:1013F00088E0808310921205E0910E05F0910F05B0
:1014000086E08083E0910C05F0910D05808180617C
:101410008083E0910C05F0910D05808188608083C8
:10142000E0910C05F0910D05808180688083E0914A
:101430000C05F0910D0580818F7D80838CED91E00E
:101440000E94270661E08BE00E94360861E085E09B
:101450000E94360861E086E00E94360861E083E081
:101460000E94360861E081E10E94360861E082E175
:101470000E94360861E088E00E94360861E088E05A
:101480000E94EA0761E081E10E94EA0761E082E1EF
:101490000E94EA0781EA84BDC1E0C5BD8093B00027
:1014A000C093B10080E18093810010928000D093BE
:1014B000020480E593EC90930104809300049093E0
:1014C00087008093860082E18093810064E670E06B
:1014D00080E090E00E94890881EC92E09093CD0337
:1014E0008093CC03C0936F008BEE91E00E9427069F
:1014F0001092B2051092B1051092B0051092AF058E
:101500001092AE051092AD058DE991E09093B4056F
:101510008093B3059091A305963108F057C02DEB49
:1015200030E03093AE052093AD052BE931E03093E8
:10153000B0052093AF052CE231E03093B205209343
:10154000B10520916800983050F031E09E3008F4E9
:1015500030E081E001C0880F3A95EAF701C084E0ED
:10156000822B80936800983038F09E3040F096319E
:1015700048F020E030E008C02DE630E005C02BE662
:1015800030E002C02CE630E03093AB052093AA0592
:10159000983030F481E001C0880F9A95EAF70EC0C8
:1015A000292F30E09E3018F42850310902C02E5007
:1015B000310981E001C0880F2A95EAF78093AC05D4
:1015C0008091B3059091B4050197F1F78091B10531
:1015D0009091B205892B21F18091CA039091CB03A0
:1015E00025E087399207E1F0009711F00E9400058D
:1015F0008091B5058E7F8093B5051092C903109236
:10160000C80387E995E09093CB038093CA03E091E8
:10161000AA05F091AB0590818091AC05892B808360
:101620008CEA90E00E94C40711E0C7E9D5E010936E
:10163000CE05D093B705C093B6058091BC059091B7
:10164000BD05A091BE05B091BF058854944FAF4F22
:10165000BF4F8093BC059093BD05A093BE05B0938A
:10166000BF0560E070E08CE00E94C3081093DB05CA
:101670000E94C1068823E1F38091BC059091BD05CD
:10168000A091BE05B091BF05885B9B40A109B1093F
:101690008093BC059093BD05A093BE05B093BF0594
:1016A00068EC70E080E090E00E9489081092DA0512
:1016B0008091D605843059F08AE990E00E94C407F1
:1016C00068EE73E080E090E00E948908B0CF84E982
:1016D00090E00E94C40760E088E00E94EA076AE0A8
:1016E00070E086E00E94C30861E070E081E10E9442
:1016F000C30861E081E10E94EA0760E082E10E94A4
:10170000EA0783E0E82EF12C94E0A92EB12CC1E089
:10171000D0E024E1822E912C02E010E03AE0C32ECA
:10172000D12C4BE3242E4DE0342E8091FF038823EF
:1017300009F4A5C08091D4039091D503813091051F
:1017400069F11CF5892B09F008C784EF91E00E942C
:1017500027068FEF8093B30061E08DE00E94EA07D7
:1017600060E081E10E94EA0761E082E10E94EA070D
:101770008091EC039091ED03909304048093030413
:10178000D093D503C093D403E8C68230910539F1D4
:10179000039709F0E2C61092FF03DFC680910304AD
:1017A000909104048C599F4F092E000CAA0BBB0B7F
:1017B0004091EC035091ED036091EE037091EF03C3
:1017C00084179507A607B7070CF0C7C686E092E016
:1017D0000E9427061093D5030093D403BEC60E942F
:1017E0007405C1010197F1F70E947405C1010197C9
:1017F000F1F70E947405E0EFF3E0AEECB3E0819105
:1018000091918530910514F0049702C080E090E03A
:101810008D939D9363E0E63FF60789F782E192E0BE
:101820000E9427068091CE039091CF030E949F06CD
:1018300082E993E00E9435068091D0039091D10314
:101840000E949F0682E993E00E9435068091D203B0
:101850009091D3030E949F0682E993E00E9435068F
:1018600061E081E10E94EA0760E082E10E94EA070C
:10187000F092D503E092D4031092B3006EC680912B
:10188000FE03882321F01092FE030E9474058091CC
:10189000FD03811106C08091FC03882309F470C107
:1018A00033C01092FD03E6EDF3E0A0EFB3E040811A
:1018B00051818281938124813581841795071CF0A1
:1018C0002817390734F4821793076CF04817590723
:1018D00024F011969C938E9310C02417350734F48E
:1018E000281739073CF04217530724F011963C9310
:1018F0002E9303C011965C934E933696129673E026
:10190000E83EF707A1F6C7CF1092FC0380911804B8
:1019100090911904029709F0FFC02091110438B585
:10192000822F90E0831B91091816190614F08FEF8F
:1019300001C081E080930B0488B5281302C0109287
:101940000B042091100437B5822F90E0831B91097E
:101950001816190614F08FEF01C081E080930A0475
:1019600087B5281302C010920A0420910F04309109
:10197000B400822F90E0831B91091816190614F009
:101980008FEF01C081E0809309048091B400281397
:1019900002C01092090440910B04411108C08091CB
:1019A0000A04811104C080910904882319F010925F
:1019B0000E040BC081E080930E048091EC039091A3
:1019C000ED03909306048093050480912F048823EF
:1019D00039F0109211041092100410920F049CC060
:1019E00080910E04811170C080910C0490910D04BF
:1019F0000296092E000CAA0BBB0B4090EC035090F2
:101A0000ED036090EE037090EF0384159505A60535
:101A1000B7050CF081C028B5842F042E000C990B5B
:101A2000BC01620F711D6F3F710509F044F428B5C8
:101A3000820F911D97FD05C088B5480F03C04FEF79
:101A400001C040E048BD27B540910A04842F042E10
:101A5000000C990BBC01620F711D6F3F710509F0FD
:101A600044F427B5820F911D97FD05C087B5840FFB
:101A700003C08FEF01C080E087BD2091B40040918A
:101A80000904842F042E000C990BBC01620F711DF8
:101A90006F3F710509F054F42091B400820F911D3D
:101AA00097FD06C08091B400840F03C08FEF01C082
:101AB00080E08093B4008091EC039091ED039093CB
:101AC0000D0480930C0428C083E292E00E94270654
:101AD00080910804863010F48F5F01C080E080930D
:101AE00008044091200490E09C01220F331FF9016B
:101AF000E80FF91F75E1479FE00DF11D1124EA5F22
:101B0000FE4F808180931104818180931004828133
:101B100080930F0410920E0420912E043091B30094
:101B2000822F90E0831B91091816190614F08EEF8E
:101B300001C082E0809307048091B300281302C0A3
:101B4000109207042091B30040910704842F042EC3
:101B5000000C990BBC01620F711D6F3F710509F0FC
:101B600054F42091B300820F911D97FD06C080911F
:101B7000B300840F03C08FEF01C080E08093B300F7
:101B80008091FB03882309F456C01092FB038091D7
:101B9000320490913304009709F1019719F580916F
:101BA000000190910101893191053CF490921B0450
:101BB00080921A041092200415C08D973CF48FE097
:101BC00090E090931B0480931A0404C0D0921B04ED
:101BD000C0921A0485E08093200404C010921B0474
:101BE00010921A04609112047091130480911A04E7
:101BF00090911B04681779071CF46F5F7F4F05C035
:101C00008617970774F461507109709313046093F9
:101C10001204772786E00E94C30860E088E00E94F3
:101C2000EA078091120490911304892B21F461E05A
:101C300088E00E94EA078091FA03882309F49AC198
:101C40001092FA038091320490913304823091050E
:101C500009F453C02CF4009759F0019751F1F5C0E5
:101C60008330910509F47DC0049709F4B2C0EDC03A
:101C700061E070E08CE390E00E943D05882309F468
:101C8000E4C01092200461E08DE00E94EA07D09346
:101C90003304C093320460E088E00E94EA0760E009
:101CA00070E081E00E94C3088DE292E00E94270666
:101CB000CCC08FEF80932E0461E070E08CE390E065
:101CC0000E943D058111C1C010933304009332047A
:101CD00080E492E00E9427068091EC039091ED034E
:101CE000A091EE03B091EF0380931C0490931D0428
:101CF000A0931E04B0931F04A8C080911C0490916F
:101D00001D04A0911E04B0911F0488539F4FAF4F34
:101D1000BF4F4091EC035091ED036091EE03709141
:101D2000EF0384179507A607B7078CF48EE492E0BB
:101D30000E94270610921B0410921A0460E08DE0A6
:101D40000E94EA07F0923304E09232047EC061E020
:101D500070E08CE390E00E943D05882309F475C093
:101D600070C080911C0490911D04A0911E04B0913C
:101D70001F04845D9E4FAF4FBF4F4091EC035091C5
:101D8000ED036091EE037091EF0384179507A607AA
:101D9000B70794F485E892E00E94270660E070E0BF
:101DA0008EE00E94C30860E088E00E94EA07B092DB
:101DB0003304A092320449C061E070E08CE390E00B
:101DC0000E943D05882309F440C060E070E08DE08A
:101DD00032C080911C0490911D04A0911E04B0910A
:101DE0001F0480579E4FAF4FBF4F4091EC0350915F
:101DF000ED036091EE037091EF0384179507A6073A
:101E0000B70774F488EA92E00E94270660E070E069
:101E100086E10E94C308109233041092320415C068
:101E200061E070E08CE390E00E943D05882369F05A
:101E300060E070E081E00E94C30861E088E00E94F9
:101E4000EA07D0933304C093320480913004909118
:101E500031048230910509F447C02CF4009759F001
:101E60000197C9F073C08330910509F46BC00497E2
:101E700009F468C06BC062E070E088E790E00E94FF
:101E80003D0581116DC38091320490913304019717
:101E900009F05CC065C3109319040093180482E034
:101EA0008093200410922F0462E070E088E790E0B5
:101EB0000E943D0581114AC0109331040093300403
:101EC00081E080932F048091EC039091ED03A09129
:101ED000EE03B091EF038093140490931504A09344
:101EE0001604B093170432C0809114049091150425
:101EF000A0911604B091170488539F4FAF4FBF4F66
:101F00004091EC035091ED036091EE037091EF036B
:101F100084179507A607B70744F484EC92E00E9463
:101F20002706109231041092300462E070E088E7D6
:101F300090E00E943D05882349F0D0933104C0937E
:101F4000300404C0109231041092300480913204A5
:101F5000909133048130910511F48FEF04C08330E8
:101F6000910521F48EEB80932E0404C0049711F4A4
:101F700010922E048091F903882309F4B2C01092C4
:101F8000F90386E00E9472089C01909329048093D3
:101F9000280491E0253833400CF090E0909327041A
:101FA0002091E8033091E9032230310509F453C050
:101FB0003CF42115310579F021303105E1F091C073
:101FC0002430310509F487C00CF485C02530310573
:101FD00009F481C086C0992309F483C08091EC0381
:101FE0009091ED039093260480932504D093E90308
:101FF000C093E80376C091110DC08091EC039091DD
:10200000ED0390932404809323041093E903009339
:10201000E80367C080912504909126048C599F4F56
:10202000092E000CAA0BBB0B4091EC035091ED0361
:102030006091EE037091EF0384179507A607B70729
:102040000CF04FC085E090E09093E9038093E803A3
:1020500087ED92E01DC04091EC035091ED0360913B
:10206000EE037091EF0320912304309124042C5E41
:102070003F4F2901330F6608770844165506660658
:1020800077064CF4F092E903E092E8038AEE92E0DE
:102090000E94270626C0992321F1509322044093E1
:1020A000210481E08093F8038093F703D0930E0618
:1020B000C0930D06D093F905C093F80560E070E079
:1020C0000E94C30885EF92E00E942706B092E903C0
:1020D000A092E80306C0911104C01092E903109287
:1020E000E8038091F803882309F49AC01092F8035A
:1020F00087E00E94720890932D0480932C042EE8B0
:1021000038E0DC010E94A41420E034E040E050E01C
:102110000E942614C90130932B0420932A048A318B
:1021200024E0920784F4F092EB03E092EA03D09269
:102130000A06C092090610930C0600930B0685E070
:102140008093060652C08C3464E0960794F4109392
:10215000EB030093EA03D0920A06C0920906D092DC
:102160000C06C0920B0682E08093060681E093E0A5
:1021700015C0813B74E09707A4F4D093EB03C093A0
:10218000EA0310931F0600931E0690922106809288
:10219000200682E080931B068DE093E00E942706D4
:1021A00024C08333954094F41092EB031092EA0319
:1021B000D0921F06C0921E06D0922106C092200621
:1021C00082E080931B0689E193E0E8CFB092EB03B5
:1021D000A092EA0390921F0680921E061093210699
:1021E0000093200683E080931B068091EA03909180
:1021F000EB038330910529F0049741F488E393E0E1
:1022000002C086E293E00E9427060AC085E493E0BC
:102210000E94270680912A0490912B040E94A9060F
:102220008091F703882309F434C11092F703809159
:10223000F8059091F9058230910591F11CF4019710
:1022400041F08EC08330910581F1049709F463C099
:1022500087C0809106068823F1F08091EC0390916D
:10226000ED03A091EE03B091EF038093FE059093F0
:10227000FF05A0930006B0930106F092F905E092E5
:10228000F80561E082E10E94EA078091060681502C
:102290008093060665C01092F9051092F80536C0C5
:1022A000F0920E06E0920D065BC061E082E10E94B2
:1022B000EA074090EC035090ED036090EE037090BD
:1022C000EF034091090650910A06052E000C660B9B
:1022D000770B8091FE059091FF05A0910006B091CB
:1022E0000106840F951FA61FB71F84159505A60527
:1022F000B705B4F5B092F905A092F8054092020630
:1023000050920306609204067092050660E082E136
:102310000E94EA0725C080910B0690910C06AC0143
:10232000990F660B770B8091020690910306A0919E
:102330000406B0910506840F951FA61FB71F409194
:10234000EC035091ED036091EE037091EF0384175D
:102350009507A607B70724F4D093F905C093F805AD
:1023600080910D0690910E068230910591F11CF43A
:10237000019741F08EC08330910581F1049709F4F3
:1023800063C087C080911B068823F1F08091EC0325
:102390009091ED03A091EE03B091EF0380931306AB
:1023A00090931406A0931506B0931606F0920E06AD
:1023B000E0920D0661E081E10E94EA0780911B0630
:1023C000815080931B0665C010920E0610920D0678
:1023D00036C0F0920E06E0920D065BC061E081E12E
:1023E0000E94EA074090EC035090ED036090EE03EA
:1023F0007090EF0340911E0650911F06052E000CB1
:10240000660B770B8091130690911406A091150628
:10241000B0911606840F951FA61FB71F841595054A
:10242000A605B705B4F5B0920E06A0920D0640922F
:102430001706509218066092190670921A0660E00C
:1024400081E10E94EA0725C0809120069091210633
:10245000AC01990F660B770B8091170690911806C7
:10246000A0911906B0911A06840F951FA61FB71FD9
:102470004091EC035091ED036091EE037091EF03F6
:1024800084179507A607B70724F4D0930E06C093C8
:102490000D068091F603882309F45FC01092F603BD
:1024A0008EE593E00E9435068091320490913304CA
:1024B0000E949F0683E693E00E94350680913004D7
:1024C000909131040E949F068AE693E00E943506AF
:1024D00080912F0490E00E949F0684E793E00E9481
:1024E00035066091B30070E080E090E04AE00E9421
:1024F00037068EE793E00E94350660912E0470E067
:1025000080E090E04AE00E94370688E893E00E946D
:1025100035068091F0039091F1030E949F0681E9B6
:1025200093E00E9435068091F2039091F3030E949C
:102530009F0681E993E00E9435068091F403909113
:10254000F5030E949F0681E993E00E943506809181
:10255000F6039091F7030E94A9060E94B701E5C80F
:10256000D0933104C093300484E993E00E9427069D
:10257000EDCC8EEC91E0909398058093970587E9D8
:1025800095E00C9400058F929F92AF92BF92CF92EC
:10259000DF92EF92FF92CF93DF931092FD0410929F
:1025A000FC0498EE892E93E0992EA12CB12C8092F8
:1025B000FE049092FF04A0920005B09201058CEBFE
:1025C00091E09093FB048093FA0485EC90E0909363
:1025D00007058093060584EC90E0909309058093AD
:1025E000080580EC90E090930B0580930A0581EC40
:1025F00090E090930D0580930C0582EC90E0909311
:102600000F0580930E0586EC90E090931105809362
:1026100010051092130510921405109215051092D2
:1026200016054AE050E050931D0640931C0622E038
:1026300030E030931F0620931E0688E290E09093CE
:102640002106809320065093080640930706309396
:102650000A062093090690930C0680930B061092AD
:10266000F305C3E1C093F105DAE0D093F20561E030
:1026700083E10E94360860E08091F2050E943608EE
:1026800020E2C22E2EE4D22EE12CF12CC092F405D1
:10269000D092F505E092F605F092F7051092EC0560
:1026A000C093EA058EE08093EB0561E083E10E9430
:1026B000360860E08091EB050E943608C092ED0577
:1026C000D092EE05E092EF05F092F0051092E5054C
:1026D000C093E3058FE08093E40561E083E10E940D
:1026E000360860E08091E4050E943608C092E60555
:1026F000D092E705E092E805F092E9051092DE0538
:10270000C093DC0580E18093DD0561E083E10E94F8
:10271000360860E08091DD050E943608C092DF0532
:10272000D092E005E092E105F092E20584EF91E0BD
:10273000A0E0B0E08093BC059093BD05A093BE05DA
:10274000B093BF05EEEAF1E0AAECB5E001900D927E
:10275000DA95E1F71092D40582E08093D5051092C6
:10276000DA051092DB0510929A0510929905809275
:102770009B0590929C05A0929D05B0929E058EECC3
:1027800091E090939805809397051092AE05109272
:10279000AD051092B0051092AF051092B2051092DF
:1027A000B1051092B4051092B3056091B5056E7F26
:1027B0006D7F6093B5056695617081E0682784E060
:1027C0000E94EA0761E084E00E943608EDE0F1E053
:1027D000E491E093A705E9EFF0E0E491F0E0EE0F7B
:1027E000FF1FEF51FF4F859194919093A90580931E
:1027F000A80560E087E00E9436088091B50581FD5C
:1028000004C061E087E00E94EA0787E08093A305A7
:10281000E0E1F1E0E491E093A405ECEFF0E0E49175
:10282000F0E0EE0FFF1FE551FF4F859194919093DB
:10283000A6058093A505DF91CF91FF90EF90DF90E3
:10284000CF90BF90AF909F908F900895052E97FBEB
:102850001EF400940E943D1457FD07D00E944514B9
:1028600007FC03D04EF40C943D14509540953095E0
:1028700021953F4F4F4F5F4F0895909580957095EC
:1028800061957F4F8F4F9F4F0895A1E21A2EAA1B8B
:10289000BB1BFD010DC0AA1FBB1FEE1FFF1FA21710
:1028A000B307E407F50720F0A21BB30BE40BF50B0D
:1028B000661F771F881F991F1A9469F76095709596
:1028C000809590959B01AC01BD01CF010895A29F19
:1028D000B001B39FC001A39F700D811D1124911DF4
:1028E000B29F700D811D1124911D0895AA1BBB1B61
:1028F00051E107C0AA1FBB1FA617B70710F0A61B00
:10290000B70B881F991F5A95A9F780959095BC0120
:10291000CD01089597FB072E16F4009407D077FD9C
:1029200009D00E94761407FC05D03EF4909581955D
:102930009F4F0895709561957F4F0895EE0FFF1F8B
:102940000590F491E02D09940E946714B7FF089553
:10295000821B930B089581E090E0F8940C94B014DE
:1029600010E0C0E9D0E004C0FE010E949E14219650
:0A297000C139D107C9F7F894FFCF71
:10297A009001900190010000FFFFFFFFFF0000009F
:10298A00FF000000FFFFFF005050508D6E63FF579D
:10299A0022FF6F00CDDC394CAF500096887E57C2BB
:1029AA00007D00007D417D7D007D410000410000E9
:1029BA00417D00007D0000FFFF28FFFF00009628F0
:1029CA00321400FFFF6414646464D76400D7A72438
:1029DA007878783246FF00A0FF3C28827850280099
:1029EA0000C8C8C8C8C8000000C8000000C8C8C8D5
:1029FA0000323232000064646464640000006400DF
:102A0A000000646464003232320000FFFFFFFFFFFF
:102A1A00000000FF000000FFFFFF005050507EFF43
:102A2A0006000100000000EF000000004E01BB009C
:102A3A00E60095011701F500090100000000DA011E
:102A4A00BB006802D9012E024602C1017365726990
:102A5A00616C20656E61626C656400656E61206DF3
:102A6A0075746500496E697469616C2063616C698B
:102A7A00627261746500357320656C617073656498
:102A8A00210043616C6962726174656420776974BC
:102A9A00683A00636F6C6F7220636867007A6F6EC2
:102AAA0065203120542744202D3E207A656E65002A
:102ABA007A6F6E652031206C6561766564007A6F85
:102ACA006E6520312031307320656C6170736564E6
:102ADA00202D2D3E20736D616C6C2074696D656FBD
:102AEA0075743A2066696E566F6C20626563616D13
:102AFA0065732030007A6F6E65203120313573207E
:102B0A00656C6170736564202D2D3E2062696720B3
:102B1A0074696D656F7574007A6F6E652031203245
:102B2A00307320656C6170736564202D2D3E2069B9
:102B3A00646C65007A6F6E652032203130732074C0
:102B4A00696D656F7574006E6F772070757368654F
:102B5A0064203573206C6F6E670073686F7274201F
:102B6A007075736800646F75626C65207075736840
:102B7A000032207069726F73203530250032207A56
:102B8A006F6C64202D3130250032207A6F6C6420FE
:102B9A002D2035302500566F6C74616765204372AD
:102BAA0069746963616C2100566F6C746167652092
:102BBA004869676800566F6C74616765207465734D
:102BCA007465642C206E6F726D616C2020007A31FE
:102BDA003A200009207A323A2000092063626C61A7
:102BEA00633A090009206353706F743A0900092097
:102BFA006653706F743A09000920636D2D733A09A0
:102C0A00000909007A6F6E65203220542744202D6E
:102C1A003E2073706F742C20737472697000736F26
:102C2A00667420726573657400626C696E6B2074D9
:082C3A00657374000D0A00002F
:00000001FF
