:100000000C9491000C94B9000C94B9000C94A604C3
:100010000C94A6040C94A6040C94B9000C94B9009A
:100020000C94B9000C94B9000C94B9000C94B9006C
:100030000C94B9000C9436050C94B9000C94B900DA
:100040000C9437090C94B9000C9474040C944E046D
:100050000C94B9000C94B9000C94B9000C94B9003C
:100060000C94B9000C94B900520756075D074C0771
:100070005D074E075A076A075D075D075D075D0765
:100080005D075D075D075D0761075D075D075D074C
:100090005D075D07646F6E652E00556E61626C656D
:1000A00020746F20636F6E6E65637400496E6974AF
:1000B00069616C697A696E67204446506C61796544
:1000C000722E0000000000250028002B0000000018
:1000D000002300260029000404040404040404028C
:1000E00002020202020303030303030102040810D5
:1000F00020408001020408102001020408102000A2
:10010000000000240027002A00000000080002016F
:10011000000003040700000000000000000092132C
:10012000881311241FBECFEFD8E0DEBFCDBF14E08F
:10013000A0E0B1E0E8E1FBE202C005900D92AE3133
:10014000B107D9F726E0AEE1B4E001C01D92A038B6
:10015000B207E1F710E0C0E9D0E004C02197FE014A
:100160000E946D15CF38D107C9F70E94C6090C94BB
:100170007F150C940000CF92DF92EF92FF920F93C5
:100180001F93CF93DF936C017A018B01C0E0D0E025
:10019000CE15DF0589F0D8016D918D01D601ED9165
:1001A000FC910190F081E02DC6010995892B11F495
:1001B0007E0102C02196ECCFC701DF91CF911F9144
:1001C0000F91FF90EF90DF90CF900895FC01538D39
:1001D000448D252F30E0842F90E0821B930B541721
:1001E00010F0CF96089501970895FC01918D828DAE
:1001F000981761F0828DDF01A80FB11D5D968C917B
:10020000928D9F5F9F73928F90E008958FEF9FEF85
:100210000895FC01918D828D981731F0828DE80F41
:10022000F11D858D90E008958FEF9FEF0895FC01FB
:10023000918D228D892F90E0805C9F4F821B9109C8
:100240008F739927089583E595E00E94170121E0B7
:10025000892B09F420E0822F0895FC01848DDF01B1
:10026000A80FB11DA35ABF4F2C91848D90E0019629
:100270008F739927848FA689B7892C93A089B18918
:100280008C9180648C93938D848D981306C0028822
:10029000F389E02D80818F7D80830895EF92FF9216
:1002A0000F931F93CF93DF93EC0181E0888F9B8D99
:1002B0008C8D981305C0E889F989808185FD24C05B
:1002C000F62E0B8D10E00F5F1F4F0F731127E02EDE
:1002D0008C8DE8120CC00FB607FCFACFE889F989BB
:1002E000808185FFF5CFCE010E942D01F1CF8B8D4E
:1002F000FE01E80FF11DE35AFF4FF0820B8FEA89F0
:10030000FB898081806207C0EE89FF896083E8896C
:10031000F98980818064808381E090E0DF91CF91D2
:100320001F910F91FF90EF900895CF93DF93EC0111
:10033000888D8823C9F0EA89FB89808185FD05C005
:10034000A889B9898C9186FD0FC00FB607FCF5CF3F
:10035000808185FFF2CFA889B9898C9185FFEDCF87
:10036000CE010E942D01E7CFDF91CF91089580E06B
:1003700090E0892B29F00E94230181110C94000048
:10038000089520912004309121042817390771F431
:1003900090911E0480911F04981741F0E0911E0473
:1003A000F0E0E15FFA4F808190E008958FEF9FEFDA
:1003B000089508951F93CF93DF93DC015C962D91F0
:1003C0003C915D972115310539F481E090E0139659
:1003D0009C938E9312973DC05196ED91FC9152974C
:1003E00050969C915097892F80951FB75E964C919F
:1003F0005E9741FB772770F941FD6095F894408145
:10040000772311F0492B01C048234083E90121974C
:10041000F1F748E0508160FF02C0592B01C058231A
:100420005083E9012197F1F76695415099F77723B9
:1004300021F090818923808303C08081982B908351
:100440001FBF5C968D919C915D970197F1F721E01C
:1004500030E0C901DF91CF911F91089520912004D0
:10046000309121042817390771F480911F042091DD
:100470001E0490E0805C9F4F821B910960E470E055
:100480000E945915089580E090E00895209120047D
:100490003091210428173907B9F490911E048091F6
:1004A0001F04981789F0E0911E04F0E0E15FFA4F15
:1004B000808120911E0430E02F5F3F4F2F73332740
:1004C00020931E0490E008958FEF9FEF0895089504
:1004D00080E090E008950E947A150F931F93CF93C8
:1004E000DF93EC018A81882321F061E088810E94FA
:1004F000AA0860E088810E945E0883E090E001978E
:10050000F1F761E088810E945E0883E290E0019744
:10051000F1F760E088810E945E088A81882321F0DB
:1005200060E088810E94AA08298130E0F901E55144
:10053000FF4F6491F901E952FF4FE491F0E0EE0FB3
:10054000FF1FE353FF4F859194910B811C812D81F7
:100550003E813F70462F0E9481096115710581051A
:10056000910539F0DC01CB010196A11DB11DBF70D1
:1005700003C080E090E0DC01DF91CF911F910F91EB
:100580000895CF92DF92EF92FF920F931F93CF9334
:10059000DF93E0910C05F0910D053196F0930D0578
:1005A000E0930C058091420490914304A09144048F
:1005B000B09145040196A11DB11D80934204909312
:1005C0004304A0934404B093450481E08093540411
:1005D0008093530480934F04209140043091410450
:1005E0002330310549F0809352049F012370332753
:1005F000232B11F480935104E0FD05C081E080932A
:10060000500480934D04CF0164E170E00E945915BD
:10061000892B19F481E080934C04CF0168EC70E0E1
:100620000E945915892B31F1CF0160EA7FE00E94C9
:100630005915892B09F04FC081E080934E048BE956
:1006400093E00E94220610924F04109252041092DE
:100650004C041092540410925104109250041092C1
:100660005504109267061092660610925206109278
:10067000510631C020919104243110F42F5F01C044
:1006800020E02093910486E4E82E84E0F82EA4E292
:10069000B4E030E0220F331FC9018E569B4F6C012E
:1006A00080E090E0E701699179917E018B01025031
:1006B0001109A601480F591F0C35114018F06D9112
:1006C0007C911197EA01798368838896129688371E
:1006D000910541F7A9CF8091420490914304A091E4
:1006E0004404B09145048039D1E09D07A105B105CE
:1006F000BCF420913E0430913F042330310581F455
:1007000020912A0430912B042330310549F081E0F7
:100710008093550460E070E08EE00E94BF0724C023
:10072000AC01BD014159514061097109473C510576
:100730006105710538F480912A0490912B04039788
:1007400099F40EC089359240A105B1056CF08091F5
:100750002A0490912B04039739F081E0809355048B
:1007600060E081E10E945E08809142049091430420
:10077000A0914404B091450484369105A105B105CA
:10078000CCF480913E0490913F04049799F421E0C9
:1007900030E0309352062093510681E080935F064B
:1007A00030936706209366068093740686EA93E08A
:1007B0000E94220680910C0590910D0560EC72E17B
:1007C0000E945915892B09F060C083E090E0909356
:1007D0002B0480932A04C4E2D4E0E2E9F4E004E1CB
:1007E00010E020E030E080E090E0DF01A80FB91FCA
:1007F0004D915C91240F351F029688329105A9F71F
:10080000243631053CF0C901B8010E945915CB01CD
:10081000049702C080E090E089939993B89685E0B0
:10082000EA30F807F1F630930B0520930A0581EBC7
:1008300093E00E94220689E094E00E9422068091C3
:100840002404909125040E949A068FE793E00E9469
:10085000300680912604909127040E949A068FE723
:1008600093E00E94300680912804909129040E9410
:100870009A068FE793E0DF91CF911F910F91FF9040
:10088000EF90DF90CF900C943006DF91CF911F91C5
:100890000F91FF90EF90DF90CF9008951F920F92ED
:1008A0000FB60F9211242F933F934F935F936F9343
:1008B0007F938F939F93AF93BF93EF93FF9383E5C2
:1008C00095E00E942D01FF91EF91BF91AF919F9113
:1008D0008F917F916F915F914F913F912F910F90E9
:1008E0000FBE0F901F9018951F920F920FB60F9288
:1008F00011242F938F939F93EF93FF93E0916305C0
:10090000F09164058081E0916905F0916A0582FDAE
:1009100012C0908180916C058F5F8F7320916D055F
:10092000821751F0E0916C05F0E0ED5AFA4F958F87
:1009300080936C0501C08081FF91EF919F918F9111
:100940002F910F900FBE0F901F9018951F920F922E
:100950000FB60F9211242F933F934F935F936F9392
:100960007F938F939F93AF93BF93EF93FF93E09108
:100970002004F0912104309709F451C0968DA6858A
:10098000B785858591FF04C09C91892329F447C0D0
:100990009C91892309F043C0A389B4899C918589DE
:1009A000809589238C93868997890197F1F7608DCB
:1009B000718DA685B785558538E020E0CB0101977C
:1009C000F1F7822F90E095958795282F4C9145233C
:1009D00009F02068315091F7868D81FD2095809136
:1009E0001F0490E001968F73992730911E043817E9
:1009F00049F0A0911F04B0E0A15FBA4F2C938093FF
:100A00001F0403C0868D8160868F828D938D019730
:100A1000F1F7A389B4899C918589892B8C93FF91E7
:100A2000EF91BF91AF919F918F917F916F915F9166
:100A30004F913F912F910F900FBE0F901F901895DF
:100A4000E0912004F0912104E817F90769F4A389E3
:100A5000B4899C918589809589238C931092210477
:100A60001092200481E0089580E008951F920F9273
:100A70000FB60F9211242F933F934F935F936F9371
:100A80007F938F939F93AF93BF93EF93FF93E091E7
:100A90002204F09123040995FF91EF91BF91AF914A
:100AA0009F918F917F916F915F914F913F912F9186
:100AB0000F900FBE0F901F9018950F931F93CF9319
:100AC000DF93EC01E6E4F4E0A4E2B4E020E931E0F5
:100AD00080E0419151910D911D914017510744F4CF
:100AE0004C175D072CF4421753070CF49A0181E070
:100AF00094E0EC34F90769F7309305012093040181
:100B00006130710541F06230710549F430930301A1
:100B10002093020104C03093010120930001DF9172
:100B2000CF911F910F910895CF93DF93E0910E0520
:100B3000E23018F4C1E0CE0F01C0C0E0C0930E0552
:100B40008BE39CE90197F1F783E496E00E946D0244
:100B5000EC2FF0E0EE0FFF1FEE5CFB4F6CE170E05E
:100B60000E9445157695679571836083C0910E0547
:100B7000D0E0FE01EE0FFF1FEE5CFB4F8081918104
:100B8000892B21F481E991E0918380838BE59AEEB2
:100B90000197F1F78AE496E00E946D02CC0FDD1F09
:100BA000C45DDB4F6CE170E00E944515769567955A
:100BB00079836883C0910E05D0E0FE01EE0FFF1F20
:100BC000E45DFB4F80819181892B21F481E991E0E3
:100BD000918380838BEB9AED0197F1F78CE396E09C
:100BE0000E946D02CC0FDD1FC85CDB4F6CE170E032
:100BF0000E9445157695679579836883E0910E0587
:100C0000F0E0EE0FFF1FE85CFB4F80819181892BA4
:100C100021F481E991E091838083DF91CF91089560
:100C2000009769F0FC0101900020E9F73197AF01CE
:100C3000481B590BBC0183E595E00C94BB0080E098
:100C400090E00895CF93DF930E941006EC0182E7B5
:100C500093E00E9410068C0F9D1FDF91CF910895A5
:100C60000C9410068F929F92AF92BF920F931F9396
:100C7000CF93DF93CDB7DEB7A1970FB6F894DEBF61
:100C80000FBECDBF19A2423008F44AE08E010F5DBD
:100C90001F4F842E912CA12CB12CA50194010E94F0
:100CA0001415E62FB901CA0101501109EA3014F4F4
:100CB000E05D01C0E95CD801EC93232B242B252BAC
:100CC00061F7C8010E941006A1960FB6F894DEBF26
:100CD0000FBECDBFDF91CF911F910F91BF90AF900D
:100CE0009F908F900895CF92DF92EF92FF92CF93D3
:100CF000DF936B017C01E0915305F0915405019065
:100D0000F081E02D6DE283E595E00995EC01662721
:100D10007727CB016C197D098E099F094AE00E9453
:100D200032068C0F9D1FDF91CF91FF90EF90DF90E7
:100D3000CF900895BC01990F880B990B97FD0C94E7
:100D400073064AE00C943206CF93DF93BC01990FEF
:100D5000880B990B97FF03C00E94730603C04AE0FB
:100D60000E943206EC0182E793E00E9410068C0F8D
:100D70009D1FDF91CF910895CF93DF9380910F0650
:100D800090911006DC01ED91FC910084F185E02D3D
:100D90000995892B09F4B7C0C0912D0680910F06E3
:100DA00090911006DC01ED91FC910284F385E02D19
:100DB000C1110DC00995809319068E37F9F610926E
:100DC000330680912D068F5F80932D06D7CF09952E
:100DD000EC2FF0E0E15FF94F828790912D06923081
:100DE000A9F09930C9F0913009F089C080911A06B4
:100DF0008F3F09F484C010922D0690932F06109215
:100E000032061092310690933306B3C080911B06D0
:100E1000863009F474C004C0809122068F3E19F018
:100E200010922D0664C0EAE1F6E040E050E08191C6
:100E3000480F511DB6E0E032FB07C9F720912006AC
:100E400030E0322F2227519541955109809121069A
:100E5000280F311D10922D064217530709F047C085
:100E6000E0911C06E093300680911E0690E0982FDA
:100E7000882720911F06820F911D90933206809340
:100E800031064E2F50E0FA01FA97E631F105C8F429
:100E9000EC5CFF4F0C946D1585E00DC081FF1CC00C
:100EA00084E009C081FF18C082E005C081FF14C042
:100EB00083E001C086E080932F0681E080933306B3
:100EC0000BC081E080932F061092320610923106FB
:100ED0008093330610923406D0913306DD2309F453
:100EE0004AC080912706882309F443C044C081E0AA
:100EF00080932F06109232061092310638C09F5F01
:100F000090932D063BCF80913406882321F12FB793
:100F1000F89480914F0590915005A0915105B091A2
:100F200052052FBF40911106509112066091130691
:100F300070911406841B950BA60BB70B40911506F8
:100F40005091160660911706709118068417950740
:100F5000A607B70718F4D09133060DC010922D06DE
:100F600010922F06109232061092310681E0809383
:100F70003306109234068D2FDF91CF910895809320
:100F800026067093280660932906E4E2F6E080E0E6
:100F900090E02191820F911D26E0EA32F207C9F715
:100FA00091958195910990932A0680932B068091C3
:100FB0002706882339F080913406882349F00E945F
:100FC000BC06F9CF6AE070E080E090E00E94FD0886
:100FD00080910F0690911006DC01ED91FC9102804A
:100FE000F381E02D4AE050E063E276E009952FB707
:100FF000F89480914F0590915005A0915105B091C2
:1010000052052FBF8093110690931206A0931306EA
:10101000B093140681E090912706911101C080E001
:101020008093340608950F931F93CF93DF938C0121
:10103000C0E0D0E0F801EC0FFD1F6491662371F071
:10104000E0915305F09154050190F081E02D83E586
:1010500095E00995892B11F02196ECCF82E793E07A
:101060000E9410068C0F9D1FDF91CF911F910F9151
:1010700008953FB7F89480917C0690917D06A091E9
:101080007E06B0917F0626B5A89B05C02F3F19F0BC
:101090000196A11DB11D3FBFBA2FA92F982F8827F8
:1010A000820F911DA11DB11DBC01CD0142E0660F53
:1010B000771F881F991F4A95D1F7089590E0FC018A
:1010C000E75FFE4F3491FC01E551FF4F2491FC0195
:1010D000E952FF4FE491EE2309F43BC0332339F189
:1010E000333091F038F43130A9F0323001F584B565
:1010F0008F7D12C0373091F03830A1F03430B9F420
:10110000809180008F7D03C0809180008F778093D5
:1011100080000DC084B58F7784BD09C08091B00078
:101120008F7703C08091B0008F7D8093B000F0E096
:10113000EE0FFF1FED53FF4FA591B4918FB7F894B9
:10114000EC91611103C020952E2301C02E2B2C930E
:101150008FBF0895CF93DF9390E0FC01E551FF4FDF
:101160002491FC01E952FF4F8491882361F190E0C2
:10117000880F991FFC01E150FF4FC591D491FC01EC
:10118000ED53FF4FA591B491611109C09FB7F89439
:101190008881209582238883EC912E230BC06230B6
:1011A00061F49FB7F8943881822F809583238883D8
:1011B000EC912E2B2C939FBF06C08FB7F894E8813B
:1011C0002E2B28838FBFDF91CF9108958E3008F0AA
:1011D0008E508770806480937C0080917A00806458
:1011E00080937A0080917A0086FDFCCF8091780010
:1011F0002091790090E0922B08958F929F92AF9268
:10120000BF92CF92DF92EF92FF926B017C010E941E
:1012100039084B015C01C114D104E104F104F1F07F
:101220000E943908DC01CB0188199909AA09BB0978
:10123000883E9340A105B10570F321E0C21AD108A0
:10124000E108F10888EE880E83E0981EA11CB11C0D
:10125000C114D104E104F10419F7DDCFFF90EF9040
:10126000DF90CF90BF90AF909F908F9008951F9286
:101270000F920FB60F9211242F933F938F939F934A
:10128000AF93BF9380914F0590915005A091510568
:10129000B091520530917B0623E0230F2D3720F4C7
:1012A0000196A11DB11D05C026E8230F0296A11DC0
:1012B000B11D20937B0680934F0590935005A0931A
:1012C0005105B093520580917C0690917D06A091C6
:1012D0007E06B0917F060196A11DB11D80937C060C
:1012E00090937D06A0937E06B0937F06BF91AF9149
:1012F0009F918F913F912F910F900FBE0F901F9054
:101300001895CF92DF92EF92FF920F931F93E82FE1
:10131000F92F05C0015011092109310961F19081AE
:1013200096239417B9F305C0015011092109310919
:1013300011F1908196239413F7CFC12CD12CE12C7D
:10134000F12C0AC08FEFC81AD80AE80AF80A0C155F
:101350001D052E053F0579F080818623841791F3C2
:101360006C2D7D2D8E2D9F2D1F910F91FF90EF9055
:10137000DF90CF90089560E070E080E090E01F91F2
:101380000F91FF90EF90DF90CF900895CF93DF9370
:1013900000D000D0CDB7DEB7789484B5826084BD2C
:1013A00084B5816084BD85B5826085BD85B5816069
:1013B00085BD80916E00816080936E0010928100E7
:1013C00080918100826080938100809181008160A2
:1013D0008093810080918000816080938000809163
:1013E000B10084608093B1008091B00081608093EF
:1013F000B00080917A00846080937A0080917A00B6
:10140000826080937A0080917A00816080937A0074
:1014100080917A00806880937A001092C100E091F8
:101420006305F091640502E00083E0915F05F091AF
:1014300060051082E0916105F091620588E080838B
:1014400010926B05E0916705F091680586E0808356
:10145000E0916505F0916605808180618083E0916F
:101460006505F0916605808188608083E09165055F
:10147000F0916605808180688083E0916505F09138
:10148000660580818F7D80838CED91E00E9422062D
:1014900061E08BE00E94AA0861E085E00E94AA0852
:1014A00061E086E00E94AA0861E083E00E94AA0849
:1014B00061E081E10E94AA0861E082E10E94AA083D
:1014C00061E088E00E94AA0861E088E00E945E086E
:1014D00061E081E10E945E0861E082E10E945E08B5
:1014E00081EA84BD11E015BD8093B0001093B10076
:1014F00080E180938100109280000093580480E581
:1015000093EC9093570480935604909387008093B4
:10151000860082E18093810064E670E080E090E0E4
:101520000E94FD0881EC92E09093230480932204B2
:1015300010936F008BEE91E00E94220610920B0632
:1015400010920A06109209061092080610920706D9
:10155000109206068DE991E090930D0680930C069B
:101560009091FC05963108F057C02DEB30E0309398
:101570000706209306062BE931E0309309062093F5
:1015800008062CE231E030930B0620930A062091E6
:101590006800983050F031E09E3008F430E081E08F
:1015A00001C0880F3A95EAF701C084E0822B80934E
:1015B0006800983038F09E3040F0963148F020E0D6
:1015C00030E008C02DE630E005C02BE630E002C078
:1015D0002CE630E03093040620930306983030F474
:1015E00081E001C0880F9A95EAF70EC0292F30E0FC
:1015F0009E3018F42850310902C02E50310981E084
:1016000001C0880F2A95EAF78093050680910C06A1
:1016100090910D060197F1F780910A0690910B06C3
:10162000892B21F1809120049091210425E0803FB5
:101630009207E1F0009711F00E94200580910E06BC
:101640008E7F80930E0610921F0410921E0480EF6E
:1016500095E09093210480932004E0910306F0919B
:101660000406908180910506892B80838CEA90E0A6
:101670000E94130811E000EFE02E05E0F02E109319
:101680002706F0921006E0920F06809115069091C1
:101690001606A0911706B09118068854944FAF4FC4
:1016A000BF4F8093150690931606A0931706B0932C
:1016B000180660E070E08CE00E94BF0710933406CB
:1016C0000E94BC068823E1F38091150690911606CE
:1016D000A0911706B0911806885B9B40A109B1093B
:1016E0008093150690931606A0931706B0931806DC
:1016F00068EC70E080E090E00E94FD0810923306F4
:1017000080912F06843059F08AE990E00E941308F6
:1017100068EE73E080E090E00E94FD08B0CF84E9BD
:1017200090E00E94130860E088E00E945E086AE092
:1017300070E086E00E94BF0761E070E081E10E94F6
:10174000BF0761E081E10E945E0860E082E10E94E3
:101750005E0883E0E82EF12C94E0C92ED12C24E120
:10176000222E312C02E010E03AE0A32EB12C809121
:101770005504882309F4ABC080912A0490912B046E
:101780008130910579F12CF5892B09F0B3C784EFED
:1017900091E00E9422068FEF8093B30061E08DE01C
:1017A0000E945E0860E081E10E945E0861E082E1E3
:1017B0000E945E08809142049091430490935A04E1
:1017C0008093590461E070E070932B0460932A04C5
:1017D00091C78230910539F1039709F08BC71092B8
:1017E000550488C78091590490915A048C599F4F91
:1017F000092E000CAA0BBB0B4091420450914304EC
:10180000609144047091450484179507A607B707B3
:101810000CF070C786E092E00E94220610932B0421
:1018200000932A0467C70E949405BBE38B2EBDE09A
:101830009B2EC4010197F1F70E949405C401019702
:10184000F1F70E949405E6E4F4E0A4E2B4E08191AB
:1018500091918530910514F0049702C080E090E0EA
:101860008D939D9374E0EC34F70789F78CE094E056
:101870000E94220680912404909125040E949A06D9
:101880008FE793E00E943006809126049091270410
:101890000E949A068FE793E00E9430068091280408
:1018A000909129040E949A068FE793E00E943006E7
:1018B00061E081E10E945E0860E082E10E945E08D2
:1018C000F0922B04E0922A041092B30013C7809187
:1018D0005404882321F0109254040E9494058091AE
:1018E0005304811106C080915204882309F472C107
:1018F00033C010925304ECE2F4E0A6E4B4E040817B
:1019000051818281938124813581841795071CF050
:101910002817390734F4821793076CF048175907D2
:1019200024F011969C938E9310C02417350734F43D
:10193000281739073CF04217530724F011963C93BF
:101940002E9303C011965C934E933696129684E0C4
:10195000EE33F807A1F6C7CF1092520480916D04C0
:1019600090916E04029709F001C120918C0438B562
:10197000822F90E0831B91091816190614F08FEF3F
:1019800001C081E08093610488B5281302C01092E1
:10199000610420918B0437B5822F90E0831B91095D
:1019A0001816190614F08FEF01C081E080936004CF
:1019B00087B5281302C01092600420918A043091E8
:1019C000B400822F90E0831B91091816190614F0B9
:1019D0008FEF01C081E080935F048091B4002813F1
:1019E00002C010925F0440916104411108C08091CF
:1019F0006004811104C080915F04882319F0109263
:101A000066040BC081E0809366048091420490914B
:101A1000430490935C0480935B048091660481117D
:101A200072C080916204909163040296092E000CAA
:101A3000AA0BBB0B409042045090430460904404B6
:101A40007090450484159505A605B7050CF08EC069
:101A500028B5842F042E000C990BFC01E20FF11D18
:101A6000EF3FF10509F044F428B5820F911D97FD71
:101A700005C088B5480F03C04FEF01C040E048BD26
:101A800027B540916004842F042E000C990B3C0173
:101A9000620E711C93012F3F310509F044F427B504
:101AA000820F911D97FD05C087B5480F03C04FEF0A
:101AB00001C040E047BD2091B40040915F04842FF5
:101AC000042E000C990B4C01820E911C94012F3FA7
:101AD000310509F054F42091B400820F911D97FD57
:101AE00006C08091B400480F03C04FEF01C040E032
:101AF0004093B40080914204909143049093630416
:101B00008093620433C080916C04882339F0109272
:101B10008C0410928B0410928A0428C082E192E017
:101B20000E94220680915E04863010F48F5F01C00F
:101B300080E080935E044091750490E09C01220F48
:101B4000331FF901E80FF91F25E1429FE00DF11D58
:101B50001124EA5FFE4F808180938C048181809301
:101B60008B04828180938A0410926604209167041A
:101B70003091B300822F90E0831B9109181619064B
:101B800014F08EEF01C082E080935D048091B30079
:101B9000281302C010925D042091B30040915D04AF
:101BA000842F042E000C990BBC01620F711D6F3F36
:101BB000710509F054F42091B300820F911D97FD37
:101BC00006C08091B300480F03C04FEF01C040E052
:101BD0004093B30080915104882309F47FC0109290
:101BE000510480917604811135C080918F049091C9
:101BF00090048130910561F01CF4892B59F12EC0BD
:101C00008230910501F1049749F589E090E01DC00B
:101C100080910001909101018D3291051CF48CE1BD
:101C200090E013C0CC973CF4E7E1F0E0F09370044F
:101C3000E0936F0413C0F2E16F2E712C7092700468
:101C400060926F040BC08EE090E0909370048093DC
:101C50006F0404C01092700410926F0480916404A9
:101C60009091650460916F047091700486179707D6
:101C7000D4F49C012E5F3F4F261737071CF4BC019C
:101C80006D5F7F4F7093650460936404772786E0EF
:101C90000E94BF0760E088E00E945E088CE192E04D
:101CA0000E94220611C06817790774F40197909377
:101CB000650480936404BC01772786E00E94BF0717
:101CC00060E088E00E945E08809164049091650461
:101CD000892B21F461E088E00E945E088091500425
:101CE000882309F4BDC11092500480918F04909113
:101CF00090048230910509F454C02CF4009759F0F7
:101D0000019771F10AC18330910509F484C00497E9
:101D100009F4C5C002C161E070E080E590E00E9476
:101D20005D05882309F4F9C061E08DE00E945E083A
:101D300088248394912C9092900480928F0487E061
:101D40008093750460E088E00E945E0861E070E0C6
:101D500081E10E94BF0783E292E00E942206DDC07B
:101D600061E070E080E590E00E945D058111D5C0E2
:101D70001093900400938F0486E392E00E94220661
:101D80008091420490914304A0914404B091450491
:101D90008093710490937204A0937304B0937404BD
:101DA000BCC08091710490917204A0917304B091B1
:101DB000740488539F4FAF4FBF4F409142045091DE
:101DC0004304609144047091450484179507A60765
:101DD000B7078CF484E492E00E942206109270040B
:101DE00010926F0460E08DE00E945E08F092900413
:101DF000E0928F0492C061E070E080E590E00E9484
:101E00005D05882309F489C061E070E07093900457
:101E100060938F0482C08091710490917204A091AC
:101E20007304B0917404845D9E4FAF4FBF4F4091D7
:101E30004204509143046091440470914504841716
:101E40009507A607B70794F48BE792E00E94220655
:101E500060E070E08EE00E94BF0760E088E00E94D2
:101E60005E08D0929004C0928F0457C061E070E089
:101E700080E590E00E945D05882309F44EC060E093
:101E800070E08DE00E94BF0761E088E00E945E087C
:101E900081E090E09093900480938F043EC0809105
:101EA000710490917204A0917304B09174048057EE
:101EB0009E4FAF4FBF4F40914204509143046091F9
:101EC00044047091450484179507A607B70774F476
:101ED0008EE992E00E94220660E070E086E10E94B6
:101EE000BF071092900410928F0417C061E070E059
:101EF00080E590E00E945D05882379F060E070E065
:101F000081E00E94BF0761E088E00E945E08E1E096
:101F1000F0E0F0939004E0938F0480918D04909111
:101F20008E048230910509F441C02CF4009759F0D9
:101F30000197C9F070C08330910509F468C0049717
:101F400009F465C068C062E070E082E890E00E9439
:101F50005D058111D2C380918F0490919004019707
:101F600009F059C0CAC310936E0400936D04109217
:101F70006C0462E070E082E890E00E945D058111EF
:101F80004AC010938E0400938D0480914204909176
:101F90004304A0914404B091450480936804909355
:101FA0006904A0936A04B0936B0435C080916804FF
:101FB00090916904A0916A04B0916B0488539F4F7B
:101FC000AF4FBF4F4091420450914304609144048D
:101FD0007091450484179507A607B70744F48AEB68
:101FE00092E00E94220610928E0410928D0462E00C
:101FF00070E082E890E00E945D05882361F066242D
:102000006394712C70928E0460928D0404C01092BF
:102010008E0410928D0480918F04909190048130F1
:10202000910511F48FEF04C08330910521F48EEBFC
:102030008093670415C08430910519F410926704E9
:102040000FC0892B69F480918D0490918E04892BA7
:1020500039F41092670481E080936C0480936604E5
:1020600080914F04882309F4D8C010924F0486E071
:102070000E94E6089C01909385048093840491E07B
:10208000253833400CF090E09093830420913E0477
:1020900030913F042230310509F45FC03CF4211532
:1020A000310579F02130310531F1B7C024303105E7
:1020B00009F49FC00CF49AC02530310509F4A1C081
:1020C000ACC0992309F4A9C08091420490914304C3
:1020D000A0914404B091450480937F0490938004C0
:1020E000A0938104B093820481E090E090933F0438
:1020F00080933E0492C04091420450914304609109
:1021000044047091450491110DC040937B04509399
:102110007C0460937D0470937E0410933F040093CD
:102120003E047BC080917F0490918004A091810443
:10213000B09182048C599F4FAF4FBF4F84179507C2
:10214000A607B7070CF069C0E5E0F0E0F0933F04A4
:10215000E0933E048DEC92E01FC04090420450900A
:102160004304609044047090450440917B04509176
:102170007C0460917D0470917E044C5E5F4F6F4FD4
:102180007F4F44155505660577054CF4F0923F04E2
:10219000E0923E0480EE92E00E9422063EC0992327
:1021A000E1F1409277045092780460927904709241
:1021B0007A0481E080934E0480934D0466246394F6
:1021C000712C709267066092660670925206609259
:1021D000510660E070E00E94BF078BEE92E00E9423
:1021E0002206D0923F04C0923E0417C0911115C040
:1021F00010C0911112C060E070E081E00E94BF0742
:1022000008C091110AC09091760481E089278093DB
:10221000760410923F0410923E0480914E0488236D
:1022200009F49CC010924E0487E00E94E608909347
:102230008904809388042EE838E0DC010E9473153D
:1022400020E034E040E050E00E94F514C9013093F2
:102250008704209386048A3124E0920784F4F09264
:102260004104E0924004B0926306A092620610938B
:1022700065060093640685E080935F0654C08C3445
:1022800064E0960794F41093410400934004B092E4
:102290006306A0926206B0926506A092640682E090
:1022A00080935F0687EF92E017C0813B74E0970749
:1022B000B4F481E090E09093410480934004109343
:1022C00078060093770630927A062092790682E0AB
:1022D0008093740683E093E00E94220624C0833337
:1022E000954094F41092410410924004B092780604
:1022F000A0927706B0927A06A092790682E0809347
:1023000074068FE093E0E8CFD0924104C09240047D
:10231000309278062092770610937A060093790619
:1023200083E080937406809140049091410483304F
:10233000910529F0049741F48EE293E002C08CE10C
:1023400093E00E9422060AC08BE393E00E942206DB
:1023500080918604909187040E94A40680914D0488
:10236000882309F43AC110924D048091510690914E
:1023700052068230910591F11CF4019741F091C011
:102380008330910581F1049709F463C08AC080917C
:102390005F068823F1F08091420490914304A0915C
:1023A0004404B09145048093570690935806A09337
:1023B0005906B0935A06F0925206E092510661E037
:1023C00082E10E945E0880915F06815080935F06E3
:1023D00068C0109252061092510636C0F0926706FD
:1023E000E09266065EC061E082E10E945E08409174
:1023F00042045091430460914404709145048091DB
:102400006206909163063C01990F880899088091B3
:10241000570690915806A0915906B0915A06860D1C
:10242000971DA81DB91D84179507A607B707CCF5FA
:10243000D0925206C092510640935B0650935C06C0
:1024400060935D0670935E0660E082E10E945E0824
:1024500028C08091640690916506AC01990F660BC7
:10246000770B80915B0690915C06A0915D06B09120
:102470005E06840F951FA61FB71F4091420450911E
:102480004304609144047091450484179507A6079E
:10249000B7073CF488248394912C90925206809242
:1024A000510680916606909167068230910591F100
:1024B0001CF4019741F091C08330910581F104979C
:1024C00009F463C08AC0809174068823F1F080917A
:1024D000420490914304A0914404B0914504809338
:1024E0006C0690936D06A0936E06B0936F06F09203
:1024F0006706E092660661E081E10E945E088091D5
:10250000740681508093740668C01092670610921A
:10251000660636C0F0926706E09266065EC061E02D
:1025200081E10E945E084091420450914304609111
:1025300044047091450480917706909178063C019F
:10254000990F8808990880916C0690916D06A0916A
:102550006E06B0916F06860D971DA81DB91D8417D4
:102560009507A607B707CCF5D0926706C092660616
:1025700040937006509371066093720670937306D1
:1025800060E081E10E945E0828C080917906909108
:102590007A06AC01990F660B770B809170069091CB
:1025A0007106A0917206B0917306840F951FA61F45
:1025B000B71F4091420450914304609144047091CC
:1025C000450484179507A607B7073CF4882483942D
:1025D000912C909267068092660680914C04882325
:1025E00009F488C010924C0484E593E00E94300600
:1025F00080918F04909190040E949A0689E593E05F
:102600000E94300680918D0490918E040E949A065B
:1026100080E693E00E94300660918C0470E080E0D8
:1026200090E04AE00E94320686E593E00E94300680
:1026300068B570E080E090E04AE00E94320686E6ED
:1026400093E00E94300660918B0470E080E090E09F
:102650004AE00E94320686E593E00E94300667B5A4
:1026600070E080E090E04AE00E9432068CE693E061
:102670000E94300660918A0470E080E090E04AE0B9
:102680000E94320686E593E00E9430066091B40015
:1026900070E080E090E04AE00E94320682E793E03A
:1026A0000E94100685E793E00E9430068091460460
:1026B000909147040E949A068EE793E00E943006AC
:1026C00080914804909149040E949A068EE793E015
:1026D0000E94300680914A0490914B040E949A0611
:1026E0008EE793E00E94300680914C0490914D0457
:1026F0000E94A4060E94B7013AC861E070E070939E
:102700008E0460938D0481E893E00E94220683CCBE
:102710008EEC91E09093F1058093F00580EF95E0C9
:102720000C9420058F929F92AF92BF92CF92DF922E
:10273000EF92FF92CF93DF931092560510925505BA
:1027400098EE892E93E0992EA12CB12C80925705FA
:1027500090925805A0925905B0925A058CEB91E0E1
:10276000909354058093530585EC90E09093600519
:1027700080935F0584EC90E09093620580936105FF
:1027800080EC90E0909364058093630581EC90E089
:10279000909366058093650582EC90E090936805C0
:1027A0008093670586EC90E090936A0580936905B5
:1027B00010926C0510926D0510926E0510926F05C7
:1027C0004AE050E0509376064093750622E030E0F0
:1027D000309378062093770688E290E090937A060B
:1027E00080937906509361064093600630936306A8
:1027F00020936206909365068093640610924C06BF
:10280000C3E1C0934A06DAE0D0934B0661E083E16E
:102810000E94AA0860E080914B060E94AA0820E26C
:10282000C22E2EE4D22EE12CF12CC0924D06D09275
:102830004E06E0924F06F092500610924506C09365
:1028400043068EE08093440661E083E10E94AA087B
:1028500060E0809144060E94AA08C0924606D09289
:102860004706E0924806F092490610923E06C09351
:102870003C068FE080933D0661E083E10E94AA0858
:1028800060E080913D060E94AA08C0923F06D09267
:102890004006E0924106F092420610923706C0933D
:1028A000350680E18093360661E083E10E94AA0844
:1028B00060E0809136060E94AA08C0923806D09245
:1028C0003906E0923A06F0923B0684EF91E0A0E0F0
:1028D000B0E08093150690931606A0931706B09368
:1028E0001806EEEAF1E0A3E2B6E001900D92DA9567
:1028F000E1F710922D0682E080932E0610923306A7
:10290000109234061092F3051092F2058092F405AD
:102910009092F505A092F605B092F7058EEC91E045
:102920009093F1058093F005109207061092060629
:10293000109209061092080610920B0610920A06D1
:1029400010920D0610920C0660910E066E7F6D7F40
:1029500060930E066695617081E0682784E00E94AE
:102960005E0861E084E00E94AA08EFEEF0E0E491E6
:10297000E0930006EBEDF0E0E491F0E0EE0FFF1FD6
:10298000ED53FF4F85919491909302068093010639
:1029900060E087E00E94AA0880910E0681FD04C0D5
:1029A00061E087E00E945E0887E08093FC05E2EF2B
:1029B000F0E0E491E093FD05EEEDF0E0E491F0E06D
:1029C000EE0FFF1FE353FF4F859194919093FF0506
:1029D0008093FE05DF91CF91FF90EF90DF90CF9035
:1029E000BF90AF909F908F900895052E97FB1EF497
:1029F00000940E940C1557FD07D00E94141507FC87
:102A000003D04EF40C940C155095409530952195BB
:102A10003F4F4F4F5F4F089590958095709561950A
:102A20007F4F8F4F9F4F0895A1E21A2EAA1BBB1B09
:102A3000FD010DC0AA1FBB1FEE1FFF1FA217B3078A
:102A4000E407F50720F0A21BB30BE40BF50B661FA0
:102A5000771F881F991F1A9469F760957095809564
:102A600090959B01AC01BD01CF010895A29FB001DB
:102A7000B39FC001A39F700D811D1124911DB29FB2
:102A8000700D811D1124911D0895AA1BBB1B51E1DE
:102A900007C0AA1FBB1FA617B70710F0A61BB70BCE
:102AA000881F991F5A95A9F780959095BC01CD0173
:102AB000089597FB072E16F4009407D077FD09D0F0
:102AC0000E94451507FC05D03EF4909581959F4FD7
:102AD0000895709561957F4F0895EE0FFF1F059043
:102AE000F491E02D09940E943615B7FF0895821BDA
:102AF000930B089581E090E0F8940C947F1510E01A
:102B0000C0E9D0E004C0FE010E946D152196C139D4
:082B1000D107C9F7F894FFCFCB
:102B18009001900190010000FFFFFFFFFF000000FF
:102B2800FF000000FFFFFF005050508D6E63FF57FD
:102B380022FF6F00CDDC394CAF500096887E57C21B
:102B4800007D00007D417D7D007D41000041000049
:102B5800417D00007D0000FFFF28FFFF0000962850
:102B6800321400FFFF6414646464D76400D7A72498
:102B78007878783246FF00A0FF3C288278502800F9
:102B880000C8C8C8C8C8000000C8000000C8C8C835
:102B9800003232320000646464646400000064003F
:102BA8000000646464003232320000FFFFFFFFFF60
:102BB800000000FF000000FFFFFF005050507EFFA4
:102BC80006000100000000EF000000004E01BB00FD
:102BD800E60095011701F500090100000000DA017F
:102BE800BB006802D9012E024602C10173657269F1
:102BF800616C20656E61626C656400656E61206D54
:102C080075746500496E697469616C2063616C69EB
:102C1800627261746500357320656C6170736564F8
:102C28002100636F6C6F722063686700766F6C2B8E
:102C38003D33007A6F6E65203120542744202D3EA5
:102C4800207A656E65007A6F6E652031206C65614B
:102C5800766564007A6F6E652031203130732065A7
:102C68006C6170736564202D2D3E20736D616C6CF2
:102C78002074696D656F75743A2066696E566F6C5D
:102C880020626563616D65732030007A6F6E652020
:102C9800312031357320656C6170736564202D2D8A
:102CA8003E206269672074696D656F7574007A6F7C
:102CB8006E6520312032307320656C6170736564F5
:102CC800202D2D3E2069646C65007A6F6E65203278
:102CD800203130732074696D656F7574006E6F777D
:102CE80020707573686564203573206C6F6E67009B
:102CF80073686F7274207075736800646F75626CA6
:102D08006520707573680032207069726F732035A2
:102D180030250032207A6F6C64202D313025003246
:102D2800207A6F6C64202D2035302500566F6C7426
:102D380061676520437269746963616C2100566F2D
:102D48006C74616765204869676800566F6C7461C8
:102D58006765207465737465642C206E6F726D618D
:102D68006C2020007A313A200009207A323A20007B
:102D78000920723A20000920673A20000920623AA7
:102D880020000D0A000920636D2D733A0900090916
:102D9800007A6F6E65203220542744202D3E207320
:102DA800706F742C20737472697000736F6674206E
:102DB800726573657400626C696E6B2074657374F8
:102DC800000A0A0A2D2D2D2D2D2D2D2D2D2D2D2DC1
:102DD8002D2D2D2D2D2D2D2D2D2D2D2D2D2D2D2D1B
:102DE8002D2D2D2D2D2D2D2D2D2D2D2D2D2D2D2D0B
:102DF8002D2D2D2D2D2D2D2D2D2D2D2D2D2D2D2DFB
:102E08002D2D2D2D2D2D2D2D2D2D2D2D2D2D2D2DEA
:102E18002D2D2D2D2D2D2D2D000A0A0A43616C69AB
:0E2E280062726174656420776974683A000014
:00000001FF
