:100000000C9491000C94B9000C94B9000C941C044D
:100010000C941C040C941C040C94B9000C94B900AE
:100020000C94B9000C94B9000C94B9000C94B9006C
:100030000C94B9000C94AC040C94B9000C94B90065
:100040000C949F080C94B9000C94EA030C94C4031C
:100050000C94B9000C94B9000C94B9000C94B9003C
:100060000C94B9000C94B9002E0632063906280605
:1000700039062A063606460639063906390639068D
:1000800039063906390639063D0639063906390674
:1000900039063906646F6E652E00556E61626C65B7
:1000A00020746F20636F6E6E65637400496E6974AF
:1000B00069616C697A696E67204446506C61796544
:1000C000722E000000000800020100000304070077
:1000D0000000000000000000000000250028002BA8
:1000E000000000000023002600290004040404048A
:1000F00004040402020202020203030303030301D5
:1001000002040810204080010204081020010204AB
:1001100008102000000000240027002A0000AE1074
:10012000A41011241FBECFEFD8E0DEBFCDBF12E078
:10013000A0E0B1E0E0E5F8E202C005900D92A83938
:10014000B107D9F724E0A8E9B2E001C01D92A83DAB
:10015000B207E1F710E0C0E9D0E004C02197FE014A
:100160000E940914CF38D107C9F70E942E090C94B8
:100170001B140C940000CF92DF92EF92FF920F932A
:100180001F93CF93DF936C017A018B01C0E0D0E025
:10019000CE15DF0589F0D8016D918D01D601ED9165
:1001A000FC910190F081E02DC6010995892B11F495
:1001B0007E0102C02196ECCFC701DF91CF911F9144
:1001C0000F91FF90EF90DF90CF9008950E9416144A
:1001D000FC01538D448D252F30E0842F90E0821B4D
:1001E000930B541710F0CF96089501970895FC01D2
:1001F000918D828D981761F0828DDF01A80FB11D5E
:100200005D968C91928D9F5F9F73928F90E0089581
:100210008FEF9FEF0895FC01918D828D981731F03B
:10022000828DE80FF11D858D90E008958FEF9FEF8F
:100230000895FC01918D228D892F90E0805C9F4F65
:10024000821B91098F739927089585ED93E00E9491
:10025000190121E0892B09F420E0822F0895FC0187
:10026000848DDF01A80FB11DA35ABF4F2C91848D3F
:1002700090E001968F739927848FA689B7892C9374
:10028000A089B1898C9180648C93938D848D98130F
:1002900006C00288F389E02D80818F7D80830895D8
:1002A000EF92FF920F931F93CF93DF93EC0181E0C6
:1002B000888F9B8D8C8D981305C0E889F989808182
:1002C00085FD24C0F62E0B8D10E00F5F1F4F0F73BE
:1002D0001127E02E8C8DE8120CC00FB607FCFACF68
:1002E000E889F989808185FFF5CFCE010E942F0131
:1002F000F1CF8B8DFE01E80FF11DE35AFF4FF08225
:100300000B8FEA89FB898081806207C0EE89FF89B3
:100310006083E889F98980818064808381E090E04E
:10032000DF91CF911F910F91FF90EF900895CF93A0
:10033000DF93EC01888D8823C9F0EA89FB898081ED
:1003400085FD05C0A889B9898C9186FD0FC00FB6BF
:1003500007FCF5CF808185FFF2CFA889B9898C9100
:1003600085FFEDCFCE010E942F01E7CFDF91CF9126
:10037000089580E090E0892B29F00E9425018111E9
:100380000C940000089520919A0230919B02281746
:10039000390771F49091980280919902981741F071
:1003A000E0919802F0E0EF56FC4F808190E00895D4
:1003B0008FEF9FEF089508951F93CF93DF93DC0194
:1003C0005C962D913C915D972115310539F481E0C2
:1003D00090E013969C938E9312973DC05196ED91A9
:1003E000FC91529750969C915097892F80951FB7FA
:1003F0005E964C915E9741FB772770F941FD6095C1
:10040000F8944081772311F0492B01C048234083A1
:10041000E9012197F1F748E0508160FF02C0592BB4
:1004200001C058235083E9012197F1F766954150A7
:1004300099F7772321F090818923808303C08081FD
:10044000982B90831FBF5C968D919C915D9701972F
:10045000F1F721E030E0C901DF91CF911F910895BC
:1004600020919A0230919B022817390771F48091EC
:1004700099022091980290E0805C9F4F821B910925
:1004800060E470E00E94F513089580E090E0089524
:1004900020919A0230919B0228173907B9F4909164
:1004A000980280919902981789F0E0919802F0E003
:1004B000EF56FC4F80812091980230E02F5F3F4F34
:1004C0002F7333272093980290E008958FEF9FEFCA
:1004D0000895089580E090E00895CF9380919E0262
:1004E00090919F02019690939F0280939E0240916B
:1004F000A5025091A6026091A7027091A8024F5FD9
:100500005F4F6F4F7F4F4093A5025093A6026093B9
:10051000A7027093A8024091A0025091A1029C01F1
:10052000217033274330510531F02115310519F47D
:1005300041E04093AB02232B19F421E02093AE025B
:100540006AE070E00E94E113880F991F892BB9F4CB
:10055000C1E0C093AC028FE692E00E94EF0660918A
:10056000A40270E080E090E04AE00E94F10685E796
:1005700092E00E947805C093AA02C093A902E0917C
:100580009E02F0919F02CF0168EC70E00E94E1139F
:10059000892B99F581E08093AF022091EE022431FE
:1005A00011F02F5F01C020E02093EE0230E0220F17
:1005B000331FD901A959BC4F80911B0190911C0197
:1005C0008D939C93D901A15CBC4F809119019091AE
:1005D0001A018D939C93D901A95EBC4F809117019C
:1005E000909118018D939C93D901A151BD4F809199
:1005F0001101909112018D939C93CF0160E971E0FC
:100600000E94E1134AE0489F9001499F300D112458
:10061000232B91F488E792E00E948A051092AE02A3
:100620001092AD021092A9021092AC021092AB028D
:100630001092AA021092B0028091A5029091A60297
:10064000A091A702B091A802883C9105A105B1052F
:100650006CF48091A2029091A302039739F481E097
:100660008093B00283E892E00E948A0580919E0206
:1006700090919F0260EC72E10E94E113892B09F0D6
:1006800081C0E7E6F3E080E090E021913191820FB4
:10069000931F23E0EF38F207C1F764E170E00E9496
:1006A000F5137093070160930601EFE3F3E080E038
:1006B00090E021913191820F931F23E0E736F207FA
:1006C000C1F764E170E00E94F51370930501609337
:1006D0000401E7E1F3E080E090E021913191820FA5
:1006E000931F23E0EF33F207C1F764E170E00E944B
:1006F000F5137093030160930201EFEEF2E080E0E6
:1007000090E021913191820F931F23E0E731F207AE
:10071000C1F79093900380938F0364E170E00E948F
:10072000F513709301016093000186E092E00E944E
:100730008A0580910601909107010E9459078DE674
:1007400092E00E94EF0680910401909105010E94C1
:1007500059078DE692E00E94EF0680910201909188
:1007600003010E9459078DE692E00E94EF068091F6
:100770000001909101010E9459078DE692E0CF910E
:100780000C94EF06CF9108951F920F920FB60F921F
:1007900011242F933F934F935F936F937F938F9386
:1007A0009F93AF93BF93EF93FF9385ED93E00E94E8
:1007B0002F01FF91EF91BF91AF919F918F917F9109
:1007C0006F915F914F913F912F910F900FBE0F90BE
:1007D0001F9018951F920F920FB60F9211242F930E
:1007E0008F939F93EF93FF93E091E503F091E603DE
:1007F0008081E091EB03F091EC0382FD12C09081C7
:100800008091EE038F5F8F732091EF03821751F079
:10081000E091EE03F0E0EB52FC4F958F8093EE03F6
:1008200001C08081FF91EF919F918F912F910F9047
:100830000FBE0F901F9018951F920F920FB60F9238
:1008400011242F933F934F935F936F937F938F93D5
:100850009F93AF93BF93EF93FF93E0919A02F09130
:100860009B02309709F451C0968DA685B785858582
:1008700091FF04C09C91892329F447C09C9189234E
:1008800009F043C0A389B4899C9185898095892307
:100890008C93868997890197F1F7608D718DA68574
:1008A000B785558538E020E0CB010197F1F7822F1D
:1008B00090E095958795282F4C91452309F0206865
:1008C000315091F7868D81FD20958091990290E0BD
:1008D00001968F73992730919802381749F0A091AB
:1008E0009902B0E0AF56BC4F2C938093990203C09D
:1008F000868D8160868F828D938D0197F1F7A38914
:10090000B4899C918589892B8C93FF91EF91BF913C
:10091000AF919F918F917F916F915F914F913F9197
:100920002F910F900FBE0F901F901895E0919A0293
:10093000F0919B02E817F90769F4A389B4899C91A7
:100940008589809589238C9310929B0210929A023C
:1009500081E0089580E008951F920F920FB60F92E4
:1009600011242F933F934F935F936F937F938F93B4
:100970009F93AF93BF93EF93FF93E0919C02F0910D
:100980009D020995FF91EF91BF91AF919F918F913A
:100990007F916F915F914F913F912F910F900FBE7B
:1009A0000F901F9018950F931F93CF93DF93EC0137
:1009B0008A81882321F061E088810E94120860E02A
:1009C00088810E94A10783E090E00197F1F761E040
:1009D00088810E94A10783E290E00197F1F760E02F
:1009E00088810E94A1078A81882321F060E08881A4
:1009F0000E941208298130E0F901E150FF4F649113
:100A0000F901E551FF4FE491F0E0EE0FFF1FEF51C8
:100A1000FF4F859194910B811C812D813E813F7008
:100A2000462F0E94E908611571058105910539F08D
:100A3000DC01CB010196A11DB11DBF7003C080E098
:100A400090E0DC016CE170E00E94E113CB0196952F
:100A50008795DF91CF911F910F91089520E931E0A3
:100A600030931E0120931D0120911B0130911C0128
:100A70004091060150910701241735071CF42817EF
:100A8000390744F12091A402223049F42091190140
:100A900030911A01409104015091050115C0233095
:100AA00049F42091170130911801409102015091B1
:100AB00003010AC02430D1F42091110130911201B8
:100AC0004091000150910101241735077CF428174B
:100AD000390764F4203981E0380714F020E931E067
:100AE00030931E0120931D0181E0089580E0089558
:100AF000009769F0FC0101900020E9F73197AF0100
:100B0000481B590BBC0185ED93E00C94BB0080E0C1
:100B100090E00895CF93DF930E947805EC0185E77C
:100B200092E00E9478058C0F9D1FDF91CF91089570
:100B3000CF93DF938091910490919204DC01ED9129
:100B4000FC910084F185E02D0995892B09F4B7C04B
:100B5000C091AF048091910490919204DC01ED91D9
:100B6000FC910284F385E02DC1110DC0099580939D
:100B70009B048E37F9F61092B5048091AF048F5F15
:100B80008093AF04D7CF0995EC2FF0E0EF56FB4FE1
:100B900082879091AF049230A9F09930C9F09130DA
:100BA00009F089C080919C048F3F09F484C01092A1
:100BB000AF049093B1041092B4041092B3049093D4
:100BC000B504B3C080919D04863009F474C004C09C
:100BD0008091A4048F3E19F01092AF0464C0ECE938
:100BE000F4E040E050E08191480F511DB4E0E23A5A
:100BF000FB07C9F72091A20430E0322F222751953C
:100C0000419551098091A304280F311D1092AF0422
:100C10004217530709F047C0E0919E04E093B204E5
:100C20008091A00490E0982F88272091A104820F42
:100C3000911D9093B4048093B3044E2F50E0FA01B9
:100C4000FA97E631F105C8F4EC5CFF4F0C940914F7
:100C500085E00DC081FF1CC084E009C081FF18C081
:100C600082E005C081FF14C083E001C086E080936C
:100C7000B10481E08093B5040BC081E08093B1049E
:100C80001092B4041092B3048093B5041092B60489
:100C9000D091B504DD2309F44AC08091A9048823CA
:100CA00009F443C044C081E08093B1041092B404BD
:100CB0001092B30438C09F5F9093AF043BCF8091F4
:100CC000B604882321F12FB7F8948091D103909135
:100CD000D203A091D303B091D4032FBF40919304CA
:100CE000509194046091950470919604841B950B27
:100CF000A60BB70B4091970450919804609199040A
:100D000070919A0484179507A607B70718F4D09135
:100D1000B5040DC01092AF041092B1041092B40447
:100D20001092B30481E08093B5041092B6048D2F25
:100D3000DF91CF9108958093A8047093AA046093E3
:100D4000AB04E6EAF4E080E090E02191820F911D8F
:100D500024E0EC3AF207C9F79195819591099093B7
:100D6000AC048093AD048091A904882339F080916C
:100D7000B604882349F00E949805F9CF6AE070E034
:100D800080E090E00E946508809191049091920427
:100D9000DC01ED91FC910280F381E02D4AE050E00E
:100DA00065EA74E009952FB7F8948091D10390918A
:100DB000D203A091D303B091D4032FBF80939304A7
:100DC00090939404A0939504B093960481E090913D
:100DD000A904911101C080E08093B60408950C9499
:100DE00078058F929F92AF92BF920F931F93CF93EC
:100DF000DF93CDB7DEB7A1970FB6F894DEBF0FBE75
:100E0000CDBF19A2423008F44AE08E010F5D1F4F9A
:100E1000842E912CA12CB12CA50194010E941212B8
:100E2000E62FB901CA0101501109EA3014F4E05D5E
:100E300001C0E95CD801EC93232B242B252B61F70F
:100E4000C8010E947805A1960FB6F894DEBF0FBEC8
:100E5000CDBFDF91CF911F910F91BF90AF909F9029
:100E60008F900895CF92DF92EF92FF92CF93DF930E
:100E70006B017C01E091D503F091D6030190F081E4
:100E8000E02D6DE285ED93E00995EC01662777276B
:100E9000CB016C197D098E099F094AE00E94F10679
:100EA0008C0F9D1FDF91CF91FF90EF90DF90CF903F
:100EB0000895BC01990F880B990B97FD0C9432078C
:100EC0004AE00C94F106CF93DF93BC01990F880B95
:100ED000990B97FF03C00E94320703C04AE00E94AB
:100EE000F106EC0185E792E00E9478058C0F9D1FCA
:100EF000DF91CF9108950F931F93CF93DF938C01D0
:100F0000C0E0D0E0F801EC0FFD1F6491662371F0A2
:100F1000E091D503F091D6030190F081E02D85EDAD
:100F200093E00995892B11F02196ECCF85E792E0AB
:100F30000E9478058C0F9D1FDF91CF911F910F911B
:100F4000089590E0FC01ED53FF4F3491FC01E15016
:100F5000FF4F2491FC01E551FF4FE491EE2309F48A
:100F60003BC0332339F1333091F038F43130A9F0FC
:100F7000323001F584B58F7D12C0373091F03830B2
:100F8000A1F03430B9F4809180008F7D03C080914E
:100F900080008F77809380000DC084B58F7784BDEB
:100FA00009C08091B0008F7703C08091B0008F7D21
:100FB0008093B000F0E0EE0FFF1FE952FF4FA591C4
:100FC000B4918FB7F894EC91611103C020952E2352
:100FD00001C02E2B2C938FBF08953FB7F8948091BA
:100FE000D4049091D504A091D604B091D70426B52D
:100FF000A89B05C02F3F19F00196A11DB11D3FBF51
:10100000BA2FA92F982F8827820F911DA11DB11DDE
:10101000BC01CD0142E0660F771F881F991F4A95DA
:10102000D1F70895CF93DF9390E0FC01E150FF4F9B
:101030002491FC01E551FF4F8491882361F190E0F8
:10104000880F991FFC01ED5EFE4FC591D491FC0104
:10105000E952FF4FA591B491611109C09FB7F8946F
:101060008881209582238883EC912E230BC06230E7
:1010700061F49FB7F8943881822F80958323888309
:10108000EC912E2B2C939FBF06C08FB7F894E8816C
:101090002E2B28838FBFDF91CF9108958E3008F0DB
:1010A0008E508770806480937C0080917A00806489
:1010B00080937A0080917A0086FDFCCF8091780041
:1010C0002091790090E0922B08958F929F92AF9299
:1010D000BF92CF92DF92EF92FF926B017C010E9450
:1010E000ED074B015C01C114D104E104F104F1F0FE
:1010F0000E94ED07DC01CB0188199909AA09BB09F7
:10110000883E9340A105B10570F321E0C21AD108D1
:10111000E108F10888EE880E83E0981EA11CB11C3E
:10112000C114D104E104F10419F7DDCFFF90EF9071
:10113000DF90CF90BF90AF909F908F9008951F92B7
:101140000F920FB60F9211242F933F938F939F937B
:10115000AF93BF938091D1039091D203A091D30319
:10116000B091D4033091D30423E0230F2D3720F422
:101170000196A11DB11D05C026E8230F0296A11DF1
:10118000B11D2093D3048093D1039093D203A093F5
:10119000D303B093D4038091D4049091D504A0914B
:1011A000D604B091D7040196A11DB11D8093D4043B
:1011B0009093D504A093D604B093D704BF91AF9178
:1011C0009F918F913F912F910F900FBE0F901F9085
:1011D0001895CF92DF92EF92FF920F931F93E82F13
:1011E000F92F05C0015011092109310961F19081E0
:1011F00096239417B9F305C001501109210931094B
:1012000011F1908196239413F7CFC12CD12CE12CAE
:10121000F12C0AC08FEFC81AD80AE80AF80A0C1590
:101220001D052E053F0579F080818623841791F3F3
:101230006C2D7D2D8E2D9F2D1F910F91FF90EF9086
:10124000DF90CF90089560E070E080E090E01F9123
:101250000F91FF90EF90DF90CF900895789484B530
:10126000826084BD84B5816084BD85B5826085BDA2
:1012700085B5816085BD80916E00816080936E0030
:101280001092810080918100826080938100809122
:1012900081008160809381008091800081608093D3
:1012A00080008091B10084608093B1008091B00093
:1012B00081608093B00080917A00846080937A008E
:1012C00080917A00826080937A0080917A008160B8
:1012D00080937A0080917A00806880937A001092DF
:1012E000C100E091E503F091E603D2E0D083E09104
:1012F000E103F091E2031082E091E303F091E40353
:101300008FEC80831092ED03E091E903F091EA0302
:1013100086E08083E091E703F091E80380818061BB
:101320008083E091E703F091E80380818860808307
:10133000E091E703F091E803808180688083E09189
:10134000E703F091E80380818F7D808386EB91E055
:101350000E948A0561E085E00E94120861E086E053
:101360000E94120861E083E00E94120861E081E1BE
:101370000E94120861E082E10E94120861E088E0A8
:101380000E94120861E088E00E94A10761E081E10B
:101390000E94A10761E082E10E94A10781EA84BD69
:1013A000C1E0C5BD81E28093B000C093B10080E18F
:1013B0008093810010928000D093B30280E593EC7B
:1013C0009093B2028093B10290938700809386003D
:1013D00082E18093810064E670E080E090E00E940A
:1013E00065088DE692E090939D0280939C02C093E5
:1013F0006F0085EC91E00E948A0581ED91E00E94EA
:101400008A0510928D0410928C0410928B04109215
:101410008A0410928904109288048DE991E09093D7
:101420008F0480938E0490917E04963108F057C00B
:101430002DEB30E030938904209388042BE931E0D0
:1014400030938B0420938A042CE231E030938D0496
:1014500020938C0420916800983050F031E09E3049
:1014600008F430E081E001C0880F3A95EAF701C046
:1014700084E0822B80936800983038F09E3040F0F2
:10148000963148F020E030E008C02DE630E005C09D
:101490002BE630E002C02CE630E030938604209347
:1014A0008504983030F481E001C0880F9A95EAF7FE
:1014B0000EC0292F30E09E3018F42850310902C0A8
:1014C0002E50310981E001C0880F2A95EAF78093F8
:1014D000870480918E0490918F040197F1F7809199
:1014E0008C0490918D04892B21F180919A02909126
:1014F0009B0224E082379207E1F0009711F00E94EE
:101500009604809190048E7F8093900410929902AB
:101510001092980282E794E090939B0280939A0243
:10152000E0918504F0918604908180918704892B55
:1015300080838CEA90E00E947B0711E0C2E7D4E050
:101540001093A904D0939204C093910480919704BE
:1015500090919804A0919904B0919A048854944F62
:10156000AF4FBF4F8093970490939804A093990432
:10157000B0939A0460E070E08CE00E949B061093A8
:10158000B6040E9498058823E1F380919704909116
:101590009804A0919904B0919A04885B9B40A1099A
:1015A000B1098093970490939804A0939904B09301
:1015B0009A0468EC70E080E090E00E946508109268
:1015C000B5048091B104843059F08AE990E00E941A
:1015D0007B0768EE73E080E090E00E946508B0CF82
:1015E00084E990E00E947B0761E081E10E94A1070D
:1015F00060E082E10E94A10784E0C82ED12C98E22D
:10160000292E312CC2E0D0E001E010E08091B00240
:10161000882309F4A7C01092B002D092E902C092C8
:10162000E8028091A5029091A602A091A702B09134
:10163000A8028093D0029093D102A093D202B093DB
:10164000D3027C019093CD028093CC023092CF02E2
:101650002092CE0264E170E07093CB026093CA02E4
:1016600080E090E0A0E0BFE38093090190930A013D
:10167000A0930B01B0930C018AED91E00E948A05C2
:1016800061E08DE00E94A10794E6E916F104C4F33D
:1016900060E08DE00E94A10789EE91E00E948A053A
:1016A0008CEC94E00E94D304909307018093060190
:1016B00086EF91E00E948A0586E092E00E948A050A
:1016C00080910601909107010E9459078DE692E0F2
:1016D0000E94EF0680910401909105010E94590734
:1016E0008DE692E00E94EF06809102019091030145
:1016F0000E9459078DE692E00E94EF06809100015A
:10170000909101010E946307D092E902C092E80221
:101710008091A5029091A602A091A702B091A80283
:101720008093D0029093D102A093D202B093D302BF
:101730009093CD028093CC02A4E6B0E0B093CF02A8
:10174000A093CE023092CB022092CA026DEC7CECC8
:101750008CEC9DE36093090170930A0180930B0167
:1017600090930C018091AF02882309F451C010922C
:10177000AF0287E00E944E089093B9028093B802AE
:101780002EE838E0DC010E940F1420E034E040E055
:1017900050E00E94F3113093B7022093B6022C342C
:1017A00074E037072CF4D093A102C093A0020CC0C0
:1017B000203B34402CF41093A1020093A00204C0FB
:1017C0001092A1021092A0022091A0023091A102D9
:1017D00021153105A1F023303105B1F480919E022D
:1017E00090919F026AE070E00E94E113892B81F4DE
:1017F0003093B5022093B40287E192E007C0D09302
:10180000B502C093B40204C089E292E00E948A0546
:101810008091AE02882309F4C1C01092AE0286E026
:101820000E944E089093C2028093C10221E0853845
:1018300093400CF020E02093C0028091A20290918E
:10184000A3028230910509F460C02CF40097B1F036
:10185000019721F1A3C08430910509F496C00CF4DE
:101860008DC0059709F09AC060E070E088E10E94A1
:101870009B0688E392E00E948A058CC0222309F42B
:101880008DC08091A5029091A6029093BF02809393
:10189000BE021093A3020093A20280C021110DC0CA
:1018A0008091A5029091A6029093BD028093BC0204
:1018B000D093A302C093A20271C08091BE02909106
:1018C000BF028C599F4F092E000CAA0BBB0B4091F5
:1018D000A5025091A6026091A7027091A8028417F8
:1018E0009507A607B7070CF059C080910801813011
:1018F00011F081E001C084E08093080125E030E030
:101900003093A3022093A20249C02223A1F0809128
:10191000A5029091A6029093BB028093BA02809197
:10192000E702843009F480E08093E702D092A302BA
:10193000C092A20233C08091BC029091BD02449635
:10194000092E000CAA0BBB0B4091A5025091A602D8
:101950006091A7027091A80284179507A607B707A0
:10196000ECF49091DE0281E089278093DE0263E04F
:1019700070E07093A3026093A20210C021110EC008
:101980001092A3021092A20209C060E070E081E010
:101990000E949B068091C002882391F38091AD0242
:1019A000882309F455C11092AD028091E80290910C
:1019B000E9028230910521F0049709F403C148C17E
:1019C0009091D70288B5292F30E0281B31098091EA
:1019D00008011216130614F4282F02C0282F21958F
:1019E0002093C70228B5921302C01092C7029091AB
:1019F000D60247B5292F30E0241B310912161306F1
:101A000014F4282F02C0282F21952093C60227B551
:101A1000921302C01092C6029091D5024091B40078
:101A2000292F30E0241B3109121613060CF0819582
:101A30008093C5028091B400981302C01092C50231
:101A40004091C702411108C08091C602811104C0B3
:101A50008091C502882319F01092D8020BC081E052
:101A60008093D8028091A5029091A6029093C4021F
:101A70008093C3028091D802811170C08091C80206
:101A80009091C9020296092E000CAA0BBB0B809004
:101A9000A5029090A602A090A702B090A802881577
:101AA0009905AA05BB050CF0D3C028B5842F042ED8
:101AB000000C990BDC01A20FB11DAF3FB10509F07D
:101AC00044F428B5820F911D97FD05C088B5480FD5
:101AD00003C04FEF01C040E048BD27B54091C602AA
:101AE000842F042E000C990BBC01620F711D6F3FF7
:101AF000710509F044F427B5820F911D97FD05C0CB
:101B000087B5480F03C04FEF01C040E047BD2091AB
:101B1000B4004091C502842F042E000C990BDC0107
:101B2000A20FB11DAF3FB10509F054F42091B400EC
:101B3000820F911D97FD06C08091B400480F03C02D
:101B40004FEF01C040E04093B4008091A502909116
:101B5000A6029093C9028093C8027AC08091DD02E8
:101B6000882339F01092D7021092D6021092D50233
:101B70006FC08BE492E00E948A058091D402863087
:101B800010F48F5F01C080E08093D4024091E7029F
:101B900090E09C01220F331FF901E80FF91FB5E116
:101BA0004B9FE00DF11D1124E15EFE4F808180937B
:101BB000D70281818093D60282818093D5021092D0
:101BC000D80246C04091A5025091A6026091A7029A
:101BD0007091A8028091CE029091CF024C01990F92
:101BE000AA08BB088091D0029091D102A091D202A4
:101BF000B091D302880D991DAA1DBB1D4817590726
:101C00006A077B070CF56090CC027090CD02E090E3
:101C1000CA02F090CB02C3018E0D9F1D092E000C4D
:101C2000AA0BBB0B481759076A077B072CF418BC93
:101C30008FEF8093B40087BD8091A5029091A6029A
:101C40009093CD028093CC021093E9020093E802B6
:101C50008091AC02882309F4FFC01092AC028091FD
:101C6000190190911A0190931601809315018091AA
:101C700017019091180190931401809313018091A2
:101C80001101909112019093100180930F018091A6
:101C9000A402833011F08F5F01C081E08093A40221
:101CA000813009F040C080911B0190911C019093FC
:101CB0000E0180930D018CEC94E00E94D3047C0112
:101CC00090931C0180931B01892B29F485E592E0F8
:101CD0000E948A0528C0A0900D01B0900E01B501A8
:101CE0000B2C000C880B990B0E94E8122B013C0175
:101CF000B7016A197B09072E000C880B990B0E940B
:101D0000E81226E636E646E65FE30E9474139B017E
:101D1000AC01C301B2010E9443120E94B012709341
:101D20001C0160931B018091A402823029F58091EF
:101D3000190190911A01909316018093150185EC79
:101D400094E00E94D30490931A01809319010097A4
:101D500029F488E592E00E948A050EC020911501C1
:101D600030911601820F931F97FD019695958795E7
:101D700090931A01809319018091A402833009F095
:101D800042C08091170190911801909314018093A3
:101D900013018EEB94E00E94D30490931C01809376
:101DA0001B01892B29F48BE592E00E948A052BC048
:101DB000E0901301F0901401B7010F2C000C880B78
:101DC000990B0E94E8124B015C0160911701709120
:101DD00018016E197F09072E000C880B990B0E94C1
:101DE000E81226E636E646E65FE30E9474139B019E
:101DF000AC01C501B4010E9443120E94B01270935D
:101E00001801609317018091A402843029F5809114
:101E10001101909112019093100180930F0187EBB3
:101E200094E00E94D30490931201809311010097D3
:101E300029F48EE592E00E948A050EC020910F01E0
:101E400030911001820F931F97FD0196959587950C
:101E500090931201809311018091AB02882309F4C1
:101E600060C01092AB028091EA029091EB02009761
:101E700029F00197F9F48EE090E013C08091EC0214
:101E80009091ED02009791F00197A1F48091DB020F
:101E90009091DC028B30910514F4019602C08BE026
:101EA00090E09093DC028093DB0204C01092DC028D
:101EB0001092DB028091D9029091DA026091DB02EC
:101EC0007091DC028617970754F49C012D5F3F4FF9
:101ED0002617370784F4BC016C5F7F4F0CC068176E
:101EE0007907ACF49C0123503109621773071CF485
:101EF000BC01645071097093DA026093D9027727AC
:101F000086E00E949B0660E088E00E94A107809125
:101F1000D9029091DA02892B21F461E088E00E94D5
:101F2000A1078091AA02882309F4DDC01092AA02B9
:101F30008091EA029091EB0281309105E9F08230C4
:101F40009105A9F1892B09F05EC088E290E00E941A
:101F50002E05882309F457C0D093E902C093E80204
:101F60001092E70261E08DE00E94A10760E070E05E
:101F700088E10E949B0643C088E290E00E942E0503
:101F8000811141C0D093EB02C093EA028091A50277
:101F90009091A602A091A702B091A8028093E302BB
:101FA0009093E402A093E502B093E6022CC08091E6
:101FB000E3029091E402A091E502B091E6028C590F
:101FC0009F4FAF4FBF4F4091A5025091A602609125
:101FD000A7027091A80284179507A607B7074CF4CB
:101FE00060E08DE00E94A1071092EB021092EA02DD
:101FF0000AC088E290E00E942E05882321F0109309
:10200000EB020093EA028091EC029091ED028130A4
:10201000910591F082309105A9F1892B09F055C005
:102020008AE590E00E942E05882309F44EC01093A3
:10203000ED020093EC0249C0D093E902C093E8029C
:1020400060E088E00E94A10782E08093E7028AE5D1
:1020500090E00E942E05811138C0D093ED02C0930C
:10206000EC028091A5029091A602A091A702B091E6
:10207000A8028093DF029093E002A093E102B09364
:10208000E20223C08091DF029091E002A091E10280
:10209000B091E20288539F4FAF4FBF4F4091A502CE
:1020A0005091A6026091A7027091A802841795072B
:1020B000A607B7070CF0B4CF60E070E086E10E949D
:1020C0009B061092ED021092EC028091EA02909130
:1020D000EB02892B29F49091DE0281E0892701C06F
:1020E00080E08093DD028091A902882351F1109253
:1020F000A90281E692E00E94EF068091EC029091A5
:10210000ED020E94590788E692E00E94EF06809156
:102110001B0190911C010E9459078CE692E00E94DD
:10212000EF068091190190911A010E9459078CE6DF
:1021300092E00E94EF0680911701909118010E9491
:1021400063070E94B90162CA88EA91E09093730420
:102150008093720482E794E00C9496048F929F928D
:10216000AF92BF92CF92DF92EF92FF92CF93DF9325
:102170001092D8031092D70398EE892E93E0992EEF
:10218000A12CB12C8092D9039092DA03A092DB03A8
:10219000B092DC0386E991E09093D6038093D50357
:1021A00085EC90E09093E2038093E10384EC90E06F
:1021B0009093E4038093E30380EC90E09093E60334
:1021C0008093E50381EC90E09093E8038093E7032C
:1021D00082EC90E09093EA038093E90386EC90E030
:1021E0009093EC038093EB031092EE031092EF03B5
:1021F0001092F0031092F1031092CE04C3E1C09349
:10220000CC04DAE0D093CD0461E083E10E941208AF
:1022100060E08091CD040E94120820E5C22E23ECDC
:10222000D22EE12CF12CC092CF04D092D004E092B7
:10223000D104F092D2041092C704C093C5048EE07A
:102240008093C60461E083E10E94120860E08091FF
:10225000C6040E941208C092C804D092C904E09239
:10226000CA04F092CB041092C004C093BE048FE065
:102270008093BF0461E083E10E94120860E08091D6
:10228000BF040E941208C092C104D092C204E0921E
:10229000C304F092C4041092B904C093B70480E15F
:1022A0008093B80461E083E10E94120860E08091AD
:1022B000B8040E941208C092BA04D092BB04E09203
:1022C000BC04F092BD0484EF91E0A0E0B0E0809304
:1022D000970490939804A0939904B0939A04E8E823
:1022E000F1E0A5EAB4E001900D92DA95E1F71092E1
:1022F000AF0482E08093B0041092B5041092B6044B
:10230000109275041092740480927604909277046F
:10231000A0927804B092790488EA91E090937304D3
:1023200080937204109289041092880410928B0496
:1023300010928A0410928D0410928C0410928F04D3
:1023400010928E04609190046E7F6D7F6093900474
:102350006695617081E0682784E00E94A10761E0D2
:1023600084E00E941208E3E0F1E0E491E09382044B
:10237000EFEEF0E0E491F0E0EE0FFF1FE952FF4FC7
:1023800085919491909384048093830460E087E026
:102390000E9412088091900481FD04C061E087E0F2
:1023A0000E94A10787E080937E04E6E0F1E0E491DB
:1023B000E0937F04E2EFF0E0E491F0E0EE0FFF1F26
:1023C000EF51FF4F85919491909381048093800405
:1023D000DF91CF91FF90EF90DF90CF90BF90AF90C3
:1023E0009F908F900895052E97FB1EF400940E94F5
:1023F0000A1257FD07D00E94121207FC03D04EF4B8
:102400000C940A1250954095309521953F4F4F4FAF
:102410005F4F089590958095709561957F4F8F4F90
:102420009F4F0895A1E21A2EAA1BBB1BFD010DC0F0
:10243000AA1FBB1FEE1FFF1FA217B307E407F50774
:1024400020F0A21BB30BE40BF50B661F771F881F50
:10245000991F1A9469F760957095809590959B01E6
:10246000AC01BD01CF010895A29FB001B39FC0018F
:10247000A39F700D811D1124911DB29F700D811DB0
:102480001124911D08955058BB27AA270E945B1262
:102490000C943A130E942C1338F00E94331320F04E
:1024A00039F49F3F19F426F40C9429130EF4E095A7
:1024B000E7FB0C942313E92F0E944B1358F3BA1730
:1024C000620773078407950720F079F4A6F50C944A
:1024D0006D130EF4E0950B2EBA2FA02D0B01B90150
:1024E00090010C01CA01A0011124FF27591B99F08A
:1024F000593F50F4503E68F11A16F040A22F232F96
:10250000342F4427585FF3CF469537952795A795E5
:10251000F0405395C9F77EF41F16BA0B620B730B8C
:10252000840BBAF09150A1F0FF0FBB1F661F771FFD
:10253000881FC2F70EC0BA0F621F731F841F48F4B2
:10254000879577956795B795F7959E3F08F0B0CF3B
:102550009395880F08F09927EE0F97958795089522
:102560000E94B7126894B1110C946E1308950E94E2
:10257000531388F09F5798F0B92F9927B751B0F0AF
:10258000E1F0660F771F881F991F1AF0BA95C9F7F7
:1025900014C0B13091F00E946D13B1E008950C9415
:1025A0006D13672F782F8827B85F39F0B93FCCF3C8
:1025B000869577956795B395D9F73EF49095809574
:1025C000709561957F4F8F4F9F4F0895E89409C094
:1025D00097FB3EF490958095709561957F4F8F4F56
:1025E0009F4F9923A9F0F92F96E9BB279395F6956C
:1025F000879577956795B795F111F8CFFAF4BB0FEA
:1026000011F460FF1BC06F5F7F4F8F4F9F4F16C04D
:10261000882311F096E911C0772321F09EE8872FD7
:10262000762F05C0662371F096E8862F70E060E093
:102630002AF09A95660F771F881FDAF7880F96950C
:10264000879597F9089597F99F6780E870E060E0B3
:1026500008959FEF80EC089500240A94161617063B
:1026600018060906089500240A9412161306140683
:1026700005060895092E0394000C11F4882352F0E6
:10268000BB0F40F4BF2B11F460FF04C06F5F7F4F9E
:102690008F4F9F4F089557FD9058440F551F59F085
:1026A0005F3F71F04795880F97FB991F61F09F3F3F
:1026B00079F087950895121613061406551FF2CF68
:1026C0004695F1DF08C0161617061806991FF1CFB8
:1026D00086957105610508940895E894BB276627DF
:1026E0007727CB0197F908950E9487130C943A132A
:1026F0000E942C1338F00E94331320F0952311F020
:102700000C9423130C94291311240C946E130E941F
:102710004B1370F3959FC1F3950F50E0551F629FC7
:10272000F001729FBB27F00DB11D639FAA27F00D2A
:10273000B11DAA1F649F6627B00DA11D661F829F51
:102740002227B00DA11D621F739FB00DA11D621F36
:10275000839FA00D611D221F749F3327A00D611D53
:10276000231F849F600D211D822F762F6A2F112435
:102770009F5750409AF0F1F088234AF0EE0FFF1F68
:10278000BB1F661F771F881F91505040A9F79E3FBF
:10279000510580F00C9423130C946E135F3FE4F307
:1027A000983ED4F3869577956795B795F795E79515
:1027B0009F5FC1F7FE2B880F911D9695879597F91E
:1027C0000895AA1BBB1B51E107C0AA1FBB1FA61778
:1027D000B70710F0A61BB70B881F991F5A95A9F7CA
:1027E00080959095BC01CD01089597FB072E16F4B6
:1027F000009407D077FD09D00E94E11307FC05D0B3
:102800003EF4909581959F4F0895709561957F4F07
:102810000895EE0FFF1F0590F491E02D09940E949A
:102820003412B7FF0895821B930B089581E090E066
:10283000F8940C941B1410E0C0E9D0E004C0FE0131
:102840000E9409142196C139D107C9F7F894FFCF26
:102850005F003C0055005500010000003F8F018FD4
:102860000190018F018F0190019001900190010072
:1028700000FFFFFFFFFF000000FF000000FFFFFF61
:10288000005050508D6E63FF5722FF6F00CDDC3932
:102890004CAF500096887E57C2007D00007D417D80
:1028A0007D007D410000410000417D00007D000071
:1028B000FFFF28FFFF00009628321400FFFF64147A
:1028C000646464D76400D7A7247878783246FF0020
:1028D000A0FF3C28827850287EFF060001000000FF
:1028E00000EF000000005001BB00E8009701190153
:1028F000F7000B0100000000DC01BB006A02DB01F5
:1029000030024802C30173657269616C20656E61B3
:10291000626C656400537461727420426C696E6B02
:1029200000656E61206D757465007374617274204A
:10293000357320776169743A00656E6420357320C1
:10294000776169743A00656E642063616C696272D4
:102950006174696F6E0043616C6962726174656471
:1029600020776974683A00566F6C7461676520431C
:102970007269746963616C2100566F6C746167657C
:102980002074657374656400426C696E6B696E6770
:1029900020696E6974696174656400636F6C6F723D
:1029A0002063686700213100213200213300213487
:1029B0000009207A323A2000092009000909007331
:1029C0003A200920000D0A00736F66742072657347
:1029D000657400656E746572696E672063616C6909
:0829E00062726174696F6E0000
:00000001FF
