:100000000C9491000C94B9000C94B9000C94360433
:100010000C9436040C9436040C94B9000C94B9007A
:100020000C94B9000C94B9000C94B9000C94B9006C
:100030000C94B9000C94C6040C94B9000C94B9004B
:100040000C9460090C94B9000C9404040C94DE0325
:100050000C94B9000C94B9000C94B9000C94B9003C
:100060000C94B9000C94B900A007A407AB079A0739
:10007000AB079C07A807B807AB07AB07AB07AB07F5
:10008000AB07AB07AB07AB07AF07AB07AB07AB07DC
:10009000AB07AB07646F6E652E00556E61626C65D1
:1000A00020746F20636F6E6E65637400496E6974AF
:1000B00069616C697A696E67204446506C61796544
:1000C000722E0000000000240027002A000000001B
:1000D0000800020100000304070000000000000007
:1000E0000000000000250028002B00000000002375
:1000F000002600290004040404040404040202028B
:100100000202020303030303030102040810204058
:1001100080010204081020010204081020002311AD
:10012000191111241FBECFEFD8E0DEBFCDBF12E002
:10013000A0E0B1E0E6E1F9E202C005900D92AE3B2D
:10014000B107D9F725E0AEEBB2E001C01D92AB32AA
:10015000B207E1F710E0C0E9D0E004C02197FE014A
:100160000E947114CF38D107C9F70E94EF090C948F
:100170007E140C940000CF92DF92EF92FF920F93C7
:100180001F93CF93DF936C017A018B01C0E0D0E025
:10019000CE15DF0589F0D8016D918D01D601ED9165
:1001A000FC910190F081E02DC6010995892B11F495
:1001B0007E0102C02196ECCFC701DF91CF911F9144
:1001C0000F91FF90EF90DF90CF900895FC01538D39
:1001D000448D252F30E0842F90E0821B930B541721
:1001E00010F0CF96089501970895FC01918D828DAE
:1001F000981761F0828DDF01A80FB11D5D968C917B
:10020000928D9F5F9F73928F90E008958FEF9FEF85
:100210000895FC01918D828D981731F0828DE80F41
:10022000F11D858D90E008958FEF9FEF0895FC01FB
:10023000918D228D892F90E0805C9F4F821B9109C8
:100240008F73992708958CE294E00E94170121E0B2
:10025000892B09F420E0822F0895FC01848DDF01B1
:10026000A80FB11DA35ABF4F2C91848D90E0019629
:100270008F739927848FA689B7892C93A089B18918
:100280008C9180648C93938D848D981306C0028822
:10029000F389E02D80818F7D80830895EF92FF9216
:1002A0000F931F93CF93DF93EC0181E0888F9B8D99
:1002B0008C8D981305C0E889F989808185FD24C05B
:1002C000F62E0B8D10E00F5F1F4F0F731127E02EDE
:1002D0008C8DE8120CC00FB607FCFACFE889F989BB
:1002E000808185FFF5CFCE010E942D01F1CF8B8D4E
:1002F000FE01E80FF11DE35AFF4FF0820B8FEA89F0
:10030000FB898081806207C0EE89FF896083E8896C
:10031000F98980818064808381E090E0DF91CF91D2
:100320001F910F91FF90EF900895CF93DF93EC0111
:10033000888D8823C9F0EA89FB89808185FD05C005
:10034000A889B9898C9186FD0FC00FB607FCF5CF3F
:10035000808185FFF2CFA889B9898C9185FFEDCF87
:10036000CE010E942D01E7CFDF91CF91089580E06B
:1003700090E0892B29F00E94230181110C94000048
:1003800008952091C0023091C1022817390771F4F5
:100390009091BE028091BF02981741F0E091BE0299
:1003A000F0E0EC51FC4F808190E008958FEF9FEFDB
:1003B000089508951F93CF93DF93DC015C962D91F0
:1003C0003C915D972115310539F481E090E0139659
:1003D0009C938E9312973DC05196ED91FC9152974C
:1003E00050969C915097892F80951FB75E964C919F
:1003F0005E9741FB772770F941FD6095F894408145
:10040000772311F0492B01C048234083E90121974C
:10041000F1F748E0508160FF02C0592B01C058231A
:100420005083E9012197F1F76695415099F77723B9
:1004300021F090818923808303C08081982B908351
:100440001FBF5C968D919C915D970197F1F721E01C
:1004500030E0C901DF91CF911F9108952091C00232
:100460003091C1022817390771F48091BF022091A1
:10047000BE0290E0805C9F4F821B910960E470E0B7
:100480000E945D14089580E090E008952091C002DC
:100490003091C10228173907B9F49091BE028091BA
:1004A000BF02981789F0E091BE02F0E0EC51FC4FDA
:1004B00080812091BE0230E02F5F3F4F2F733327A2
:1004C0002093BE0290E008958FEF9FEF0895089566
:1004D00080E090E008950F931F93CF93DF93EC019A
:1004E0008A81882321F061E088810E947F0860E092
:1004F00088810E94330883E090E00197F1F761E082
:1005000088810E94330883E290E00197F1F760E070
:1005100088810E9433088A81882321F060E08881E5
:100520000E947F08298130E0F901E75FFE4F649166
:10053000F901EB50FF4FE491F0E0EE0FFF1FE551A2
:10054000FF4F859194910B811C812D813E813F70DD
:10055000462F0E94AA09611571058105910539F0A0
:10056000DC01CB010196A11DB11DBF7003C080E06D
:1005700090E0DC01DF91CF911F910F9108950F93CF
:100580001F93CF93DF93C091E103D091E2032196B3
:10059000D093E203C093E1038091F2029091F302C1
:1005A000A091F402B091F5020196A11DB11D8093B6
:1005B000F2029093F302A093F402B093F50221E0CB
:1005C00020930903CE0163E070E00E944914892B57
:1005D00011F4209308038091F8029091F902039797
:1005E00051F081E0809307039E0123703327232B72
:1005F00011F480930603C0FD05C081E080930503DC
:1006000080930403CE016AE070E00E944914892BB4
:1006100019F481E080930203CE0168EC70E00E943F
:100620004914892BF1F0CE0160EA7FE00E94491461
:10063000892B09F04DC081E08093030382EB92E0A7
:100640000E9488061092040310920703109202037E
:1006500010920903109206031092050310920A03E8
:1006600037C020913E03243110F42F5F01C020E0F9
:1006700020933E0330E0F901EE0FFF1FE15CFC4FD9
:100680008091FA029091FB0291838083F901EE0F31
:10069000FF1FE959FC4F8091FC029091FD0291836C
:1006A0008083F901EE0FFF1FE157FC4F8091FE029E
:1006B0009091FF0291838083220F331FF901E95447
:1006C000FC4F809100039091010391838083ABCF15
:1006D0008091F2029091F302A091F402B091F502A0
:1006E00080399140A105B1057CF48091F60290918A
:1006F000F702039749F48091CC029091CD020397C1
:1007000019F081E080930A038091E1039091E20364
:1007100060EC72E10E944914892B09F04AC0C4ECD4
:10072000D2E0EFE3F3E004E110E080E090E020E0CD
:1007300030E0DF01A80FB91F4D915C91240F351FE8
:10074000029688329105A9F7C901B8010E945D148B
:1007500069937993B89683E0EF3DF80731F73093CA
:10076000E0032093DF0386E192E00E9488068091F7
:10077000C4029091C5020E9400078DEA92E00E9497
:1007800096068091C6029091C7020E9400078DEAEA
:1007900092E00E9496068091C8029091C9020E9440
:1007A00000078DEA92E0DF91CF911F910F910C9499
:1007B0009606DF91CF911F910F9108951F920F928E
:1007C0000FB60F9211242F933F934F935F936F9324
:1007D0007F938F939F93AF93BF93EF93FF938CE29D
:1007E00094E00E942D01FF91EF91BF91AF919F91F5
:1007F0008F917F916F915F914F913F912F910F90CA
:100800000FBE0F901F9018951F920F920FB60F9268
:1008100011242F938F939F93EF93FF93E0913C04C8
:10082000F0913D048081E0914204F091430482FD07
:1008300012C09081809145048F5F8F732091460490
:10084000821751F0E0914504F0E0E45DFB4F958F95
:100850008093450401C08081FF91EF919F918F911A
:100860002F910F900FBE0F901F9018951F920F920F
:100870000FB60F9211242F933F934F935F936F9373
:100880007F938F939F93AF93BF93EF93FF93E091E9
:10089000C002F091C102309709F451C0968DA6852F
:1008A000B785858591FF04C09C91892329F447C0B1
:1008B0009C91892309F043C0A389B4899C918589BF
:1008C000809589238C93868997890197F1F7608DAC
:1008D000718DA685B785558538E020E0CB0101975D
:1008E000F1F7822F90E095958795282F4C9145231D
:1008F00009F02068315091F7868D81FD2095809117
:10090000BF0290E001968F7399273091BE0238178D
:1009100049F0A091BF02B0E0AC51BC4F2C93809342
:10092000BF0203C0868D8160868F828D938D019773
:10093000F1F7A389B4899C918589892B8C93FF91C8
:10094000EF91BF91AF919F918F917F916F915F9147
:100950004F913F912F910F900FBE0F901F901895C0
:10096000E091C002F091C102E817F90769F4A38988
:10097000B4899C918589809589238C931092C102BA
:100980001092C00281E0089580E008951F920F92B6
:100990000FB60F9211242F933F934F935F936F9352
:1009A0007F938F939F93AF93BF93EF93FF93E091C8
:1009B000C202F091C3020995FF91EF91BF91AF91EF
:1009C0009F918F917F916F915F914F913F912F9167
:1009D0000F900FBE0F901F9018958F929F92AF921D
:1009E000BF92CF92DF92EF92FF920F931F93CF931C
:1009F000DF936091F2027091F3028091F402909182
:100A0000F5020091E8021091E902012E000C220B80
:100A1000330BC090EC02D090ED02E090EE02F0902B
:100A2000EF020C0D1D1D2E1D3F1D60177107820763
:100A300093070CF050C00091EA021091EB02C091B4
:100A4000E602D091E7026801CC0EDD1E0D2C000CF1
:100A5000EE08FF086C157D058E059F059CF50E942C
:100A60002C136B017C01B801110F880B990B0E94AC
:100A70002C134B015C01BE01DD0F880B990B0E940A
:100A80002C132091040130910501409106015091F1
:100A900007010E94DC139B01AC01C501B4010E9457
:100AA000B9129B01AC01C701B6010E94251318BC05
:100AB00087FF05C08FEF8093B40087BD03C01092FD
:100AC000B40017BC8091F2029091F3029093EB0274
:100AD0008093EA0206C082E090E09093F102809356
:100AE000F002DF91CF911F910F91FF90EF90DF9077
:100AF000CF90BF90AF909F908F9008950F931F93CA
:100B0000CF93DF93EC01EAEFF2E0A4ECB2E020E94E
:100B100031E080E0419151910D911D9140175107B5
:100B200044F44C175D072CF4421753070CF49A0158
:100B300081E093E0E230F90769F7309309012093EF
:100B400008016130710541F06230710549F430935C
:100B500001012093000104C030930301209302019E
:100B6000DF91CF911F910F910895CF93DF93E09183
:100B7000E303E23018F4C1E0CE0F01C0C0E0C0933F
:100B8000E3038BEF9CE70197F1F78CE195E00E947E
:100B90006B02EC2FF0E0EE0FFF1FEC52FD4F6CE10B
:100BA00070E00E9449147695679571836083C091C7
:100BB000E303D0E0FE01EE0FFF1FEC52FD4F8081FA
:100BC0009181892B21F481E991E0918380838BE5E8
:100BD0009AEE0197F1F783E295E00E946B02CC0F49
:100BE000DD1FC253DD4F6CE170E00E944914769521
:100BF000679579836883C091E303D0E0FE01EE0F2F
:100C0000FF1FE253FD4F80819181892B21F481E9FF
:100C100091E0918380838BEB9AED0197F1F785E169
:100C200095E00E946B02CC0FDD1FC652DD4F6CE1D8
:100C300070E00E9449147695679579836883C09126
:100C4000E303D0E0FE01EE0FFF1FE652FD4F80816F
:100C50009181892B21F481E991E0918380838EE059
:100C600095E00E946B02CC0FDD1FC052DD4F6CE19E
:100C700070E00E9449147695679579836883E091C6
:100C8000E303F0E0EE0FFF1FE052FD4F8081918102
:100C9000892B21F481E991E091838083DF91CF91C9
:100CA00008953FB7F8948091240490912504A09171
:100CB0002604B091270426B5A89B05C02F3F19F044
:100CC0000196A11DB11D3FBFBA2FA92F982F8827CC
:100CD000820F911DA11DB11DBC01CD0142E0660F27
:100CE000771F881F991F4A95D1F70895009769F0DB
:100CF000FC0101900020E9F73197AF01481B590B27
:100D0000BC018CE294E00C94BB0080E090E008957C
:100D1000CF93DF930E947606EC018FEA92E00E9467
:100D200076068C0F9D1FDF91CF9108950C94760667
:100D30008F929F92AF92BF920F931F93CF93DF93A7
:100D4000CDB7DEB7A1970FB6F894DEBF0FBECDBF0B
:100D500019A2423008F44AE08E010F5D1F4F842E25
:100D6000912CA12CB12CA50194010E948712E62F91
:100D7000B901CA0101501109EA3014F4E05D01C063
:100D8000E95CD801EC93232B242B252B61F7C801B8
:100D90000E947606A1960FB6F894DEBF0FBECDBFB7
:100DA000DF91CF911F910F91BF90AF909F908F9047
:100DB0000895CF92DF92EF92FF92CF93DF936B0172
:100DC0007C01E0912C04F0912D040190F081E02D44
:100DD0006DE28CE294E00995EC0166277727CB0160
:100DE0006C197D098E099F094AE00E9498068C0FB4
:100DF0009D1FDF91CF91FF90EF90DF90CF900895EE
:100E0000BC01990F880B990B97FD0C94D9064AE009
:100E10000C949806CF93DF938091E8049091E904B5
:100E2000DC01ED91FC910084F185E02D0995892B81
:100E300009F4B7C0C09106058091E8049091E904D7
:100E4000DC01ED91FC910284F385E02DC1110DC010
:100E500009958093F2048E37F9F610920C05809173
:100E600006058F5F80930605D7CF0995EC2FF0E03C
:100E7000E851FB4F8287909106059230A9F0993096
:100E8000C9F0913009F089C08091F3048F3F09F4D3
:100E900084C0109206059093080510920B051092DD
:100EA0000A0590930C05B3C08091F404863009F4D0
:100EB00074C004C08091FB048F3E19F010920605A7
:100EC00064C0E3EFF4E040E050E08191480F511D31
:100ED000B4E0E93FFB07C9F72091F90430E0322F75
:100EE00022275195419551098091FA04280F311D0F
:100EF000109206054217530709F047C0E091F50428
:100F0000E09309058091F70490E0982F88272091BD
:100F1000F804820F911D90930B0580930A054E2FC4
:100F200050E0FA01FA97E631F105C8F4EC5CFF4FA6
:100F30000C94711485E00DC081FF1CC084E009C0D1
:100F400081FF18C082E005C081FF14C083E001C0AA
:100F500086E08093080581E080930C050BC081E05A
:100F60008093080510920B0510920A0580930C05DA
:100F700010920D05D0910C05DD2309F44AC0809133
:100F80000005882309F443C044C081E0809308052C
:100F900010920B0510920A0538C09F5F90930605CA
:100FA0003BCF80910D05882321F12FB7F8948091D4
:100FB000280490912904A0912A04B0912B042FBFFA
:100FC0004091EA045091EB046091EC047091ED04BF
:100FD000841B950BA60BB70B4091EE045091EF04C8
:100FE0006091F0047091F10484179507A607B70784
:100FF00018F4D0910C050DC010920605109208054A
:1010000010920B0510920A0581E080930C05109256
:101010000D058D2FDF91CF9108950F931F93CF93DF
:10102000DF938C01C0E0D0E0F801EC0FFD1F64916C
:10103000662371F0E0912C04F0912D040190F08171
:10104000E02D8CE294E00995892B11F02196ECCFEC
:101050008FEA92E00E9476068C0F9D1FDF91CF9160
:101060001F910F91089590E0FC01E353FF4F3491DD
:10107000FC01E75FFE4F2491FC01EB50FF4FE49130
:10108000EE2309F43BC0332339F1333091F038F4C7
:101090003130A9F0323001F584B58F7D12C0373080
:1010A00091F03830A1F03430B9F4809180008F7D18
:1010B00003C0809180008F77809380000DC084B53D
:1010C0008F7784BD09C08091B0008F7703C0809175
:1010D000B0008F7D8093B000F0E0EE0FFF1FEF5166
:1010E000FF4FA591B4918FB7F894EC91611103C0B3
:1010F00020952E2301C02E2B2C938FBF0895CF93C4
:10110000DF9390E0FC01E75FFE4F2491FC01EB5080
:10111000FF4F8491882361F190E0880F991FFC01B3
:10112000ED53FF4FC591D491FC01EF51FF4FA591B5
:10113000B491611109C09FB7F894888120958223EA
:101140008883EC912E230BC0623061F49FB7F89432
:101150003881822F809583238883EC912E2B2C93CA
:101160009FBF06C08FB7F894E8812E2B28838FBFCE
:10117000DF91CF9108958E3008F08E508770806493
:1011800080937C0080917A00806480937A008091C3
:101190007A0086FDFCCF809178002091790090E064
:1011A000922B08958F929F92AF92BF92CF92DF922F
:1011B000EF92FF926B017C010E9451064B015C0192
:1011C000C114D104E104F104F1F00E945106DC01E4
:1011D000CB0188199909AA09BB09883E9340A1054A
:1011E000B10570F321E0C21AD108E108F10888EED8
:1011F000880E83E0981EA11CB11CC114D104E10427
:10120000F10419F7DDCFFF90EF90DF90CF90BF9002
:10121000AF909F908F9008958093FF047093010585
:1012200060930205EDEFF4E080E090E02191820F01
:10123000911D25E0E330F207C9F791958195910959
:10124000909303058093040580910005882339F06D
:1012500080910D05882349F00E940A07F9CF6AE0C2
:1012600070E080E090E00E94D2088091E8049091C4
:10127000E904DC01ED91FC910280F381E02D4AE06C
:1012800050E06CEF74E009952FB7F8948091280432
:1012900090912904A0912A04B0912B042FBF809330
:1012A000EA049093EB04A093EC04B093ED0481E086
:1012B00090910005911101C080E080930D05089583
:1012C0001F920F920FB60F9211242F933F938F937B
:1012D0009F93AF93BF938091280490912904A0918C
:1012E0002A04B0912B0430912A0523E0230F2D37D7
:1012F00020F40196A11DB11D05C026E8230F02961A
:10130000A11DB11D20932A058093280490932904E0
:10131000A0932A04B0932B04809124049091250477
:10132000A0912604B09127040196A11DB11D8093C0
:10133000240490932504A0932604B0932704BF911E
:10134000AF919F918F913F912F910F900FBE0F9072
:101350001F901895CF92DF92EF92FF920F931F93F9
:10136000E82FF92F05C0015011092109310961F158
:10137000908196239417B9F305C0015011092109F2
:10138000310911F1908196239413F7CFC12CD12C00
:10139000E12CF12C0AC08FEFC81AD80AE80AF80A23
:1013A0000C151D052E053F0579F0808186238417D5
:1013B00091F36C2D7D2D8E2D9F2D1F910F91FF9000
:1013C000EF90DF90CF90089560E070E080E090E0D3
:1013D0001F910F91FF90EF90DF90CF900895789438
:1013E00084B5826084BD84B5816084BD85B582602A
:1013F00085BD85B5816085BD80916E0081608093DB
:101400006E00109281008091810082608093810043
:101410008091810081608093810080918000816053
:10142000809380008091B10084608093B1008091AE
:10143000B00081608093B00080917A0084608093D6
:101440007A0080917A00826080937A0080917A009D
:10145000816080937A0080917A00806880937A001E
:101460001092C100E0913C04F0913D04D2E0D083A1
:10147000E0913804F09139041082E0913A04F0913F
:101480003B0488E0808310924404E0914004F09192
:10149000410486E08083E0913E04F0913F04808126
:1014A00080618083E0913E04F0913F0480818860F8
:1014B0008083E0913E04F0913F04808180688083C6
:1014C000E0913E04F0913F0480818F7D808380EE27
:1014D00091E00E94880661E085E00E947F0861E05B
:1014E00086E00E947F0861E083E00E947F0861E05F
:1014F00081E10E947F0861E082E10E947F0861E053
:1015000088E00E947F0861E088E00E94330861E083
:1015100081E10E94330861E082E10E94330881EAA0
:1015200084BDC1E0C5BD81E28093B000C093B1002D
:1015300080E18093810010928000D0930D0380E5BC
:1015400093EC90930C0380930B039093870080930C
:10155000860082E18093810064E670E080E090E0A4
:101560000E94D2088FEB92E09093C3028093C20254
:10157000C0936F008FEE91E00E9488061092E40401
:101580001092E3041092E2041092E1041092E0043D
:101590001092DF048DE991E09093E6048093E504D6
:1015A0009091D504963108F057C02DEB30E0309380
:1015B000E0042093DF042BE931E03093E204209330
:1015C000E1042CE231E03093E4042093E304209121
:1015D0006800983050F031E09E3008F430E081E04F
:1015E00001C0880F3A95EAF701C084E0822B80930E
:1015F0006800983038F09E3040F0963148F020E096
:1016000030E008C02DE630E005C02BE630E002C037
:101610002CE630E03093DD042093DC04983030F485
:1016200081E001C0880F9A95EAF70EC0292F30E0BB
:101630009E3018F42850310902C02E50310981E043
:1016400001C0880F2A95EAF78093DE048091E504B3
:101650009091E6040197F1F78091E3049091E404FE
:10166000892B21F18091C0029091C10224E0893C34
:101670009207E1F0009711F00E94B0048091E70416
:101680008E7F8093E7041092BF021092BE0289EC15
:1016900094E09093C1028093C002E091DC04F09149
:1016A000DD0490818091DE04892B80838CEA90E0B8
:1016B0000E940D0811E0C9ECD4E010930005D0930E
:1016C000E904C093E8048091EE049091EF04A091A6
:1016D000F004B091F1048854944FAF4FBF4F809302
:1016E000EE049093EF04A093F004B093F10460E053
:1016F00070E08CE00E940C0910930D050E940A070F
:101700008823E1F38091EE049091EF04A091F0041E
:10171000B091F104885B9B40A109B1098093EE046C
:101720009093EF04A093F004B093F10468EC70E0A0
:1017300080E090E00E94D20810920C05809108058C
:10174000843059F08AE990E00E940D0868EE73E059
:1017500080E090E00E94D208B0CF84E990E00E943F
:101760000D0860E088E00E9433086AE070E086E0DF
:101770000E940C0961E070E081E10E940C0961E0C7
:1017800081E10E94330860E082E10E943308412C2D
:1017900084E0582E612C712CC2E0D0E001E010E012
:1017A00094E1292E312C812C912CA12C2FE3B22EE7
:1017B00039E0C32ED12CF0900A03FF2009F4BCC0FD
:1017C00060E070E08EE00E940C098091CC02909164
:1017D000CD028130910551F104F5892B09F026C520
:1017E00088EF91E00E94880661E08DE00E94330856
:1017F00060E081E10E94330861E082E10E943308E9
:101800008091F2029091F30290930F0380930E0364
:101810001093CD020093CC0209C58230910559F195
:10182000039709F003C510920A0300C561E082E046
:101830000E94330880910E0390910F038C599F4FA3
:10184000092E000CAA0BBB0B4091F2025091F3023F
:101850006091F4027091F50284179507A607B70707
:101860000CF0E4C48AE092E00E948806D093CD0296
:10187000C093CC02DBC40E94B5056BE3E62E6DE09D
:10188000F62EC7010197F1F70E94B505C701019730
:10189000F1F70E94B505EAEFF2E0A4ECB2E0819125
:1018A0009191843091050CF003978D939D9333E0D3
:1018B000E230F307A1F786E192E00E94880680916A
:1018C000C4029091C5020E9400078DEA92E00E9436
:1018D00096068091C6029091C7020E9400078DEA89
:1018E00092E00E9496068091C8029091C9020E94DF
:1018F00000078DEA92E00E9496068091CA029091BC
:10190000CB020E9400078DEA92E00E94960660E0FA
:1019100081E10E94330861E082E10E94330843E0E4
:1019200050E05093CD024093CC0260E082E00E94F0
:10193000330810921E037AC480910903882321F092
:10194000109209030E94B50580910803811106C019
:1019500080910703882309F448C133C0109208031B
:10196000EEECF2E0AAEFB2E04081518182819381F6
:1019700024813581841795071CF02817390734F422
:10198000821793076CF04817590724F011969C931F
:101990008E9310C02417350734F4281739073CF00C
:1019A0004217530724F011963C932E9303C01196CF
:1019B0005C934E933696129652E0E63EF507A1F6FA
:1019C000C7CF109207038091F0029091F10282300C
:1019D000910531F0049709F008C10E94ED0405C19A
:1019E0002091150338B5822F90E0831B91091816BA
:1019F000190614F08FEF01C081E08093180388B5B9
:101A0000281302C0109218032091140337B5822FB7
:101A100090E0831B91091816190614F08FEF01C08E
:101A200081E08093170387B5281302C01092170333
:101A3000209113033091B400822F90E0831B910911
:101A40001816190614F08FEF01C081E08093160379
:101A50008091B400281302C010921603E09118037D
:101A6000E11108C080911703811104C08091160311
:101A7000882319F010921B030BC081E080931B0395
:101A80008091F2029091F3029093110380931003DE
:101A900080911B03811171C08091190390911A03E9
:101AA0000296092E000CAA0BBB0B4091F20250913A
:101AB000F3026091F4027091F50284179507A6076E
:101AC000B7070CF092C028B58E2F0E2E000C990B84
:101AD000BC01620F711D6F3F710509F04CF428B510
:101AE000820F911D97FD06C088B54E2F480F03C089
:101AF0004FEF01C040E048BD27B540911703842F48
:101B0000042E000C990BBC01620F711D6F3F710513
:101B100009F044F427B5820F911D97FD05C087B5E4
:101B2000480F03C04FEF01C040E047BD2091B40013
:101B300040911603842F042E000C990BBC01620FF8
:101B4000711D6F3F710509F054F42091B400820FAC
:101B5000911D97FD06C08091B400480F03C04FEF60
:101B600001C040E04093B4008091F2029091F302F2
:101B700090931A038093190338C080911E03882321
:101B800041F010921503109214031092130360E0B9
:101B900029C087E292E00E94880680911203863075
:101BA00010F48F5F01C080E08093120340912A03FC
:101BB00090E09C01220F331FF901E80FF91F75E136
:101BC000479FE00DF11D1124E65FFE4F8081809359
:101BD00015038181809314038281809313031092F3
:101BE0001B0361E082E00E94330880910603882392
:101BF00009F47AC01092060380913C0390913D0352
:101C00000097D1F0019709F046C0809102019091B0
:101C1000030144973CF43092200320921F0310925A
:101C20002A0339C080E190E09093200380931F0342
:101C300085E080932A032FC080913A0390913B0363
:101C4000019749F580910001909101018C33910534
:101C50003CF48BE090E09093200380931F0307C037
:101C6000D0922003C0921F038035910514F486E0C2
:101C700001C087E080932A0380911F039091200385
:101C80008B30910514F4019602C08BE090E09093A4
:101C9000200380931F0360911C0370911D038091AA
:101CA0001F0390912003681779071CF46F5F7F4F23
:101CB00005C08617970774F46150710970931D036E
:101CC00060931C03772786E00E940C0960E088E09F
:101CD0000E94330880911C0390911D03892B21F4ED
:101CE00061E088E00E94330880910503882309F4AD
:101CF0001AC11092050380913C0390913D038130FD
:101D00009105D1F082309105A1F1892B09F05FC0D6
:101D100061E070E088E290E00E947E05882309F48B
:101D200056C0D093F102C093F00210922A0361E0F2
:101D30008DE00E94330847C061E070E088E290E0E7
:101D40000E947E05811143C0D0933D03C0933C03A4
:101D50008091F2029091F302A091F402B091F50209
:101D60008093250390932603A0932703B093280321
:101D70002EC08091250390912603A0912703B09156
:101D8000280388539F4FAF4FBF4F4091F2025091AD
:101D9000F3026091F4027091F50284179507A6078B
:101DA000B7074CF460E08DE00E94330810923D03C9
:101DB00010923C030CC061E070E088E290E00E9469
:101DC0007E05882321F010933D0300933C0380910E
:101DD0003A0390913B038130910511F182309105D6
:101DE00009F442C0892B09F092C062E070E08AE5F4
:101DF00090E00E947E05882309F489C010933B037C
:101E000000933A0381E392E00E94880660E088E054
:101E10000E94330860E070E081E00E940C0977C006
:101E2000D093F102C093F00282E080932A0362E033
:101E300070E08AE590E00E947E05811168C0D09331
:101E40003B03C0933A038091F2029091F302A09178
:101E5000F402B091F5028093210390932203A093A2
:101E60002303B093240353C0809121039091220354
:101E7000A0912303B091240380579E4FAF4FBF4FD3
:101E80004091F2025091F3026091F4027091F502D8
:101E900084179507A607B7076CF460E070E08EE042
:101EA0000E940C098EE492E00E94880610923B0387
:101EB00010923A038091210390912203A091230371
:101EC000B091240388539F4FAF4FBF4F4091F20210
:101ED0005091F3026091F4027091F5028417950716
:101EE000A607B70724F41092200310921F0362E0A4
:101EF00070E08AE590E00E947E05882341F010930F
:101F00003B0300933A0387E692E00E9488068091A3
:101F10003C0390913D03892B21F4F090290381E04B
:101F2000F826F0921E0380910403882309F4E3C08D
:101F30001092040386E00E94BB08909333038093C1
:101F4000320321E0853893400CF020E020933103E8
:101F50008091F6029091F7028230910509F483C0D6
:101F60002CF4009769F00197D9F0C5C08430910531
:101F700009F4BBC00CF4B9C0059709F4B6C0BBC0E6
:101F8000222309F4B8C08091F2029091F302909359
:101F9000300380932F031093F7020093F602ABC037
:101FA00021110DC08091F2029091F30290932E03C3
:101FB00080932D03D093F702C093F6029CC040910A
:101FC000F2025091F3026091F4027091F502809157
:101FD0002F03909130038C599F4F092E000CAA0BB0
:101FE000BB0B84179507A607B7070CF084C0809138
:101FF000F0029091F1028230910529F584E090E0A1
:102000009093F1028093F0024093EC025093ED0222
:102010006093EE027093EF025093EB024093EA025A
:1020200024E630E03093E9022093E8023092E702A0
:102030002092E6028092040190920501A09206018E
:10204000B092070104C0049711F40E94ED0460E00F
:1020500070E088E10E940C0945E050E05093F702DF
:102060004093F60248C02223E9F08091F202909159
:10207000F30290932C0380932B0380912A038730E3
:1020800011F08F5F01C080E080932A0360E070E070
:1020900081E00E940C0964E070E07093F7026093A5
:1020A000F60229C080912D0390912E034496092EAB
:1020B000000CAA0BBB0B4091F2025091F30260910D
:1020C000F4027091F50284179507A607B7079CF4F0
:1020D0009091290381E089278093290383E090E090
:1020E0009093F7028093F60206C0211104C010926B
:1020F000F7021092F60280910303882309F445C089
:102100001092030387E00E94BB08909339038093E9
:1021100038032EE838E0DC010E947714A301920115
:102120000E946812C90130933703209336038C3420
:1021300024E092072CF4D093F902C093F8020CC06B
:10214000803B94402CF41093F9020093F80204C0F1
:102150001092F9021092F8028091F8029091F9021F
:10216000009751F08330910561F49093350380938B
:10217000340386E792E007C0D0933503C09334035D
:1021800004C088E892E00E948806809102038823B8
:1021900009F44CC01092020387E992E00E9496066F
:1021A00080913C0390913D030E9400078CE992E0EE
:1021B0000E94960680913A0390913B030E9400078B
:1021C00083EA92E00E9496068091FA029091FB02C7
:1021D0000E9400078CEA92E00E9496068091FC0221
:1021E0009091FD020E9400078CEA92E00E94960600
:1021F0008091FE029091FF020E9400078CEA92E01B
:102200000E9496066091000370910103072E000C56
:10221000880B990B97FF03C00E94D90603C04AE0C0
:102220000E9498068FEA92E00E9476060E94B7010B
:10223000C2CA82ED91E09093CA048093C90489ECEC
:1022400094E00C94B0048F929F92AF92BF92CF9281
:10225000DF92EF92FF92CF93DF9310922F041092B0
:102260002E0498EE892E93E0992EA12CB12C809209
:10227000300490923104A0923204B092330480EC86
:1022800091E090932D0480932C0485EC90E0909342
:1022900039048093380484EC90E090933B0480935D
:1022A0003A0480EC90E090933D0480933C0481ECF0
:1022B00090E090933F0480933E0482EC90E09093F2
:1022C00041048093400486EC90E090934304809313
:1022D0004204109245041092460410924704109252
:1022E000480410922505C3E1C0932305DAE0D0939A
:1022F000240561E083E10E947F0860E0809124056D
:102300000E947F0820E2C22E2EE4D22EE12CF12C76
:10231000C0922605D0922705E0922805F092290563
:1023200010921E05C0931C058EE080931D0561E090
:1023300083E10E947F0860E080911D050E947F0874
:10234000C0921F05D0922005E0922105F09222054F
:1023500010921705C09315058FE08093160561E074
:1023600083E10E947F0860E0809116050E947F084B
:10237000C0921805D0921905E0921A05F0921B053B
:1023800010921005C0930E0580E180930F0561E067
:1023900083E10E947F0860E080910F050E947F0822
:1023A000C0921105D0921205E0921305F092140527
:1023B00084EF91E0A0E0B0E08093EE049093EF040E
:1023C000A093F004B093F104E2EBF1E0ACEFB4E0E1
:1023D00001900D92DA95E1F71092060582E0809364
:1023E000070510920C0510920D051092CC04109266
:1023F000CB048092CD049092CE04A092CF04B092F0
:10240000D00482ED91E09093CA048093C9041092A5
:10241000E0041092DF041092E2041092E1041092A2
:10242000E4041092E3041092E6041092E504609133
:10243000E7046E7F6D7F6093E7046695617081E0CD
:10244000682784E00E94330861E084E00E947F08EE
:10245000EDE0F1E0E491E093D904E9EFF0E0E491FC
:10246000F0E0EE0FFF1FEF51FF4F85919491909395
:10247000DB048093DA0460E087E00E947F088091AB
:10248000E70481FD04C061E087E00E94330887E033
:102490008093D504E0E1F1E0E491E093D604ECEF21
:1024A000F0E0E491F0E0EE0FFF1FE551FF4F859162
:1024B00094919093D8048093D704DF91CF91FF90AB
:1024C000EF90DF90CF90BF90AF909F908F90089546
:1024D000052E97FB1EF400940E947F1257FD07D033
:1024E0000E94871207FC03D04EF40C947F12509583
:1024F0004095309521953F4F4F4F5F4F08959095F0
:102500008095709561957F4F8F4F9F4F0895A1E201
:102510001A2EAA1BBB1BFD010DC0AA1FBB1FEE1F5D
:10252000FF1FA217B307E407F50720F0A21BB30BA8
:10253000E40BF50B661F771F881F991F1A9469F724
:1025400060957095809590959B01AC01BD01CF0180
:102550000895A29FB001B39FC001A39F700D811D7C
:102560001124911DB29F700D811D1124911D08959C
:102570005058BB27AA270E94D0120C94A2130E9485
:10258000941338F00E949B1320F039F49F3F19F404
:1025900026F40C9491130EF4E095E7FB0C948B1346
:1025A000E92F0E94B31358F3BA1762077307840721
:1025B000950720F079F4A6F50C94D5130EF4E09568
:1025C0000B2EBA2FA02D0B01B90190010C01CA01ED
:1025D000A0011124FF27591B99F0593F50F4503E98
:1025E00068F11A16F040A22F232F342F4427585F8A
:1025F000F3CF469537952795A795F0405395C9F7A2
:102600007EF41F16BA0B620B730B840BBAF0915059
:10261000A1F0FF0FBB1F661F771F881FC2F70EC0F8
:10262000BA0F621F731F841F48F4879577956795CB
:10263000B795F7959E3F08F0B0CF9395880F08F0B7
:102640009927EE0F9795879508950E94671308F4D0
:1026500081E00895E89409C097FB3EF49095809539
:10266000709561957F4F8F4F9F4F9923A9F0F92F58
:1026700096E9BB279395F695879577956795B795D6
:10268000F111F8CFFAF4BB0F11F460FF1BC06F5FBC
:102690007F4F8F4F9F4F16C0882311F096E911C0CE
:1026A000772321F09EE8872F762F05C0662371F0EF
:1026B00096E8862F70E060E02AF09A95660F771F03
:1026C000881FDAF7880F9695879597F90895990FDF
:1026D0000008550FAA0BE0E8FEEF16161706E807EC
:1026E000F907C0F012161306E407F50798F0621B0D
:1026F000730B840B950B39F40A2661F0232B242BE2
:10270000252B21F408950A2609F4A140A6958FEF00
:10271000811D811D089597F99F6780E870E060E052
:1027200008959FEF80EC089500240A94161617066A
:1027300018060906089500240A94121613061406B2
:1027400005060895092E0394000C11F4882352F015
:10275000BB0F40F4BF2B11F460FF04C06F5F7F4FCD
:102760008F4F9F4F089557FD9058440F551F59F0B4
:102770005F3F71F04795880F97FB991F61F09F3F6E
:1027800079F087950895121613061406551FF2CF97
:102790004695F1DF08C0161617061806991FF1CFE7
:1027A00086957105610508940895E894BB2766270E
:1027B0007727CB0197F908950E94EF130C94A21389
:1027C0000E94941338F00E949B1320F0952311F07F
:1027D0000C948B130C94911311240C94D6130E9417
:1027E000B31370F3959FC1F3950F50E0551F629F8F
:1027F000F001729FBB27F00DB11D639FAA27F00D5A
:10280000B11DAA1F649F6627B00DA11D661F829F80
:102810002227B00DA11D621F739FB00DA11D621F65
:10282000839FA00D611D221F749F3327A00D611D82
:10283000231F849F600D211D822F762F6A2F112464
:102840009F5750409AF0F1F088234AF0EE0FFF1F97
:10285000BB1F661F771F881F91505040A9F79E3FEE
:10286000510580F00C948B130C94D6135F3FE4F366
:10287000983ED4F3869577956795B795F795E79544
:102880009F5FC1F7FE2B880F911D9695879597F94D
:102890000895AA1BBB1B51E107C0AA1FBB1FA617A7
:1028A000B70710F0A61BB70B881F991F5A95A9F7F9
:1028B00080959095BC01CD01089597FB072E16F4E5
:1028C000009407D077FD09D00E94491407FC05D079
:1028D0003EF4909581959F4F0895709561957F4F37
:1028E0000895EE0FFF1F0590F491E02D09940E94CA
:1028F000A912B7FF0895821B930B089510E0C0E959
:10290000D0E004C0FE010E9471142196C139D107A4
:06291000C9F7F894FFCFA7
:10291600900190010000003F90010000FFFFFFFFC3
:10292600FF000000FF000000FFFFFF005050508D29
:102936006E63FF5722FF6F00CDDC394CAF50009617
:10294600887E57C2007D00007D417D7D007D41006F
:1029560000410000417D00007D0000FFFF28FFFFD1
:1029660000009628321400FFFF6414646464D76480
:1029760000D7A7247878783246FF00A0FF3C28824B
:102986007850280000C8C8C8C8C8000000C80000A1
:1029960000C8C8C80032323200006464646464004F
:1029A600000064000000646464003232320000FFFC
:1029B600FFFFFFFF000000FF000000FFFFFF0050C9
:1029C60050507EFF06000100000000EF00000000EE
:1029D6004E01BB00E60095011701F5000901000054
:1029E6000000DA01BB006802D9012E024602C101CD
:1029F60073657269616C20656E61626C6564006501
:102A06006E61206D75746500496E697469616C202C
:102A160063616C69627261746500357320656C610F
:102A260070736564210043616C69627261746564E8
:102A360020776974683A00636F6C6F722063686709
:102A46000072616E646F6D416C6C202D207A6F6E22
:102A560065322069646C652D3E2054274400706100
:102A6600757365202D207A6F6E65322069646C65FA
:102A76002D3E205427440074696D656F7574202DB2
:102A86003E2054274400566F6C746167652043727C
:102A960069746963616C2100566F6C7461676520A7
:102AA600746573746564007A313A200009207A32BD
:102AB6003A2000092009636D2D733A000909000DBB
:0E2AC6000A00736F66742072657365740000F9
:00000001FF
