:100000000C948E000C94B6000C94B6000C94510421
:100010000C9451040C9451040C94B6000C94B6004A
:100020000C94B6000C94B6000C94B6000C94B60078
:100030000C94B6000C94CB040C94B6000C94B6004F
:100040000C94AF030C94B6000C941F040C94F903A9
:100050000C94B6000C94B6000C94B6000C94B60048
:100060000C94B6000C94B6002A062E06350624061B
:1000700035062606320642063506350635063506AD
:100080003506350635063506390635063506350694
:1000900035063506556E61626C6520746F20636F9E
:1000A0006E6E65637400496E697469616C697A6922
:1000B0006E672C204446506C617965720000000028
:1000C00000240027002A00000000080002010000B0
:1000D00003040700000000000000000000000025ED
:1000E0000028002B00000000002300260029000447
:1000F00004040404040404020202020202030303CF
:1001000003030301020408102040800102040810C8
:100110002001020408102000230E190E11241FBE16
:10012000CFEFD8E0DEBFCDBF12E0A0E0B1E0EEEF50
:10013000FFE102C005900D92A436B107D9F723E084
:10014000A4E6B2E001C01D92A73FB207E1F710E0BC
:10015000CDE8D0E004C02197FE010E94E00FCC382A
:10016000D107C9F70E94D0070C94F20F0C9400003D
:100170008E3008F08E508770806480937C00809170
:100180007A00806480937A0080917A0086FDFCCFAB
:10019000809178002091790090E0922B08953FB7EC
:1001A000F8948091F1029091F202A091F302B09143
:1001B000F40226B5A89B05C02F3F19F00196A11D9A
:1001C000B11D3FBFBA2FA92F982F8827820F911DED
:1001D000A11DB11DBC01CD0142E0660F771F881F34
:1001E000991F4A95D1F708952091B1023091B2023A
:1001F0002F5F3F4F3093B2022093B1028091D9021A
:100200009091DA02A091DB02B091DC020196A11D6F
:10021000B11D8093D9029093DA02A093DB02B093D0
:10022000DC028091B3029091B402039719F081E04F
:100230008093EC0220FD03C081E08093ED02C901B0
:1002400064E170E00E94B80F892B19F481E080937B
:10025000EB02C90164E670E00E94B80F892B19F423
:1002600081E08093EE020895CF92DF92EF92FF92A9
:100270000F931F93CF93DF936C017A018B01C0E042
:10028000D0E0CE15DF0589F0D8016D918D01D60142
:10029000ED91FC910190F081E02DC6010995892B2B
:1002A00011F47E0102C02196ECCFC701DF91CF91FE
:1002B0001F910F91FF90EF90DF90CF900895FC0178
:1002C000538D448D252F30E0842F90E0821B930BBB
:1002D000541710F0CF96089501970895FC01918D61
:1002E000828D981761F0828DDF01A80FB11D5D9698
:1002F0008C91928D9F5F9F73928F90E008958FEF06
:100300009FEF0895FC01918D828D981731F0828DB9
:10031000E80FF11D858D90E008958FEF9FEF089510
:10032000FC01918D228D892F90E0805C9F4F821B74
:1003300091098F739927089589EF92E00E949001A7
:1003400021E0892B09F420E0822F0895FC01848D9F
:10035000DF01A80FB11DA35ABF4F2C91848D90E0EF
:1003600001968F739927848FA689B7892C93A089CA
:10037000B1898C9180648C93938D848D981306C081
:100380000288F389E02D80818F7D80830895EF922C
:10039000FF920F931F93CF93DF93EC0181E0888F3F
:1003A0009B8D8C8D981305C0E889F989808185FD26
:1003B00024C0F62E0B8D10E00F5F1F4F0F73112717
:1003C000E02E8C8DE8120CC00FB607FCFACFE8893E
:1003D000F989808185FFF5CFCE010E94A601F1CF7A
:1003E0008B8DFE01E80FF11DE35AFF4FF0820B8F5A
:1003F000EA89FB898081806207C0EE89FF8960837A
:10040000E889F98980818064808381E090E0DF91D0
:10041000CF911F910F91FF90EF900895CF93DF93AD
:10042000EC01888D8823C9F0EA89FB89808185FDEC
:1004300005C0A889B9898C9186FD0FC00FB607FC4D
:10044000F5CF808185FFF2CFA889B9898C9185FF8E
:10045000EDCFCE010E94A601E7CFDF91CF910895A5
:1004600080E090E0892B29F00E949C0181110C947E
:10047000000008952091A8023091A9022817390799
:1004800071F49091A6028091A702981741F0E09133
:10049000A602F0E0EA59FD4F808190E008958FEFC9
:1004A0009FEF089508951F93CF93DF93DC015C962F
:1004B0002D913C915D972115310539F481E090E053
:1004C00013969C938E9312973DC05196ED91FC919B
:1004D000529750969C915097892F80951FB75E96A2
:1004E0004C915E9741FB772770F941FD6095F89438
:1004F0004081772311F0492B01C048234083E90153
:100500002197F1F748E0508160FF02C0592B01C0EC
:1005100058235083E9012197F1F76695415099F7E7
:10052000772321F090818923808303C08081982BD9
:1005300090831FBF5C968D919C915D970197F1F719
:1005400021E030E0C901DF91CF911F910895209102
:10055000A8023091A9022817390771F48091A702E7
:100560002091A60290E0805C9F4F821B910960E47D
:1005700070E00E94CC0F089580E090E008952091F3
:10058000A8023091A90228173907B9F49091A60260
:100590008091A702981789F0E091A602F0E0EA594D
:1005A000FD4F80812091A60230E02F5F3F4F2F73D7
:1005B00033272093A60290E008958FEF9FEF0895D0
:1005C000E091A802F091A902E817F90769F4A3895C
:1005D000B4899C918589809589238C931092A90276
:1005E0001092A80281E0089580E00895089580E0C7
:1005F00090E008959C018091E4029091E502853598
:1006000091051CF482179307B4F08091E202909157
:10061000E302853591051CF48217930764F040913D
:10062000E0025091E1024C3351053CF481E0421765
:10063000530724F002C081E0089580E008950E94ED
:10064000ED0F0F931F93CF93DF93EC018A818823E3
:1006500021F061E088810E944F0760E088810E945C
:10066000030783E090E00197F1F761E088810E9441
:10067000030783E290E00197F1F760E088810E9430
:1006800003078A81882321F060E088810E944F0758
:10069000298130E0F901ED5FFE4F6491F901E151EC
:1006A000FF4FE491F0E0EE0FFF1FEB51FF4F8591FC
:1006B00094910B811C812D813E813F70462F0E94B9
:1006C0008B07611571058105910539F0DC01CB01BE
:1006D0000196A11DB11DBF7003C080E090E0DC0158
:1006E000DF91CF911F910F9108958F929F92AF92BA
:1006F000BF92CF92DF92EF92FF926B017C010E943A
:10070000CF004B015C01C114D104E104F104F1F00C
:100710000E94CF00DC01CB0188199909AA09BB0905
:10072000883E9340A105B10570F321E0C21AD108BB
:10073000E108F10888EE880E83E0981EA11CB11C28
:10074000C114D104E104F10419F7DDCFFF90EF905B
:10075000DF90CF90BF90AF909F908F9008951F92A1
:100760000F920FB60F9211242F933F938F939F9365
:10077000AF93BF938091F5029091F602A091F7029A
:10078000B091F8023091F00223E0230F2D3720F4CE
:100790000196A11DB11D05C026E8230F0296A11DDB
:1007A000B11D2093F0028093F5029093F602A0937E
:1007B000F702B093F8028091F1029091F202A091B9
:1007C000F302B091F4020196A11DB11D8093F102D4
:1007D0009093F202A093F302B093F402BF91AF9111
:1007E0009F918F913F912F910F900FBE0F901F906F
:1007F00018951F920F920FB60F9211242F933F93CB
:100800004F935F936F937F938F939F93AF93BF9318
:10081000EF93FF9389EF92E00E94A601FF91EF9181
:10082000BF91AF919F918F917F916F915F914F9108
:100830003F912F910F900FBE0F901F9018951F9210
:100840000F920FB60F9211242F938F939F93EF93D4
:10085000FF93E0910903F0910A038081E0910F0377
:10086000F091100382FD12C09081809112038F5F7E
:100870008F7320911303821751F0E0911203F0E07F
:10088000E750FD4F958F8093120301C08081FF9147
:10089000EF919F918F912F910F900FBE0F901F900E
:1008A00018951F920F920FB60F9211242F933F931A
:1008B0004F935F936F937F938F939F93AF93BF9368
:1008C000EF93FF93E091A802F091A902309709F409
:1008D00051C0968DA685B785858591FF04C09C91F2
:1008E000892329F447C09C91892309F043C0A38937
:1008F000B4899C918589809589238C938689978971
:100900000197F1F7608D718DA685B785558538E023
:1009100020E0CB010197F1F7822F90E09595879524
:10092000282F4C91452309F02068315091F7868D8E
:1009300081FD20958091A70290E001968F73992701
:100940003091A602381749F0A091A702B0E0AA5949
:10095000BD4F2C938093A70203C0868D8160868F44
:10096000828D938D0197F1F7A389B4899C91858934
:10097000892B8C93FF91EF91BF91AF919F918F91B4
:100980007F916F915F914F913F912F910F900FBE8B
:100990000F901F9018951F920F920FB60F9211246F
:1009A0002F933F934F935F936F937F938F939F9377
:1009B000AF93BF93EF93FF93E091AA02F091AB0244
:1009C0000995FF91EF91BF91AF919F918F917F9189
:1009D0006F915F914F913F912F910F900FBE0F90AC
:1009E0001F901895009769F0FC0101900020E9F72D
:1009F0003197AF01481B590BBC0189EF92E00C9471
:100A0000340180E090E00895CF93DF930E94F204D8
:100A1000EC0180E692E00E94F2048C0F9D1FDF91B2
:100A2000CF9108958F929F92AF92BF920F931F9391
:100A3000CF93DF93CDB7DEB7A1970FB6F894DEBFA3
:100A40000FBECDBF19A2423008F44AE08E010F5DFF
:100A50001F4F842E912CA12CB12CA50194010E9432
:100A6000870FE62FB901CA0101501109EA3014F4C9
:100A7000E05D01C0E95CD801EC93232B242B252BEE
:100A800061F7C8010E94F204A1960FB6F894DEBF88
:100A90000FBECDBFDF91CF911F910F91BF90AF904F
:100AA0009F908F900895CF92DF92EF92FF92CF9315
:100AB000DF936B017C01E091F902F091FA02019061
:100AC000F081E02D6DE289EF92E00995EC01662757
:100AD0007727CB016C197D098E099F094AE00E9496
:100AE00012058C0F9D1FDF91CF91FF90EF90DF904B
:100AF000CF900895CF93DF93BC01990F880B990B8A
:100B000097FF03C00E94530503C04AE00E941205EC
:100B1000EC0180E692E00E94F2048C0F9D1FDF91B1
:100B2000CF9108950C94F204CF93DF938091B50395
:100B30009091B603DC01ED91FC910084F185E02DEC
:100B40000995892B09F4B7C0C091D3038091B503EF
:100B50009091B603DC01ED91FC910284F385E02DC8
:100B6000C1110DC009958093BF038E37F9F610921D
:100B7000D9038091D3038F5F8093D303D7CF099597
:100B8000EC2FF0E0EB54FC4F82879091D30392302E
:100B9000A9F09930C9F0913009F089C08091C00363
:100BA0008F3F09F484C01092D3039093D503109221
:100BB000D8031092D7039093D903B3C08091C10397
:100BC000863009F474C004C08091C8038F3E19F0C8
:100BD0001092D30364C0E0ECF3E040E050E0819178
:100BE000480F511DB3E0E63CFB07C9F72091C6034F
:100BF00030E0322F22275195419551098091C7034A
:100C0000280F311D1092D3034217530709F047C034
:100C1000E091C203E093D6038091C40390E0982F43
:100C200088272091C503820F911D9093D80380934C
:100C3000D7034E2F50E0FA01FA97E631F105C8F4D8
:100C4000EC5CFF4F0C94E00F85E00DC081FF1CC0F1
:100C500084E009C081FF18C082E005C081FF14C094
:100C600083E001C086E08093D50381E08093D903BF
:100C70000BC081E08093D5031092D8031092D70364
:100C80008093D9031092DA03D091D903DD2309F4BC
:100C90004AC08091CD03882309F443C044C081E059
:100CA0008093D5031092D8031092D70338C09F5F6A
:100CB0009093D3033BCF8091DA03882321F12FB7A0
:100CC000F8948091F5029091F602A091F702B0910C
:100CD000F8022FBF4091B7035091B8036091B90358
:100CE0007091BA03841B950BA60BB70B4091BB0305
:100CF0005091BC036091BD037091BE0384179507AA
:100D0000A607B70718F4D091D9030DC01092D303EA
:100D10001092D5031092D8031092D70381E08093EC
:100D2000D9031092DA038D2FDF91CF91089580912E
:100D3000CD03882339F08091DA03882349F00E949B
:100D40009405F9CF6AE070E080E090E00E947503BE
:100D50008091B5039091B603DC01ED91FC91028086
:100D6000F381E02D4AE050E069EC73E009952FB77C
:100D7000F8948091F5029091F602A091F702B0915B
:100D8000F8022FBF8093B7039093B803A093B903E1
:100D9000B093BA0381E09091CD03911101C080E03E
:100DA0008093DA030895BC01990F880B990B97FD86
:100DB0000C9453054AE00C9412050F931F93CF93A4
:100DC000DF938C01C0E0D0E0F801EC0FFD1F6491CF
:100DD000662371F0E091F902F091FA020190F0813E
:100DE000E02D89EF92E00995892B11F02196ECCF47
:100DF00080E692E00E94F2048C0F9D1FDF91CF915C
:100E00001F910F91089590E0FC01E953FF4F349139
:100E1000FC01ED5FFE4F2491FC01E151FF4FE49195
:100E2000EE2309F43BC0332339F1333091F038F429
:100E30003130A9F0323001F584B58F7D12C03730E2
:100E400091F03830A1F03430B9F4809180008F7D7A
:100E500003C0809180008F77809380000DC084B59F
:100E60008F7784BD09C08091B0008F7703C08091D7
:100E7000B0008F7D8093B000F0E0EE0FFF1FE552D1
:100E8000FF4FA591B4918FB7F894EC91611103C015
:100E900020952E2301C02E2B2C938FBF0895CF9326
:100EA000DF9390E0FC01ED5FFE4F2491FC01E151E6
:100EB000FF4F8491882361F190E0880F991FFC0116
:100EC000E354FF4FC591D491FC01E552FF4FA5912A
:100ED000B491611109C09FB7F8948881209582234D
:100EE0008883EC912E230BC0623061F49FB7F89495
:100EF0003881822F809583238883EC912E2B2C932D
:100F00009FBF06C08FB7F894E8812E2B28838FBF30
:100F1000DF91CF910895CF92DF92EF92FF920F93DE
:100F20001F93E82FF92F05C001501109210931093C
:100F300061F1908196239417B9F305C0015011090E
:100F40002109310911F1908196239413F7CFC12C17
:100F5000D12CE12CF12C0AC08FEFC81AD80AE80A6C
:100F6000F80A0C151D052E053F0579F080818623B2
:100F7000841791F36C2D7D2D8E2D9F2D1F910F9138
:100F8000FF90EF90DF90CF90089560E070E080E0F8
:100F900090E01F910F91FF90EF90DF90CF90089518
:100FA000789484B5826084BD84B5816084BD85B544
:100FB000826085BD85B5816085BD80916E00816050
:100FC00080936E00109281008091810082608093F6
:100FD00081008091810081608093810080918000F8
:100FE0008160809380008091B10084608093B10023
:100FF0008091B00081608093B00080917A0084601D
:1010000080937A0080917A00826080937A00809148
:101010007A00816080937A0080917A008068809362
:101020007A001092C100E0910903F0910A03C2E036
:10103000C083E0910503F09106031082E09107035D
:10104000F091080300E1008310921103E0910D0379
:10105000F0910E0316E01083E0910B03F0910C0366
:10106000808180618083E0910B03F0910C0380818B
:1010700088608083E0910B03F0910C03808180688D
:101080008083E0910B03F0910C0380818F7D80833E
:101090008FE691E00E94040561E083E00E944F0723
:1010A00061E085E00E944F0761E086E00E944F0703
:1010B00061E08DE00E944F0761E08DE00E94030730
:1010C00081EA84BDD1E0D5BD81E28093B000D093A8
:1010D000B1000093810010928000C093AE0280E5C1
:1010E00093EC9093AD028093AC0290938700809331
:1010F000860082E18093810064E670E080E090E009
:101100000E94750384EF90E09093AB028093AA0253
:10111000D0936F00E0910903F0910A03C083E0913E
:101120000503F09106031082E0910703F091080394
:101130008FEC808310921103E0910D03F0910E0368
:101140001083E0910B03F0910C0380818061808318
:10115000E0910B03F0910C03808188608083E09123
:101160000B03F0910C03808180688083E0910B0376
:10117000F0910C0380818F7D80838EE791E00E9447
:1011800004051092B1031092B0031092AF031092B5
:10119000AE031092AD031092AC038DE991E09093F1
:1011A000B3038093B2039091A203963108F057C025
:1011B0002DEB30E03093AD032093AC032BE931E00D
:1011C0003093AF032093AE032CE231E03093B103B0
:1011D0002093B00320916800983050F031E09E30A9
:1011E00008F430E081E001C0880F3A95EAF701C0C9
:1011F00084E0822B80936800983038F09E3040F075
:10120000963148F020E030E008C02DE630E005C01F
:101210002BE630E002C02CE630E03093AA032093A6
:10122000A903983030F481E001C0880F9A95EAF75D
:101230000EC0292F30E09E3018F42850310902C02A
:101240002E50310981E001C0880F2A95EAF780937A
:10125000AB038091B2039091B3030197F1F78091B2
:10126000B0039091B103892B21F18091A802909154
:10127000A90223E086399207E1F0009711F00E945D
:10128000E0028091B4038E7F8093B4031092A70292
:101290001092A60286E993E09093A9028093A80297
:1012A000E091A903F091AA0390818091AB03892B6F
:1012B000808386EA90E00E94DD0611E0C6E9D3E073
:1012C0000CE01093CD03D093B603C093B503809187
:1012D000BB039091BC03A091BD03B091BE038854A1
:1012E000944FAF4FBF4F8093BB039093BC03A09329
:1012F000BD03B093BE030093CC031092CE031092B3
:10130000CF03EAECF3E080E090E02191820F911DA1
:1013100033E0E03DF307C9F79195819591099093EA
:10132000D0038093D1030E9497061093DA030E94A2
:1013300094058823E1F38091BB039091BC03A091B5
:10134000BD03B091BE03885B9B40A109B1098093A6
:10135000BB039093BC03A093BD03B093BE0368ECA2
:1013600070E080E090E00E9475031092D9038091B4
:10137000D503843059F084E990E00E94DD0668EEE0
:1013800073E080E090E00E9475039BCF04E010E0E2
:101390001093D3020093D2028091D9029091DA0285
:1013A0009093CE028093CD029093CA028093C9029B
:1013B000C4E6D0E0D093CC02C093CB0284E190E0AD
:1013C0009093C8028093C70210920101109200010D
:1013D0008FE492E00E94040585E590E00E94D30628
:1013E00087EA91E00E94920585E590E00E94D3068D
:1013F00087EA91E00E9492058CE390E00E94D30678
:1014000087EA91E00E9492058FE590E00E947A05BC
:101410001093D3020093D2028091D9029091DA0204
:101420009093CE028093CD029093CA028093C9021A
:10143000D093CC02C093CB0288E290E09093C80294
:101440008093C70210920101109200018CE1C82E16
:10145000D12C91E9E92EFF24F394412C24E0522E63
:10146000612C712C02E010E0C1E0D0E034E0232ECA
:10147000312C8091EF02882309F468C01092EF02AA
:1014800080EF93E00E942103B6010E94B80F769589
:1014900067956115710529F07093E5026093E40288
:1014A00004C0F092E502E092E40268EE73E080E0AE
:1014B00090E00E94750389EE93E00E942103B6013B
:1014C0000E94B80F769567956115710529F07093A4
:1014D000E3026093E20204C0F092E302E092E202CF
:1014E00068EE73E080E090E00E94750382EE93E086
:1014F0000E942103B6010E94B80F76956795611589
:10150000710529F07093E1026093E00204C0F0924B
:10151000E102E092E00268EE73E080E090E00E9479
:1015200075038BED93E00E942103B6010E94B80F72
:10153000769567956115710529F07093DF026093C8
:10154000DE0204C0F092DF02E092DE028091EE0241
:10155000882309F458C01092EE0287E00E94B80078
:101560009093B8028093B7022EE838E0DC010E9425
:10157000E60FA30192010E94680F3093B6022093F8
:10158000B5022E3631052CF41093B4020093B30249
:101590000CC0283731052CF4D093B402C093B302A9
:1015A00004C01092B4021092B3022091B3023091A1
:1015B000B40221153105A1F02330310501F58091E8
:1015C000B1029091B2026AE070E00E94B80F892BDC
:1015D000D1F43093B0022093AF0287E891E011C0BC
:1015E0001093B0020093AF0289E991E00E94920546
:1015F0008091B5029091B6020E947A0504C089EAF2
:1016000091E00E9404058091ED02882309F4E9C06D
:101610001092ED0286E00E94B8009093C30280937E
:10162000C20221E0853893400CF020E02093C102F3
:101630008091BF029091C0028230910509F47BC075
:1016400034F4009791F1019709F441C0CAC0843085
:10165000910509F4A7C00CF49EC0059709F0C1C01C
:101660003092D3022092D2028091D9029091DA0274
:101670009093CE028093CD029093CA028093C902C8
:1016800084E690E09093CC028093CB0224E130E09A
:101690003093C8022093C7021092010110920001FA
:1016A00083E092E00E94040598C0222309F499C0C7
:1016B0008091D9029091DA029093BE028093BD028C
:1016C000D093C002C093BF0288EB91E031C02111DA
:1016D0000FC08091D9029091DA029093BC0280935E
:1016E000BB021093C0020093BF0283EC91E020C0C4
:1016F0008091BD029091BE028C599F4F092E000C23
:10170000AA0BBB0B4091D9025091DA026091DB0227
:101710007091DC0284179507A607B7070CF061C02B
:1017200085E090E09093C0028093BF0280ED91E04D
:101730000E94040556C0222379F08091D90290912D
:10174000DA029093BA028093B9023092C0022092DA
:10175000BF0283EE91E0ECCF8091BB029091BC027E
:101760004496092E000CAA0BBB0B4091D902509154
:10177000DA026091DB027091DC0284179507A607FC
:10178000B7077CF523E030E03093C0022093BF021E
:1017900080EF91E0CDCF211124C01092C0021092B1
:1017A000BF021FC088E18093CC031092CE03109239
:1017B000CF03EAECF3E080E090E02191820F911DED
:1017C00033E0E03DF307C9F7919581959109909336
:1017D000D0038093D1030E9497068091C102882391
:1017E000E1F28091EC02882309F4EDC01092EC0242
:1017F0008091D2029091D302009709F4E0C0823028
:10180000910509F081C02091C6023091B400822F69
:1018100090E0831B91091816190614F08FEF01C090
:1018200081E08093D1028091B400281302C010920D
:10183000D1022091C50238B5822F90E0831B910917
:101840001816190614F08FEF01C081E08093D002C2
:1018500088B5281302C01092D0022091C40237B577
:10186000822F90E0831B91091816190614F08FEF50
:1018700001C081E08093CF0287B5281302C0109287
:10188000CF029091D102911108C08091D0028111B4
:1018900004C08091CF02882381F08091B400890F29
:1018A0008093B40098B58091D002890F88BD97B518
:1018B0008091CF02890F87BD86C08091D402882392
:1018C00039F01092C6021092C5021092C4027BC079
:1018D0008091E602863010F48F5F01C080E0809333
:1018E000E60290E09C01220F331F820F931FFC0140
:1018F000EE5FFE4F80818093C60281818093C50296
:1019000082818093C4025FC0049709F05CC080901C
:10191000D9029090DA02A090DB02B090DC02209114
:10192000CD023091CE028091CB029091CC02820FF9
:10193000931F092E000CAA0BBB0B88159905AA054D
:10194000BB05C4F52091C9023091CA024091C7027B
:101950005091C802C901840F951F092E000CAA0BD3
:10196000BB0B88159905AA05BB0504F5609100011C
:1019700070910101469FC001479F900D569F900DA9
:101980001124820F931F092E000CAA0BBB0B881584
:101990009905AA05BB0524F41092B4008FEF03C08B
:1019A0008FEF8093B40087BD88BD04C09092CA02B7
:1019B0008092C902D093D302C093D20204C086E1C0
:1019C00092E00E9404058091EB02882309F44AC04A
:1019D0001092EB028AE192E00E9492058091E90266
:1019E0009091EA020E94D30682E292E00E94920560
:1019F0008091E7029091E8020E94D3068CE292E087
:101A00000E9492056091E60270E080E090E04AE07A
:101A10000E94120588E392E00E9492058091E40200
:101A20009091E5020E94D30687EA91E00E94920518
:101A30008091E2029091E3020E94D30687EA91E04E
:101A40000E9492058091E0029091E1020E94D306EB
:101A500087EA91E00E9492058091DE029091DF0278
:101A60000E947A058091DD02882309F4DFC010927C
:101A7000DD028091E9029091EA028130910589F0BE
:101A80008230910529F1892B09F041C088E290E06C
:101A90000E94FA028823D9F1D093EA02C093E902A6
:101AA00036C06DE081E00E94030788E290E00E946A
:101AB000FA0281112CC01093EA020093E90280918E
:101AC000D9029091DA029093D8028093D7021FC076
:101AD0008091D7029091D8028C599F4F092E000C0B
:101AE000AA0BBB0B4091D9025091DA026091DB0244
:101AF0007091DC0284179507A607B7073CF66DE0E6
:101B000080E00E9403071092EA021092E90280919D
:101B1000E7029091E8028130910591F182309105C0
:101B200009F445C0892B09F06CC08AE590E00E9459
:101B3000FA02882309F465C0D093E802C093E70253
:101B400088E18093CC031092CE031092CF03EAEC8D
:101B5000F3E080E090E02191820F911D33E0E03DC1
:101B6000F307C9F79195819591099093D0038093DC
:101B7000D1030E94970687E492E00E94040541C0C9
:101B80006DE081E00E9403078AE590E00E94FA027E
:101B9000811137C01093E8020093E7028091D902C7
:101BA0009091DA029093D6028093D5022AC0809158
:101BB000D5029091D60288539F4F092E000CAA0B94
:101BC000BB0B4091D9025091DA026091DB02709117
:101BD000DC0284179507A607B7074CF46DE080E098
:101BE0000E9403071092E8021092E7020AC08AE5F9
:101BF00090E00E94FA02882321F0D093E802C0937B
:101C0000E70221E08091E7029091E802892B09F038
:101C100020E02093D40261E08091E9029091EA02F1
:101C2000892B09F060E08DE00E9403070E943002DA
:101C300020CC81E691E0909397038093960386E908
:101C400093E00C94E0028F929F92AF92BF92CF925A
:101C5000DF92EF92FF92CF93DF931092FC021092EB
:101C6000FB0298EE892E93E0992EA12CB12C809244
:101C7000FD029092FE02A092FF02B09200038FE458
:101C800091E09093FA028093F90285EC90E09093B2
:101C900006038093050384EC90E0909308038093FF
:101CA000070380EC90E090930A038093090381EC92
:101CB00090E090930C0380930B0382EC90E0909360
:101CC0000E0380930D0386EC90E0909310038093B5
:101CD0000F03109212031092130310921403109228
:101CE00015031092F203C3E1C093F003DAE0D0933E
:101CF000F10361E083E10E944F0760E08091F1030E
:101D00000E944F0720E5C22E23ECD22EE12CF12CAD
:101D1000C092F303D092F403E092F503F092F6033D
:101D20001092EB03C093E9038EE08093EA0361E035
:101D300083E10E944F0760E08091EA030E944F0711
:101D4000C092EC03D092ED03E092EE03F092EF0329
:101D50001092E403C093E2038FE08093E30361E019
:101D600083E10E944F0760E08091E3030E944F07E8
:101D7000C092E503D092E603E092E703F092E80315
:101D80001092DD03C093DB0380E18093DC0361E00C
:101D900083E10E944F0760E08091DC030E944F07BF
:101DA000C092DE03D092DF03E092E003F092E10301
:101DB00084EF91E0A0E0B0E08093BB039093BC037C
:101DC000A093BD03B093BE03E1E4F1E0A9ECB3E05E
:101DD00001900D92DA95E1F71092D30382E080939F
:101DE000D4031092D9031092DA031092990310923F
:101DF000980380929A0390929B03A0929C03B092C6
:101E00009D0381E691E0909397038093960310924F
:101E1000AD031092AC031092AF031092AE03109278
:101E2000B1031092B0031092B3031092B203609109
:101E3000B4036E7F6D7F6093B4036695617081E03B
:101E400068278AE00E94030761E08AE00E944F074A
:101E5000EDE0F1E0E491E093A603E9EFF0E0E49136
:101E6000F0E0EE0FFF1FE552FF4F859194919093A4
:101E7000A8038093A70360E08BE00E944F07809146
:101E8000B40381FD04C061E08BE00E9403078BE096
:101E90008093A203EEE0F1E0E491E093A303EAEF84
:101EA000F0E0E491F0E0EE0FFF1FEB51FF4F859162
:101EB00094919093A5038093A403DF91CF91FF9019
:101EC000EF90DF90CF90BF90AF909F908F9008954C
:101ED000052E97FB1EF400940E947F0F57FD07D03C
:101EE0000E94870F07FC03D04EF40C947F0F50958F
:101EF0004095309521953F4F4F4F5F4F08959095F6
:101F00008095709561957F4F8F4F9F4F0895A1E207
:101F10001A2EAA1BBB1BFD010DC0AA1FBB1FEE1F63
:101F2000FF1FA217B307E407F50720F0A21BB30BAE
:101F3000E40BF50B661F771F881F991F1A9469F72A
:101F400060957095809590959B01AC01BD01CF0186
:101F50000895A29FB001B39FC001A39F700D811D82
:101F60001124911DB29F700D811D1124911D0895A2
:101F7000AA1BBB1B51E107C0AA1FBB1FA617B707AF
:101F800010F0A61BB70B881F991F5A95A9F78095CB
:101F90009095BC01CD01089597FB072E16F400948F
:101FA00007D077FD09D00E94B80F07FC05D03EF49A
:101FB000909581959F4F0895709561957F4F0895F5
:101FC000EE0FFF1F0590F491E02D09940E94A90FD8
:101FD000B7FF0895821B930B089581E090E0F89479
:101FE0000C94F20F10E0CDE8D0E004C0FE010E9496
:0E1FF000E00F2196CE38D107C9F7F894FFCF45
:101FFE003200000000FFFFFFFF000000FF000000A6
:10200E00FFFFFF005050508D6E63FF5722FF6F0091
:10201E00CDDC394CAF500096887E57C2FFFF00FFD3
:10202E00FF00FAFF00FA7F00FA0000FA0000FF003E
:10203E00007EFF06000100000000EF00000000C758
:10204E000134015F010E0290016E01820100000059
:10205E000053023401F7025202A702BF023A027382
:10206E00657269616C20656E61626C656400656E97
:10207E0061206D75746500566F6C746167652043E1
:10208E007269746963616C2100566F6C7461676567
:10209E00204E6F726D616C0900566F6C74616765CE
:1020AE0020746573746564006E6F77207075736845
:1020BE006564006E6F772072656C65617365640090
:1020CE006E6F7720707573686564203573206C6F42
:1020DE006E670070757368656420616761696E0074
:1020EE006E6F7720707573686564203173206C6F26
:1020FE006E6700426C696E6B696E6720696E6974FB
:10210E006961746564006F6666007A6F6E65313A58
:10211E00200009207A6F6E65323A20000920636F25
:10212E006C6F724E6F3A2000092009206D65617345
:10213E00757265643A20007A3220747269670043C2
:10214E00616C6962726174656420776974683A00C3
:04215E000D0A000066
:00000001FF
