:100000000C9491000C94B9000C94B9000C949204D7
:100010000C9492040C9492040C94B9000C94B900C2
:100020000C94B9000C94B9000C94B9000C94B9006C
:100030000C94B9000C9422050C94B9000C94B900EE
:100040000C9428090C94B9000C9460040C943A04A4
:100050000C94B9000C94B9000C94B9000C94B9003C
:100060000C94B9000C94B9003E07420749073807C1
:1000700049073A0746075607490749074907490705
:1000800049074907490749074D07490749074907EC
:1000900049074907646F6E652E00556E61626C6595
:1000A00020746F20636F6E6E65637400496E6974AF
:1000B00069616C697A696E67204446506C61796544
:1000C000722E0000000000240027002A000000001B
:1000D0000800020100000304070000000000000007
:1000E0000000000000250028002B00000000002375
:1000F000002600290004040404040404040202028B
:100100000202020303030303030102040810204058
:100110008001020408102001020408102000461388
:100120003C1311241FBECFEFD8E0DEBFCDBF14E0DB
:10013000A0E0B1E0E0E8FAE202C005900D92A6333B
:10014000B107D9F726E0A6E3B4E001C01D92A239B9
:10015000B207E1F710E0C0E9D0E004C02197FE014A
:100160000E942115CF38D107C9F70E94B7090C9416
:1001700033150C940000CF92DF92EF92FF920F9311
:100180001F93CF93DF936C017A018B01C0E0D0E025
:10019000CE15DF0589F0D8016D918D01D601ED9165
:1001A000FC910190F081E02DC6010995892B11F495
:1001B0007E0102C02196ECCFC701DF91CF911F9144
:1001C0000F91FF90EF90DF90CF900895FC01538D39
:1001D000448D252F30E0842F90E0821B930B541721
:1001E00010F0CF96089501970895FC01918D828DAE
:1001F000981761F0828DDF01A80FB11D5D968C917B
:10020000928D9F5F9F73928F90E008958FEF9FEF85
:100210000895FC01918D828D981731F0828DE80F41
:10022000F11D858D90E008958FEF9FEF0895FC01FB
:10023000918D228D892F90E0805C9F4F821B9109C8
:100240008F739927089585E695E00E94170121E0B4
:10025000892B09F420E0822F0895FC01848DDF01B1
:10026000A80FB11DA35ABF4F2C91848D90E0019629
:100270008F739927848FA689B7892C93A089B18918
:100280008C9180648C93938D848D981306C0028822
:10029000F389E02D80818F7D80830895EF92FF9216
:1002A0000F931F93CF93DF93EC0181E0888F9B8D99
:1002B0008C8D981305C0E889F989808185FD24C05B
:1002C000F62E0B8D10E00F5F1F4F0F731127E02EDE
:1002D0008C8DE8120CC00FB607FCFACFE889F989BB
:1002E000808185FFF5CFCE010E942D01F1CF8B8D4E
:1002F000FE01E80FF11DE35AFF4FF0820B8FEA89F0
:10030000FB898081806207C0EE89FF896083E8896C
:10031000F98980818064808381E090E0DF91CF91D2
:100320001F910F91FF90EF900895CF93DF93EC0111
:10033000888D8823C9F0EA89FB89808185FD05C005
:10034000A889B9898C9186FD0FC00FB607FCF5CF3F
:10035000808185FFF2CFA889B9898C9185FFEDCF87
:10036000CE010E942D01E7CFDF91CF91089580E06B
:1003700090E0892B29F00E94230181110C94000048
:10038000089520913804309139042817390771F401
:100390009091360480913704981741F0E09136042B
:1003A000F0E0EF5DFA4F808190E008958FEF9FEFCE
:1003B000089508951F93CF93DF93DC015C962D91F0
:1003C0003C915D972115310539F481E090E0139659
:1003D0009C938E9312973DC05196ED91FC9152974C
:1003E00050969C915097892F80951FB75E964C919F
:1003F0005E9741FB772770F941FD6095F894408145
:10040000772311F0492B01C048234083E90121974C
:10041000F1F748E0508160FF02C0592B01C058231A
:100420005083E9012197F1F76695415099F77723B9
:1004300021F090818923808303C08081982B908351
:100440001FBF5C968D919C915D970197F1F721E01C
:1004500030E0C901DF91CF911F91089520913804B8
:10046000309139042817390771F4809137042091AD
:10047000360490E0805C9F4F821B910960E470E03D
:100480000E940D15089580E090E0089520913804B1
:100490003091390428173907B9F4909136048091C6
:1004A0003704981789F0E0913604F0E0EF5DFA4FD9
:1004B00080812091360430E02F5F3F4F2F73332728
:1004C0002093360490E008958FEF9FEF08950895EC
:1004D00080E090E008950E942E150F931F93CF9314
:1004E000DF93EC018A81882321F061E088810E94FA
:1004F000760860E088810E942A0883E090E00197F6
:10050000F1F761E088810E942A0883E290E0019778
:10051000F1F760E088810E942A088A81882321F00F
:1005200060E088810E947608298130E0F901E75F68
:10053000FE4F6491F901EB50FF4FE491F0E0EE0FB4
:10054000FF1FE551FF4F859194910B811C812D81F7
:100550003E813F70462F0E94720961157105810529
:10056000910539F0DC01CB010196A11DB11DBF70D1
:1005700003C080E090E0DC01DF91CF911F910F91EB
:1005800008950F931F93CF93DF93C0911E05D091D1
:100590001F052196D0931F05C0931E0580915A0414
:1005A00090915B04A0915C04B0915D040196A11D43
:1005B000B11D80935A0490935B04A0935C04B093A4
:1005C0005D0481E080936C0480936B0480936704E6
:1005D00020915804309159042330310549F080931B
:1005E0006A049E0123703327232B11F4809369043E
:1005F000C0FD05C081E08093680480936504CE014E
:1006000064E170E00E940D15892B19F481E080935C
:100610006404CE0168EC70E00E940D15892B59F539
:100620002091A304243110F42F5F01C020E0209317
:10063000A30430E0F901EE0FFF1FEC55FB4F809152
:100640005E0490915F0491838083F901EE0FFF1F98
:10065000E453FB4F80916004909161049183808307
:10066000220F331FF901EC50FB4F809162049091EF
:10067000630491838083CE0160EA7FE00E940D15C0
:10068000892BE9F481E08093660483EB93E00E9478
:100690000E061092670410926A041092640410927D
:1006A0006C04109269041092680410926D04109208
:1006B0007906109278061092640610926306809173
:1006C0005A0490915B04A0915C04B0915D04803960
:1006D00021E09207A105B105BCF4209156043091A8
:1006E00057042330310581F42091420430914304B2
:1006F0002330310549F081E080936D0460E070E0C3
:100700008EE00E94AB0724C0AC01BD0141595140AD
:1007100061097109473C51056105710558F48091E3
:10072000420490914304039799F460E081E10E94B0
:100730002A080EC089359240A105B1054CF0809180
:10074000420490914304039719F081E080936D0473
:1007500080915A0490915B04A0915C04B0915D0477
:1007600084369105A105B105CCF480915604909191
:100770005704049799F421E030E030936406209305
:10078000630681E0809371063093790620937806A2
:10079000809386068EEB93E00E940E0680911E05E4
:1007A00090911F0560EC72E10E940D15892B09F0F4
:1007B0005CC083E090E09093430480934204CCE3D8
:1007C000D4E0E4EAF4E004E110E020E030E080E08E
:1007D00090E0DF01A80FB91F4D915C91240F351FE8
:1007E000029688329105A9F7243631053CF0C901FB
:1007F000B8010E940D15CB01049702C080E090E083
:1008000089939993B89685E0EC31F807F1F6309327
:100810001D0520931C0589EC93E00E940E0681E2E1
:1008200094E00E940E0680913C0490913D040E9449
:10083000860687E993E00E941C0680913E04909111
:100840003F040E94860687E993E00E941C0680917F
:100850004004909141040E94860687E993E0DF916D
:10086000CF911F910F910C941C06DF91CF911F9196
:100870000F9108951F920F920FB60F9211242F938C
:100880003F934F935F936F937F938F939F93AF9318
:10089000BF93EF93FF9385E695E00E942D01FF91B2
:1008A000EF91BF91AF919F918F917F916F915F91E8
:1008B0004F913F912F910F900FBE0F901F90189561
:1008C0001F920F920FB60F9211242F938F939F9325
:1008D000EF93FF93E0917505F09176058081E091AB
:1008E0007B05F0917C0582FD12C0908180917E0590
:1008F0008F5F8F7320917F05821751F0E0917E0505
:10090000F0E0EB59FA4F958F80937E0501C080810E
:10091000FF91EF919F918F912F910F900FBE0F90AC
:100920001F9018951F920F920FB60F9211242F93BC
:100930003F934F935F936F937F938F939F93AF9367
:10094000BF93EF93FF93E0913804F091390430970F
:1009500009F451C0968DA685B785858591FF04C0A1
:100960009C91892329F447C09C91892309F043C0B5
:10097000A389B4899C918589809589238C938689E4
:1009800097890197F1F7608D718DA685B78555859B
:1009900038E020E0CB010197F1F7822F90E09595A8
:1009A0008795282F4C91452309F02068315091F705
:1009B000868D81FD20958091370490E001968F739C
:1009C000992730913604381749F0A0913704B0E0E8
:1009D000AF5DBA4F2C938093370403C0868D81603E
:1009E000868F828D938D0197F1F7A389B4899C91AD
:1009F0008589892B8C93FF91EF91BF91AF919F9146
:100A00008F917F916F915F914F913F912F910F90B7
:100A10000FBE0F901F901895E0913804F0913904A3
:100A2000E817F90769F4A389B4899C9185898095B1
:100A300089238C93109239041092380481E0089530
:100A400080E008951F920F920FB60F9211242F93FA
:100A50003F934F935F936F937F938F939F93AF9346
:100A6000BF93EF93FF93E0913A04F0913B04099513
:100A7000FF91EF91BF91AF919F918F917F916F9176
:100A80005F914F913F912F910F900FBE0F901F904C
:100A900018950F931F93CF93DF93EC01EEE5F4E0ED
:100AA000ACE3B4E020E931E080E0419151910D9157
:100AB0001D914017510744F44C175D072CF4421761
:100AC00053070CF49A0181E094E0E436F90769F7E2
:100AD00030930601209305016130710541F06230C9
:100AE000710549F4309304012093030104C030934D
:100AF000010120930001DF91CF911F910F91089583
:100B0000CF93DF93E0912005E23018F4C1E0CE0FDF
:100B100001C0C0E0C09320058BE39CE90197F1F789
:100B200085E596E00E946D02EC2FF0E0EE0FFF1FCE
:100B3000E65BFB4F6CE170E00E94F91476956795D7
:100B400071836083C0912005D0E0FE01EE0FFF1F8E
:100B5000E65BFB4F80819181892B21F481E991E053
:100B6000918380838BE59AEE0197F1F78CE596E00F
:100B70000E946D02CC0FDD1FCC5BDB4F6CE170E09F
:100B80000E94F9147695679579836883C091200552
:100B9000D0E0FE01EE0FFF1FEC5BFB4F80819181E7
:100BA000892B21F481E991E0918380838BEB9AED8D
:100BB0000197F1F78EE496E00E946D02CC0FDD1FE5
:100BC000C05BDB4F6CE170E00E94F914769567958D
:100BD00079836883E0912005F0E0EE0FFF1FE05B72
:100BE000FB4F80819181892B21F481E991E09183F0
:100BF0008083DF91CF910895009769F0FC01019007
:100C00000020E9F73197AF01481B590BBC0185E67D
:100C100095E00C94BB0080E090E00895CF93DF93C3
:100C20000E94FC05EC018AE893E00E94FC058C0F11
:100C30009D1FDF91CF9108950C94FC058F929F9298
:100C4000AF92BF920F931F93CF93DF93CDB7DEB7D1
:100C5000A1970FB6F894DEBF0FBECDBF19A24230E8
:100C600008F44AE08E010F5D1F4F842E912CA12CB9
:100C7000B12CA50194010E94C814E62FB901CA0144
:100C800001501109EA3014F4E05D01C0E95CD801BB
:100C9000EC93232B242B252B61F7C8010E94FC0524
:100CA000A1960FB6F894DEBF0FBECDBFDF91CF91F6
:100CB0001F910F91BF90AF909F908F900895CF920A
:100CC000DF92EF92FF92CF93DF936B017C01E09173
:100CD0006505F09166050190F081E02D6DE285E6F5
:100CE00095E00995EC0166277727CB016C197D0902
:100CF0008E099F094AE00E941E068C0F9D1FDF91FE
:100D0000CF91FF90EF90DF90CF900895BC01990FA5
:100D1000880B990B97FD0C945F064AE00C941E0615
:100D2000CF93DF93BC01990F880B990B97FF03C0FA
:100D30000E945F0603C04AE00E941E06EC018AE89A
:100D400093E00E94FC058C0F9D1FDF91CF910895C9
:100D5000CF93DF938091210690912206DC01ED91E3
:100D6000FC910084F185E02D0995892B09F4B7C029
:100D7000C0913F068091210690912206DC01ED9101
:100D8000FC910284F385E02DC1110DC0099580937B
:100D90002B068E37F9F61092450680913F068F5F3D
:100DA00080933F06D7CF0995EC2FF0E0EF5DF94F28
:100DB000828790913F069230A9F09930C9F0913026
:100DC00009F089C080912C068F3F09F484C01092ED
:100DD0003F0690934106109244061092430690936A
:100DE0004506B3C080912D06863009F474C004C056
:100DF000809134068F3E19F010923F0664C0ECE2F9
:100E0000F6E040E050E08191480F511DB6E0E2333A
:100E1000FB07C9F72091320630E0322F2227519587
:100E20004195510980913306280F311D10923F06DC
:100E30004217530709F047C0E0912E06E09342069F
:100E40008091300690E0982F882720913106820FFC
:100E5000911D90934406809343064E2F50E0FA0173
:100E6000FA97E631F105C8F4EC5CFF4F0C942115BC
:100E700085E00DC081FF1CC084E009C081FF18C05F
:100E800082E005C081FF14C083E001C086E080934A
:100E9000410681E0809345060BC081E080934106C6
:100EA000109244061092430680934506109246061F
:100EB000D0914506DD2309F44AC080913906882384
:100EC00009F443C044C081E0809341061092440677
:100ED0001092430638C09F5F90933F063BCF8091AE
:100EE0004606882321F12FB7F894809161059091EF
:100EF0006205A0916305B09164052FBF4091230660
:100F0000509124066091250670912606841B950B4E
:100F1000A60BB70B40912706509128066091290631
:100F200070912A0684179507A607B70718F4D09181
:100F300045060DC010923F061092410610924406DD
:100F40001092430681E080934506109246068D2F4D
:100F5000DF91CF9108958093380670933A0660939D
:100F60003B06E6E3F6E080E090E02191820F911DE0
:100F700026E0EC33F207C9F791958195910990939A
:100F80003C0680933D0680913906882339F0809194
:100F90004606882349F00E94A806F9CF6AE070E06F
:100FA00080E090E00E94EE08809121069091220658
:100FB000DC01ED91FC910280F381E02D4AE050E0EC
:100FC00065E376E009952FB7F894809161059091DB
:100FD0006205A0916305B09164052FBF809323063D
:100FE00090932406A0932506B093260681E0909165
:100FF0003906911101C080E080934606089560E0B3
:1010000070E081E00C94AB070F931F93CF93DF93B5
:101010008C01C0E0D0E0F801EC0FFD1F6491662365
:1010200071F0E0916505F09166050190F081E02D89
:1010300085E695E00995892B11F02196ECCF8AE899
:1010400093E00E94FC058C0F9D1FDF91CF911F91B3
:101050000F91089590E0FC01E353FF4F3491FC01A0
:10106000E75FFE4F2491FC01EB50FF4FE491EE232C
:1010700009F43BC0332339F1333091F038F4313087
:10108000A9F0323001F584B58F7D12C0373091F070
:101090003830A1F03430B9F4809180008F7D03C0E6
:1010A000809180008F77809380000DC084B58F770A
:1010B00084BD09C08091B0008F7703C08091B000DB
:1010C0008F7D8093B000F0E0EE0FFF1FEF51FF4FD8
:1010D000A591B4918FB7F894EC91611103C020955C
:1010E0002E2301C02E2B2C938FBF0895CF93DF9317
:1010F00090E0FC01E75FFE4F2491FC01EB50FF4FB5
:101100008491882361F190E0880F991FFC01ED53D1
:10111000FF4FC591D491FC01EF51FF4FA591B491C0
:10112000611109C09FB7F894888120958223888334
:10113000EC912E230BC0623061F49FB7F894388194
:10114000822F809583238883EC912E2B2C939FBF35
:1011500006C08FB7F894E8812E2B28838FBFDF91CC
:10116000CF9108953FB7F89480918E0690918F06A5
:10117000A0919006B091910626B5A89B05C02F3F7F
:1011800019F00196A11DB11D3FBFBA2FA92F982FAD
:101190008827820F911DA11DB11DBC01CD0142E028
:1011A000660F771F881F991F4A95D1F708958E30D3
:1011B00008F08E508770806480937C0080917A0064
:1011C000806480937A0080917A0086FDFCCF8091C4
:1011D00078002091790090E0922B08958F929F9251
:1011E000AF92BF92CF92DF92EF92FF926B017C01A0
:1011F0000E94B2084B015C01C114D104E104F10466
:10120000F1F00E94B208DC01CB0188199909AA0902
:10121000BB09883E9340A105B10570F321E0C21AD5
:10122000D108E108F10888EE880E83E0981EA11C21
:10123000B11CC114D104E104F10419F7DDCFFF9012
:10124000EF90DF90CF90BF90AF909F908F900895D8
:101250001F920F920FB60F9211242F933F938F93EB
:101260009F93AF93BF938091610590916205A09188
:101270006305B091640530918D0623E0230F2D376F
:1012800020F40196A11DB11D05C026E8230F02968A
:10129000A11DB11D20938D06809361059093620579
:1012A000A0936305B093640580918E0690918F069C
:1012B000A0919006B09191060196A11DB11D809359
:1012C0008E0690938F06A0939006B0939106BF91DF
:1012D000AF919F918F913F912F910F900FBE0F90E3
:1012E0001F901895CF92DF92EF92FF920F931F936A
:1012F000E82FF92F05C0015011092109310961F1C9
:10130000908196239417B9F305C001501109210962
:10131000310911F1908196239413F7CFC12CD12C70
:10132000E12CF12C0AC08FEFC81AD80AE80AF80A93
:101330000C151D052E053F0579F080818623841745
:1013400091F36C2D7D2D8E2D9F2D1F910F91FF9070
:10135000EF90DF90CF90089560E070E080E090E043
:101360001F910F91FF90EF90DF90CF9008957894A8
:1013700084B5826084BD84B5816084BD85B582609A
:1013800085BD85B5816085BD80916E00816080934B
:101390006E001092810080918100826080938100B4
:1013A00080918100816080938100809180008160C4
:1013B000809380008091B10084608093B10080911F
:1013C000B00081608093B00080917A008460809347
:1013D0007A0080917A00826080937A0080917A000E
:1013E000816080937A0080917A00806880937A008F
:1013F0001092C100E0917505F0917605D2E0D0839E
:10140000E0917105F09172051082E0917305F09101
:10141000740588E0808310927D05E0917905F09154
:101420007A0586E08083E0917705F09178058081E8
:1014300080618083E0917705F091780580818860F4
:101440008083E0917705F0917805808180688083C2
:10145000E0917705F091780580818F7D80838DED17
:1014600091E00E940E0661E08BE00E94760861E048
:1014700085E00E94760861E086E00E94760861E0DF
:1014800083E00E94760861E081E10E94760861E0D5
:1014900082E10E94760861E088E00E94760861E0BF
:1014A00088E00E942A0861E081E10E942A0861E048
:1014B00082E10E942A0881EA84BDC1E0C5BD809313
:1014C000B000C093B10080E1809381001092800051
:1014D000D093700480E593EC90936F0480936E0436
:1014E000909387008093860082E18093810064E678
:1014F00070E080E090E00E94EE0881EC92E0909332
:101500003B0480933A04C0936F008CEE91E00E94FC
:101510000E0610921D0610921C0610921B061092C9
:101520001A0610921906109218068DE991E0909310
:101530001F0680931E0690910E06963108F057C044
:101540002DEB30E030931906209318062BE931E09B
:1015500030931B0620931A062CE231E030931D06CF
:1015600020931C0620916800983050F031E09E30A6
:1015700008F430E081E001C0880F3A95EAF701C035
:1015800084E0822B80936800983038F09E3040F0E1
:10159000963148F020E030E008C02DE630E005C08C
:1015A0002BE630E002C02CE630E0309316062093A4
:1015B0001506983030F481E001C0880F9A95EAF75B
:1015C0000EC0292F30E09E3018F42850310902C097
:1015D0002E50310981E001C0880F2A95EAF78093E7
:1015E000170680911E0690911F060197F1F78091D2
:1015F0001C0690911D06892B21F180913804909151
:10160000390426E082309207E1F0009711F00E9441
:101610000C05809120068E7F80932006109237045F
:101620001092360482E096E0909339048093380457
:10163000E0911506F0911606908180911706892B8E
:1016400080838CEA90E00E94040811E0C2E0D6E0BA
:1016500010933906D0932206C09321068091270665
:1016600090912806A0912906B0912A068854944F9B
:10167000AF4FBF4F8093270690932806A09329066B
:10168000B0932A0660E070E08CE00E94AB071093F4
:1016900046060E94A8068823E1F3809127069091D0
:1016A0002806A0912906B0912A06885B9B40A109D3
:1016B000B1098093270690932806A0932906B0933A
:1016C0002A0668EC70E080E090E00E94EE0810923C
:1016D000450680914106843059F08AE990E00E94E5
:1016E000040868EE73E080E090E00E94EE08B0CF5E
:1016F00084E990E00E94040860E088E00E942A08E3
:101700006AE070E086E00E94AB0761E070E081E192
:101710000E94AB0761E081E10E942A0860E082E15B
:101720000E942A0883E0E82EF12C94E0A92EB12C27
:10173000C1E0D0E024E1822E912C02E010E03AE0FA
:10174000C32ED12C4BE3242E4DE0342E80916D041A
:10175000882309F4A5C0809142049091430481300C
:10176000910569F11CF5892B09F07AC785EF91E0A5
:101770000E940E068FEF8093B30061E08DE00E941F
:101780002A0860E081E10E942A0861E082E10E946B
:101790002A0880915A0490915B049093720480937C
:1017A0007104D0934304C09342045AC78230910518
:1017B00039F1039709F054C710926D0451C7809115
:1017C0007104909172048C599F4F092E000CAA0B42
:1017D000BB0B40915A0450915B0460915C04709182
:1017E0005D0484179507A607B7070CF039C787E093
:1017F00092E00E940E06109343040093420430C707
:101800000E948005C1010197F1F70E948005C10186
:101810000197F1F70E948005EEE5F4E0ACE3B4E057
:10182000819191918530910514F0049702C080E078
:1018300090E08D939D9364E0E436F60789F784E2A7
:1018400094E00E940E0680913C0490913D040E9419
:10185000860687E993E00E941C0680913E049091E1
:101860003F040E94860687E993E00E941C0680914F
:101870004004909141040E94860687E993E00E940B
:101880001C0661E081E10E942A0860E082E10E947A
:101890002A08F0924304E09242041092B300E0C69A
:1018A00080916C04882321F010926C040E948005C2
:1018B00080916B04811106C080916A04882309F429
:1018C00072C133C010926B04E4E4F4E0AEE5B4E01E
:1018D00040815181828193812481358184179507CC
:1018E0001CF02817390734F4821793076CF0481757
:1018F000590724F011969C938E9310C02417350736
:1019000034F4281739073CF04217530724F0119696
:101910003C932E9303C011965C934E933696129689
:1019200074E0E635F707A1F6C7CF10926A048091FC
:10193000830490918404029709F001C130919C04C2
:1019400028B5832F90E0821B91092091020118167F
:10195000190614F4822F02C0822F81958093790496
:1019600088B5381302C01092790430919B0447B5B2
:10197000832F90E0841B91091816190614F4822F06
:1019800002C0822F81958093780487B5381302C0F6
:101990001092780430919A044091B400832F90E023
:1019A000841B9109181619060CF0219520937704D1
:1019B0008091B400381302C01092770440917904EA
:1019C000411108C080917804811104C0809177048E
:1019D000882319F010927E040BC081E080937E046E
:1019E00080915A0490915B049093740480937304E3
:1019F00080917E04811170C080917A0490917B0463
:101A00000296092E000CAA0BBB0B40905A04509072
:101A10005B0460905C0470905D0484159505A605D8
:101A2000B7050CF08CC028B5842F042E000C990B40
:101A3000BC01620F711D6F3F710509F044F428B5B8
:101A4000820F911D97FD05C088B5480F03C04FEF69
:101A500001C040E048BD27B540917804842F042E92
:101A6000000C990BBC01620F711D6F3F710509F0ED
:101A700044F427B5820F911D97FD05C087B5480F27
:101A800003C04FEF01C040E047BD2091B40040913A
:101A90007704842F042E000C990BBC01620F711D7A
:101AA0006F3F710509F054F42091B400820F911D2D
:101AB00097FD06C08091B400480F03C04FEF01C0EE
:101AC00040E04093B40080915A0490915B0490935D
:101AD0007B0480937A0433C080919E04882339F07C
:101AE00010929C0410929B0410929A0428C083E1E7
:101AF00092E00E940E0680917604863010F48F5F8B
:101B000001C080E08093760440918B0490E09C01BA
:101B1000220F331FF901E80FF91F75E1479FE00D10
:101B2000F11D1124E95FFE4F808180939C04818127
:101B300080939B04828180939A0410927E0420916A
:101B40009D043091B300822F90E0831B91091816F9
:101B5000190614F08EEF01C082E080937504809125
:101B6000B300281302C0109275042091B300409175
:101B70007504842F042E000C990BBC01620F711D9B
:101B80006F3F710509F054F42091B300820F911D4D
:101B900097FD06C08091B300480F03C04FEF01C00E
:101BA00040E04093B30080916904882309F467C042
:101BB0001092690480918C04811134C08091A10439
:101BC0009091A2048130910559F01CF4892B51F1B8
:101BD0002DC082309105D1F083309105F1F026C0FF
:101BE0008091000190910101893191052CF490922E
:101BF0008604809285041AC08D971CF48FE090E0D3
:101C00000CC0D0928604C092850410C067E070E0DA
:101C1000709386046093850409C090938604809332
:101C2000850404C0109286041092850460917C049F
:101C300070917D04809185049091860468177907DE
:101C40001CF46F5F7F4F05C08617970774F46150CF
:101C5000710970937D0460937C04772786E00E946D
:101C6000AB0760E088E00E942A0880917C04909194
:101C70007D04892B21F461E088E00E942A0880918C
:101C80006804882309F4A3C1109268048091A10418
:101C90009091A2048230910509F44EC02CF4009773
:101CA00059F0019741F1EFC08330910509F478C0F4
:101CB000049709F4AFC0E7C061E070E08CE390E006
:101CC0000E944905882309F4DEC061E08DE00E948E
:101CD0002A08D093A204C093A10487E080938B04C8
:101CE00060E088E00E942A080E94FF078DE192E0F0
:101CF0000E940E06C8C061E070E08CE390E00E9494
:101D000049058111C0C01093A2040093A10480E38F
:101D100092E00E940E0680915A0490915B04A0917B
:101D20005C04B0915D048093870490938804A09331
:101D30008904B0938A04A7C0809187049091880495
:101D4000A0918904B0918A0488539F4FAF4FBF4F31
:101D500040915A0450915B0460915C0470915D0461
:101D600084179507A607B7078CF48EE392E00E94CC
:101D70000E06109286041092850460E08DE00E94A9
:101D80002A08F092A204E092A1047DC061E070E014
:101D90008CE390E00E944905882309F474C06FC069
:101DA0008091870490918804A0918904B0918A045D
:101DB000845D9E4FAF4FBF4F40915A0450915B04DA
:101DC00060915C0470915D0484179507A607B707BE
:101DD00094F485E792E00E940E0660E070E08EE0E9
:101DE0000E94AB0760E088E00E942A08B092A2043B
:101DF000A092A10448C061E070E08CE390E00E94F2
:101E00004905882309F43FC060E070E08DE00E943E
:101E1000AB0731C08091870490918804A091890418
:101E2000B0918A0480579E4FAF4FBF4F40915A04E4
:101E300050915B0460915C0470915D048417950778
:101E4000A607B70774F488E992E00E940E0660E0E6
:101E500070E086E10E94AB071092A2041092A104E8
:101E600012C061E070E08CE390E00E944905882395
:101E700051F00E94FF0761E088E00E942A08D09399
:101E8000A204C093A10480919F049091A004823089
:101E9000910509F441C02CF4009759F00197C9F05D
:101EA0006DC08330910509F465C0049709F462C0E0
:101EB00065C062E070E088E790E00E94490581110A
:101EC000D2C38091A1049091A204019709F056C059
:101ED000CAC3109384040093830410929E0462E0AA
:101EE00070E088E790E00E944905811147C0109397
:101EF000A00400939F0480915A0490915B04A091E8
:101F00005C04B0915D0480937F0490938004A0935F
:101F10008104B093820432C080917F049091800448
:101F2000A0918104B091820488539F4FAF4FBF4F5F
:101F300040915A0450915B0460915C0470915D047F
:101F400084179507A607B70744F484EB92E00E9434
:101F50000E061092A00410929F0462E070E088E7E1
:101F600090E00E944905882349F0D093A004C093D3
:101F70009F0404C01092A00410929F048091A104B9
:101F80009091A2048130910511F48FEF04C0833049
:101F9000910521F48EEB80939D0405C0843091055A
:101FA00021F410929D0481E010C0892B81F480916E
:101FB0009F049091A004892B51F410929D0481E01C
:101FC00080939E0480937E048AE080930201809136
:101FD0006704882309F4BEC01092670486E00E945B
:101FE000D7089C01909395048093940491E0253840
:101FF00033400CF090E0909393042091560430917C
:1020000057042230310509F453C03CF42115310541
:1020100079F021303105E1F09DC02430310509F41B
:1020200088C00CF483C02530310509F487C092C004
:10203000992309F48FC080915A0490915B04909386
:10204000920480939104D0935704C093560482C0A5
:1020500091110DC080915A0490915B04909390046B
:1020600080938F04109357040093560473C080919B
:102070009104909192048C599F4F092E000CAA0B49
:10208000BB0B40915A0450915B0460915C047091C9
:102090005D0484179507A607B7070CF05BC085E0C1
:1020A00090E0909357048093560487EC92E01DC013
:1020B00040915A0450915B0460915C0470915D04FE
:1020C00020918F04309190042C5E3F4F2901330FF3
:1020D0006608770844165506660677064CF4F092B3
:1020E0005704E09256048AED92E00E940E0632C038
:1020F000992381F150938E0440938D0481E0809365
:10210000660480936504D0937906C0937806D093D3
:102110006406C09363060E94FF0785EE92E00E946A
:102120000E06B0925704A092560414C0911112C02A
:102130000DC091110FC00E94FF0708C091110AC085
:1021400090918C0481E0892780938C04109257042D
:102150001092560480916604882309F49AC0109264
:10216000660487E00E94D7089093990480939804AE
:102170002EE838E0DC010E94271520E034E040E042
:1021800050E00E94A914C90130939704209396044B
:102190008A3124E0920784F4F0925904E0925804C2
:1021A000D0927506C0927406109377060093760657
:1021B00085E08093710652C08C3464E0960794F4F5
:1021C0001093590400935804D0927506C092740677
:1021D000D0927706C092760682E08093710681EFF6
:1021E00092E015C0813B74E09707A4F4D0935904A2
:1021F000C093580410938A060093890690928C0627
:1022000080928B0682E0809386068DEF92E00E949A
:102210000E0624C08333954094F410925904109212
:102220005804D0928A06C0928906D0928C06C09239
:102230008B0682E08093860689E093E0E8CFB09237
:102240005904A092580490928A06809289061093AD
:102250008C0600938B0683E0809386068091580459
:10226000909159048330910529F0049741F488E254
:1022700093E002C086E193E00E940E060AC085E367
:1022800093E00E940E0680919604909197040E941C
:10229000900680916504882309F434C11092650486
:1022A00080916306909164068230910591F11CF44F
:1022B000019741F08EC08330910581F1049709F4B4
:1022C00063C087C0809171068823F1F080915A0421
:1022D00090915B04A0915C04B0915D0480936906C9
:1022E00090936A06A0936B06B0936C06F092640616
:1022F000E092630661E082E10E942A088091710603
:1023000081508093710665C0109264061092630636
:1023100036C0F0927906E09278065BC061E082E117
:102320000E942A0840905A0450905B0460905C041C
:1023300070905D044091740650917506052E000C56
:10234000660B770B8091690690916A06A0916B06E7
:10235000B0916C06840F951FA61FB71F84159505B5
:10236000A605B705B4F5B0926406A0926306409244
:102370006D0650926E0660926F067092700660E075
:1023800082E10E942A0825C0809176069091770606
:10239000AC01990F660B770B80916D0690916E06DC
:1023A000A0916F06B0917006840F951FA61FB71FEE
:1023B00040915A0450915B0460915C0470915D04FB
:1023C00084179507A607B70724F4D0936406C09333
:1023D000630680917806909179068230910591F19B
:1023E0001CF4019741F08EC08330910581F1049770
:1023F00009F463C087C0809186068823F1F080913C
:102400005A0490915B04A0915C04B0915D048093A8
:102410007E0690937F06A0938006B0938106F0928B
:102420007906E092780661E081E10E942A088091B5
:10243000860681508093860665C0109279061092B8
:10244000780636C0F0927906E09278065BC061E0CB
:1024500081E10E942A0840905A0450905B046090E9
:102460005C0470905D044091890650918A06052EA7
:10247000000C660B770B80917E0690917F06A091F1
:102480008006B0918106840F951FA61FB71F841583
:102490009505A605B705B4F5B0927906A092780621
:1024A000409282065092830660928406709285065E
:1024B00060E081E10E942A0825C080918B069091FE
:1024C0008C06AC01990F660B770B80918206909178
:1024D0008306A0918406B0918506840F951FA61FE0
:1024E000B71F40915A0450915B0460915C04709155
:1024F0005D0484179507A607B70724F4D0937906DF
:10250000C093780680916404882309F4A9C01092CE
:1025100064048EE493E00E941C068091A1049091D3
:10252000A2040E94860683E593E00E941C06809127
:102530009F049091A0040E9486068AE593E00E9481
:102540001C0680919E0490E00E94860684E693E03B
:102550000E941C066091B30070E080E090E04AE0C9
:102560000E941E068EE693E00E941C0660919D0468
:1025700070E080E090E04AE00E941E0688E793E069
:102580000E941C0660919C0470E080E090E04AE0AC
:102590000E941E0680E593E00E941C0668B570E06C
:1025A00080E090E04AE00E941E068EE793E00E94E1
:1025B0001C0660919B0470E080E090E04AE00E947D
:1025C0001E0680E593E00E941C0667B570E080E07F
:1025D00090E04AE00E941E0684E893E00E941C06F8
:1025E00060919A0470E080E090E04AE00E941E064C
:1025F00080E593E00E941C066091B40070E080E0EA
:1026000090E04AE00E941E068AE893E00E94FC05E2
:102610008DE893E00E941C0680915E0490915F0417
:102620000E94860686E993E00E941C068091600461
:10263000909161040E94860686E993E00E941C0640
:1026400080916204909163040E94860686E993E07B
:102650000E941C0680916404909165040E9490067B
:102660000E94B70173C8D093A004C0939F0489E966
:1026700093E00E940E0682CC8FEC91E090930306CB
:102680008093020682E096E00C940C058F929F9254
:10269000AF92BF92CF92DF92EF92FF92CF93DF93F0
:1026A000109268051092670598EE892E93E0992E96
:1026B000A12CB12C8092690590926A05A0926B05BD
:1026C000B0926C058DEB91E0909366058093650563
:1026D00085EC90E0909372058093710584EC90E016
:1026E000909374058093730580EC90E09093760549
:1026F0008093750581EC90E0909378058093770541
:1027000082EC90E090937A058093790586EC90E0D6
:1027100090937C0580937B0510927E0510927F0537
:1027200010928005109281054AE050E0509388068F
:102730004093870622E030E030938A062093890692
:1027400088E290E090938C0680938B0650937306FA
:102750004093720630937506209374069093770623
:102760008093760610925E06C3E1C0935C06DAE0C1
:10277000D0935D0661E083E10E94760860E080917D
:102780005D060E94760820E2C22E2EE4D22EE12CB5
:10279000F12CC0925F06D0926006E0926106F09242
:1027A000620610925706C09355068EE08093560637
:1027B00061E083E10E94760860E0809156060E9405
:1027C0007608C0925806D0925906E0925A06F092C6
:1027D0005B0610925006C0934E068FE080934F0622
:1027E00061E083E10E94760860E080914F060E94DC
:1027F0007608C0925106D0925206E0925306F092AB
:10280000540610924906C093470680E1809348061B
:1028100061E083E10E94760860E0809148060E94B2
:102820007608C0924A06D0924B06E0924C06F0928F
:102830004D0684EF91E0A0E0B0E0809327069093EE
:102840002806A0932906B0932A06EFEAF1E0A5E353
:10285000B6E001900D92DA95E1F710923F0682E022
:102860008093400610924506109246061092050687
:10287000109204068092060690920706A09208061F
:10288000B09209068FEC91E09093030680930206C4
:10289000109219061092180610921B0610921A0632
:1028A00010921D0610921C0610921F0610921E0612
:1028B000609120066E7F6D7F609320066695617043
:1028C00081E0682784E00E942A0861E084E00E9499
:1028D0007608EDE0F1E0E491E0931206E9EFF0E034
:1028E000E491F0E0EE0FFF1FEF51FF4F85919491BF
:1028F000909314068093130660E087E00E947608A8
:102900008091200681FD04C061E087E00E942A08D2
:1029100087E080930E06E0E1F1E0E491E0930F069A
:10292000ECEFF0E0E491F0E0EE0FFF1FE551FF4F18
:10293000859194919093110680931006DF91CF9129
:10294000FF90EF90DF90CF90BF90AF909F908F90CF
:102950000895052E97FB1EF400940E94C01457FDA5
:1029600007D00E94C81407FC03D04EF40C94C01486
:1029700050954095309521953F4F4F4F5F4F0895AB
:1029800090958095709561957F4F8F4F9F4F0895DB
:10299000A1E21A2EAA1BBB1BFD010DC0AA1FBB1F63
:1029A000EE1FFF1FA217B307E407F50720F0A21BD5
:1029B000B30BE40BF50B661F771F881F991F1A9442
:1029C00069F760957095809590959B01AC01BD016C
:1029D000CF010895A29FB001B39FC001A39F700DC6
:1029E000811D1124911DB29F700D811D1124911D17
:1029F0000895AA1BBB1B51E107C0AA1FBB1FA61746
:102A0000B70710F0A61BB70B881F991F5A95A9F797
:102A100080959095BC01CD01089597FB072E16F483
:102A2000009407D077FD09D00E94F91407FC05D067
:102A30003EF4909581959F4F0895709561957F4FD5
:102A40000895EE0FFF1F0590F491E02D09940E9468
:102A5000EA14B7FF0895821B930B089581E090E07C
:102A6000F8940C94331510E0C0E9D0E004C0FE01E6
:102A70000E9421152196C139D107C9F7F894FFCFDB
:102A8000900101900190010000FFFFFFFFFF000097
:102A900000FF000000FFFFFF005050508D6E63FFED
:102AA0005722FF6F00CDDC394CAF500096887E571F
:102AB000C2007D00007D417D7D007D410000410020
:102AC00000417D00007D0000FFFF28FFFF00009611
:102AD00028321400FFFF6414646464D76400D7A72D
:102AE000247878783246FF00A0FF3C28827850286E
:102AF0000000C8C8C8C8C8000000C8000000C8C896
:102B0000C80032323200006464646464000000640F
:102B1000000000646464003232320000FFFFFFFFF7
:102B2000FF000000FF000000FFFFFF005050507E3C
:102B3000FF06000100000000EF000000004E01BB96
:102B400000E60095011701F500090100000000DA18
:102B500001BB006802D9012E024602C101736572F1
:102B600069616C20656E61626C656400656E6120F0
:102B70006D75746500496E697469616C2063616C80
:102B800069627261746500357320656C617073658C
:102B9000642100636F6C6F7220636867007A6F6EE8
:102BA00065203120542744202D3E207A656E650033
:102BB0007A6F6E652031206C6561766564007A6F8E
:102BC0006E6520312031307320656C6170736564EF
:102BD000202D2D3E20736D616C6C2074696D656FC6
:102BE00075743A2066696E566F6C20626563616D1C
:102BF00065732030007A6F6E652031203135732087
:102C0000656C6170736564202D2D3E2062696720BC
:102C100074696D656F7574007A6F6E65203120324E
:102C2000307320656C6170736564202D2D3E2069C2
:102C3000646C65007A6F6E652032203130732074C9
:102C4000696D656F7574006E6F7720707573686558
:102C500064203573206C6F6E670073686F72742028
:102C60007075736800646F75626C65207075736849
:102C70000032207069726F73203530250032207A5F
:102C80006F6C64202D3130250032207A6F6C642007
:102C90002D2035302500566F6C74616765204372B6
:102CA00069746963616C2100566F6C74616765209B
:102CB0004869676800566F6C746167652074657356
:102CC0007465642C206E6F726D616C2020007A3107
:102CD0003A200009207A323A2000092063626C61B0
:102CE000633A090009206353706F743A09000920A0
:102CF0006653706F743A09000920723A2000092067
:102D0000673A20000920623A20000D0A000920637A
:102D10006D2D733A09000909007A6F6E6520322023
:102D2000542744202D3E2073706F742C20737472CE
:102D3000697000736F667420726573657400626CED
:102D4000696E6B2074657374000A0A0A2D2D2D2D8F
:102D50002D2D2D2D2D2D2D2D2D2D2D2D2D2D2D2DA3
:102D60002D2D2D2D2D2D2D2D2D2D2D2D2D2D2D2D93
:102D70002D2D2D2D2D2D2D2D2D2D2D2D2D2D2D2D83
:102D80002D2D2D2D2D2D2D2D2D2D2D2D2D2D2D2D73
:102D90002D2D2D2D2D2D2D2D2D2D2D2D2D2D2D2D63
:102DA000000A0A0A43616C69627261746564207783
:062DB0006974683A00009E
:00000001FF
