:100000000C9491000C94B9000C94B9000C94A604C3
:100010000C94A6040C94A6040C94B9000C94B9009A
:100020000C94B9000C94B9000C94B9000C94B9006C
:100030000C94B9000C9436050C94B9000C94B900DA
:100040000C943C090C94B9000C9474040C944E0468
:100050000C94B9000C94B9000C94B9000C94B9003C
:100060000C94B9000C94B900520756075D074C0771
:100070005D074E075A076A075D075D075D075D0765
:100080005D075D075D075D0761075D075D075D074C
:100090005D075D07646F6E652E00556E61626C656D
:1000A00020746F20636F6E6E65637400496E6974AF
:1000B00069616C697A696E67204446506C61796544
:1000C000722E0000000000240027002A000000001B
:1000D0000800020100000304070000000000000007
:1000E0000000000000250028002B00000000002375
:1000F000002600290004040404040404040202028B
:100100000202020303030303030102040810204058
:100110008001020408102001020408102000781356
:100120006E1311241FBECFEFD8E0DEBFCDBF14E0A9
:10013000A0E0B1E0E4EEFAE202C005900D92A63133
:10014000B107D9F726E0A6E1B4E001C01D92A837B7
:10015000B207E1F710E0C0E9D0E004C02197FE014A
:100160000E945315CF38D107C9F70E94CB090C94D0
:1001700065150C940000CF92DF92EF92FF920F93DF
:100180001F93CF93DF936C017A018B01C0E0D0E025
:10019000CE15DF0589F0D8016D918D01D601ED9165
:1001A000FC910190F081E02DC6010995892B11F495
:1001B0007E0102C02196ECCFC701DF91CF911F9144
:1001C0000F91FF90EF90DF90CF900895FC01538D39
:1001D000448D252F30E0842F90E0821B930B541721
:1001E00010F0CF96089501970895FC01918D828DAE
:1001F000981761F0828DDF01A80FB11D5D968C917B
:10020000928D9F5F9F73928F90E008958FEF9FEF85
:100210000895FC01918D828D981731F0828DE80F41
:10022000F11D858D90E008958FEF9FEF0895FC01FB
:10023000918D228D892F90E0805C9F4F821B9109C8
:100240008F73992708958BE495E00E94170121E0B0
:10025000892B09F420E0822F0895FC01848DDF01B1
:10026000A80FB11DA35ABF4F2C91848D90E0019629
:100270008F739927848FA689B7892C93A089B18918
:100280008C9180648C93938D848D981306C0028822
:10029000F389E02D80818F7D80830895EF92FF9216
:1002A0000F931F93CF93DF93EC0181E0888F9B8D99
:1002B0008C8D981305C0E889F989808185FD24C05B
:1002C000F62E0B8D10E00F5F1F4F0F731127E02EDE
:1002D0008C8DE8120CC00FB607FCFACFE889F989BB
:1002E000808185FFF5CFCE010E942D01F1CF8B8D4E
:1002F000FE01E80FF11DE35AFF4FF0820B8FEA89F0
:10030000FB898081806207C0EE89FF896083E8896C
:10031000F98980818064808381E090E0DF91CF91D2
:100320001F910F91FF90EF900895CF93DF93EC0111
:10033000888D8823C9F0EA89FB89808185FD05C005
:10034000A889B9898C9186FD0FC00FB607FCF5CF3F
:10035000808185FFF2CFA889B9898C9185FFEDCF87
:10036000CE010E942D01E7CFDF91CF91089580E06B
:1003700090E0892B29F00E94230181110C94000048
:10038000089520911804309119042817390771F441
:100390009091160480911704981741F0E09116048B
:1003A000F0E0E95FFA4F808190E008958FEF9FEFD2
:1003B000089508951F93CF93DF93DC015C962D91F0
:1003C0003C915D972115310539F481E090E0139659
:1003D0009C938E9312973DC05196ED91FC9152974C
:1003E00050969C915097892F80951FB75E964C919F
:1003F0005E9741FB772770F941FD6095F894408145
:10040000772311F0492B01C048234083E90121974C
:10041000F1F748E0508160FF02C0592B01C058231A
:100420005083E9012197F1F76695415099F77723B9
:1004300021F090818923808303C08081982B908351
:100440001FBF5C968D919C915D970197F1F721E01C
:1004500030E0C901DF91CF911F91089520911804D8
:10046000309119042817390771F4809117042091ED
:10047000160490E0805C9F4F821B910960E470E05D
:100480000E943F15089580E090E00895209118049F
:100490003091190428173907B9F490911604809106
:1004A0001704981789F0E0911604F0E0E95FFA4F1D
:1004B00080812091160430E02F5F3F4F2F73332748
:1004C0002093160490E008958FEF9FEF089508950C
:1004D00080E090E008950E9460150F931F93CF93E2
:1004E000DF93EC018A81882321F061E088810E94FA
:1004F000310860E088810E94E50783E090E0019781
:10050000F1F761E088810E94E50783E290E00197BE
:10051000F1F760E088810E94E5078A81882321F055
:1005200060E088810E943108298130E0F901E75FAD
:10053000FE4F6491F901EB50FF4FE491F0E0EE0FB4
:10054000FF1FE551FF4F859194910B811C812D81F7
:100550003E813F70462F0E94860961157105810515
:10056000910539F0DC01CB010196A11DB11DBF70D1
:1005700003C080E090E0DC01DF91CF911F910F91EB
:100580000895CF92DF92EF92FF920F931F93CF9334
:10059000DF93E0910405F09105053196F093050590
:1005A000E093040580913A0490913B04A0913C04AF
:1005B000B0913D040196A11DB11D80933A04909322
:1005C0003B04A0933C04B0933D0481E080934C0431
:1005D00080934B0480934704209138043091390470
:1005E0002330310549F080934A049F01237033275B
:1005F000232B11F480934904E0FD05C081E0809332
:10060000480480934504CF0164E170E00E943F15E7
:10061000892B19F481E080934404CF0168EC70E0E9
:100620000E943F15892B31F1CF0160EA7FE00E94E3
:100630003F15892B09F04FC081E08093460484E97F
:1006400093E00E9422061092470410924A041092EE
:10065000440410924C0410924904109248041092E1
:100660004D0410925F0610925E0610924A06109298
:10067000490631C020918904243110F42F5F01C054
:1006800020E0209389048EE3E82E84E0F82EACE18C
:10069000B4E030E0220F331FC90186579B4F6C0135
:1006A00080E090E0E701699179917E018B01025031
:1006B0001109A601480F591F0C35114018F06D9112
:1006C0007C911197EA01798368838896129688371E
:1006D000910541F7A9CF80913A0490913B04A091F4
:1006E0003C04B0913D048039D1E09D07A105B105DE
:1006F000BCF420913604309137042330310581F465
:1007000020912204309123042330310549F081E007
:1007100080934D0460E070E08EE00E94BE0824C02B
:10072000AC01BD014159514061097109473C510576
:100730006105710538F48091220490912304039798
:1007400099F40EC089359240A105B1056CF08091F5
:10075000220490912304039739F081E080934D04A3
:1007600060E081E10E94E50780913A0490913B04AA
:10077000A0913C04B0913D0484369105A105B105DA
:10078000CCF48091360490913704049799F421E0D9
:1007900030E030934A062093490681E08093570663
:1007A00030935F0620935E0680936C068FE993E09A
:1007B0000E942206809104059091050560EC72E18B
:1007C0000E943F15892B09F060C083E090E0909370
:1007D000230480932204CCE1D4E0EAE8F4E004E1CD
:1007E00010E020E030E080E090E0DF01A80FB91FCA
:1007F0004D915C91240F351F029688329105A9F71F
:10080000243631053CF0C901B8010E943F15CB01E7
:10081000049702C080E090E089939993B89685E0B0
:10082000E230F807F1F630930305209302058AEAD7
:1008300093E00E94220682E094E00E9422068091CA
:100840001C0490911D040E949A0688E793E00E9480
:10085000300680911E0490911F040E949A0688E73A
:1008600093E00E94300680912004909121040E9420
:100870009A0688E793E0DF91CF911F910F91FF9047
:10088000EF90DF90CF900C943006DF91CF911F91C5
:100890000F91FF90EF90DF90CF9008951F920F92ED
:1008A0000FB60F9211242F933F934F935F936F9343
:1008B0007F938F939F93AF93BF93EF93FF938BE4BB
:1008C00095E00E942D01FF91EF91BF91AF919F9113
:1008D0008F917F916F915F914F913F912F910F90E9
:1008E0000FBE0F901F9018951F920F920FB60F9288
:1008F00011242F938F939F93EF93FF93E0915B05C8
:10090000F0915C058081E0916105F091620582FDC6
:1009100012C09081809164058F5F8F73209165056F
:10092000821751F0E0916405F0E0E55BFA4F958F96
:100930008093640501C08081FF91EF919F918F9119
:100940002F910F900FBE0F901F9018951F920F922E
:100950000FB60F9211242F933F934F935F936F9392
:100960007F938F939F93AF93BF93EF93FF93E09108
:100970001804F0911904309709F451C0968DA6859A
:10098000B785858591FF04C09C91892329F447C0D0
:100990009C91892309F043C0A389B4899C918589DE
:1009A000809589238C93868997890197F1F7608DCB
:1009B000718DA685B785558538E020E0CB0101977C
:1009C000F1F7822F90E095958795282F4C9145233C
:1009D00009F02068315091F7868D81FD2095809136
:1009E000170490E001968F739927309116043817F9
:1009F00049F0A0911704B0E0A95FBA4F2C938093FF
:100A0000170403C0868D8160868F828D938D019738
:100A1000F1F7A389B4899C918589892B8C93FF91E7
:100A2000EF91BF91AF919F918F917F916F915F9166
:100A30004F913F912F910F900FBE0F901F901895DF
:100A4000E0911804F0911904E817F90769F4A389F3
:100A5000B4899C918589809589238C93109219047F
:100A60001092180481E0089580E008951F920F927B
:100A70000FB60F9211242F933F934F935F936F9371
:100A80007F938F939F93AF93BF93EF93FF93E091E7
:100A90001A04F0911B040995FF91EF91BF91AF915A
:100AA0009F918F917F916F915F914F913F912F9186
:100AB0000F900FBE0F901F9018950F931F93CF9319
:100AC000DF93EC01EEE3F4E0ACE1B4E020E931E0E7
:100AD00080E0419151910D911D914017510744F4CF
:100AE0004C175D072CF4421753070CF49A0181E070
:100AF00094E0E434F90769F7309305012093040189
:100B00006130710541F06230710549F430930301A1
:100B10002093020104C03093010120930001DF9172
:100B2000CF911F910F910895CF93DF93E091060528
:100B3000E23018F4C1E0CE0F01C0C0E0C09306055A
:100B40008BE39CE90197F1F78BE396E00E946D023D
:100B5000EC2FF0E0EE0FFF1FE65DFB4F6CE170E065
:100B60000E942B157695679571836083C091060569
:100B7000D0E0FE01EE0FFF1FE65DFB4F808191810B
:100B8000892B21F481E991E0918380838BE59AEEB2
:100B90000197F1F782E496E00E946D02CC0FDD1F11
:100BA000CC5DDB4F6CE170E00E942B15769567956C
:100BB00079836883C0910605D0E0FE01EE0FFF1F28
:100BC000EC5DFB4F80819181892B21F481E991E0DB
:100BD000918380838BEB9AED0197F1F784E396E0A4
:100BE0000E946D02CC0FDD1FC05DDB4F6CE170E039
:100BF0000E942B157695679579836883E0910605A9
:100C0000F0E0EE0FFF1FE05DFB4F80819181892BAB
:100C100021F481E991E091838083DF91CF91089560
:100C2000009769F0FC0101900020E9F73197AF01CE
:100C3000481B590BBC018BE495E00C94BB0080E091
:100C400090E00895CF93DF930E941006EC018BE6AD
:100C500093E00E9410068C0F9D1FDF91CF910895A5
:100C60000C9410068F929F92AF92BF920F931F9396
:100C7000CF93DF93CDB7DEB7A1970FB6F894DEBF61
:100C80000FBECDBF19A2423008F44AE08E010F5DBD
:100C90001F4F842E912CA12CB12CA50194010E94F0
:100CA000FA14E62FB901CA0101501109EA3014F40F
:100CB000E05D01C0E95CD801EC93232B242B252BAC
:100CC00061F7C8010E941006A1960FB6F894DEBF26
:100CD0000FBECDBFDF91CF911F910F91BF90AF900D
:100CE0009F908F900895CF92DF92EF92FF92CF93D3
:100CF000DF936B017C01E0914B05F0914C05019075
:100D0000F081E02D6DE28BE495E00995EC0166271A
:100D10007727CB016C197D098E099F094AE00E9453
:100D200032068C0F9D1FDF91CF91FF90EF90DF90E7
:100D3000CF900895BC01990F880B990B97FD0C94E7
:100D400073064AE00C943206CF93DF93BC01990FEF
:100D5000880B990B97FF03C00E94730603C04AE0FB
:100D60000E943206EC018BE693E00E9410068C0F85
:100D70009D1FDF91CF910895CF93DF938091070658
:100D800090910806DC01ED91FC910084F185E02D45
:100D90000995892B09F4B7C0C091250680910706F3
:100DA00090910806DC01ED91FC910284F385E02D21
:100DB000C1110DC00995809311068E37F9F6109276
:100DC0002B06809125068F5F80932506D7CF099546
:100DD000EC2FF0E0E95FF94F828790912506923081
:100DE000A9F09930C9F0913009F089C080911206BC
:100DF0008F3F09F484C01092250690932706109225
:100E00002A061092290690932B06B3C080911306F0
:100E1000863009F474C004C080911A068F3E19F020
:100E20001092250664C0E2E1F6E040E050E08191D6
:100E3000480F511DB6E0E831FB07C9F720911806AD
:100E400030E0322F222751954195510980911906A2
:100E5000280F311D109225064217530709F047C08D
:100E6000E0911406E09328068091160690E0982FF2
:100E7000882720911706820F911D90932A06809350
:100E800029064E2F50E0FA01FA97E631F105C8F431
:100E9000EC5CFF4F0C94531585E00DC081FF1CC026
:100EA00084E009C081FF18C082E005C081FF14C042
:100EB00083E001C086E08093270681E080932B06C3
:100EC0000BC081E08093270610922A061092290613
:100ED00080932B0610922C06D0912B06DD2309F46B
:100EE0004AC080911F06882309F443C044C081E0B2
:100EF0008093270610922A061092290638C09F5F19
:100F0000909325063BCF80912C06882321F12FB7A3
:100F1000F8948091470590914805A0914905B091BA
:100F20004A052FBF4091090650910A0660910B06B1
:100F300070910C06841B950BA60BB70B40910D0608
:100F400050910E0660910F06709110068417950758
:100F5000A607B70718F4D0912B060DC010922506EE
:100F60001092270610922A061092290681E080939B
:100F70002B0610922C068D2FDF91CF9108950F93A1
:100F80001F93CF93DF938C01C0E0D0E0F801EC0F0A
:100F9000FD1F6491662371F0E0914B05F0914C05C3
:100FA0000190F081E02D8BE495E00995892B11F0FB
:100FB0002196ECCF8BE693E00E9410068C0F9D1FCC
:100FC000DF91CF911F910F91089590E0FC01E353C1
:100FD000FF4F3491FC01E75FFE4F2491FC01EB5081
:100FE000FF4FE491EE2309F43BC0332339F1333052
:100FF00091F038F43130A9F0323001F584B58F7DAD
:1010000012C0373091F03830A1F03430B9F480910B
:1010100080008F7D03C0809180008F778093800057
:101020000DC084B58F7784BD09C08091B0008F77E3
:1010300003C08091B0008F7D8093B000F0E0EE0F90
:10104000FF1FEF51FF4FA591B4918FB7F894EC912A
:10105000611103C020952E2301C02E2B2C938FBF2E
:101060000895CF93DF9390E0FC01E75FFE4F24915A
:10107000FC01EB50FF4F8491882361F190E0880FD1
:10108000991FFC01ED53FF4FC591D491FC01EF5125
:10109000FF4FA591B491611109C09FB7F894888161
:1010A000209582238883EC912E230BC0623061F45B
:1010B0009FB7F8943881822F809583238883EC91A1
:1010C0002E2B2C939FBF06C08FB7F894E8812E2B50
:1010D00028838FBFDF91CF9108958E3008F08E5016
:1010E0008770806480937C0080917A008064809314
:1010F0007A0080917A0086FDFCCF80917800209163
:10110000790090E0922B08958F929F92AF92BF92B8
:10111000CF92DF92EF92FF926B017C010E94170940
:101120004B015C01C114D104E104F104F1F00E940F
:101130001709DC01CB0188199909AA09BB09883E66
:101140009340A105B10570F321E0C21AD108E1086E
:10115000F10888EE880E83E0981EA11CB11CC11412
:10116000D104E104F10419F7DDCFFF90EF90DF9097
:10117000CF90BF90AF909F908F90089580931E0660
:101180007093200660932106ECE1F6E080E090E0A9
:101190002191820F911D26E0E232F207C9F7919565
:1011A00081959109909322068093230680911F06D2
:1011B000882339F080912C06882349F00E94BC06D0
:1011C000F9CF6AE070E080E090E00E9484088091AE
:1011D000070690910806DC01ED91FC910280F381F5
:1011E000E02D4AE050E06BE176E009952FB7F894E6
:1011F0008091470590914805A0914905B0914A0515
:101200002FBF8093090690930A06A0930B06B09314
:101210000C0681E090911F06911101C080E080933F
:101220002C06089560E070E081E00C94BE083FB7A2
:10123000F8948091740690917506A0917606B0910D
:10124000770626B5A89B05C02F3F19F00196A11D72
:10125000B11D3FBFBA2FA92F982F8827820F911D4C
:10126000A11DB11DBC01CD0142E0660F771F881F93
:10127000991F4A95D1F708951F920F920FB60F92BA
:1012800011242F933F938F939F93AF93BF9380919C
:10129000470590914805A0914905B0914A053091C4
:1012A000730623E0230F2D3720F40196A11DB11DF5
:1012B00005C026E8230F0296A11DB11D20937306D9
:1012C0008093470590934805A0934905B0934A053C
:1012D0008091740690917506A0917606B09177067C
:1012E0000196A11DB11D8093740690937506A0937D
:1012F0007606B0937706BF91AF919F918F913F9102
:101300002F910F900FBE0F901F901895CF92DF92E4
:10131000EF92FF920F931F93E82FF92F05C0015012
:1013200011092109310961F1908196239417B9F3CC
:1013300005C0015011092109310911F1908196234D
:101340009413F7CFC12CD12CE12CF12C0AC08FEFD4
:10135000C81AD80AE80AF80A0C151D052E053F051B
:1013600079F080818623841791F36C2D7D2D8E2D4D
:101370009F2D1F910F91FF90EF90DF90CF900895D8
:1013800060E070E080E090E01F910F91FF90EF909F
:10139000DF90CF900895CF93DF9300D000D0CDB7EA
:1013A000DEB7789484B5826084BD84B5816084BDE5
:1013B00085B5826085BD85B5816085BD80916E00F3
:1013C000816080936E001092810080918100826024
:1013D0008093810080918100816080938100809161
:1013E00080008160809380008091B1008460809350
:1013F000B1008091B00081608093B00080917A004C
:10140000846080937A0080917A00826080937A0071
:1014100080917A00816080937A0080917A00806860
:1014200080937A001092C100E0915B05F0915C0519
:1014300002E00083E0915705F09158051082E09199
:101440005905F0915A0588E0808310926305E09178
:101450005F05F091600586E08083E0915D05F09185
:101460005E05808180618083E0915D05F0915E057D
:10147000808188608083E0915D05F0915E058081C8
:1014800080688083E0915D05F0915E0580818F7DAD
:1014900080838CED91E00E94220661E08BE00E9447
:1014A000310861E085E00E94310861E086E00E9439
:1014B000310861E083E00E94310861E081E10E942F
:1014C000310861E082E10E94310861E088E00E9419
:1014D000310861E088E00E94E50761E081E10E9457
:1014E000E50761E082E10E94E50781EA84BD11E041
:1014F00015BD8093B0001093B10080E1809381000E
:10150000109280000093500480E593EC90934F0478
:1015100080934E04909387008093860082E18093AD
:10152000810064E670E080E090E00E94840881EC35
:1015300092E090931B0480931A0410936F008BEE3B
:1015400091E00E9422061092030610920206109269
:101550000106109200061092FF051092FE058DE91B
:1015600091E090930506809304069091F4059631DE
:1015700008F057C02DEB30E03093FF052093FE05B7
:101580002BE931E030930106209300062CE231E094
:10159000309303062093020620916800983050F0A3
:1015A00031E09E3008F430E081E001C0880F3A95C8
:1015B000EAF701C084E0822B80936800983038F00D
:1015C0009E3040F0963148F020E030E008C02DE633
:1015D00030E005C02BE630E002C02CE630E030936E
:1015E000FC052093FB05983030F481E001C0880FA2
:1015F0009A95EAF70EC0292F30E09E3018F4285053
:10160000310902C02E50310981E001C0880F2A95AE
:10161000EAF78093FD0580910406909105060197F5
:10162000F1F78091020690910306892B21F18091B8
:1016300018049091190425E0883E9207E1F0009784
:1016400011F00E942005809106068E7F8093060689
:10165000109217041092160488EE95E090931904E6
:1016600080931804E091FB05F091FC059081809136
:10167000FD05892B80838CEA90E00E94BF0711E072
:1016800008EEE02E05E0F02E10931F06F0920806FB
:10169000E092070680910D0690910E06A0910F062C
:1016A000B09110068854944FAF4FBF4F80930D06F2
:1016B00090930E06A0930F06B093100660E070E0C2
:1016C0008CE00E94BE0810932C060E94BC06882362
:1016D000E1F380910D0690910E06A0910F06B09156
:1016E0001006885B9B40A109B10980930D06909379
:1016F0000E06A0930F06B093100668EC70E080E031
:1017000090E00E94840810922B0680912706843076
:1017100059F08AE990E00E94BF0768EE73E080E02C
:1017200090E00E948408B0CF84E990E00E94BF0757
:1017300060E088E00E94E5076AE070E086E00E94D1
:10174000BE0861E070E081E10E94BE0861E081E1D5
:101750000E94E50760E082E10E94E50783E0E82E51
:10176000F12C94E0C92ED12C02E010E02AE0A22E48
:10177000B12C35E0232E312C80914D04882309F4BF
:10178000ABC080912204909123048130910579F1BE
:101790002CF5892B09F094C784EF91E00E94220672
:1017A0008FEF8093B30061E08DE00E94E50760E079
:1017B00081E10E94E50761E082E10E94E5078091F6
:1017C0003A0490913B04909352048093510461E059
:1017D00070E0709323046093220472C782309105F5
:1017E00039F1039709F06CC710924D0469C78091D5
:1017F0005104909152048C599F4F092E000CAA0B52
:10180000BB0B40913A0450913B0460913C047091B1
:101810003D0484179507A607B7070CF051C786E06B
:1018200092E00E942206109323040093220448C7EA
:101830000E949405BBE38B2EBDE09B2EC401019753
:10184000F1F70E949405C4010197F1F70E949405F5
:10185000EEE3F4E0ACE1B4E0819191918530910543
:1018600014F0049702C080E090E08D939D9374E0A3
:10187000E434F70789F785E094E00E94220680911E
:101880001C0490911D040E949A0688E793E00E9430
:10189000300680911E0490911F040E949A0688E7EA
:1018A00093E00E94300680912004909121040E94D0
:1018B0009A0688E793E00E94300661E081E10E9489
:1018C000E50760E082E10E94E507F0922304E092E0
:1018D00022041092B300F4C680914C04882321F0B6
:1018E00010924C040E94940580914B04811106C013
:1018F00080914A04882309F472C133C010924B04CA
:10190000E4E2F4E0AEE3B4E040815181828193816E
:1019100024813581841795071CF02817390734F482
:10192000821793076CF04817590724F011969C937F
:101930008E9310C02417350734F4281739073CF06C
:101940004217530724F011963C932E9303C011962F
:101950005C934E933696129684E0E633F807A1F630
:10196000C7CF10924A048091650490916604029753
:1019700009F001C12091840438B5822F90E0831BC7
:1019800091091816190614F08FEF01C081E08093B9
:10199000590488B5281302C0109259042091830479
:1019A00037B5822F90E0831B91091816190614F0A1
:1019B0008FEF01C081E08093580487B5281302C0DF
:1019C00010925804209182043091B400822F90E04C
:1019D000831B91091816190614F08FEF01C081E0DE
:1019E000809357048091B400281302C010925704CA
:1019F00040915904411108C080915804811104C0DC
:101A000080915704882319F010925E040BC081E086
:101A100080935E0480913A0490913B049093540427
:101A20008093530480915E04811172C080915A04A6
:101A300090915B040296092E000CAA0BBB0B409000
:101A40003A0450903B0460903C0470903D0484152F
:101A50009505A605B7050CF08EC028B5842F042E79
:101A6000000C990BFC01E20FF11DEF3FF10509F0AD
:101A700044F428B5820F911D97FD05C088B5480F25
:101A800003C04FEF01C040E048BD27B54091580466
:101A9000842F042E000C990B3C01620E711C9301E3
:101AA0002F3F310509F044F427B5820F911D97FDB2
:101AB00005C087B5480F03C04FEF01C040E047BDE8
:101AC0002091B40040915704842F042E000C990BF0
:101AD0004C01820E911C94012F3F310509F054F402
:101AE0002091B400820F911D97FD06C08091B40033
:101AF000480F03C04FEF01C040E04093B400809115
:101B00003A0490913B0490935B0480935A0433C051
:101B100080916404882339F0109284041092830425
:101B20001092820428C082E192E00E9422068091F5
:101B30005604863010F48F5F01C080E08093560415
:101B400040916D0490E09C01220F331FF901E80FD2
:101B5000F91F25E1429FE00DF11D1124EA5FFE4FC0
:101B60008081809384048181809383048281809327
:101B7000820410925E0420915F043091B300822FA2
:101B800090E0831B91091816190614F08EEF01C01E
:101B900082E0809355048091B300281302C0109214
:101BA00055042091B30040915504842F042E000C5D
:101BB000990BBC01620F711D6F3F710509F054F460
:101BC0002091B300820F911D97FD06C08091B30054
:101BD000480F03C04FEF01C040E04093B300809135
:101BE0004904882309F46AC01092490480916E0464
:101BF000811137C0809187049091880481309105CC
:101C000071F01CF4892B69F130C08230910511F11B
:101C1000039759F5309268042092670426C080919A
:101C2000000190910101893191051CF48CE190E053
:101C300013C08D973CF4E7E1F0E0F0936804E09383
:101C4000670413C0F2E16F2E712C709268046092E9
:101C500067040BC08CE090E0909368048093670465
:101C600004C0109268041092670460915C04709143
:101C70005D048091670490916804681779071CF4EB
:101C80006F5F7F4F05C08617970774F46150710925
:101C900070935D0460935C04772786E00E94BE0821
:101CA00060E088E00E94E50780915C0490915D040B
:101CB000892B21F461E088E00E94E50780914804C7
:101CC000882309F4B7C11092480480918704909149
:101CD00088048230910509F451C02CF4009759F022
:101CE000019759F104C18330910509F481C004972B
:101CF00009F4C2C0FCC061E070E08CE390E00E9497
:101D00005D05882309F4F3C061E08DE00E94E507DA
:101D100088248394912C909288048092870487E091
:101D200080936D0460E088E00E94E5070E9412093C
:101D30008CE192E00E942206DAC061E070E08CE360
:101D400090E00E945D058111D2C010938804009339
:101D500087048FE292E00E94220680913A049091DB
:101D60003B04A0913C04B0913D048093690490939E
:101D70006A04A0936B04B0936C04B9C080916904A9
:101D800090916A04A0916B04B0916C0488539F4FAA
:101D9000AF4FBF4F40913A0450913B0460913C04D7
:101DA00070913D0484179507A607B7078CF48DE35F
:101DB00092E00E942206109268041092670460E08C
:101DC0008DE00E94E507F0928804E09287048FC0BE
:101DD00061E070E08CE390E00E945D05882309F4E7
:101DE00086C061E070E070938804609387047FC0D0
:101DF0008091690490916A04A0916B04B0916C0485
:101E0000845D9E4FAF4FBF4F40913A0450913B04C9
:101E100060913C0470913D0484179507A607B707AD
:101E200094F484E792E00E94220660E070E08EE085
:101E30000E94BE0860E088E00E94E507D092880416
:101E4000C092870454C061E070E08CE390E00E948F
:101E50005D05882309F44BC060E070E08DE00E94CE
:101E6000BE0861E088E00E94E50781E090E0909381
:101E70008804809387043BC08091690490916A0430
:101E8000A0916B04B0916C0480579E4FAF4FBF4F31
:101E900040913A0450913B0460913C0470913D04A0
:101EA00084179507A607B70774F487E992E00E94A4
:101EB000220660E070E086E10E94BE08109288046D
:101EC0001092870414C061E070E08CE390E00E94FF
:101ED0005D05882361F00E94120961E088E00E949C
:101EE000E507E1E0F0E0F0938804E0938704809157
:101EF0008504909186048230910509F441C02CF448
:101F0000009759F00197C9F070C08330910509F42A
:101F100068C0049709F465C068C062E070E088E7B3
:101F200090E00E945D058111CEC38091870490915D
:101F30008804019709F059C0C6C310936604009342
:101F400065041092640462E070E088E790E00E940B
:101F50005D0581114AC01093860400938504809129
:101F60003A0490913B04A0913C04B0913D048093CD
:101F7000600490936104A0936204B093630435C03D
:101F80008091600490916104A0916204B091630417
:101F900088539F4FAF4FBF4F40913A0450913B043D
:101FA00060913C0470913D0484179507A607B7071C
:101FB00044F483EB92E00E94220610928604109271
:101FC000850462E070E088E790E00E945D05882368
:101FD00061F066246394712C70928604609285048B
:101FE00004C0109286041092850480918704909119
:101FF00088048130910511F48FEF04C0833091057E
:1020000021F48EEB80935F0415C08430910519F4A0
:1020100010925F040FC0892B69F480918504909120
:102020008604892B39F410925F0481E08093640464
:1020300080935E0480914704882309F4D0C01092F5
:10204000470486E00E946D089C0190937D04809374
:102050007C0491E0253833400CF090E090937B04B1
:1020600020913604309137042230310509F45DC0E7
:102070003CF42115310579F02130310531F1AFC043
:102080002430310509F49AC00CF495C0253031058F
:1020900009F499C0A4C0992309F4A1C080913A041D
:1020A00090913B04A0913C04B0913D04809377044F
:1020B00090937804A0937904B0937A0481E090E03F
:1020C00090933704809336048AC040913A0450912B
:1020D0003B0460913C0470913D0491110DC040930C
:1020E0007304509374046093750470937604109392
:1020F00037040093360473C080917704909178047C
:10210000A0917904B0917A048C599F4FAF4FBF4F83
:1021100084179507A607B7070CF061C03092370403
:102120002092360486EC92E01FC040903A04509012
:102130003B0460903C0470903D04409173045091C6
:10214000740460917504709176044C5E5F4F6F4F1C
:102150007F4F44155505660577054CF4F09237041A
:10216000E092360489ED92E00E94220638C099235D
:10217000B1F140926F0450927004609271047092B9
:10218000720481E08093460480934504E1E0F0E02E
:10219000F0935F06E0935E06F0934A06E0934906EB
:1021A0000E94120984EE92E00E942206D092370427
:1021B000C092360414C0911112C00DC091110FC00D
:1021C0000E94120908C091110AC090916E0481E02A
:1021D000892780936E041092370410923604809100
:1021E0004604882309F4A0C01092460487E00E94A8
:1021F0006D0890938104809380042EE838E0DC0120
:102200000E94591520E034E040E050E00E94DB14C9
:10221000C90130937F0420937E042A31344084F432
:10222000F0923904E0923804B0925B06A0925A060C
:1022300010935D0600935C0685E08093570659C0B5
:102240008C3424E0920794F41093390400933804FA
:10225000B0925B06A0925A06B0925D06A0925C0610
:1022600082E08093570680EF92E019C0813B64E0E2
:102270009607C4F481E090E0909339048093380489
:102280001093700600936F06E4E1F0E0F09372069D
:10229000E093710682E080936C068CEF92E00E94DE
:1022A000220627C08333954094F41092390410928B
:1022B0003804B0927006A0926F06B0927206A09297
:1022C000710682E080936C0688E093E0E8CFD092BC
:1022D0003904C092380464E1662E712C7092700645
:1022E00060926F06109372060093710683E08093EC
:1022F0006C0680913804909139048330910529F05F
:10230000049741F487E293E002C085E193E00E94E4
:1023100022060AC084E393E00E94220680917E0494
:1023200090917F040E94A40680914504882309F4BB
:102330003AC1109245048091490690914A06823034
:10234000910591F11CF4019741F091C08330910502
:1023500081F1049709F463C08AC0809157068823ED
:10236000F1F080913A0490913B04A0913C04B0912B
:102370003D0480934F0690935006A0935106B0936E
:102380005206F0924A06E092490661E082E10E941C
:10239000E5078091570681508093570668C01092D8
:1023A0004A061092490636C0F0925F06E0925E0639
:1023B0005EC061E082E10E94E50740913A045091DD
:1023C0003B0460913C0470913D0480915A069091C9
:1023D0005B063C01990F8808990880914F069091FF
:1023E0005006A0915106B0915206860D971DA81D6A
:1023F000B91D84179507A607B707CCF5D0924A06F2
:10240000C092490640935306509354066093550674
:102410007093560660E082E10E94E50728C0809133
:102420005C0690915D06AC01990F660B770B80916D
:10243000530690915406A0915506B0915606840F0C
:10244000951FA61FB71F40913A0450913B0460911D
:102450003C0470913D0484179507A607B7073CF428
:1024600088248394912C90924A0680924906809108
:102470005E0690915F068230910591F11CF4019700
:1024800041F091C08330910581F1049709F463C054
:102490008AC080916C068823F1F080913A04909173
:1024A0003B04A0913C04B0913D048093640690935A
:1024B0006506A0936606B0936706F0925F06E09209
:1024C0005E0661E081E10E94E50780916C06815023
:1024D00080936C0668C010925F0610925E0636C04C
:1024E000F0925F06E0925E065EC061E081E10E94CC
:1024F000E50740913A0450913B0460913C0470918F
:102500003D0480916F06909170063C01990F8808F8
:1025100099088091640690916506A0916606B09135
:102520006706860D971DA81DB91D84179507A60778
:10253000B707CCF5D0925F06C0925E06409368065E
:102540005093690660936A0670936B0660E081E1C0
:102550000E94E50728C08091710690917206AC0137
:10256000990F660B770B8091680690916906A09190
:102570006A06B0916B06840F951FA61FB71F409186
:102580003A0450913B0460913C0470913D048417DF
:102590009507A607B7073CF488248394912C909262
:1025A0005F0680925E0680914404882309F488C007
:1025B000109244048DE493E00E94300680918704D9
:1025C000909188040E949A0682E593E00E9430066A
:1025D00080918504909186040E949A0689E593E093
:1025E0000E9430066091840470E080E090E04AE050
:1025F0000E9432068FE493E00E94300668B570E0D6
:1026000080E090E04AE00E9432068FE593E00E946D
:1026100030066091830470E080E090E04AE00E9420
:1026200032068FE493E00E94300667B570E080E0E8
:1026300090E04AE00E94320685E693E00E94300670
:102640006091820470E080E090E04AE00E943206EF
:102650008FE493E00E9430066091B40070E080E067
:1026600090E04AE00E9432068BE693E00E9410065A
:102670008EE693E00E94300680913E0490913F04E4
:102680000E949A0687E793E00E94300680914004FA
:10269000909141040E949A0687E793E00E943006D9
:1026A00080914204909143040E949A0687E793E048
:1026B0000E94300680914404909145040E94A40633
:1026C0000E94B70159C861E070E07093860460937E
:1026D00085048AE793E00E94220687CC8EEC91E085
:1026E0009093E9058093E80588EE95E00C94200529
:1026F0008F929F92AF92BF92CF92DF92EF92FF9212
:10270000CF93DF9310924E0510924D0598EE892ECF
:1027100093E0992EA12CB12C80924F0590925005F8
:10272000A0925105B09252058CEB91E090934C052C
:1027300080934B0585EC90E0909358058093570566
:1027400084EC90E090935A058093590580EC90E0DA
:1027500090935C0580935B0581EC90E090935E051F
:1027600080935D0582EC90E09093600580935F0517
:1027700086EC90E090936205809361051092640569
:102780001092650510926605109267054AE050E0C8
:1027900050936E0640936D0622E030E03093700651
:1027A00020936F0688E290E0909372068093710602
:1027B000509359064093580630935B0620935A066F
:1027C00090935D0680935C0610924406C3E1C0932B
:1027D0004206DAE0D093430661E083E10E943108CB
:1027E00060E0809143060E94310820E2C22E2EE470
:1027F000D22EE12CF12CC0924506D0924606E092F2
:102800004706F092480610923D06C0933B068EE0C4
:1028100080933C0661E083E10E94310860E0809192
:102820003C060E943108C0923E06D0923F06E092DC
:102830004006F092410610923606C09334068FE0AF
:102840008093350661E083E10E94310860E0809169
:1028500035060E943108C0923706D0923806E092C1
:102860003906F0923A0610922F06C0932D0680E1A9
:1028700080932E0661E083E10E94310860E0809140
:102880002E060E943108C0923006D0923106E092A6
:102890003206F092330684EF91E0A0E0B0E080933E
:1028A0000D0690930E06A0930F06B0931006EEEA65
:1028B000F1E0ABE1B6E001900D92DA95E1F710920C
:1028C000250682E08093260610922B0610922C0695
:1028D0001092EB051092EA058092EC059092ED05BE
:1028E000A092EE05B092EF058EEC91E09093E90591
:1028F0008093E8051092FF051092FE0510920106E4
:10290000109200061092030610920206109205061D
:1029100010920406609106066E7F6D7F6093060636
:102920006695617081E0682784E00E94E50761E0B8
:1029300084E00E943108EDE0F1E0E491E093F805D5
:10294000E9EFF0E0E491F0E0EE0FFF1FEF51FF4FF1
:10295000859194919093FA058093F90560E087E062
:102960000E9431088091060681FD04C061E087E085
:102970000E94E50787E08093F405E0E1F1E0E4914F
:10298000E093F505ECEFF0E0E491F0E0EE0FFF1FCF
:10299000E551FF4F859194919093F7058093F6054B
:1029A000DF91CF91FF90EF90DF90CF90BF90AF90ED
:1029B0009F908F900895052E97FB1EF400940E941F
:1029C000F21457FD07D00E94FA1407FC03D04EF40E
:1029D0000C94F21450954095309521953F4F4F4FF0
:1029E0005F4F089590958095709561957F4F8F4FBB
:1029F0009F4F0895A1E21A2EAA1BBB1BFD010DC01B
:102A0000AA1FBB1FEE1FFF1FA217B307E407F5079E
:102A100020F0A21BB30BE40BF50B661F771F881F7A
:102A2000991F1A9469F760957095809590959B0110
:102A3000AC01BD01CF010895A29FB001B39FC001B9
:102A4000A39F700D811D1124911DB29F700D811DDA
:102A50001124911D0895AA1BBB1B51E107C0AA1F99
:102A6000BB1FA617B70710F0A61BB70B881F991F2F
:102A70005A95A9F780959095BC01CD01089597FBD3
:102A8000072E16F4009407D077FD09D00E942B156D
:102A900007FC05D03EF4909581959F4F0895709561
:102AA00061957F4F0895EE0FFF1F0590F491E02D83
:102AB00009940E941C15B7FF0895821B930B08957B
:102AC00081E090E0F8940C94651510E0C0E9D0E046
:102AD00004C0FE010E9453152196C139D107C9F7E0
:042AE000F894FFCF98
:102AE4009001900190010000FFFFFFFFFF00000034
:102AF400FF000000FFFFFF005050508D6E63FF5732
:102B040022FF6F00CDDC394CAF500096887E57C24F
:102B1400007D00007D417D7D007D4100004100007D
:102B2400417D00007D0000FFFF28FFFF0000962884
:102B3400321400FFFF6414646464D76400D7A724CC
:102B44007878783246FF00A0FF3C2882785028002D
:102B540000C8C8C8C8C8000000C8000000C8C8C869
:102B64000032323200006464646464000000640073
:102B74000000646464003232320000FFFFFFFFFF94
:102B8400000000FF000000FFFFFF005050507EFFD8
:102B940006000100000000EF000000004E01BB0031
:102BA400E60095011701F500090100000000DA01B3
:102BB400BB006802D9012E024602C1017365726925
:102BC400616C20656E61626C656400656E61206D88
:102BD40075746500496E697469616C2063616C6920
:102BE400627261746500357320656C61707365642D
:102BF4002100636F6C6F7220636867007A6F6E6583
:102C0400203120542744202D3E207A656E65007AB9
:102C14006F6E652031206C6561766564007A6F6E35
:102C24006520312031307320656C617073656420D8
:102C34002D2D3E20736D616C6C2074696D656F750C
:102C4400743A2066696E566F6C20626563616D65C7
:102C5400732030007A6F6E65203120313573206522
:102C64006C6170736564202D2D3E20626967207449
:102C7400696D656F7574007A6F6E6520312032302E
:102C84007320656C6170736564202D2D3E2069642A
:102C94006C65007A6F6E6520322031307320746960
:102CA4006D656F7574006E6F7720707573686564F9
:102CB400203573206C6F6E670073686F72742070B8
:102CC40075736800646F75626C6520707573680055
:102CD40032207069726F73203530250032207A6F8C
:102CE4006C64202D3130250032207A6F6C64202DE5
:102CF4002035302500566F6C746167652043726916
:102D0400746963616C2100566F6C74616765204857
:102D140069676800566F6C746167652074657374C5
:102D240065642C206E6F726D616C2020007A313ADC
:102D3400200009207A323A20000920723A20000942
:102D440020673A20000920623A20000D0A00092079
:102D5400636D2D733A09000909007A6F6E6520329C
:102D640020542744202D3E2073706F742C207374DC
:102D740072697000736F66742072657365740062A3
:102D84006C696E6B2074657374000A0A0A2D2D2D0C
:102D94002D2D2D2D2D2D2D2D2D2D2D2D2D2D2D2D5F
:102DA4002D2D2D2D2D2D2D2D2D2D2D2D2D2D2D2D4F
:102DB4002D2D2D2D2D2D2D2D2D2D2D2D2D2D2D2D3F
:102DC4002D2D2D2D2D2D2D2D2D2D2D2D2D2D2D2D2F
:102DD4002D2D2D2D2D2D2D2D2D2D2D2D2D2D2D2D1F
:102DE4002D000A0A0A43616C696272617465642089
:062DF400776974683A00E3
:00000001FF
