:100000000C9491000C94B9000C94B9000C94DF048A
:100010000C94DF040C94DF040C94B9000C94B90028
:100020000C94B9000C94B9000C94B9000C94B9006C
:100030000C94B9000C946F050C94B9000C94B900A1
:100040000C9447010C94B9000C94AD040C948704F3
:100050000C94B9000C94B9000C94B9000C94B9003C
:100060000C94B9000C94B900EF06F306FA06E90601
:10007000FA06EB06F7060707FA06FA06FA06FA0684
:10008000FA06FA06FA06FA06FE06FA06FA06FA066C
:10009000FA06FA06646F6E652E00556E61626C6535
:1000A00020746F20636F6E6E65637400496E6974AF
:1000B00069616C697A696E67204446506C61796544
:1000C000722E0000000000240027002A000000001B
:1000D0000800020100000304070000000000000007
:1000E0000000000000250028002B00000000002375
:1000F000002600290004040404040404040202028B
:100100000202020303030303030102040810204058
:1001100080010204081020010204081020001310BE
:10012000091011241FBECFEFD8E0DEBFCDBF12E013
:10013000A0E0B1E0E6EEF3E202C005900D92AE372A
:10014000B107D9F724E0AEE7B2E001C01D92A73EA7
:10015000B207E1F710E0C0E9D0E004C02197FE014A
:100160000E94D411CF38D107C9F70E942E090C94F0
:10017000E6110C9400003FB7F8948091FD02909135
:10018000FE02A091FF02B091000326B5A89B05C016
:100190002F3F19F00196A11DB11D3FBFBA2FA92F06
:1001A000982F8827820F911DA11DB11DBC01CD0183
:1001B00042E0660F771F881F991F4A95D1F708956F
:1001C000CF92DF92EF92FF920F931F93CF93DF9323
:1001D0006C017A018B01C0E0D0E0CE15DF0589F01B
:1001E000D8016D918D01D601ED91FC910190F081C6
:1001F000E02DC6010995892B11F47E0102C02196DC
:10020000ECCFC701DF91CF911F910F91FF90EF903D
:10021000DF90CF9008950E94E1118F929F92AF924C
:10022000BF92CF92DF92EF92FF926B017C010E940E
:10023000BB004B015C01C114D104E104F104F1F0F5
:100240000E94BB00DC01CB0188199909AA09BB09EE
:10025000883E9340A105B10570F321E0C21AD10890
:10026000E108F10888EE880E83E0981EA11CB11CFD
:10027000C114D104E104F10419F7DDCFFF90EF9030
:10028000DF90CF90BF90AF909F908F9008951F9276
:100290000F920FB60F9211242F933F938F939F933A
:1002A000AF93BF938091E5039091E603A091E7039C
:1002B000B091E8033091FC0223E0230F2D3720F4A6
:1002C0000196A11DB11D05C026E8230F0296A11DB0
:1002D000B11D2093FC028093E5039093E603A09365
:1002E000E703B093E8038091FD029091FE02A09194
:1002F000FF02B09100030196A11DB11D8093FD0284
:100300009093FE02A093FF02B0930003BF91AF91C0
:100310009F918F913F912F910F900FBE0F901F9043
:100320001895FC01538D448D252F30E0842F90E0EB
:10033000821B930B541710F0CF96089501970895E0
:10034000FC01918D828D981761F0828DDF01A80FDD
:10035000B11D5D968C91928D9F5F9F73928F90E0FF
:1003600008958FEF9FEF0895FC01918D828D98176E
:1003700031F0828DE80FF11D858D90E008958FEFAB
:100380009FEF0895FC01918D228D892F90E0805C74
:100390009F4F821B91098F739927089589EE93E0EF
:1003A0000E94C20121E0892B09F420E0822F0895E8
:1003B000FC01848DDF01A80FB11DA35ABF4F2C9102
:1003C000848D90E001968F739927848FA689B789D1
:1003D0002C93A089B1898C9180648C93938D848DAA
:1003E000981306C00288F389E02D80818F7D808379
:1003F0000895EF92FF920F931F93CF93DF93EC0139
:1004000081E0888F9B8D8C8D981305C0E889F989D0
:10041000808185FD24C0F62E0B8D10E00F5F1F4FED
:100420000F731127E02E8C8DE8120CC00FB607FC5D
:10043000FACFE889F989808185FFF5CFCE010E9446
:10044000D801F1CF8B8DFE01E80FF11DE35AFF4F6C
:10045000F0820B8FEA89FB898081806207C0EE8978
:10046000FF896083E889F98980818064808381E0E5
:1004700090E0DF91CF911F910F91FF90EF90089541
:10048000CF93DF93EC01888D8823C9F0EA89FB893B
:10049000808185FD05C0A889B9898C9186FD0FC032
:1004A0000FB607FCF5CF808185FFF2CFA889B98907
:1004B0008C9185FFEDCFCE010E94D801E7CFDF916F
:1004C000CF91089580E090E0892B29F00E94CE0121
:1004D00081110C94000008952091800230918102D6
:1004E0002817390771F490917E0280917F02981746
:1004F00041F0E0917E02F0E0EB55FC4F808190E00E
:1005000008958FEF9FEF089508951F93CF93DF9382
:10051000DC015C962D913C915D972115310539F4F4
:1005200081E090E013969C938E9312973DC0519674
:10053000ED91FC91529750969C915097892F809500
:100540001FB75E964C915E9741FB772770F941FD8E
:100550006095F8944081772311F0492B01C048231E
:100560004083E9012197F1F748E0508160FF02C024
:10057000592B01C058235083E9012197F1F7669563
:10058000415099F7772321F090818923808303C01C
:100590008081982B90831FBF5C968D919C915D9775
:1005A0000197F1F721E030E0C901DF91CF911F9170
:1005B000089520918002309181022817390771F443
:1005C00080917F0220917E0290E0805C9F4F821B91
:1005D000910960E470E00E94C011089580E090E00D
:1005E0000895209180023091810228173907B9F4CB
:1005F00090917E0280917F02981789F0E0917E02AF
:10060000F0E0EB55FC4F808120917E0230E02F5FBF
:100610003F4F2F73332720937E0290E008958FEF92
:100620009FEF0895089580E090E008950F931F9341
:10063000CF93DF93EC018A81882321F061E08881E8
:100640000E94960860E088810E944A0883E090E05A
:100650000197F1F761E088810E944A0883E290E007
:100660000197F1F760E088810E944A088A81882317
:1006700021F060E088810E949608298130E0F9012C
:10068000E75FFE4F6491F901EB50FF4FE491F0E01A
:10069000EE0FFF1FE551FF4F859194910B811C8157
:1006A0002D813E813F70462F0E94E908611571053A
:1006B0008105910539F0DC01CB010196A11DB11D29
:1006C000BF7003C080E090E0DC01DF91CF911F910B
:1006D0000F9108950F931F93CF93DF93C091AA02B8
:1006E000D091AB022196D093AB02C093AA02809125
:1006F0009C0290919D02A0919E02B0919F02019652
:10070000A11DB11D80939C0290939D02A0939E0217
:10071000B0939F0221E02093BE02CE0163E070E01F
:100720000E94AC11892B11F42093BD028091AC0280
:100730009091AD02039751F081E08093BC029E013D
:1007400023703327232B11F48093BB02C0FD05C017
:1007500081E08093BA028093B902CE016AE070E032
:100760000E94AC11892B19F481E08093B602CE016E
:1007700068EC70E00E94AC11892BF1F0CE0160EAC8
:100780007FE00E94AC11892B09F04DC081E080937D
:10079000B7028EE592E00E944B061092B9021092C9
:1007A000BC021092B6021092BE021092BB021092CE
:1007B000BA021092B80237C020910103243110F41C
:1007C0002F5F01C020E02093010330E0F901EE0F1C
:1007D000FF1FEE5FFC4F8091AE029091AF029183BC
:1007E0008083F901EE0FFF1FE65DFC4F8091B002A0
:1007F0009091B10291838083F901EE0FFF1FEE5AB1
:10080000FC4F8091B2029091B30291838083220FBA
:10081000331FF901E658FC4F8091B4029091B50264
:1008200091838083ABCF80919C0290919D02A09197
:100830009E02B0919F02883C9105A105B1056CF420
:100840008091A0029091A102039739F481E08093F6
:10085000B80289E692E00E944B068091AA0290912C
:10086000AB0260EC72E10E94AC11892B09F04AC026
:10087000C2EAD2E0E2E0F3E004E110E080E090E0E0
:1008800020E030E0DF01A80FB91F4D915C91240FEB
:10089000351F029688329105A9F7C901B8010E9457
:1008A000C01169937993B89683E0E23AF80731F77B
:1008B0003093A3032093A20380E092E00E944B06B2
:1008C0008091A2029091A3020E941A0889E592E009
:1008D0000E94B0078091A4029091A5020E941A087C
:1008E00089E592E00E94B0078091A6029091A7024C
:1008F0000E941A0889E592E0DF91CF911F910F9134
:100900000C94B007DF91CF911F910F9108951F9222
:100910000F920FB60F9211242F933F934F935F9333
:100920006F937F938F939F93AF93BF93EF93FF93B7
:1009300089EE93E00E94D801FF91EF91BF91AF91B2
:100940009F918F917F916F915F914F913F912F91E7
:100950000F900FBE0F901F9018951F920F920FB619
:100960000F9211242F938F939F93EF93FF93E09116
:10097000F903F091FA038081E091FF03F091000404
:1009800082FD12C09081809102048F5F8F7320914D
:100990000304821751F0E0910204F0E0E751FC4FAC
:1009A000958F8093020401C08081FF91EF919F9108
:1009B0008F912F910F900FBE0F901F9018951F923F
:1009C0000F920FB60F9211242F933F934F935F9383
:1009D0006F937F938F939F93AF93BF93EF93FF9307
:1009E000E0918002F0918102309709F451C0968D18
:1009F000A685B785858591FF04C09C91892329F43C
:100A000047C09C91892309F043C0A389B4899C9174
:100A10008589809589238C93868997890197F1F739
:100A2000608D718DA685B785558538E020E0CB01B6
:100A30000197F1F7822F90E095958795282F4C919B
:100A4000452309F02068315091F7868D81FD20956E
:100A500080917F0290E001968F73992730917E02FA
:100A6000381749F0A0917F02B0E0AB55BC4F2C93F2
:100A700080937F0203C0868D8160868F828D938DE7
:100A80000197F1F7A389B4899C918589892B8C936F
:100A9000FF91EF91BF91AF919F918F917F916F9156
:100AA0005F914F913F912F910F900FBE0F901F902C
:100AB0001895E0918002F0918102E817F90769F436
:100AC000A389B4899C918589809589238C93109200
:100AD00081021092800281E0089580E008951F92C3
:100AE0000F920FB60F9211242F933F934F935F9362
:100AF0006F937F938F939F93AF93BF93EF93FF93E6
:100B0000E0918202F09183020995FF91EF91BF91EC
:100B1000AF919F918F917F916F915F914F913F9195
:100B20002F910F900FBE0F901F90189520E931E084
:100B30003093050120930401EEEAF2E0A2EAB2E06C
:100B4000219131914D915D912417350784F4281737
:100B500039076CF4C901803921E0920714F080E96B
:100B600091E0909305018093040181E0089522E0D3
:100B7000E63BF20729F780E00895CF93DF93E091F9
:100B8000A403E23018F4C1E0CE0F01C0C0E0C0936E
:100B9000A4038BEF9CE70197F1F789ED94E00E94A5
:100BA0001603EC2FF0E0EE0FFF1FE657FD4F6CE150
:100BB00070E00E94AC117695679571836083C09157
:100BC000A403D0E0FE01EE0FFF1FE657FD4F80812A
:100BD0009181892B21F481E991E0918380838BE5D8
:100BE0009AEE0197F1F780EE94E00E941603CC0F85
:100BF000DD1FCC57DD4F6CE170E00E94AC117695A3
:100C0000679579836883C091A403D0E0FE01EE0F5D
:100C1000FF1FEC57FD4F80819181892B21F481E9E1
:100C200091E0918380838BEB9AED0197F1F782ED50
:100C300094E00E941603CC0FDD1FC057DD4F6CE11E
:100C400070E00E94AC117695679579836883E09196
:100C5000A403F0E0EE0FFF1FE057FD4F808191816C
:100C6000892B21F481E991E091838083DF91CF91F9
:100C70000895009769F0FC0101900020E9F7319791
:100C8000AF01481B590BBC0189EE93E00C94E000C6
:100C900080E090E00895CF93DF930E943906EC0145
:100CA0008BE592E00E9439068C0F9D1FDF91CF915A
:100CB0000895CF93DF938091A5049091A604DC0161
:100CC000ED91FC910084F185E02D0995892B09F4C3
:100CD000B7C0C091C3048091A5049091A604DC0123
:100CE000ED91FC910284F385E02DC1110DC00995B1
:100CF0008093AF048E37F9F61092C9048091C30433
:100D00008F5F8093C304D7CF0995EC2FF0E0EB55AC
:100D1000FB4F82879091C3049230A9F09930C9F0BB
:100D2000913009F089C08091B0048F3F09F484C0EC
:100D30001092C3049093C5041092C8041092C70483
:100D40009093C904B3C08091B104863009F474C093
:100D500004C08091B8048F3E19F01092C30464C09F
:100D6000E0EBF4E040E050E08191480F511DB4E029
:100D7000E63BFB07C9F72091B60430E0322F22276B
:100D80005195419551098091B704280F311D10925A
:100D9000C3044217530709F047C0E091B204E0933F
:100DA000C6048091B40490E0982F88272091B50460
:100DB000820F911D9093C8048093C7044E2F50E07A
:100DC000FA01FA97E631F105C8F4EC5CFF4F0C9498
:100DD000D41185E00DC081FF1CC084E009C081FFF3
:100DE00018C082E005C081FF14C083E001C086E026
:100DF0008093C50481E08093C9040BC081E0809397
:100E0000C5041092C8041092C7048093C9041092BC
:100E1000CA04D091C904DD2309F44AC08091BD04FD
:100E2000882309F443C044C081E08093C504109234
:100E3000C8041092C70438C09F5F9093C3043BCF8F
:100E40008091CA04882321F12FB7F8948091E5039B
:100E50009091E603A091E703B091E8032FBF409182
:100E6000A7045091A8046091A9047091AA04841B5E
:100E7000950BA60BB70B4091AB045091AC0460915D
:100E8000AD047091AE0484179507A607B70718F450
:100E9000D091C9040DC01092C3041092C5041092E1
:100EA000C8041092C70481E08093C9041092CA0458
:100EB0008D2FDF91CF9108958093BC047093BE0471
:100EC0006093BF04EAEBF4E080E090E02191820FB0
:100ED000911D24E0E03CF207C9F7919581959109B5
:100EE0009093C0048093C1048091BD04882339F09D
:100EF0008091CA04882349F00E945906F9CF6AE01C
:100F000070E080E090E00E940D018091A504909136
:100F1000A604DC01ED91FC910280F381E02D4AE012
:100F200050E069EB74E009952FB7F8948091E503E0
:100F30009091E603A091E703B091E8032FBF80935F
:100F4000A7049093A804A093A904B093AA0481E0F5
:100F50009091BD04911101C080E08093CA0408956E
:100F60000C9439068F929F92AF92BF920F931F936A
:100F7000CF93DF93CDB7DEB7A1970FB6F894DEBF5E
:100F80000FBECDBF19A2423008F44AE08E010F5DBA
:100F90001F4F842E912CA12CB12CA50194010E94ED
:100FA0007B11E62FB901CA0101501109EA3014F48E
:100FB000E05D01C0E95CD801EC93232B242B252BA9
:100FC00061F7C8010E943906A1960FB6F894DEBFFA
:100FD0000FBECDBFDF91CF911F910F91BF90AF900A
:100FE0009F908F900895CF92DF92EF92FF92CF93D0
:100FF000DF936B017C01E091E903F091EA0301903A
:10100000F081E02D6DE289EE93E00995EC01662711
:101010007727CB016C197D098E099F094AE00E9450
:10102000B2078C0F9D1FDF91CF91FF90EF90DF9063
:10103000CF900895BC01990F880B990B97FD0C94E4
:10104000F3074AE00C94B2070F931F93CF93DF93FB
:101050008C01C0E0D0E0F801EC0FFD1F6491662325
:1010600071F0E091E903F091EA030190F081E02D45
:1010700089EE93E00995892B11F02196ECCF8BE551
:1010800092E00E9439068C0F9D1FDF91CF911F9136
:101090000F91089590E0FC01E353FF4F3491FC0160
:1010A000E75FFE4F2491FC01EB50FF4FE491EE23EC
:1010B00009F43BC0332339F1333091F038F4313047
:1010C000A9F0323001F584B58F7D12C0373091F030
:1010D0003830A1F03430B9F4809180008F7D03C0A6
:1010E000809180008F77809380000DC084B58F77CA
:1010F00084BD09C08091B0008F7703C08091B0009B
:101100008F7D8093B000F0E0EE0FFF1FEF51FF4F97
:10111000A591B4918FB7F894EC91611103C020951B
:101120002E2301C02E2B2C938FBF0895CF93DF93D6
:1011300090E0FC01E75FFE4F2491FC01EB50FF4F74
:101140008491882361F190E0880F991FFC01ED5391
:10115000FF4FC591D491FC01EF51FF4FA591B49180
:10116000611109C09FB7F8948881209582238883F4
:10117000EC912E230BC0623061F49FB7F894388154
:10118000822F809583238883EC912E2B2C939FBFF5
:1011900006C08FB7F894E8812E2B28838FBFDF918C
:1011A000CF9108958E3008F08E50877080648093C0
:1011B0007C0080917A00806480937A0080917A002C
:1011C00086FDFCCF809178002091790090E0922BF1
:1011D0000895CF92DF92EF92FF920F931F93E82F23
:1011E000F92F05C0015011092109310961F19081E0
:1011F00096239417B9F305C001501109210931094B
:1012000011F1908196239413F7CFC12CD12CE12CAE
:10121000F12C0AC08FEFC81AD80AE80AF80A0C1590
:101220001D052E053F0579F080818623841791F3F3
:101230006C2D7D2D8E2D9F2D1F910F91FF90EF9086
:10124000DF90CF90089560E070E080E090E01F9123
:101250000F91FF90EF90DF90CF900895789484B530
:10126000826084BD84B5816084BD85B5826085BDA2
:1012700085B5816085BD80916E00816080936E0030
:101280001092810080918100826080938100809122
:1012900081008160809381008091800081608093D3
:1012A00080008091B10084608093B1008091B00093
:1012B00081608093B00080917A00846080937A008E
:1012C00080917A00826080937A0080917A008160B8
:1012D00080937A0080917A00806880937A001092DF
:1012E000C100E091F903F091FA03D2E0D083E091DC
:1012F000F503F091F6031082E091F703F091F80303
:1013000010E1108310920104E091FD03F091FE03BF
:1013100086E08083E091FB03F091FC038081806193
:101320008083E091FB03F091FC03808188608083DF
:10133000E091FB03F091FC03808180688083E09161
:10134000FB03F091FC0380818F7D80838DE991E028
:101350000E944B0661E085E00E94960861E086E00D
:101360000E94960861E083E00E94960861E081E1B6
:101370000E94960861E082E10E94960861E088E0A0
:101380000E94960861E088E00E944A0861E081E1DD
:101390000E944A0861E082E10E944A0881EA84BD15
:1013A000C1E0C5BD81E28093B000C093B10010934D
:1013B000810010928000D093C10280E593EC90935D
:1013C000C0028093BF02909387008093860082E1E1
:1013D0008093810064E670E080E090E00E940D015F
:1013E0008AE693E09093830280938202C0936F0019
:1013F0008CEA91E00E944B061092A1041092A00486
:1014000010929F0410929E0410929D0410929C04CE
:101410008DE991E09093A3048093A20490919204AB
:10142000963108F057C02DEB30E030939D042093A7
:101430009C042BE931E030939F0420939E042CE21E
:1014400031E03093A1042093A004209168009830EB
:1014500050F031E09E3008F430E081E001C0880FA8
:101460003A95EAF701C084E0822B809368009830B7
:1014700038F09E3040F0963148F020E030E008C06F
:101480002DE630E005C02BE630E002C02CE630E06F
:1014900030939A0420939904983030F481E001C08D
:1014A000880F9A95EAF70EC0292F30E09E3018F485
:1014B0002850310902C02E50310981E001C0880F47
:1014C0002A95EAF780939B048091A2049091A3044B
:1014D0000197F1F78091A0049091A104892B21F14B
:1014E000809180029091810224E086389207E1F099
:1014F000009711F00E9459058091A4048E7F80937B
:10150000A40410927F0210927E0286E894E09093E9
:10151000810280938002E0919904F0919A04908175
:1015200080919B04892B80838CEA90E00E942408A0
:1015300011E0C6E8D4E01093BD04D093A604C09394
:10154000A5048091AB049091AC04A091AD04B0913E
:10155000AE048854944FAF4FBF4F8093AB04909329
:10156000AC04A093AD04B093AE0460E070E08CE0F6
:101570000E945C071093CA040E9459068823E1F375
:101580008091AB049091AC04A091AD04B091AE04F5
:10159000885B9B40A109B1098093AB049093AC0494
:1015A000A093AD04B093AE0468EC70E080E090E0EE
:1015B0000E940D011092C9048091C504843059F035
:1015C0008AE990E00E94240868EE73E080E090E0F1
:1015D0000E940D01B0CF84E990E00E94240861E0F0
:1015E00081E10E944A0860E082E10E944A08C2E06C
:1015F000D0E001E010E084E0282E312C8091BE0282
:10160000882321F01092BE020E94BD058091BD0288
:10161000811106C08091BC02882309F488C133C0BF
:101620001092BD02E4E8F2E0AEEAB2E040815181FE
:101630008281938124813581841795071CF02817B6
:10164000390734F4821793076CF04817590724F0D0
:1016500011969C938E9310C02417350734F42817E5
:1016600039073CF04217530724F011963C932E9310
:1016700003C011965C934E933696129632E0EC3985
:10168000F307A1F6C7CF1092BC028091E5029091BA
:10169000E6028230910521F0049709F401C147C1A7
:1016A0002091CC0238B5822F90E0831B9109181647
:1016B000190614F08FEF01C081E08093C60288B54F
:1016C000281302C01092C6022091CB0237B5822F98
:1016D00090E0831B91091816190614F08FEF01C0D2
:1016E00081E08093C50287B5281302C01092C5021D
:1016F0002091CA023091B400822F90E0831B91099F
:101700001816190614F08FEF01C081E08093C4020F
:101710008091B400281302C01092C4024091C60206
:10172000411108C08091C502811104C08091C4029A
:10173000882319F01092CD020BC081E08093CD0276
:1017400080919C0290919D029093C3028093C2026B
:101750008091CD02811170C08091C7029091C80222
:101760000296092E000CAA0BBB0BC0909C02D090D5
:101770009D02E0909E02F0909F028C159D05AE05A3
:10178000BF050CF0D4C028B5842F042E000C990B93
:10179000BC01620F711D6F3F710509F044F428B55B
:1017A000820F911D97FD05C088B5480F03C04FEF0C
:1017B00001C040E048BD27B54091C502842F042EEA
:1017C000000C990BDC01A20FB11DAF3FB10509F070
:1017D00044F427B5820F911D97FD05C087B5480FCA
:1017E00003C04FEF01C040E047BD2091B4004091DD
:1017F000C402842F042E000C990BBC01620F711DD2
:101800006F3F710509F054F42091B400820F911DCF
:1018100097FD06C08091B400480F03C04FEF01C090
:1018200040E04093B40080919C0290919D0290937F
:10183000C8028093C7027BC08091D202882339F00E
:101840001092CC021092CB021092CA0270C085EBAB
:1018500091E00E944B068091C902863010F48F5FA0
:1018600001C080E08093C9024091E80290E09C01B1
:10187000220F331FF901E80FF91F75E1479FE00DB3
:10188000F11D1124EA5FFE4F80818093CC0281819B
:101890008093CB0282818093CA021092CD0247C00E
:1018A00040919C0250919D0260919E0270919F0216
:1018B0008091DD029091DE026C01990FEE08FF0825
:1018C0008091E1029091E202A091E302B091E402E2
:1018D0008C0D9D1DAE1DBF1D481759076A077B075C
:1018E00014F5C090DF02D090E002E090DB02F090AF
:1018F000DC02C6018E0D9F1D092E000CAA0BBB0B2E
:10190000481759076A077B072CF418BC8FEF8093A0
:10191000B40087BD80919C0290919D029093E0025B
:101920008093DF0204C0D093E602C093E502809169
:10193000BB02882309F460C01092BB028091FA02B6
:101940009091FB02009729F00197F9F48EE090E066
:1019500013C08091F8029091F902009791F00197DD
:10196000A1F48091D0029091D1028B30910514F4B2
:10197000019602C08BE090E09093D1028093D00258
:1019800004C01092D1021092D0028091CE029091A8
:10199000CF026091D0027091D1028617970754F45C
:1019A0009C012D5F3F4F2617370784F4BC016C5F05
:1019B0007F4F0CC068177907ACF49C0123503109A4
:1019C000621773071CF4BC01645071097093CF0255
:1019D0006093CE02772786E00E945C0760E088E093
:1019E0000E944A088091CE029091CF02892B21F467
:1019F00061E088E00E944A088091BA02882309F4D5
:101A0000DDC01092BA028091FA029091FB028130FF
:101A10009105E9F082309105A9F1892B09F05EC0AA
:101A200088E290E00E949605882309F457C0D0937D
:101A3000E602C093E5021092E80261E08DE00E94A8
:101A40004A0860E070E088E10E945C0743C088E2D9
:101A500090E00E949605811141C0D093FB02C09393
:101A6000FA0280919C0290919D02A0919E02B091F9
:101A70009F028093D7029093D802A093D902B0938B
:101A8000DA022CC08091D7029091D802A091D9029D
:101A9000B091DA0288539F4FAF4FBF4F40919C02E5
:101AA00050919D0260919E0270919F02841795074C
:101AB000A607B7074CF460E08DE00E944A08109238
:101AC000FB021092FA020AC088E290E00E9496059A
:101AD000882321F01093FB020093FA028091F80210
:101AE0009091F9028130910591F082309105A9F130
:101AF000892B09F055C08AE590E00E94960588235D
:101B000009F44EC01093F9020093F80249C0D09333
:101B1000E602C093E50260E088E00E944A0882E0A5
:101B20008093E8028AE590E00E949605811138C012
:101B3000D093F902C093F80280919C0290919D028B
:101B4000A0919E02B0919F028093D3029093D40201
:101B5000A093D502B093D60223C08091D302909176
:101B6000D402A091D502B091D60280579E4FAF4FBC
:101B7000BF4F40919C0250919D0260919E027091D6
:101B80009F0284179507A607B7070CF0B4CF60E053
:101B900070E086E10E945C071092F9021092F80250
:101BA0008091FA029091FB02892B29F49091E7022F
:101BB00081E0892701C080E08093D2028091B90240
:101BC000882309F4E2C01092B90286E00E94D2088C
:101BD0009093F1028093F00221E0853893400CF05D
:101BE00020E02093EF028091A0029091A102823028
:101BF000910509F47FC02CF40097B1F0019721F111
:101C0000C4C08430910509F4B7C00CF4AEC0059788
:101C100009F0BBC060E070E088E10E945C078FEBD8
:101C200091E00E944B06ADC0222309F4AEC0809122
:101C30009C0290919D029093EE028093ED0210938E
:101C4000A1020093A002A1C021110DC080919C02AD
:101C500090919D029093EC028093EB02D093A102AD
:101C6000C093A00292C040919C0250919D0260914D
:101C70009E0270919F028091ED029091EE028C592C
:101C80009F4F092E000CAA0BBB0B84179507A607C4
:101C9000B7070CF07AC03092E6022092E50240933A
:101CA000E1025093E2026093E3027093E4025093E6
:101CB000E0024093DF0224E630E03093DE0220931E
:101CC000DD0264E170E07093DC026093DB0280E08F
:101CD00090E0A0E0BFE38093000190930101A09306
:101CE0000201B0930301A5E0B0E0B093A102A0937C
:101CF000A0024BC02223B1F080919C0290919D02E2
:101D00009093EA028093E9028091E802843011F016
:101D10008F5F01C080E08093E8023092A1022092A0
:101D2000A00233C08091EB029091EC024496092E00
:101D3000000CAA0BBB0B40919C0250919D0260913C
:101D40009E0270919F0284179507A607B707ECF4CF
:101D50009091E70281E089278093E70223E030E059
:101D60003093A1022093A00210C021110EC0109246
:101D7000A1021092A00209C060E070E081E00E9420
:101D80005C078091EF02882391F38091B802882349
:101D900009F47EC01092B80282ED91E00E944B06D9
:101DA0000E94BD059BE3E92E9DE0F92EC701019736
:101DB000F1F70E94BD05C7010197F1F70E94BD052B
:101DC00061E08DE00E944A0860E081E10E944A08DB
:101DD00061E082E10E944A0884EE91E00E944B0695
:101DE00068E873E180E090E00E940D0160E08DE022
:101DF0000E944A0883EF91E00E944B068091AE0258
:101E00009091AF029093A3028093A2028091B002BE
:101E10009091B1029093A5028093A4028091B202A6
:101E20009091B3029093A7028093A6028091B4028E
:101E30009091B5029093A9028093A80280E092E06D
:101E40000E944B068091A2029091A3020E941A0860
:101E500089E592E00E94B0078091A4029091A502CA
:101E60000E941A0889E592E00E94B0078091A602BC
:101E70009091A7020E941A0889E592E00E94B0079B
:101E800061E081E10E944A0860E082E10E944A0824
:101E90008091B702882309F452C01092B70287E0FC
:101EA0000E94D2089093F7028093F6022EE838E061
:101EB000DC010E94DA1120E034E040E050E00E94B2
:101EC0005C11C9013093F5022093F4028C3434E0A4
:101ED00093072CF4D093AD02C093AC020CC0803BAE
:101EE00094402CF41093AD020093AC0204C0109205
:101EF000AD021092AC022091AC023091AD022115DE
:101F00003105A1F023303105B1F48091AA029091FE
:101F1000AB026AE070E00E94AC11892B81F430932F
:101F2000F3022093F20281E192E007C0D093F30222
:101F3000C093F20204C083E292E00E944B068091BB
:101F4000B602882309F462C01092B60282E392E0DE
:101F50000E94B0078091FA029091FB020E941A0839
:101F600087E392E00E94B0078091F8029091F90215
:101F70000E941A088EE392E00E94B00788E290E087
:101F80000E94960590E00E941A0888E492E00E9460
:101F9000B0078AE590E00E94960590E00E941A083A
:101FA00082E592E00E94B0078091AE029091AF026C
:101FB0000E941A0888E592E00E94B0078091B00262
:101FC0009091B1020E941A0888E592E00E94B00741
:101FD0008091B2029091B3020E941A0888E592E0C3
:101FE0000E94B0076091B4027091B502072E000CF8
:101FF000880B990B97FF03C00E94F30703C04AE0C8
:102000000E94B2078BE592E00E9439060E946202AC
:10201000F5CA8FE891E0909387048093860486E860
:1020200094E00C9459058F929F92AF92BF92CF92F9
:10203000DF92EF92FF92CF93DF931092EC03109216
:10204000EB0398EE892E93E0992EA12CB12C80926F
:10205000ED039092EE03A092EF03B092F0038DE7B0
:1020600091E09093EA038093E90385EC90E09093EC
:10207000F6038093F50384EC90E09093F80380934B
:10208000F70380EC90E09093FA038093F90381ECDE
:1020900090E09093FC038093FB0382EC90E090939C
:1020A000FE038093FD0386EC90E090930004809300
:1020B000FF03109202041092030410920404109281
:1020C00005041092E204C3E1C093E004DAE0D09387
:1020D000E10461E083E10E94960860E08091E10400
:1020E0000E94960880E29EE4A0E0B0E08093E304C2
:1020F0009093E404A093E504B093E6041092DB040B
:10210000C093D9048EE08093DA0461E083E10E94F9
:10211000960860E08091DA040E94960828E9C22EB1
:102120002AE3D22EE12CF12CC092DC04D092DD0403
:10213000E092DE04F092DF041092D404C093D20443
:102140008FE08093D30461E083E10E94960860E011
:102150008091D3040E949608C092D504D092D604F0
:10216000E092D704F092D8041092CD04C093CB042F
:1021700080E18093CC0461E083E10E94960860E0F6
:102180008091CC040E949608C092CE04D092CF04D5
:10219000E092D004F092D10484EF91E0A0E0B0E0AE
:1021A0008093AB049093AC04A093AD04B093AE04C1
:1021B000EFE6F1E0A9EBB4E001900D92DA95E1F7DA
:1021C0001092C30482E08093C4041092C904109258
:1021D000CA04109289041092880480928A04909212
:1021E0008B04A0928C04B0928D048FE891E09093C0
:1021F00087048093860410929D0410929C04109290
:102200009F0410929E041092A1041092A0041092B8
:10221000A3041092A2046091A4046E7F6D7F60936A
:10222000A4046695617081E0682784E00E944A08F2
:1022300061E084E00E949608EDE0F1E0E491E09333
:102240009604E9EFF0E0E491F0E0EE0FFF1FEF51AC
:10225000FF4F85919491909398048093970460E048
:1022600087E00E9496088091A40481FD04C061E08B
:1022700087E00E944A0887E080939204E0E1F1E061
:10228000E491E0939304ECEFF0E0E491F0E0EE0FE2
:10229000FF1FE551FF4F8591949190939504809392
:1022A0009404DF91CF91FF90EF90DF90CF90BF909B
:1022B000AF909F908F900895052E97FB1EF4009489
:1022C0000E94731157FD07D00E947B1107FC03D0B9
:1022D0004EF40C94731150954095309521953F4FD5
:1022E0004F4F5F4F089590958095709561957F4F02
:1022F0008F4F9F4F0895A1E21A2EAA1BBB1BFD0111
:102300000DC0AA1FBB1FEE1FFF1FA217B307E407D4
:10231000F50720F0A21BB30BE40BF50B661F771F2C
:10232000881F991F1A9469F760957095809590950C
:102330009B01AC01BD01CF010895A29FB001B39FE5
:10234000C001A39F700D811D1124911DB29F700DBE
:10235000811D1124911D0895AA1BBB1B51E107C0CB
:10236000AA1FBB1FA617B70710F0A61BB70B881F25
:10237000991F5A95A9F780959095BC01CD010895B4
:1023800097FB072E16F4009407D077FD09D00E9422
:10239000AC1107FC05D03EF4909581959F4F0895B0
:1023A000709561957F4F0895EE0FFF1F0590F49192
:1023B000E02D09940E949D11B7FF0895821B930B95
:1023C000089581E090E0F8940C94E61110E0C0E9E3
:1023D000D0E004C0FE010E94D4112196C139D1077A
:0623E000C9F7F894FFCFDD
:1023E6000000003F90010000FFFFFFFFFF0000001C
:1023F600FF000000FFFFFF005050508D6E63FF5737
:1024060022FF6F00CDDC394CAF500096887E57C254
:10241600007D00007D417D7D007D41000041000082
:10242600417D00007D0000FFFF28FFFF0000962889
:10243600321400FFFF6414646464D76400D7A724D1
:102446007878783246FF00A0FF3C28827850287EB4
:10245600FF06000100000000EF00000000F901E0A7
:102466000091014002C201A001B4010000000085F4
:1024760002E00013038402D902F1026C0273657252
:1024860069616C20656E61626C656400656E6120D1
:102496006D75746500636F6C6F72206368670042C8
:1024A6006C696E6B696E6720696E697469617465C3
:1024B6006400496E697469616C2063616C6962725B
:1024C6006174650073746172742035732077616975
:1024D600743A00656E6420357320776169743A003A
:1024E60043616C6962726174656420776974683AE5
:1024F60000566F6C74616765204372697469636125
:102506006C2100566F6C7461676520746573746521
:1025160064007A313A200009207A323A20000920F4
:102526007A3174723F3A200009207A3274723F3A47
:1025360020000920092030000909000D0A00736FE8
:10254600667420726573657400656E746572696E73
:0E255600672063616C6962726174696F6E0068
:00000001FF
