:100000000C9435000C945D000C945D000C945D0024
:100010000C945D000C945D000C945D000C945D00EC
:100020000C945D000C945D000C945D000C945D00DC
:100030000C945D000C94CD020C945D000C945D005A
:100040000C942B020C945D000C949B020C94750292
:100050000C945D000C945D000C945D000C945D00AC
:100060000C945D000C945D004C0411241FBECFEF76
:10007000D8E0DEBFCDBF11E0A0E0B1E0E8E7F9E0F5
:1000800002C005900D92A233B107D9F721E0A2E397
:10009000B1E001C01D92AB3EB207E1F710E0C5E34D
:1000A000D0E004C02197FE010E94AF04C433D10701
:1000B000C9F70E94F4020C94BA040C9400003FB7F4
:1000C000F89480914A0190914B01A0914C01B0911C
:1000D0004D0126B5A89B05C02F3F19F00196A11D23
:1000E000B11D3FBFBA2FA92F982F8827820F911DCE
:1000F000A11DB11DBC01CD0142E0660F771F881F15
:10010000991F4A95D1F7089520913201309133011A
:100110002F5F3F4F309333012093320141E04093F2
:100120004401C90164E670E00E947904009711F46B
:1001300040933F0120FD03C021E020933E01892B25
:1001400019F481E080933D010895CF92DF92EF9200
:10015000FF920F931F93CF93DF936C017A018B0172
:10016000C0E0D0E0CE15DF0589F0D8016D918D019A
:10017000D601ED91FC910190F081E02DC601099529
:10018000892B11F47E0102C02196ECCFC701DF91CB
:10019000CF911F910F91FF90EF90DF90CF90089536
:1001A000089580E090E00895FC01538D448D252F43
:1001B00030E0842F90E0821B930B541710F0CF9601
:1001C000089501970895FC01918D828D981761F033
:1001D000828DDF01A80FB11D5D968C91928D9F5F7E
:1001E0009F73928F90E008958FEF9FEF0895FC0129
:1001F000918D828D981731F0828DE80FF11D858DDC
:1002000090E008958FEF9FEF0895FC01918D228D6E
:10021000892F90E0805C9F4F821B91098F739927F3
:1002200008958EE491E00E94050121E0892B09F4F4
:1002300020E0822F0895FC01848DDF01A80FB11DFD
:10024000A35ABF4F2C91848D90E001968F7399270C
:10025000848FA689B7892C93A089B1898C918064F9
:100260008C93938D848D981306C00288F389E02DBA
:1002700080818F7D80830895EF92FF920F931F936B
:10028000CF93DF93EC0181E0888F9B8D8C8D981349
:1002900005C0E889F989808185FD24C0F62E0B8D83
:1002A00010E00F5F1F4F0F731127E02E8C8DE812A7
:1002B0000CC00FB607FCFACFE889F989808185FF69
:1002C000F5CFCE010E941B01F1CF8B8DFE01E80F0F
:1002D000F11DE35AFF4FF0820B8FEA89FB89808181
:1002E000806207C0EE89FF896083E889F98980818F
:1002F0008064808381E090E0DF91CF911F910F9126
:10030000FF90EF900895CF93DF93EC01888D8823C1
:10031000C9F0EA89FB89808185FD05C0A889B98972
:100320008C9186FD0FC00FB607FCF5CF808185FF4D
:10033000F2CFA889B9898C9185FFEDCFCE010E94BB
:100340001B01E7CFDF91CF91089580E090E0892BEA
:1003500029F00E94110181110C940000089500976A
:1003600069F0FC0101900020E9F73197AF01481BCB
:10037000590BBC018EE491E00C94A50080E090E064
:1003800008958F929F92AF92BF920F931F93CF9336
:10039000DF93CDB7DEB7A1970FB6F894DEBF0FBEDF
:1003A000CDBF19A2423008F44AE08E010F5D1F4F05
:1003B000842E912CA12CB12CA50194010E948D04B6
:1003C000E62FB901CA0101501109EA3014F4E05DC9
:1003D00001C0E95CD801EC93232B242B252B61F77A
:1003E000C8010E94AF01A1960FB6F894DEBF0FBE00
:1003F000CDBFDF91CF911F910F91BF90AF909F9094
:100400008F900895CF92DF92EF92FF92CF93DF9378
:100410006B017C01E0914E01F0914F010190F08160
:10042000E02D6DE28EE491E00995EC0166277727D7
:10043000CB016C197D098E099F094AE00E94C10118
:100440008C0F9D1FDF91CF91FF90EF90DF90CF90A9
:1004500008950E94B5041F920F920FB60F921124B7
:100460002F933F938F939F93AF93BF9380914601B8
:1004700090914701A0914801B09149013091450107
:1004800023E0230F2D3720F40196A11DB11D05C0D7
:1004900026E8230F0296A11DB11D209345018093EC
:1004A000460190934701A0934801B0934901809180
:1004B0004A0190914B01A0914C01B0914D010196E0
:1004C000A11DB11D80934A0190934B01A0934C0153
:1004D000B0934D01BF91AF919F918F913F912F911B
:1004E0000F900FBE0F901F9018951F920F920FB68E
:1004F0000F9211242F933F934F935F936F937F93AA
:100500008F939F93AF93BF93EF93FF938EE491E00C
:100510000E941B01FF91EF91BF91AF919F918F912D
:100520007F916F915F914F913F912F910F900FBEEF
:100530000F901F9018951F920F920FB60F921124D3
:100540002F938F939F93EF93FF93E0915E01F09130
:100550005F018081E0916401F091650182FD12C02C
:100560009081809167018F5F8F732091680182175E
:1005700051F0E0916701F0E0E25BFE4F958F8093D0
:10058000670101C08081FF91EF919F918F912F9121
:100590000F900FBE0F901F9018951F920F920FB6DD
:1005A0000F9211242F933F934F935F936F937F93F9
:1005B0008F939F93AF93BF93EF93FF93E091340199
:1005C000F09135010995FF91EF91BF91AF919F9106
:1005D0008F917F916F915F914F913F912F910F90EC
:1005E0000FBE0F901F901895789484B5826084BDDB
:1005F00084B5816084BD85B5826085BD85B5816027
:1006000085BD80916E00816080936E0010928100A4
:10061000809181008260809381008091810081605F
:100620008093810080918000816080938000809120
:10063000B10084608093B1008091B00081608093AC
:10064000B00080917A00846080937A0080917A0073
:10065000826080937A0080917A00816080937A0032
:1006600080917A00806880937A001092C100E091B6
:100670005E01F0915F01C2E0C083E0915A01F09108
:100680005B011082E0915C01F0915D018FEC808351
:1006900010926601E0916201F091630186E080832F
:1006A000E0916001F0916101808180618083E0913F
:1006B0006001F0916101808188608083E091600138
:1006C000F0916101808180688083E0916001F09108
:1006D000610180818F7D808382E191E00E94AF0182
:1006E00081E291E00E94AF0180E18093810010924D
:1006F0008000C093380180E29EE49093370180939C
:100700003601909387008093860082E18093810078
:100710000E945F004B015C0184E6C82ED12CE12CC5
:10072000F12C0E945F00DC01CB0188199909AA090C
:10073000BB09883E9340A105B10558F021E0C21ADB
:10074000D108E108F10888EE880E83E0981EA11C0C
:10075000B11CC114D104E104F10419F784E890E05C
:10076000909335018093340181E080936F008091F4
:1007700044018823E9F01092440180914001909156
:100780004101A0914201B0914301809339019093BE
:100790003A01A0933B01B0933C010196A11DB11D0C
:1007A0008093400190934101A0934201B093430193
:1007B00080913F01882391F010923F018091400188
:1007C00090914101A0914201B09143018093390180
:1007D00090933A01A0933B01B0933C0180913E017C
:1007E000882391F010923E01809140019091410147
:1007F000A0914201B09143018093390190933A0155
:10080000A0933B01B0933C0180913D01882309F402
:1008100040C010923D018091400190914101A09112
:100820004201B09143018093390190933A01A09322
:100830003B01B0933C0184E291E00E94AF014AE0A9
:1008400061E070E080E090E00E94C1018CE291E004
:100850000E94AF014AE062E070E080E090E00E9418
:10086000C1018FE291E00E94AF016091400170915F
:100870004101809142019091430197FF03C00E9482
:10088000020203C04AE00E94C10181E291E00E949D
:10089000AF010E94A5016BCFEEE4F1E0138212825A
:1008A00088EE93E0A0E0B0E084839583A683B783CD
:1008B00084E091E09183808385EC90E09587848744
:1008C00084EC90E09787868780EC90E0918B808B1A
:1008D00081EC90E0938B828B82EC90E0958B848B03
:1008E00086EC90E0978B868B118E128E138E148E71
:1008F0000895AA1BBB1B51E107C0AA1FBB1FA61767
:10090000B70710F0A61BB70B881F991F5A95A9F7B8
:1009100080959095BC01CD010895A1E21A2EAA1BE5
:10092000BB1BFD010DC0AA1FBB1FEE1FFF1FA2179F
:10093000B307E407F50720F0A21BB30BE40BF50B9C
:10094000661F771F881F991F1A9469F76095709525
:10095000809590959B01AC01BD01CF010895EE0FEC
:10096000FF1F0590F491E02D099481E090E0F89448
:080970000C94BA04F894FFCFC7
:10097800000000003C01A500D40083010501E3004C
:10098800F70073657269616C20656E61626C6564FD
:10099800000D0A00506172616D7320000920000982
:0209A80000004D
:00000001FF
