:100000000C9492000C94BA000C94BA000C946C03FB
:100010000C946C030C946C030C94BA000C94BA000E
:100020000C94BA000C94BA000C94BA000C94BA0068
:100030000C94BA000C94E6030C94BA000C94BA0029
:100040000C94CA020C94BA000C943A030C94140356
:100050000C94BA000C94BA000C94BA000C94BA0038
:100060000C94BA000C94BA00A304A704AE049D0437
:10007000AE049F04AB04BB04AE04AE04AE04AE04F5
:10008000AE04AE04AE04AE04B204AE04AE04AE04DC
:10009000AE04AE046F6E6C696E652E00556E6162C3
:1000A0006C6520746F20636F6E6E65637400496EBB
:1000B000697469616C697A696E672C204446506C7A
:1000C000617965720000000000240027002A00000A
:1000D0000000080002010000030407000000000007
:1000E00000000000000000250028002B0000000098
:1000F000002300260029000404040404040404026C
:1001000002020202020303030303030102040810B4
:100110002040800102040810200102040810200081
:10012000F10BE70B11241FBECFEFD8E0DEBFCDBF30
:1001300012E0A0E0B1E0E4E9FAE102C005900D921E
:10014000AA30B107D9F723E0AAE0B2E001C01D92BE
:10015000A03AB207E1F710E0C1E9D0E004C021976E
:10016000FE010E94320DC039D107C9F70E94F50681
:100170000C943D0D0C94000020910A0230910B026A
:100180002F5F3F4F30930B0220930A0241E04093D0
:10019000B402C90164E670E00E940A0D009711F4F0
:1001A0004093AF0220FD03C021E02093AE02892BD3
:1001B00019F481E08093AD020895CF92DF92EF921F
:1001C000FF920F931F93CF93DF936C017A018B0102
:1001D000C0E0D0E0CE15DF0589F0D8016D918D012A
:1001E000D601ED91FC910190F081E02DC6010995B9
:1001F000892B11F47E0102C02196ECCFC701DF915B
:10020000CF911F910F91FF90EF90DF90CF900895C5
:10021000FC01538D448D252F30E0842F90E0821B0C
:10022000930B541710F0CF96089501970895FC0191
:10023000918D828D981761F0828DDF01A80FB11D1D
:100240005D968C91928D9F5F9F73928F90E0089541
:100250008FEF9FEF0895FC01918D828D981731F0FB
:10026000828DE80FF11D858D90E008958FEF9FEF4F
:100270000895FC01918D228D892F90E0805C9F4F25
:10028000821B91098F73992708958EEB92E00E944B
:10029000390121E0892B09F420E0822F0895FC0127
:1002A000848DDF01A80FB11DA35ABF4F2C91848DFF
:1002B00090E001968F739927848FA689B7892C9334
:1002C000A089B1898C9180648C93938D848D9813CF
:1002D00006C00288F389E02D80818F7D8083089598
:1002E000EF92FF920F931F93CF93DF93EC0181E086
:1002F000888F9B8D8C8D981305C0E889F989808142
:1003000085FD24C0F62E0B8D10E00F5F1F4F0F737D
:100310001127E02E8C8DE8120CC00FB607FCFACF27
:10032000E889F989808185FFF5CFCE010E944F01D0
:10033000F1CF8B8DFE01E80FF11DE35AFF4FF082E4
:100340000B8FEA89FB898081806207C0EE89FF8973
:100350006083E889F98980818064808381E090E00E
:10036000DF91CF911F910F91FF90EF900895CF9360
:10037000DF93EC01888D8823C9F0EA89FB898081AD
:1003800085FD05C0A889B9898C9186FD0FC00FB67F
:1003900007FCF5CF808185FFF2CFA889B9898C91C0
:1003A00085FFEDCFCE010E944F01E7CFDF91CF91C6
:1003B000089580E090E0892B29F00E944501811189
:1003C0000C940000089520914E0230914F0228179E
:1003D000390771F490914C0280914D02981741F0C9
:1003E000E0914C02F0E0E45FFD4F808190E00895E1
:1003F0008FEF9FEF089508951F93CF93DF93DC0154
:100400005C962D913C915D972115310539F481E081
:1004100090E013969C938E9312973DC05196ED9168
:10042000FC91529750969C915097892F80951FB7B9
:100430005E964C915E9741FB772770F941FD609580
:10044000F8944081772311F0492B01C04823408361
:10045000E9012197F1F748E0508160FF02C0592B74
:1004600001C058235083E9012197F1F76695415067
:1004700099F7772321F090818923808303C08081BD
:10048000982B90831FBF5C968D919C915D970197EF
:10049000F1F721E030E0C901DF91CF911F9108957C
:1004A00020914E0230914F022817390771F4809144
:1004B0004D0220914C0290E0805C9F4F821B91097D
:1004C00060E470E00E941E0D089580E090E00895C1
:1004D00020914E0230914F0228173907B9F49091BC
:1004E0004C0280914D02981789F0E0914C02F0E0A7
:1004F000E45FFD4F808120914C0230E02F5F3F4F41
:100500002F73332720934C0290E008958FEF9FEFD5
:100510000895E0914E02F0914F02E817F90769F44F
:10052000A389B4899C918589809589238C931092A5
:100530004F0210924E0281E0089580E008950895E0
:1005400080E090E008950E94380D3FB7F8948091C4
:10055000B6029091B702A091B802B091B90226B547
:10056000A89B05C02F3F19F00196A11DB11D3FBFEB
:10057000BA2FA92F982F8827820F911DA11DB11D79
:10058000BC01CD0142E0660F771F881F991F4A9575
:10059000D1F708951F920F920FB60F9211242F9347
:1005A0003F938F939F93AF93BF938091BA029091A3
:1005B000BB02A091BC02B091BD023091B50223E014
:1005C000230F2D3720F40196A11DB11D05C026E88B
:1005D000230F0296A11DB11D2093B5028093BA028C
:1005E0009093BB02A093BC02B093BD028091B6026F
:1005F0009091B702A091B802B091B9020196A11DE5
:10060000B11D8093B6029093B702A093B802B09345
:10061000B902BF91AF919F918F913F912F910F9010
:100620000FBE0F901F9018951F920F920FB60F924A
:1006300011242F933F934F935F936F937F938F93E7
:100640009F93AF93BF93EF93FF938EEB92E00E9443
:100650004F01FF91EF91BF91AF919F918F917F914A
:100660006F915F914F913F912F910F900FBE0F901F
:100670001F9018951F920F920FB60F9211242F936F
:100680008F939F93EF93FF93E091CE02F091CF026F
:100690008081E091D402F091D50282FD12C0908158
:1006A0008091D7028F5F8F732091D802821751F00B
:1006B000E091D702F0E0E254FD4F958F8093D7028E
:1006C00001C08081FF91EF919F918F912F910F90A9
:1006D0000FBE0F901F9018951F920F920FB60F929A
:1006E00011242F933F934F935F936F937F938F9337
:1006F0009F93AF93BF93EF93FF93E0914E02F091DE
:100700004F02309709F451C0968DA685B78585852F
:1007100091FF04C09C91892329F447C09C918923AF
:1007200009F043C0A389B4899C9185898095892368
:100730008C93868997890197F1F7608D718DA685D5
:10074000B785558538E020E0CB010197F1F7822F7E
:1007500090E095958795282F4C91452309F02068C6
:10076000315091F7868D81FD209580914D0290E06A
:1007700001968F73992730914C02381749F0A09158
:100780004D02B0E0A45FBD4F2C9380934D0203C097
:10079000868D8160868F828D938D0197F1F7A38975
:1007A000B4899C918589892B8C93FF91EF91BF919E
:1007B000AF919F918F917F916F915F914F913F91F9
:1007C0002F910F900FBE0F901F9018951F920F92B0
:1007D0000FB60F9211242F933F934F935F936F9314
:1007E0007F938F939F93AF93BF93EF93FF93E0918A
:1007F0005002F09151020995FF91EF91BF91AF9195
:100800009F918F917F916F915F914F913F912F9128
:100810000F900FBE0F901F901895CF93DF9380918C
:100820007A0390917B03DC01ED91FC910084F185CA
:10083000E02D0995892B09F4B7C0C09198038091E8
:100840007A0390917B03DC01ED91FC910284F385A6
:10085000E02DC1110DC00995809384038E37F9F600
:1008600010929E03809198038F5F80939803D7CF57
:100870000995EC2FF0E0E658FC4F828790919803A1
:100880009230A9F09930C9F0913009F089C0809177
:1008900085038F3F09F484C01092980390939A03C4
:1008A00010929D0310929C0390939E03B3C080917D
:1008B0008603863009F474C004C080918D038F3E96
:1008C00019F01092980364C0E5E8F3E040E050E0CE
:1008D0008191480F511DB3E0EB38FB07C9F7209118
:1008E0008B0330E0322F2227519541955109809199
:1008F0008C03280F311D109298034217530709F0FB
:1009000047C0E0918703E0939B038091890390E0C7
:10091000982F882720918A03820F911D90939D0321
:1009200080939C034E2F50E0FA01FA97E631F105CF
:10093000C8F4EC5CFF4F0C94320D85E00DC081FFD4
:100940001CC084E009C081FF18C082E005C081FF9F
:1009500014C083E001C086E080939A0381E0809315
:100960009E030BC081E080939A0310929D03109226
:100970009C0380939E0310929F03D0919E03DD23DE
:1009800009F44AC080919203882309F443C044C00B
:1009900081E080939A0310929D0310929C0338C0CB
:1009A0009F5F909398033BCF80919F03882321F111
:1009B0002FB7F8948091BA029091BB02A091BC022B
:1009C000B091BD022FBF40917C0350917D03609197
:1009D0007E0370917F03841B950BA60BB70B409190
:1009E0008003509181036091820370918303841787
:1009F0009507A607B70718F4D0919E030DC0109273
:100A0000980310929A0310929D0310929C0381E028
:100A100080939E0310929F038D2FDF91CF910895B5
:100A2000009769F0FC0101900020E9F73197AF01D0
:100A3000481B590BBC018EEB92E00C94DD0080E06A
:100A400090E00895CF93DF930E941005EC018AEFA8
:100A500091E00E9410058C0F9D1FDF91CF910895AA
:100A60008F929F92AF92BF920F931F93CF93DF937A
:100A7000CDB7DEB7A1970FB6F894DEBF0FBECDBFDE
:100A800019A2423008F44AE08E010F5D1F4F842EF8
:100A9000912CA12CB12CA50194010E94D90CE62F18
:100AA000B901CA0101501109EA3014F4E05D01C036
:100AB000E95CD801EC93232B242B252B61F7C8018B
:100AC0000E941005A1960FB6F894DEBF0FBECDBFF1
:100AD000DF91CF911F910F91BF90AF909F908F901A
:100AE0000895CF92DF92EF92FF92CF93DF936B0145
:100AF0007C01E091BE02F091BF020190F081E02DF7
:100B00006DE28EEB92E00995EC0166277727CB0129
:100B10006C197D098E099F094AE00E9430058C0FEF
:100B20009D1FDF91CF91FF90EF90DF90CF900895C0
:100B3000BC01990F880B990B97FD0C9471054AE045
:100B40000C9430050F931F93CF93DF938C01C0E07B
:100B5000D0E0F801EC0FFD1F6491662371F0E09185
:100B6000BE02F091BF020190F081E02D8EEB92E089
:100B70000995892B11F02196ECCF8AEF91E00E9424
:100B800010058C0F9D1FDF91CF911F910F9108953C
:100B900090E0FC01E153FF4F3491FC01E55FFE4F13
:100BA0002491FC01E950FF4FE491EE2309F43BC08E
:100BB000332339F1333091F038F43130A9F0323049
:100BC00001F584B58F7D12C0373091F03830A1F037
:100BD0003430B9F4809180008F7D03C08091800013
:100BE0008F77809380000DC084B58F7784BD09C056
:100BF0008091B0008F7703C08091B0008F7D80938B
:100C0000B000F0E0EE0FFF1FED51FF4FA591B49142
:100C10008FB7F894EC91611103C020952E2301C089
:100C20002E2B2C938FBF0895CF93DF9390E0FC0180
:100C3000E55FFE4F2491FC01E950FF4F849188232A
:100C400061F190E0880F991FFC01EB53FF4FC591B4
:100C5000D491FC01ED51FF4FA591B491611109C0F0
:100C60009FB7F8948881209582238883EC912E2366
:100C70000BC0623061F49FB7F8943881822F809561
:100C800083238883EC912E2B2C939FBF06C08FB7B4
:100C9000F894E8812E2B28838FBFDF91CF910895A0
:100CA0008E3008F08E508770806480937C00809135
:100CB0007A00806480937A0080917A0086FDFCCF70
:100CC000809178002091790090E0922B08958F9286
:100CD0009F92AF92BF92CF92DF92EF92FF926B0101
:100CE0007C010E94A5024B015C01C114D104E10406
:100CF000F104F1F00E94A502DC01CB0188199909E9
:100D0000AA09BB09883E9340A105B10570F321E013
:100D1000C21AD108E108F10888EE880E83E0981E17
:100D2000A11CB11CC114D104E104F10419F7DDCFF9
:100D3000FF90EF90DF90CF90BF90AF909F908F90FB
:100D40000895809391037093930360939403EFE865
:100D5000F3E080E090E02191820F911D23E0E539DE
:100D6000F207C9F791958195910990939503809326
:100D7000960380919203882339F080919F03882302
:100D800049F00E940D04F9CF6AE070E080E090E045
:100D90000E94670680917A0390917B03DC01ED91BC
:100DA000FC910280F381E02D4AE050E06EE873E0B0
:100DB00009952FB7F8948091BA029091BB02A09147
:100DC000BC02B091BD022FBF80937C0390937D0342
:100DD000A0937E03B0937F0381E0909192039111E1
:100DE00001C080E080939F030895789484B5826069
:100DF00084BD84B5816084BD85B5826085BD85B5BF
:100E0000816085BD80916E00816080936E0010923C
:100E100081008091810082608093810080918100B7
:100E20008160809381008091800081608093800048
:100E30008091B10084608093B1008091B0008160A6
:100E40008093B00080917A00846080937A008091D2
:100E50007A00826080937A0080917A00816080932A
:100E60007A0080917A00806880937A001092C100A5
:100E700061E083E00E94140661E085E00E941406B0
:100E800061E086E00E94140661E08DE00E94140695
:100E900061E08DE00E94C80581EA84BD81E085BDE6
:100EA00091E29093B0008093B100E091CE02F09176
:100EB000CF0282E08083E091CA02F091CB021082DF
:100EC000E091CC02F091CD028FEC80831092D6029B
:100ED000E091D202F091D30286E08083E091D002CB
:100EE000F091D102808180618083E091D002F09105
:100EF000D102808188608083E091D002F091D1029C
:100F0000808180688083E091D002F091D10280815D
:100F10008F7D80838EE691E00E94220510927603F9
:100F2000109275031092740310927303109272035F
:100F3000109271038DE991E0909378038093770389
:100F400090916703963108F057C02DEB30E0309355
:100F50007203209371032BE931E0309374032093E3
:100F600073032CE231E030937603209375032091D4
:100F70006800983050F031E09E3008F430E081E0B5
:100F800001C0880F3A95EAF701C084E0822B809374
:100F90006800983038F09E3040F0963148F020E0FC
:100FA00030E008C02DE630E005C02BE630E002C09E
:100FB0002CE630E030936F0320936E03983030F4CA
:100FC00081E001C0880F9A95EAF70EC0292F30E022
:100FD0009E3018F42850310902C02E50310981E0AA
:100FE00001C0880F2A95EAF78093700380917703F8
:100FF000909178030197F1F78091750390917603B2
:10100000892B21F180914E0290914F0223E08B3584
:101010009207E1F0009711F00E9489028091790314
:101020008E7F8093790310924D0210924C028BE5D3
:1010300093E090934F0280934E02E0916E03F09103
:101040006F03908180917003892B80838EEA90E0FA
:101050000E94A205C1E00BE513E0C0939203109338
:101060007B0300937A038091800390918103A09188
:101070008203B09183038854944FAF4FBF4F809346
:10108000800390938103A0938203B093830360E075
:1010900070E08CE00E94A106C0939F030E940D04A3
:1010A0008823E1F38091800390918103A0918203D2
:1010B000B0918303885B9B40A109B10980938003B1
:1010C00090938103A0938203B093830368EC70E054
:1010D00080E090E00E94670610929E0380919A0340
:1010E000843059F08CE990E00E94A20568EE73E02C
:1010F00080E090E00E946706B0CF68EB7BE080E084
:1011000090E00E94670660E08DE00E94C8058DEFC8
:1011100091E00E94220584E990E00E94A20561E02E
:1011200070E086E00E94A10680E180938100109229
:10113000800082E08093540280E29EE49093530208
:1011400080935202909387008093860082E180937F
:10115000810064E670E080E090E00E9467068CEB1E
:1011600090E0909351028093500281E080936F0051
:10117000C1E0C12CD12C7601CA94D3948091B402E1
:10118000882309F494C01092B40220915B0230913C
:10119000B400822F90E0831B91091816190614F0F1
:1011A0008FEF01C081E080935A028091B400281330
:1011B00002C010925A022091590238B5822F90E055
:1011C000831B91091816190614F08FEF01C081E0F6
:1011D0008093580288B5281302C0109258022091BB
:1011E000570237B5822F90E0831B91091816190614
:1011F00014F08FEF01C081E08093560287B5281369
:1012000002C01092560290915A02911108C080912A
:101210005802811104C080915602882381F0809188
:10122000B400890F8093B40098B580915802890F5B
:1012300088BD97B580915602890F87BD25C08091E2
:10124000A402882339F010925B0210925902109286
:1012500057021AC0E0915502E63010F4EF5F01C06A
:10126000E0E0E0935502F0E0CF01880F991FE80F0E
:10127000F91FEF5FFE4F808180935B028181809335
:1012800059028281809357028091B0029091B102FD
:10129000A091B202B091B3020196A11DB11D80933D
:1012A000B0029093B102A093B202B093B3028091C6
:1012B000AF02882309F4BAC01092AF0287E00E94FF
:1012C00050069C01909367028093660291E0293E4C
:1012D00033400CF490E09093650280916402911188
:1012E0000BC081111BC08091B0029091B10290930C
:1012F00063028093620212C0811110C08091B0021B
:101300009091B1029093610280936002C093640255
:10131000C093000187E791E00E9422058091650259
:1013200081110EC080910001882351F080916402E8
:10133000882331F0109200018FE791E00E9422058E
:101340008091650281112EC08091000181112AC017
:1013500080916402882331F180916202909163024E
:101360008C599F4F092E000CAA0BBB0B4091B00269
:101370005091B1026091B2027091B3028417950747
:10138000A607B7077CF483E991E00E94220560E09C
:1013900070E081E00E94A10660E08DE00E94C80537
:1013A0001092640280916502882309F43FC0809105
:1013B00000018823D9F1809164028823B9F18091DA
:1013C000B0029091B10290935F0280935E022091EF
:1013D000600230916102821B930B90935D028093B7
:1013E0005C028B3F910514F189EA91E00E9422058D
:1013F000109264028091B0029091B10290936302C6
:101400008093620261E08DE00E94C80560E070E0B8
:101410008CE00E94A10664E670E080E090E00E940B
:10142000670661E070E086E00E94A1068091AE024E
:10143000882309F4E1C01092AE0200919A02109143
:101440009B020730110519F00F5F1F4F02C000E02B
:1014500010E010939B0200939A0284E00E945006D1
:10146000000F111FF801E657FD4F9183808385E03F
:101470000E945006F801E658FD4F9183808383E077
:101480000E945006F801E659FD4F91838083109227
:10149000AC021092AB021092AA021092A902109212
:1014A000A8021092A702109269021092680280E0CE
:1014B00090E0FC01EE0FFF1FDF01A657BD4F2D91FD
:1014C0003C914091AB025091AC02240F351F3093F8
:1014D000AC022093AB02DF01A658BD4F2D913C9189
:1014E0004091A9025091AA02240F351F3093AA02FD
:1014F0002093A902E659FD4F208131814091A70236
:101500005091A802240F351F3093A8022093A70200
:1015100001968830910569F68091AB029091AC02FA
:1015200097FD079643E0959587954A95E1F7909347
:10153000AC028093AB028091A9029091AA0297FD20
:10154000079633E0959587953A95E1F79093AA022F
:101550008093A9028091A7029091A80297FD079617
:1015600023E0959587952A95E1F79093A8028093BB
:10157000A7022091AB023091AC024091A902509198
:10158000AA028091A7029091A802841795072CF4D3
:101590008091A9029091AA0204C08091A702909123
:1015A000A802821793072CF48091AB029091AC02B1
:1015B00014C02091A9023091AA028091A7029091B3
:1015C000A802821793072CF48091A9029091AA0295
:1015D00004C08091A7029091A8029093A1028093E9
:1015E000A0022091A0023091A10281E027343105B0
:1015F00008F480E08093A5028091AD02882309F46D
:10160000E3C01092AD022091A60230E08091A502C5
:1016100090E0281739077CF51092A4028091A2026D
:101620009091A302009799F08C509E4F092E000CC8
:10163000AA0BBB0B4091B0025091B1026091B20273
:101640007091B30284179507A607B70764F460E0AA
:101650008DE00E94C80561E070E081E10E94A10672
:101660008CEB91E006C060E08DE00E94C80588ED3B
:1016700091E00E9422058091A5028823D9F0209153
:10168000A0023091A102ADE0B0E00E94FB0CA701E6
:1016900096010E94BA0C2B5F3F4F30939F0220931C
:1016A0009E028091B0029091B1029093A302809328
:1016B000A2021DC08091A2029091A30286509F4F6A
:1016C000092E000CAA0BBB0B4091B0025091B10245
:1016D0006091B2027091B30284179507A607B7070D
:1016E00034F410929F0210929E02C093A402809143
:1016F0009C0290919D0260919E0270919F028617BC
:10170000970754F49C012D5F3F4F2617370784F449
:10171000BC016C5F7F4F0CC068177907ACF49C016B
:1017200023503109621773071CF4BC01645071091E
:1017300070939D0260939C02772786E00E94A10629
:1017400060E08DE00E94C80580919C0290919D020E
:10175000892B21F461E08DE00E94C8058091A502EB
:101760008093A6028091AB029091AC020E949805F2
:1017700085EF91E00E9410058091A9029091AA0244
:101780000E94980585EF91E00E9410058091A702C4
:101790009091A8020E94980588EF91E00E941005A0
:1017A0006091B0027091B1028091B2029091B30247
:1017B00097FF03C00E94710503C04AE00E943005F4
:1017C0008AEF91E00E9410050E94D901D7CC80E6F3
:1017D00091E090935C0380935B038BE593E00C9422
:1017E00089021092C1021092C00248EE53E060E0FC
:1017F00070E04093C2025093C3026093C40270939E
:10180000C5028EE491E09093BF028093BE0285EC06
:1018100090E09093CB028093CA0284EC90E0909386
:10182000CD028093CC0280EC90E09093CF02809325
:10183000CE0281EC90E09093D1028093D00282ECB2
:1018400090E09093D3028093D20286EC90E0909344
:10185000D5028093D4021092D7021092D80210922F
:10186000D9021092DA0284EF91E0A0E0B0E0809318
:10187000800390938103A0938203B09383038AE053
:10188000E0E4F1E0AEE8B3E001900D928A95E1F773
:101890001092980382E08093990310929E03109215
:1018A0009F0310925E0310925D0340935F03509379
:1018B0006003609361037093620380E691E090930C
:1018C0005C0380935B031092720310927103109279
:1018D00074031092730310927603109275031092A2
:1018E000780310927703609179036E7F6D7F609328
:1018F00079036695617081E068278BE00E94C805D6
:1019000061E08BE00E941406E6E1F1E0E491E093EF
:101910006B03E2E0F1E0E491F0E0EE0FFF1FED5128
:10192000FF4F8591949190936D0380936C0360E0D9
:101930008AE00E9414068091790381FD04C061E071
:101940008AE00E94C8058AE080936703E5E1F1E040
:10195000E491E0936803E1E0F1E0E491F0E0EE0F60
:10196000FF1FE351FF4F8591949190936A038093F9
:1019700069030895052E97FB1EF400940E94D10C74
:1019800057FD07D00E94D90C07FC03D04EF40C94ED
:10199000D10C50954095309521953F4F4F4F5F4F5B
:1019A000089590958095709561957F4F8F4F9F4FCB
:1019B0000895A1E21A2EAA1BBB1BFD010DC0AA1F90
:1019C000BB1FEE1FFF1FA217B307E407F50720F0A8
:1019D000A21BB30BE40BF50B661F771F881F991F23
:1019E0001A9469F760957095809590959B01AC016C
:1019F000BD01CF010895A29FB001B39FC001A39F75
:101A0000700D811D1124911DB29F700D811D112437
:101A1000911D0895AA1BBB1B51E107C0AA1FBB1F44
:101A2000A617B70710F0A61BB70B881F991F5A956A
:101A3000A9F780959095BC01CD01089597FB072EDD
:101A400016F4009407D077FD09D00E940A0D07FC18
:101A500005D03EF4909581959F4F089570956195BE
:101A60007F4F0895EE0FFF1F0590F491E02D09942C
:101A700081E090E0F8940C943D0D10E0C1E9D0E0D5
:101A800004C0FE010E94320D2196C239D107C9F768
:041A9000F894FFCFF8
:101A940001000000FFFFFFFF000000FF000000FF47
:101AA400FFFF005050508D6E63FF5722FF6F00CD33
:101AB400DC394CAF500096887E57C2FFFF00FFFF11
:101AC40000FAFF00FA7F00FA0000FA0000FF0000AD
:101AD4007EFF06000100000000EF0000000070011E
:101AE400DD000801B701390117012B0100000000D6
:101AF400FC01DD00A002FB0150026802E301656EF7
:101B040061206D7574650070757368656421007279
:101B1400656C6561736564206166746572207075B7
:101B240073680074696D656F75742061667465729D
:101B34002072656C6561736500357320636F6E7424
:101B4400696E756F757320707573680074696D655F
:101B54006F7574626F6C20656C6F726F6C206C654E
:101B64006A6174737A6F6B0073696D616E20666F5E
:101B74006C797461746F6D2061206C656A61747333
:101B84007A6173740009200009000D0A0064697306
:0A1B940061626C65206D75746500D8
:00000001FF
