:100000000C9492000C94BA000C94BA000C947603F1
:100010000C9476030C9476030C94BA000C94BA00FA
:100020000C94BA000C94BA000C94BA000C94BA0068
:100030000C94BA000C94F0030C94BA000C94BA001F
:100040000C94D4020C94BA000C9444030C941E0338
:100050000C94BA000C94BA000C94BA000C94BA0038
:100060000C94BA000C94BA00CD04D104D804C7048F
:10007000D804C904D504E504D804D804D804D804A5
:10008000D804D804D804D804DC04D804D804D8048C
:10009000D804D8046F6E6C696E652E00556E61626F
:1000A0006C6520746F20636F6E6E65637400496EBB
:1000B000697469616C697A696E672C204446506C7A
:1000C000617965720000000000240027002A00000A
:1000D0000000080002010000030407000000000007
:1000E00000000000000000250028002B0000000098
:1000F000002300260029000404040404040404026C
:1001000002020202020303030303030102040810B4
:100110002040800102040810200102040810200081
:10012000A10B970B11241FBECFEFD8E0DEBFCDBFD0
:1001300011E0A0E0B1E0E4EFF9E102C005900D921A
:10014000A83FB107D9F723E0A8EFB1E001C01D92A5
:10015000AA38B207E1F710E0C1E9D0E004C0219766
:10016000FE010E94E20CC039D107C9F70E94FF06C8
:100170000C94ED0C0C9400002091F8013091F901E1
:100180002F5F3F4F3093F9012093F80141E04093F6
:100190009E02C90165E070E00E94BA0C892B11F43F
:1001A00040939902C90164E170E00E94BA0C892B66
:1001B00019F481E080939802C90164E670E00E941E
:1001C000BA0C892B19F481E0809397020895CF929D
:1001D000DF92EF92FF920F931F93CF93DF936C0107
:1001E0007A018B01C0E0D0E0CE15DF0589F0D8019F
:1001F0006D918D01D601ED91FC910190F081E02D82
:10020000C6010995892B11F47E0102C02196ECCF1D
:10021000C701DF91CF911F910F91FF90EF90DF9079
:10022000CF900895FC01538D448D252F30E0842F0D
:1002300090E0821B930B541710F0CF96089501970E
:100240000895FC01918D828D981761F0828DDF01F8
:10025000A80FB11D5D968C91928D9F5F9F73928FB9
:1002600090E008958FEF9FEF0895FC01918D828DAE
:10027000981731F0828DE80FF11D858D90E008957B
:100280008FEF9FEF0895FC01918D228D892F90E0D3
:10029000805C9F4F821B91098F739927089588EA8C
:1002A00092E00E94430121E0892B09F420E0822F93
:1002B0000895FC01848DDF01A80FB11DA35ABF4F23
:1002C0002C91848D90E001968F739927848FA68955
:1002D000B7892C93A089B1898C9180648C93938D7C
:1002E000848D981306C00288F389E02D80818F7D6C
:1002F00080830895EF92FF920F931F93CF93DF9324
:10030000EC0181E0888F9B8D8C8D981305C0E88966
:10031000F989808185FD24C0F62E0B8D10E00F5FDA
:100320001F4F0F731127E02E8C8DE8120CC00FB6F3
:1003300007FCFACFE889F989808185FFF5CFCE01E6
:100340000E945901F1CF8B8DFE01E80FF11DE35A98
:10035000FF4FF0820B8FEA89FB898081806207C0A2
:10036000EE89FF896083E889F989808180648083D0
:1003700081E090E0DF91CF911F910F91FF90EF907E
:100380000895CF93DF93EC01888D8823C9F0EA8923
:10039000FB89808185FD05C0A889B9898C9186FD7E
:1003A0000FC00FB607FCF5CF808185FFF2CFA8897B
:1003B000B9898C9185FFEDCFCE010E945901E7CF1D
:1003C000DF91CF91089580E090E0892B29F00E9481
:1003D0004F0181110C940000089520913C0230914E
:1003E0003D022817390771F490913A0280913B023F
:1003F000981741F0E0913A02F0E0E650FE4F80811C
:1004000090E008958FEF9FEF089508951F93CF9385
:10041000DF93DC015C962D913C915D9721153105B0
:1004200039F481E090E013969C938E9312973DC02F
:100430005196ED91FC91529750969C915097892F2F
:1004400080951FB75E964C915E9741FB772770F9B8
:1004500041FD6095F8944081772311F0492B01C04C
:1004600048234083E9012197F1F748E0508160FF7C
:1004700002C0592B01C058235083E9012197F1F79D
:100480006695415099F7772321F0908189238083E5
:1004900003C08081982B90831FBF5C968D919C91A7
:1004A0005D970197F1F721E030E0C901DF91CF912D
:1004B0001F91089520913C0230913D022817390781
:1004C00071F480913B0220913A0290E0805C9F4F52
:1004D000821B910960E470E00E94CE0C089580E0D8
:1004E00090E0089520913C0230913D022817390791
:1004F000B9F490913A0280913B02981789F0E0910B
:100500003A02F0E0E650FE4F808120913A0230E05E
:100510002F5F3F4F2F73332720933A0290E00895C7
:100520008FEF9FEF0895E0913C02F0913D02E817B4
:10053000F90769F4A389B4899C91858980958923F9
:100540008C9310923D0210923C0281E0089580E06D
:100550000895089580E090E008950E94E80C3FB768
:10056000F8948091A0029091A102A091A202B09172
:10057000A30226B5A89B05C02F3F19F00196A11D27
:10058000B11D3FBFBA2FA92F982F8827820F911D29
:10059000A11DB11DBC01CD0142E0660F771F881F70
:1005A000991F4A95D1F708951F920F920FB60F9297
:1005B00011242F933F938F939F93AF93BF93809179
:1005C000A4029091A502A091A602B091A702309139
:1005D0009F0223E0230F2D3720F40196A11DB11DAA
:1005E00005C026E8230F0296A11DB11D20939F028E
:1005F0008093A4029093A502A093A602B093A702B1
:100600008091A0029091A102A091A202B091A302B8
:100610000196A11DB11D8093A0029093A102A09309
:10062000A202B093A302BF91AF919F918F913F918E
:100630002F910F900FBE0F901F9018951F920F9241
:100640000FB60F9211242F933F934F935F936F93A5
:100650007F938F939F93AF93BF93EF93FF9388EA1A
:1006600092E00E945901FF91EF91BF91AF919F914C
:100670008F917F916F915F914F913F912F910F904B
:100680000FBE0F901F9018951F920F920FB60F92EA
:1006900011242F938F939F93EF93FF93E091B802D0
:1006A000F091B9028081E091BE02F091BF0282FD1B
:1006B00012C090818091C1028F5F8F732091C2021E
:1006C000821751F0E091C102F0E0E855FD4F958F9F
:1006D0008093C10201C08081FF91EF919F918F9122
:1006E0002F910F900FBE0F901F9018951F920F9291
:1006F0000FB60F9211242F933F934F935F936F93F5
:100700007F938F939F93AF93BF93EF93FF93E0916A
:100710003C02F0913D02309709F451C0968DA685B8
:10072000B785858591FF04C09C91892329F447C032
:100730009C91892309F043C0A389B4899C91858940
:10074000809589238C93868997890197F1F7608D2D
:10075000718DA685B785558538E020E0CB010197DE
:10076000F1F7822F90E095958795282F4C9145239E
:1007700009F02068315091F7868D81FD2095809198
:100780003B0290E001968F73992730913A02381717
:1007900049F0A0913B02B0E0A650BE4F2C9380934D
:1007A0003B0203C0868D8160868F828D938D019779
:1007B000F1F7A389B4899C918589892B8C93FF914A
:1007C000EF91BF91AF919F918F917F916F915F91C9
:1007D0004F913F912F910F900FBE0F901F90189542
:1007E0001F920F920FB60F9211242F933F934F93A6
:1007F0005F936F937F938F939F93AF93BF93EF9389
:10080000FF93E0913E02F0913F020995FF91EF9135
:10081000BF91AF919F918F917F916F915F914F9118
:100820003F912F910F900FBE0F901F90189500973A
:1008300069F0FC0101900020E9F73197AF01481BF6
:10084000590BBC0188EA92E00C94E70080E090E04C
:100850000895CF93DF930E941704EC0187EE91E097
:100860000E9417048C0F9D1FDF91CF910895CF93A5
:10087000DF938091640390916503DC01ED91FC911D
:100880000084F185E02D0995892B09F4B7C0C0914A
:1008900082038091640390916503DC01ED91FC91EA
:1008A0000284F385E02DC1110DC0099580936E037C
:1008B0008E37F9F610928803809182038F5F8093C0
:1008C0008203D7CF0995EC2FF0E0EC59FC4F8287DB
:1008D000909182039230A9F09930C9F0913009F0DB
:1008E00089C080916F038F3F09F484C01092820306
:1008F0009093840310928703109286039093880349
:10090000B3C080917003863009F474C004C0809134
:1009100077038F3E19F01092820364C0EFE6F3E094
:1009200040E050E08191480F511DB3E0E537FB07EF
:10093000C9F72091750330E0322F22275195419558
:10094000510980917603280F311D109282034217BE
:10095000530709F047C0E0917103E093850380914C
:10096000730390E0982F882720917403820F911DC4
:1009700090938703809386034E2F50E0FA01FA97F5
:10098000E631F105C8F4EC5CFF4F0C94E20C85E015
:100990000DC081FF1CC084E009C081FF18C082E047
:1009A00005C081FF14C083E001C086E0809384030A
:1009B00081E0809388030BC081E0809384031092D0
:1009C0008703109286038093880310928903D09145
:1009D0008803DD2309F44AC080917C03882309F44D
:1009E00043C044C081E08093840310928703109237
:1009F000860338C09F5F909382033BCF8091890329
:100A0000882321F12FB7F8948091A4029091A50238
:100A1000A091A602B091A7022FBF4091660350910A
:100A200067036091680370916903841B950BA60BA3
:100A3000B70B40916A0350916B0360916C03709106
:100A40006D0384179507A607B70718F4D09188039C
:100A50000DC01092820310928403109287031092AB
:100A6000860381E080938803109289038D2FDF91A4
:100A7000CF9108958F929F92AF92BF920F931F9341
:100A8000CF93DF93CDB7DEB7A1970FB6F894DEBF53
:100A90000FBECDBF19A2423008F44AE08E010F5DAF
:100AA0001F4F842E912CA12CB12CA50194010E94E2
:100AB000890CE62FB901CA0101501109EA3014F47A
:100AC000E05D01C0E95CD801EC93232B242B252B9E
:100AD00061F7C8010E941704A1960FB6F894DEBF13
:100AE0000FBECDBFDF91CF911F910F91BF90AF90FF
:100AF0009F908F900895CF92DF92EF92FF92CF93C5
:100B0000DF936B017C01E091A802F091A9020190B2
:100B1000F081E02D6DE288EA92E00995EC0166270C
:100B20007727CB016C197D098E099F094AE00E9445
:100B30003A058C0F9D1FDF91CF91FF90EF90DF90D2
:100B4000CF900895BC01990F880B990B97FD0C94D9
:100B50007B054AE00C943A050F931F93CF93DF93E4
:100B60008C01C0E0D0E0F801EC0FFD1F649166231A
:100B700071F0E091A802F091A9020190F081E02DBE
:100B800088EA92E00995892B11F02196ECCF87EE47
:100B900091E00E9417048C0F9D1FDF91CF911F9150
:100BA0000F91089590E0FC01E153FF4F3491FC0157
:100BB000E55FFE4F2491FC01E950FF4FE491EE23E5
:100BC00009F43BC0332339F1333091F038F431303C
:100BD000A9F0323001F584B58F7D12C0373091F025
:100BE0003830A1F03430B9F4809180008F7D03C09B
:100BF000809180008F77809380000DC084B58F77BF
:100C000084BD09C08091B0008F7703C08091B0008F
:100C10008F7D8093B000F0E0EE0FFF1FED51FF4F8E
:100C2000A591B4918FB7F894EC91611103C0209510
:100C30002E2301C02E2B2C938FBF0895CF93DF93CB
:100C400090E0FC01E55FFE4F2491FC01E950FF4F6D
:100C50008491882361F190E0880F991FFC01EB5388
:100C6000FF4FC591D491FC01ED51FF4FA591B49177
:100C7000611109C09FB7F8948881209582238883E9
:100C8000EC912E230BC0623061F49FB7F894388149
:100C9000822F809583238883EC912E2B2C939FBFEA
:100CA00006C08FB7F894E8812E2B28838FBFDF9181
:100CB000CF9108958E3008F08E50877080648093B5
:100CC0007C0080917A00806480937A0080917A0021
:100CD00086FDFCCF809178002091790090E0922BE6
:100CE00008958F929F92AF92BF92CF92DF92EF9230
:100CF000FF926B017C010E94AF024B015C01C114A9
:100D0000D104E104F104F1F00E94AF02DC01CB0157
:100D100088199909AA09BB09883E9340A105B10524
:100D200070F321E0C21AD108E108F10888EE880EBC
:100D300083E0981EA11CB11CC114D104E104F1048C
:100D400019F7DDCFFF90EF90DF90CF90BF90AF907D
:100D50009F908F90089580937B0370937D036093A1
:100D60007E03E9E7F3E080E090E02191820F911D9E
:100D700023E0EF37F207C9F7919581959109909398
:100D80007F038093800380917C03882339F08091D6
:100D90008903882349F00E943704F9CF6AE070E0A4
:100DA00080E090E00E947106809164039091650359
:100DB000DC01ED91FC910280F381E02D4AE050E0EE
:100DC00068E773E009952FB7F8948091A402909199
:100DD000A502A091A602B091A7022FBF809366033F
:100DE00090936703A0936803B093690381E09091A7
:100DF0007C03911101C080E0809389030895789469
:100E000084B5826084BD84B5816084BD85B582600F
:100E100085BD85B5816085BD80916E0081608093C0
:100E20006E00109281008091810082608093810029
:100E30008091810081608093810080918000816039
:100E4000809380008091B10084608093B100809194
:100E5000B00081608093B00080917A0084608093BC
:100E60007A0080917A00826080937A0080917A0083
:100E7000816080937A0080917A00806880937A0004
:100E80001092C10061E083E00E941E0661E085E0EF
:100E90000E941E0661E086E00E941E0661E08DE071
:100EA0000E941E0661E08DE00E94D20581EA84BDA9
:100EB00081E085BD91E29093B0008093B100E09114
:100EC000B802F091B90282E08083E091B402F0911F
:100ED000B5021082E091B602F091B7028FEC8083E8
:100EE0001092C002E091BC02F091BD0286E08083C6
:100EF000E091BA02F091BB02808180618083E09131
:100F0000BA02F091BB02808188608083E091BA02CE
:100F1000F091BB02808180688083E091BA02F091F9
:100F2000BB0280818F7D80838EE691E00E94290440
:100F30001092600310925F0310925E0310925D03A3
:100F400010925C0310925B038DE991E09093620331
:100F50008093610390915103963108F057C02DEBB7
:100F600030E030935C0320935B032BE931E0309356
:100F70005E0320935D032CE231E030936003209305
:100F80005F0320916800983050F031E09E3008F403
:100F900030E081E001C0880F3A95EAF701C084E0B3
:100FA000822B80936800983038F09E3040F0963164
:100FB00048F020E030E008C02DE630E005C02BE628
:100FC00030E002C02CE630E0309359032093580300
:100FD000983030F481E001C0880F9A95EAF70EC08E
:100FE000292F30E09E3018F42850310902C02E50CD
:100FF000310981E001C0880F2A95EAF780935A03EE
:1010000080916103909162030197F1F780915F03F2
:1010100090916003892B21F180913C0290913D02D7
:1010200023E085349207E1F0009711F00E949302CB
:10103000809163038E7F8093630310923B02109232
:101040003A0285E493E090933D0280933C02E09164
:101050005803F0915903908180915A03892B808322
:101060008EEA90E00E94AC05C1E005E413E0C09375
:101070007C03109365030093640380916A0390914D
:101080006B03A0916C03B0916D038854944FAF4FE4
:10109000BF4F80936A0390936B03A0936C03B0934C
:1010A0006D0360E070E08CE00E94AB06C0938903A2
:1010B0000E9437048823E1F380916A0390916B03C7
:1010C000A0916C03B0916D03885B9B40A109B109AD
:1010D00080936A0390936B03A0936C03B0936D03AA
:1010E00068EC70E080E090E00E9471061092880346
:1010F00080918403843059F08CE990E00E94AC0523
:1011000068EE73E080E090E00E947106B0CF68EB7B
:101110007BE080E090E00E94710660E08DE00E943C
:10112000D2058AEE91E00E94290484E990E00E94B1
:10113000AC0561E070E086E00E94AB0680E1809340
:1011400081001092800082E08093420280E29EE45F
:101150009093410280934002909387008093860091
:1011600082E18093810064E670E080E090E00E947C
:1011700071068CEB90E090933F0280933E0281E0F9
:1011800080936F00C1E0C12CD12C7601CA94D39416
:1011900080919E02882309F494C010929E022091AF
:1011A00049023091B400822F90E0831B91091816F8
:1011B000190614F08FEF01C081E0809348028091FE
:1011C000B400281302C0109248022091470238B59B
:1011D000822F90E0831B91091816190614F08FEFE7
:1011E00001C081E08093460288B5281302C01092A6
:1011F00046022091450237B5822F90E0831B91096A
:101200001816190614F08FEF01C081E08093440294
:1012100087B5281302C010924402909148029111A0
:1012200008C080914602811104C080914402882345
:1012300081F08091B400890F8093B40098B58091BB
:101240004602890F88BD97B580914402890F87BDFA
:1012500025C080918E02882339F0109249021092A5
:101260004702109245021AC0E0914302E63010F4A2
:10127000EF5F01C0E0E0E0934302F0E0CF01880FB0
:10128000991FE80FF91FEF5FFE4F8081809349029D
:1012900081818093470282818093450280919A02E6
:1012A00090919B02A0919C02B0919D020196A11D7C
:1012B000B11D80939A0290939B02A0939C02B093DD
:1012C0009D0280919902882309F46DC010929902C1
:1012D00087E00E945A069C0190935102809350022D
:1012E00091E0293E33400CF490E090934F028091BE
:1012F0004E0291110BC081111BC080919A029091F6
:101300009B0290934D0280934C0212C0811110C039
:1013100080919A0290919B0290934B0280934A0293
:10132000C0934E02C093000187E791E00E94290418
:1013300080914F0281110EC080910001882351F0ED
:1013400080914E02882331F0109200018FE791E0E6
:101350000E94290480914F02811125C080910001D3
:10136000811121C080914E028823E9F080914C02C6
:1013700090914D028C599F4F092E000CAA0BBB0B6C
:1013800040919A0250919B0260919C0270919D0243
:1013900084179507A607B70734F483E991E00E9404
:1013A000290410924E0280919802882309F4E1C02A
:1013B0001092980200918402109185020730110565
:1013C00019F00F5F1F4F02C000E010E0109385027C
:1013D0000093840284E00E945A06000F111FF80156
:1013E000EC58FD4F9183808385E00E945A06F801F6
:1013F000EC59FD4F9183808383E00E945A06F801E7
:10140000EC5AFD4F918380831092960210929502C0
:1014100010929402109293021092920210929102F2
:10142000109253021092520280E090E0FC01EE0F05
:10143000FF1FDF01AC58BD4F2D913C9140919502AB
:1014400050919602240F351F3093960220939502F7
:10145000DF01AC59BD4F2D913C91409193025091C9
:101460009402240F351F3093940220939302EC5A78
:10147000FD4F208131814091910250919202240FC1
:10148000351F309392022093910201968830910586
:1014900069F6809195029091960297FD079643E038
:1014A000959587954A95E1F79093960280939502DA
:1014B000809193029091940297FD079633E0959561
:1014C00087953A95E1F790939402809393028091E7
:1014D00091029091920297FD079623E0959587954A
:1014E0002A95E1F7909392028093910220919502C0
:1014F0003091960240919302509194028091910212
:1015000090919202841795072CF480919302909108
:10151000940204C0809191029091920282179307E5
:101520002CF4809195029091960214C02091930220
:1015300030919402809191029091920282179307C8
:101540002CF4809193029091940204C080919102B6
:101550009091920290938B0280938A0220918A024A
:1015600030918B0281E02135310508F480E08093D1
:101570008F0280919702882309F4D6C010929702B7
:1015800020918F028091900290E0422F50E08417CA
:1015900095078CF560E08DE00E94D20510928E02D6
:1015A00080918C0290918D028053984F092E000CEF
:1015B000AA0BBB0B40919A0250919B0260919C0236
:1015C00070919D0284179507A607B70754F461E050
:1015D00070E081E10E94AB0689EA91E00E94290453
:1015E00044C060E070E08DE00E94AB0685EC91E0C5
:1015F0000E9417043AC02223D9F020918A02309128
:101600008B02AAE0B0E00E94AB0CA70196010E94F9
:101610006A0C2B5F3F4F30938902209388028091A0
:101620009A0290919B0290938D0280938C021DC030
:1016300080918C0290918D02845D9E4F092E000C4A
:10164000AA0BBB0B40919A0250919B0260919C02A5
:1016500070919D0284179507A607B70734F410927E
:10166000890210928802C0938E0280918602909126
:10167000870260918802709189028617970754F457
:101680009C012D5F3F4F2617370784F4BC016C5F28
:101690007F4F0CC0681779078CF49C0123503109E7
:1016A000621773071CF4BC016450710970938702C0
:1016B00060938602772786E00E94AB0680918F02B6
:1016C0008093900280919502909196020E94A205CB
:1016D00082EE91E00E94170480919302909194020F
:1016E0000E94A20582EE91E00E941704809191026F
:1016F000909192020E94A20585EE91E00E9417044B
:1017000060919A0270919B0280919C0290919D023F
:1017100097FF03C00E947B0503C04AE00E943A0580
:1017200087EE91E00E9417040E94E30131CD80E62C
:1017300091E0909346038093450385E493E00C94F5
:1017400093021092AB021092AA0248EE53E060E0BE
:1017500070E04093AC025093AD026093AE02709380
:10176000AF028EE491E09093A9028093A80285ECE9
:1017700090E09093B5028093B40284EC90E0909353
:10178000B7028093B60280EC90E09093B902809308
:10179000B80281EC90E09093BB028093BA0282EC95
:1017A00090E09093BD028093BC0286EC90E0909311
:1017B000BF028093BE021092C1021092C202109228
:1017C000C3021092C40284EF91E0A0E0B0E08093E5
:1017D0006A0390936B03A0936C03B0936D038AE04C
:1017E000E0E4F1E0A8E7B3E001900D928A95E1F71B
:1017F0001092820382E080938303109288031092F8
:101800008903109248031092470340934903509371
:101810004A0360934B0370934C0380E691E09093EE
:1018200046038093450310925C0310925B03109271
:101830005E0310925D031092600310925F0310929A
:10184000620310926103609163036E7F6D7F60930A
:1018500063036695617081E068278BE00E94D20582
:1018600061E08BE00E941E06E6E1F1E0E491E09386
:101870005503E2E0F1E0E491F0E0EE0FFF1FED51DF
:10188000FF4F85919491909357038093560360E0A6
:101890008AE00E941E068091630381FD04C061E01E
:1018A0008AE00E94D2058AE080935103E5E1F1E0ED
:1018B000E491E0935203E1E0F1E0E491F0E0EE0F17
:1018C000FF1FE351FF4F85919491909354038093B0
:1018D00053030895052E97FB1EF400940E94810C7B
:1018E00057FD07D00E94890C07FC03D04EF40C94DE
:1018F000810C50954095309521953F4F4F4F5F4F4C
:10190000089590958095709561957F4F8F4F9F4F6B
:101910000895A1E21A2EAA1BBB1BFD010DC0AA1F30
:10192000BB1FEE1FFF1FA217B307E407F50720F048
:10193000A21BB30BE40BF50B661F771F881F991FC3
:101940001A9469F760957095809590959B01AC010C
:10195000BD01CF010895A29FB001B39FC001A39F15
:10196000700D811D1124911DB29F700D811D1124D8
:10197000911D0895AA1BBB1B51E107C0AA1FBB1FE5
:10198000A617B70710F0A61BB70B881F991F5A950B
:10199000A9F780959095BC01CD01089597FB072E7E
:1019A00016F4009407D077FD09D00E94BA0C07FC0A
:1019B00005D03EF4909581959F4F0895709561955F
:1019C0007F4F0895EE0FFF1F0590F491E02D0994CD
:1019D00081E090E0F8940C94ED0C10E0C1E9D0E0C7
:1019E00004C0FE010E94E20C2196C239D107C9F75A
:0419F000F894FFCF99
:1019F40001000000FFFFFFFF000000FF000000FFE8
:101A0400FFFF005050508D6E63FF5722FF6F00CDD3
:101A1400DC394CAF500096887E57C2FFFF00FFFFB1
:101A240000FAFF00FA7F00FA0000FA0000FF00004D
:101A34007EFF06000100000000EF000000007A01B4
:101A4400E7001201C101430121013501000000003A
:101A54000602E700AA0205025A027202ED01656E4F
:101A640061206D757465007075736865642100721A
:101A7400656C656173656420616674657220707558
:101A840073680074696D656F75742061667465723E
:101A94002072656C656173650074696D656F75743A
:101AA400626F6C20656C6F726F6C206C656A617418
:101AB400737A6F6B0073696D616E20666F6C7A74F4
:101AC40061746F6D2061206C656A6174737A6173EF
:101AD400740009200009000D0A0064697361626CD6
:081AE40065206D7574650000BA
:00000001FF
